{"abi":[{"inputs":[{"internalType":"uint256","name":"_minimumContribution","type":"uint256"},{"internalType":"address","name":"_manager","type":"address"}],"stateMutability":"nonpayable","type":"constructor"},{"inputs":[{"internalType":"uint256","name":"index","type":"uint256"}],"name":"approveRequest","outputs":[],"stateMutability":"nonpayable","type":"function"},{"inputs":[],"name":"contribute","outputs":[],"stateMutability":"payable","type":"function"},{"inputs":[{"internalType":"address","name":"","type":"address"}],"name":"contributors","outputs":[{"internalType":"bool","name":"","type":"bool"}],"stateMutability":"view","type":"function"},{"inputs":[],"name":"contributorsCount","outputs":[{"internalType":"uint256","name":"","type":"uint256"}],"stateMutability":"view","type":"function"},{"inputs":[{"internalType":"string","name":"_description","type":"string"},{"internalType":"uint256","name":"_value","type":"uint256"},{"internalType":"address payable","name":"_recipient","type":"address"},{"internalType":"uint256","name":"_approvalTolerance","type":"uint256"}],"name":"createRequest","outputs":[],"stateMutability":"nonpayable","type":"function"},{"inputs":[{"internalType":"uint256","name":"index","type":"uint256"}],"name":"finalizeRequest","outputs":[],"stateMutability":"nonpayable","type":"function"},{"inputs":[],"name":"manager","outputs":[{"internalType":"address","name":"","type":"address"}],"stateMutability":"view","type":"function"},{"inputs":[],"name":"minimumContribution","outputs":[{"internalType":"uint256","name":"","type":"uint256"}],"stateMutability":"view","type":"function"},{"inputs":[{"internalType":"uint256","name":"","type":"uint256"}],"name":"requests","outputs":[{"internalType":"string","name":"description","type":"string"},{"internalType":"uint256","name":"value","type":"uint256"},{"internalType":"address payable","name":"recipient","type":"address"},{"internalType":"uint256","name":"approvalTolerance","type":"uint256"},{"internalType":"bool","name":"complete","type":"bool"},{"internalType":"uint256","name":"approvalCount","type":"uint256"}],"stateMutability":"view","type":"function"}],"devdoc":{"kind":"dev","methods":{},"version":1},"evm":{"assembly":"    /* \"Campaign.sol\":448:2760  contract Campaign {... */\n  mstore(0x40, 0x80)\n    /* \"Campaign.sol\":1142:1286  constructor(uint _minimumContribution, address _manager) {... */\n  callvalue\n  dup1\n  iszero\n  tag_1\n  jumpi\n  0x00\n  dup1\n  revert\ntag_1:\n  pop\n  mload(0x40)\n  sub(codesize, bytecodeSize)\n  dup1\n  bytecodeSize\n  dup4\n  codecopy\n  dup2\n  dup2\n  add\n  0x40\n  mstore\n  dup2\n  add\n  swap1\n  tag_2\n  swap2\n  swap1\n  tag_3\n  jump\t// in\ntag_2:\n    /* \"Campaign.sol\":1231:1251  _minimumContribution */\n  dup2\n    /* \"Campaign.sol\":1209:1228  minimumContribution */\n  0x02\n    /* \"Campaign.sol\":1209:1251  minimumContribution = _minimumContribution */\n  dup2\n  swap1\n  sstore\n  pop\n    /* \"Campaign.sol\":1271:1279  _manager */\n  dup1\n    /* \"Campaign.sol\":1261:1268  manager */\n  0x01\n  0x00\n    /* \"Campaign.sol\":1261:1279  manager = _manager */\n  0x0100\n  exp\n  dup2\n  sload\n  dup2\n  0xffffffffffffffffffffffffffffffffffffffff\n  mul\n  not\n  and\n  swap1\n  dup4\n  0xffffffffffffffffffffffffffffffffffffffff\n  and\n  mul\n  or\n  swap1\n  sstore\n  pop\n    /* \"Campaign.sol\":1142:1286  constructor(uint _minimumContribution, address _manager) {... */\n  pop\n  pop\n    /* \"Campaign.sol\":448:2760  contract Campaign {... */\n  jump(tag_6)\n    /* \"#utility.yul\":88:205   */\ntag_8:\n    /* \"#utility.yul\":197:198   */\n  0x00\n    /* \"#utility.yul\":194:195   */\n  dup1\n    /* \"#utility.yul\":187:199   */\n  revert\n    /* \"#utility.yul\":334:411   */\ntag_10:\n    /* \"#utility.yul\":371:378   */\n  0x00\n    /* \"#utility.yul\":400:405   */\n  dup2\n    /* \"#utility.yul\":389:405   */\n  swap1\n  pop\n    /* \"#utility.yul\":334:411   */\n  swap2\n  swap1\n  pop\n  jump\t// out\n    /* \"#utility.yul\":417:539   */\ntag_11:\n    /* \"#utility.yul\":490:514   */\n  tag_23\n    /* \"#utility.yul\":508:513   */\n  dup2\n    /* \"#utility.yul\":490:514   */\n  tag_10\n  jump\t// in\ntag_23:\n    /* \"#utility.yul\":483:488   */\n  dup2\n    /* \"#utility.yul\":480:515   */\n  eq\n    /* \"#utility.yul\":470:533   */\n  tag_24\n  jumpi\n    /* \"#utility.yul\":529:530   */\n  0x00\n    /* \"#utility.yul\":526:527   */\n  dup1\n    /* \"#utility.yul\":519:531   */\n  revert\n    /* \"#utility.yul\":470:533   */\ntag_24:\n    /* \"#utility.yul\":417:539   */\n  pop\n  jump\t// out\n    /* \"#utility.yul\":545:688   */\ntag_12:\n    /* \"#utility.yul\":602:607   */\n  0x00\n    /* \"#utility.yul\":633:639   */\n  dup2\n    /* \"#utility.yul\":627:640   */\n  mload\n    /* \"#utility.yul\":618:640   */\n  swap1\n  pop\n    /* \"#utility.yul\":649:682   */\n  tag_26\n    /* \"#utility.yul\":676:681   */\n  dup2\n    /* \"#utility.yul\":649:682   */\n  tag_11\n  jump\t// in\ntag_26:\n    /* \"#utility.yul\":545:688   */\n  swap3\n  swap2\n  pop\n  pop\n  jump\t// out\n    /* \"#utility.yul\":694:820   */\ntag_13:\n    /* \"#utility.yul\":731:738   */\n  0x00\n    /* \"#utility.yul\":771:813   */\n  0xffffffffffffffffffffffffffffffffffffffff\n    /* \"#utility.yul\":764:769   */\n  dup3\n    /* \"#utility.yul\":760:814   */\n  and\n    /* \"#utility.yul\":749:814   */\n  swap1\n  pop\n    /* \"#utility.yul\":694:820   */\n  swap2\n  swap1\n  pop\n  jump\t// out\n    /* \"#utility.yul\":826:922   */\ntag_14:\n    /* \"#utility.yul\":863:870   */\n  0x00\n    /* \"#utility.yul\":892:916   */\n  tag_29\n    /* \"#utility.yul\":910:915   */\n  dup3\n    /* \"#utility.yul\":892:916   */\n  tag_13\n  jump\t// in\ntag_29:\n    /* \"#utility.yul\":881:916   */\n  swap1\n  pop\n    /* \"#utility.yul\":826:922   */\n  swap2\n  swap1\n  pop\n  jump\t// out\n    /* \"#utility.yul\":928:1050   */\ntag_15:\n    /* \"#utility.yul\":1001:1025   */\n  tag_31\n    /* \"#utility.yul\":1019:1024   */\n  dup2\n    /* \"#utility.yul\":1001:1025   */\n  tag_14\n  jump\t// in\ntag_31:\n    /* \"#utility.yul\":994:999   */\n  dup2\n    /* \"#utility.yul\":991:1026   */\n  eq\n    /* \"#utility.yul\":981:1044   */\n  tag_32\n  jumpi\n    /* \"#utility.yul\":1040:1041   */\n  0x00\n    /* \"#utility.yul\":1037:1038   */\n  dup1\n    /* \"#utility.yul\":1030:1042   */\n  revert\n    /* \"#utility.yul\":981:1044   */\ntag_32:\n    /* \"#utility.yul\":928:1050   */\n  pop\n  jump\t// out\n    /* \"#utility.yul\":1056:1199   */\ntag_16:\n    /* \"#utility.yul\":1113:1118   */\n  0x00\n    /* \"#utility.yul\":1144:1150   */\n  dup2\n    /* \"#utility.yul\":1138:1151   */\n  mload\n    /* \"#utility.yul\":1129:1151   */\n  swap1\n  pop\n    /* \"#utility.yul\":1160:1193   */\n  tag_34\n    /* \"#utility.yul\":1187:1192   */\n  dup2\n    /* \"#utility.yul\":1160:1193   */\n  tag_15\n  jump\t// in\ntag_34:\n    /* \"#utility.yul\":1056:1199   */\n  swap3\n  swap2\n  pop\n  pop\n  jump\t// out\n    /* \"#utility.yul\":1205:1712   */\ntag_3:\n    /* \"#utility.yul\":1284:1290   */\n  0x00\n    /* \"#utility.yul\":1292:1298   */\n  dup1\n    /* \"#utility.yul\":1341:1343   */\n  0x40\n    /* \"#utility.yul\":1329:1338   */\n  dup4\n    /* \"#utility.yul\":1320:1327   */\n  dup6\n    /* \"#utility.yul\":1316:1339   */\n  sub\n    /* \"#utility.yul\":1312:1344   */\n  slt\n    /* \"#utility.yul\":1309:1428   */\n  iszero\n  tag_36\n  jumpi\n    /* \"#utility.yul\":1347:1426   */\n  tag_37\n  tag_8\n  jump\t// in\ntag_37:\n    /* \"#utility.yul\":1309:1428   */\ntag_36:\n    /* \"#utility.yul\":1467:1468   */\n  0x00\n    /* \"#utility.yul\":1492:1556   */\n  tag_38\n    /* \"#utility.yul\":1548:1555   */\n  dup6\n    /* \"#utility.yul\":1539:1545   */\n  dup3\n    /* \"#utility.yul\":1528:1537   */\n  dup7\n    /* \"#utility.yul\":1524:1546   */\n  add\n    /* \"#utility.yul\":1492:1556   */\n  tag_12\n  jump\t// in\ntag_38:\n    /* \"#utility.yul\":1482:1556   */\n  swap3\n  pop\n    /* \"#utility.yul\":1438:1566   */\n  pop\n    /* \"#utility.yul\":1605:1607   */\n  0x20\n    /* \"#utility.yul\":1631:1695   */\n  tag_39\n    /* \"#utility.yul\":1687:1694   */\n  dup6\n    /* \"#utility.yul\":1678:1684   */\n  dup3\n    /* \"#utility.yul\":1667:1676   */\n  dup7\n    /* \"#utility.yul\":1663:1685   */\n  add\n    /* \"#utility.yul\":1631:1695   */\n  tag_16\n  jump\t// in\ntag_39:\n    /* \"#utility.yul\":1621:1695   */\n  swap2\n  pop\n    /* \"#utility.yul\":1576:1705   */\n  pop\n    /* \"#utility.yul\":1205:1712   */\n  swap3\n  pop\n  swap3\n  swap1\n  pop\n  jump\t// out\n    /* \"Campaign.sol\":448:2760  contract Campaign {... */\ntag_6:\n  dataSize(sub_0)\n  dup1\n  dataOffset(sub_0)\n  0x00\n  codecopy\n  0x00\n  return\nstop\n\nsub_0: assembly {\n        /* \"Campaign.sol\":448:2760  contract Campaign {... */\n      mstore(0x40, 0x80)\n      jumpi(tag_1, lt(calldatasize, 0x04))\n      shr(0xe0, calldataload(0x00))\n      dup1\n      0x7569b3d7\n      gt\n      tag_11\n      jumpi\n      dup1\n      0x7569b3d7\n      eq\n      tag_6\n      jumpi\n      dup1\n      0x81d12c58\n      eq\n      tag_7\n      jumpi\n      dup1\n      0x937e09b1\n      eq\n      tag_8\n      jumpi\n      dup1\n      0xd7bb99ba\n      eq\n      tag_9\n      jumpi\n      dup1\n      0xd7d1bbdb\n      eq\n      tag_10\n      jumpi\n      jump(tag_1)\n    tag_11:\n      dup1\n      0x03441006\n      eq\n      tag_2\n      jumpi\n      dup1\n      0x1f6d4942\n      eq\n      tag_3\n      jumpi\n      dup1\n      0x26883efa\n      eq\n      tag_4\n      jumpi\n      dup1\n      0x481c6a75\n      eq\n      tag_5\n      jumpi\n    tag_1:\n      0x00\n      dup1\n      revert\n        /* \"Campaign.sol\":2300:2757  function finalizeRequest(uint index) public restricted {... */\n    tag_2:\n      callvalue\n      dup1\n      iszero\n      tag_12\n      jumpi\n      0x00\n      dup1\n      revert\n    tag_12:\n      pop\n      tag_13\n      0x04\n      dup1\n      calldatasize\n      sub\n      dup2\n      add\n      swap1\n      tag_14\n      swap2\n      swap1\n      tag_15\n      jump\t// in\n    tag_14:\n      tag_16\n      jump\t// in\n    tag_13:\n      stop\n        /* \"Campaign.sol\":964:1009  mapping(address  => bool) public contributors */\n    tag_3:\n      callvalue\n      dup1\n      iszero\n      tag_17\n      jumpi\n      0x00\n      dup1\n      revert\n    tag_17:\n      pop\n      tag_18\n      0x04\n      dup1\n      calldatasize\n      sub\n      dup2\n      add\n      swap1\n      tag_19\n      swap2\n      swap1\n      tag_20\n      jump\t// in\n    tag_19:\n      tag_21\n      jump\t// in\n    tag_18:\n      mload(0x40)\n      tag_22\n      swap2\n      swap1\n      tag_23\n      jump\t// in\n    tag_22:\n      mload(0x40)\n      dup1\n      swap2\n      sub\n      swap1\n      return\n        /* \"Campaign.sol\":1463:1918  function createRequest(string memory _description, uint _value, address payable _recipient, uint _approvalTolerance) public restricted {... */\n    tag_4:\n      callvalue\n      dup1\n      iszero\n      tag_24\n      jumpi\n      0x00\n      dup1\n      revert\n    tag_24:\n      pop\n      tag_25\n      0x04\n      dup1\n      calldatasize\n      sub\n      dup2\n      add\n      swap1\n      tag_26\n      swap2\n      swap1\n      tag_27\n      jump\t// in\n    tag_26:\n      tag_28\n      jump\t// in\n    tag_25:\n      stop\n        /* \"Campaign.sol\":827:849  address public manager */\n    tag_5:\n      callvalue\n      dup1\n      iszero\n      tag_29\n      jumpi\n      0x00\n      dup1\n      revert\n    tag_29:\n      pop\n      tag_30\n      tag_31\n      jump\t// in\n    tag_30:\n      mload(0x40)\n      tag_32\n      swap2\n      swap1\n      tag_33\n      jump\t// in\n    tag_32:\n      mload(0x40)\n      dup1\n      swap2\n      sub\n      swap1\n      return\n        /* \"Campaign.sol\":1015:1044  uint public contributorsCount */\n    tag_6:\n      callvalue\n      dup1\n      iszero\n      tag_34\n      jumpi\n      0x00\n      dup1\n      revert\n    tag_34:\n      pop\n      tag_35\n      tag_36\n      jump\t// in\n    tag_35:\n      mload(0x40)\n      tag_37\n      swap2\n      swap1\n      tag_38\n      jump\t// in\n    tag_37:\n      mload(0x40)\n      dup1\n      swap2\n      sub\n      swap1\n      return\n        /* \"Campaign.sol\":796:821  Request[] public requests */\n    tag_7:\n      callvalue\n      dup1\n      iszero\n      tag_39\n      jumpi\n      0x00\n      dup1\n      revert\n    tag_39:\n      pop\n      tag_40\n      0x04\n      dup1\n      calldatasize\n      sub\n      dup2\n      add\n      swap1\n      tag_41\n      swap2\n      swap1\n      tag_15\n      jump\t// in\n    tag_41:\n      tag_42\n      jump\t// in\n    tag_40:\n      mload(0x40)\n      tag_43\n      swap7\n      swap6\n      swap5\n      swap4\n      swap3\n      swap2\n      swap1\n      tag_44\n      jump\t// in\n    tag_43:\n      mload(0x40)\n      dup1\n      swap2\n      sub\n      swap1\n      return\n        /* \"Campaign.sol\":855:886  uint public minimumContribution */\n    tag_8:\n      callvalue\n      dup1\n      iszero\n      tag_45\n      jumpi\n      0x00\n      dup1\n      revert\n    tag_45:\n      pop\n      tag_46\n      tag_47\n      jump\t// in\n    tag_46:\n      mload(0x40)\n      tag_48\n      swap2\n      swap1\n      tag_38\n      jump\t// in\n    tag_48:\n      mload(0x40)\n      dup1\n      swap2\n      sub\n      swap1\n      return\n        /* \"Campaign.sol\":1292:1457  function contribute() public payable {... */\n    tag_9:\n      tag_49\n      tag_50\n      jump\t// in\n    tag_49:\n      stop\n        /* \"Campaign.sol\":1925:2294  function approveRequest(uint index) public {... */\n    tag_10:\n      callvalue\n      dup1\n      iszero\n      tag_51\n      jumpi\n      0x00\n      dup1\n      revert\n    tag_51:\n      pop\n      tag_52\n      0x04\n      dup1\n      calldatasize\n      sub\n      dup2\n      add\n      swap1\n      tag_53\n      swap2\n      swap1\n      tag_15\n      jump\t// in\n    tag_53:\n      tag_54\n      jump\t// in\n    tag_52:\n      stop\n        /* \"Campaign.sol\":2300:2757  function finalizeRequest(uint index) public restricted {... */\n    tag_16:\n        /* \"Campaign.sol\":1106:1113  manager */\n      0x01\n      0x00\n      swap1\n      sload\n      swap1\n      0x0100\n      exp\n      swap1\n      div\n      0xffffffffffffffffffffffffffffffffffffffff\n      and\n        /* \"Campaign.sol\":1092:1113  msg.sender == manager */\n      0xffffffffffffffffffffffffffffffffffffffff\n      and\n        /* \"Campaign.sol\":1092:1102  msg.sender */\n      caller\n        /* \"Campaign.sol\":1092:1113  msg.sender == manager */\n      0xffffffffffffffffffffffffffffffffffffffff\n      and\n      eq\n        /* \"Campaign.sol\":1084:1114  require(msg.sender == manager) */\n      tag_56\n      jumpi\n      0x00\n      dup1\n      revert\n    tag_56:\n        /* \"Campaign.sol\":2365:2388  Request storage request */\n      0x00\n        /* \"Campaign.sol\":2391:2399  requests */\n      dup1\n        /* \"Campaign.sol\":2400:2405  index */\n      dup3\n        /* \"Campaign.sol\":2391:2406  requests[index] */\n      dup2\n      sload\n      dup2\n      lt\n      tag_58\n      jumpi\n      tag_59\n      tag_60\n      jump\t// in\n    tag_59:\n    tag_58:\n      swap1\n      0x00\n      mstore\n      keccak256(0x00, 0x20)\n      swap1\n      0x07\n      mul\n      add\n        /* \"Campaign.sol\":2365:2406  Request storage request = requests[index] */\n      swap1\n      pop\n        /* \"Campaign.sol\":2524:2531  request */\n      dup1\n        /* \"Campaign.sol\":2524:2549  request.approvalTolerance */\n      0x03\n      add\n      sload\n        /* \"Campaign.sol\":2502:2519  contributorsCount */\n      sload(0x04)\n        /* \"Campaign.sol\":2495:2498  100 */\n      0x64\n        /* \"Campaign.sol\":2471:2478  request */\n      dup4\n        /* \"Campaign.sol\":2471:2492  request.approvalCount */\n      0x05\n      add\n      sload\n        /* \"Campaign.sol\":2471:2498  request.approvalCount * 100 */\n      tag_62\n      swap2\n      swap1\n      tag_63\n      jump\t// in\n    tag_62:\n        /* \"Campaign.sol\":2470:2519  (request.approvalCount * 100) / contributorsCount */\n      tag_64\n      swap2\n      swap1\n      tag_65\n      jump\t// in\n    tag_64:\n        /* \"Campaign.sol\":2469:2549  ((request.approvalCount * 100) / contributorsCount) >= request.approvalTolerance */\n      lt\n      iszero\n        /* \"Campaign.sol\":2461:2550  require(((request.approvalCount * 100) / contributorsCount) >= request.approvalTolerance) */\n      tag_66\n      jumpi\n      0x00\n      dup1\n      revert\n    tag_66:\n        /* \"Campaign.sol\":2613:2620  request */\n      dup1\n        /* \"Campaign.sol\":2613:2629  request.complete */\n      0x04\n      add\n      0x00\n      swap1\n      sload\n      swap1\n      0x0100\n      exp\n      swap1\n      div\n      0xff\n      and\n        /* \"Campaign.sol\":2612:2629  !request.complete */\n      iszero\n        /* \"Campaign.sol\":2604:2630  require(!request.complete) */\n      tag_67\n      jumpi\n      0x00\n      dup1\n      revert\n    tag_67:\n        /* \"Campaign.sol\":2676:2683  request */\n      dup1\n        /* \"Campaign.sol\":2676:2693  request.recipient */\n      0x02\n      add\n      0x00\n      swap1\n      sload\n      swap1\n      0x0100\n      exp\n      swap1\n      div\n      0xffffffffffffffffffffffffffffffffffffffff\n      and\n        /* \"Campaign.sol\":2676:2702  request.recipient.transfer */\n      0xffffffffffffffffffffffffffffffffffffffff\n      and\n        /* \"Campaign.sol\":2676:2717  request.recipient.transfer(request.value) */\n      0x08fc\n        /* \"Campaign.sol\":2703:2710  request */\n      dup3\n        /* \"Campaign.sol\":2703:2716  request.value */\n      0x01\n      add\n      sload\n        /* \"Campaign.sol\":2676:2717  request.recipient.transfer(request.value) */\n      swap1\n      dup2\n      iszero\n      mul\n      swap1\n      mload(0x40)\n      0x00\n      mload(0x40)\n      dup1\n      dup4\n      sub\n      dup2\n      dup6\n      dup9\n      dup9\n      call\n      swap4\n      pop\n      pop\n      pop\n      pop\n      iszero\n      dup1\n      iszero\n      tag_69\n      jumpi\n      returndatasize\n      0x00\n      dup1\n      returndatacopy\n      revert(0x00, returndatasize)\n    tag_69:\n      pop\n        /* \"Campaign.sol\":2746:2750  true */\n      0x01\n        /* \"Campaign.sol\":2727:2734  request */\n      dup2\n        /* \"Campaign.sol\":2727:2743  request.complete */\n      0x04\n      add\n      0x00\n        /* \"Campaign.sol\":2727:2750  request.complete = true */\n      0x0100\n      exp\n      dup2\n      sload\n      dup2\n      0xff\n      mul\n      not\n      and\n      swap1\n      dup4\n      iszero\n      iszero\n      mul\n      or\n      swap1\n      sstore\n      pop\n        /* \"Campaign.sol\":2355:2757  {... */\n      pop\n        /* \"Campaign.sol\":2300:2757  function finalizeRequest(uint index) public restricted {... */\n      pop\n      jump\t// out\n        /* \"Campaign.sol\":964:1009  mapping(address  => bool) public contributors */\n    tag_21:\n      mstore(0x20, 0x03)\n      dup1\n      0x00\n      mstore\n      keccak256(0x00, 0x40)\n      0x00\n      swap2\n      pop\n      sload\n      swap1\n      0x0100\n      exp\n      swap1\n      div\n      0xff\n      and\n      dup2\n      jump\t// out\n        /* \"Campaign.sol\":1463:1918  function createRequest(string memory _description, uint _value, address payable _recipient, uint _approvalTolerance) public restricted {... */\n    tag_28:\n        /* \"Campaign.sol\":1106:1113  manager */\n      0x01\n      0x00\n      swap1\n      sload\n      swap1\n      0x0100\n      exp\n      swap1\n      div\n      0xffffffffffffffffffffffffffffffffffffffff\n      and\n        /* \"Campaign.sol\":1092:1113  msg.sender == manager */\n      0xffffffffffffffffffffffffffffffffffffffff\n      and\n        /* \"Campaign.sol\":1092:1102  msg.sender */\n      caller\n        /* \"Campaign.sol\":1092:1113  msg.sender == manager */\n      0xffffffffffffffffffffffffffffffffffffffff\n      and\n      eq\n        /* \"Campaign.sol\":1084:1114  require(msg.sender == manager) */\n      tag_71\n      jumpi\n      0x00\n      dup1\n      revert\n    tag_71:\n        /* \"Campaign.sol\":1608:1634  Request storage newRequest */\n      0x00\n        /* \"Campaign.sol\":1637:1645  requests */\n      dup1\n        /* \"Campaign.sol\":1637:1652  requests.push() */\n      0x01\n      dup2\n      0x01\n      dup2\n      sload\n      add\n      dup1\n      dup3\n      sstore\n      dup1\n      swap2\n      pop\n      pop\n      sub\n      swap1\n      0x00\n      mstore\n      keccak256(0x00, 0x20)\n      swap1\n      0x07\n      mul\n      add\n        /* \"Campaign.sol\":1608:1652  Request storage newRequest = requests.push() */\n      swap1\n      pop\n        /* \"Campaign.sol\":1687:1699  _description */\n      dup5\n        /* \"Campaign.sol\":1662:1672  newRequest */\n      dup2\n        /* \"Campaign.sol\":1662:1684  newRequest.description */\n      0x00\n      add\n        /* \"Campaign.sol\":1662:1699  newRequest.description = _description */\n      swap1\n      dup1\n      mload\n      swap1\n      0x20\n      add\n      swap1\n      tag_74\n      swap3\n      swap2\n      swap1\n      tag_75\n      jump\t// in\n    tag_74:\n      pop\n        /* \"Campaign.sol\":1728:1734  _value */\n      dup4\n        /* \"Campaign.sol\":1709:1719  newRequest */\n      dup2\n        /* \"Campaign.sol\":1709:1725  newRequest.value */\n      0x01\n      add\n        /* \"Campaign.sol\":1709:1734  newRequest.value = _value */\n      dup2\n      swap1\n      sstore\n      pop\n        /* \"Campaign.sol\":1767:1777  _recipient */\n      dup3\n        /* \"Campaign.sol\":1744:1754  newRequest */\n      dup2\n        /* \"Campaign.sol\":1744:1764  newRequest.recipient */\n      0x02\n      add\n      0x00\n        /* \"Campaign.sol\":1744:1777  newRequest.recipient = _recipient */\n      0x0100\n      exp\n      dup2\n      sload\n      dup2\n      0xffffffffffffffffffffffffffffffffffffffff\n      mul\n      not\n      and\n      swap1\n      dup4\n      0xffffffffffffffffffffffffffffffffffffffff\n      and\n      mul\n      or\n      swap1\n      sstore\n      pop\n        /* \"Campaign.sol\":1818:1836  _approvalTolerance */\n      dup2\n        /* \"Campaign.sol\":1787:1797  newRequest */\n      dup2\n        /* \"Campaign.sol\":1787:1815  newRequest.approvalTolerance */\n      0x03\n      add\n        /* \"Campaign.sol\":1787:1836  newRequest.approvalTolerance = _approvalTolerance */\n      dup2\n      swap1\n      sstore\n      pop\n        /* \"Campaign.sol\":1868:1873  false */\n      0x00\n        /* \"Campaign.sol\":1846:1856  newRequest */\n      dup2\n        /* \"Campaign.sol\":1846:1865  newRequest.complete */\n      0x04\n      add\n      0x00\n        /* \"Campaign.sol\":1846:1873  newRequest.complete = false */\n      0x0100\n      exp\n      dup2\n      sload\n      dup2\n      0xff\n      mul\n      not\n      and\n      swap1\n      dup4\n      iszero\n      iszero\n      mul\n      or\n      swap1\n      sstore\n      pop\n        /* \"Campaign.sol\":1910:1911  0 */\n      0x00\n        /* \"Campaign.sol\":1883:1893  newRequest */\n      dup2\n        /* \"Campaign.sol\":1883:1907  newRequest.approvalCount */\n      0x05\n      add\n        /* \"Campaign.sol\":1883:1911  newRequest.approvalCount = 0 */\n      dup2\n      swap1\n      sstore\n      pop\n        /* \"Campaign.sol\":1598:1918  {... */\n      pop\n        /* \"Campaign.sol\":1463:1918  function createRequest(string memory _description, uint _value, address payable _recipient, uint _approvalTolerance) public restricted {... */\n      pop\n      pop\n      pop\n      pop\n      jump\t// out\n        /* \"Campaign.sol\":827:849  address public manager */\n    tag_31:\n      0x01\n      0x00\n      swap1\n      sload\n      swap1\n      0x0100\n      exp\n      swap1\n      div\n      0xffffffffffffffffffffffffffffffffffffffff\n      and\n      dup2\n      jump\t// out\n        /* \"Campaign.sol\":1015:1044  uint public contributorsCount */\n    tag_36:\n      sload(0x04)\n      dup2\n      jump\t// out\n        /* \"Campaign.sol\":796:821  Request[] public requests */\n    tag_42:\n      0x00\n      dup2\n      dup2\n      sload\n      dup2\n      lt\n      tag_76\n      jumpi\n      0x00\n      dup1\n      revert\n    tag_76:\n      swap1\n      0x00\n      mstore\n      keccak256(0x00, 0x20)\n      swap1\n      0x07\n      mul\n      add\n      0x00\n      swap2\n      pop\n      swap1\n      pop\n      dup1\n      0x00\n      add\n      dup1\n      sload\n      tag_78\n      swap1\n      tag_79\n      jump\t// in\n    tag_78:\n      dup1\n      0x1f\n      add\n      0x20\n      dup1\n      swap2\n      div\n      mul\n      0x20\n      add\n      mload(0x40)\n      swap1\n      dup2\n      add\n      0x40\n      mstore\n      dup1\n      swap3\n      swap2\n      swap1\n      dup2\n      dup2\n      mstore\n      0x20\n      add\n      dup3\n      dup1\n      sload\n      tag_80\n      swap1\n      tag_79\n      jump\t// in\n    tag_80:\n      dup1\n      iszero\n      tag_81\n      jumpi\n      dup1\n      0x1f\n      lt\n      tag_82\n      jumpi\n      0x0100\n      dup1\n      dup4\n      sload\n      div\n      mul\n      dup4\n      mstore\n      swap2\n      0x20\n      add\n      swap2\n      jump(tag_81)\n    tag_82:\n      dup3\n      add\n      swap2\n      swap1\n      0x00\n      mstore\n      keccak256(0x00, 0x20)\n      swap1\n    tag_83:\n      dup2\n      sload\n      dup2\n      mstore\n      swap1\n      0x01\n      add\n      swap1\n      0x20\n      add\n      dup1\n      dup4\n      gt\n      tag_83\n      jumpi\n      dup3\n      swap1\n      sub\n      0x1f\n      and\n      dup3\n      add\n      swap2\n    tag_81:\n      pop\n      pop\n      pop\n      pop\n      pop\n      swap1\n      dup1\n      0x01\n      add\n      sload\n      swap1\n      dup1\n      0x02\n      add\n      0x00\n      swap1\n      sload\n      swap1\n      0x0100\n      exp\n      swap1\n      div\n      0xffffffffffffffffffffffffffffffffffffffff\n      and\n      swap1\n      dup1\n      0x03\n      add\n      sload\n      swap1\n      dup1\n      0x04\n      add\n      0x00\n      swap1\n      sload\n      swap1\n      0x0100\n      exp\n      swap1\n      div\n      0xff\n      and\n      swap1\n      dup1\n      0x05\n      add\n      sload\n      swap1\n      pop\n      dup7\n      jump\t// out\n        /* \"Campaign.sol\":855:886  uint public minimumContribution */\n    tag_47:\n      sload(0x02)\n      dup2\n      jump\t// out\n        /* \"Campaign.sol\":1292:1457  function contribute() public payable {... */\n    tag_50:\n        /* \"Campaign.sol\":1360:1379  minimumContribution */\n      sload(0x02)\n        /* \"Campaign.sol\":1347:1356  msg.value */\n      callvalue\n        /* \"Campaign.sol\":1347:1379  msg.value >= minimumContribution */\n      lt\n      iszero\n        /* \"Campaign.sol\":1339:1380  require(msg.value >= minimumContribution) */\n      tag_85\n      jumpi\n      0x00\n      dup1\n      revert\n    tag_85:\n        /* \"Campaign.sol\":1417:1421  true */\n      0x01\n        /* \"Campaign.sol\":1390:1402  contributors */\n      0x03\n        /* \"Campaign.sol\":1390:1414  contributors[msg.sender] */\n      0x00\n        /* \"Campaign.sol\":1403:1413  msg.sender */\n      caller\n        /* \"Campaign.sol\":1390:1414  contributors[msg.sender] */\n      0xffffffffffffffffffffffffffffffffffffffff\n      and\n      0xffffffffffffffffffffffffffffffffffffffff\n      and\n      dup2\n      mstore\n      0x20\n      add\n      swap1\n      dup2\n      mstore\n      0x20\n      add\n      0x00\n      keccak256\n      0x00\n        /* \"Campaign.sol\":1390:1421  contributors[msg.sender] = true */\n      0x0100\n      exp\n      dup2\n      sload\n      dup2\n      0xff\n      mul\n      not\n      and\n      swap1\n      dup4\n      iszero\n      iszero\n      mul\n      or\n      swap1\n      sstore\n      pop\n        /* \"Campaign.sol\":1431:1448  contributorsCount */\n      0x04\n      0x00\n        /* \"Campaign.sol\":1431:1450  contributorsCount++ */\n      dup2\n      sload\n      dup1\n      swap3\n      swap2\n      swap1\n      tag_86\n      swap1\n      tag_87\n      jump\t// in\n    tag_86:\n      swap2\n      swap1\n      pop\n      sstore\n      pop\n        /* \"Campaign.sol\":1292:1457  function contribute() public payable {... */\n      jump\t// out\n        /* \"Campaign.sol\":1925:2294  function approveRequest(uint index) public {... */\n    tag_54:\n        /* \"Campaign.sol\":1978:2001  Request storage request */\n      0x00\n        /* \"Campaign.sol\":2004:2012  requests */\n      dup1\n        /* \"Campaign.sol\":2013:2018  index */\n      dup3\n        /* \"Campaign.sol\":2004:2019  requests[index] */\n      dup2\n      sload\n      dup2\n      lt\n      tag_89\n      jumpi\n      tag_90\n      tag_60\n      jump\t// in\n    tag_90:\n    tag_89:\n      swap1\n      0x00\n      mstore\n      keccak256(0x00, 0x20)\n      swap1\n      0x07\n      mul\n      add\n        /* \"Campaign.sol\":1978:2019  Request storage request = requests[index] */\n      swap1\n      pop\n        /* \"Campaign.sol\":2088:2100  contributors */\n      0x03\n        /* \"Campaign.sol\":2088:2112  contributors[msg.sender] */\n      0x00\n        /* \"Campaign.sol\":2101:2111  msg.sender */\n      caller\n        /* \"Campaign.sol\":2088:2112  contributors[msg.sender] */\n      0xffffffffffffffffffffffffffffffffffffffff\n      and\n      0xffffffffffffffffffffffffffffffffffffffff\n      and\n      dup2\n      mstore\n      0x20\n      add\n      swap1\n      dup2\n      mstore\n      0x20\n      add\n      0x00\n      keccak256\n      0x00\n      swap1\n      sload\n      swap1\n      0x0100\n      exp\n      swap1\n      div\n      0xff\n      and\n        /* \"Campaign.sol\":2080:2113  require(contributors[msg.sender]) */\n      tag_92\n      jumpi\n      0x00\n      dup1\n      revert\n    tag_92:\n        /* \"Campaign.sol\":2177:2184  request */\n      dup1\n        /* \"Campaign.sol\":2177:2194  request.approvals */\n      0x06\n      add\n        /* \"Campaign.sol\":2177:2206  request.approvals[msg.sender] */\n      0x00\n        /* \"Campaign.sol\":2195:2205  msg.sender */\n      caller\n        /* \"Campaign.sol\":2177:2206  request.approvals[msg.sender] */\n      0xffffffffffffffffffffffffffffffffffffffff\n      and\n      0xffffffffffffffffffffffffffffffffffffffff\n      and\n      dup2\n      mstore\n      0x20\n      add\n      swap1\n      dup2\n      mstore\n      0x20\n      add\n      0x00\n      keccak256\n      0x00\n      swap1\n      sload\n      swap1\n      0x0100\n      exp\n      swap1\n      div\n      0xff\n      and\n        /* \"Campaign.sol\":2176:2206  !request.approvals[msg.sender] */\n      iszero\n        /* \"Campaign.sol\":2168:2207  require(!request.approvals[msg.sender]) */\n      tag_93\n      jumpi\n      0x00\n      dup1\n      revert\n    tag_93:\n        /* \"Campaign.sol\":2250:2254  true */\n      0x01\n        /* \"Campaign.sol\":2218:2225  request */\n      dup2\n        /* \"Campaign.sol\":2218:2235  request.approvals */\n      0x06\n      add\n        /* \"Campaign.sol\":2218:2247  request.approvals[msg.sender] */\n      0x00\n        /* \"Campaign.sol\":2236:2246  msg.sender */\n      caller\n        /* \"Campaign.sol\":2218:2247  request.approvals[msg.sender] */\n      0xffffffffffffffffffffffffffffffffffffffff\n      and\n      0xffffffffffffffffffffffffffffffffffffffff\n      and\n      dup2\n      mstore\n      0x20\n      add\n      swap1\n      dup2\n      mstore\n      0x20\n      add\n      0x00\n      keccak256\n      0x00\n        /* \"Campaign.sol\":2218:2254  request.approvals[msg.sender] = true */\n      0x0100\n      exp\n      dup2\n      sload\n      dup2\n      0xff\n      mul\n      not\n      and\n      swap1\n      dup4\n      iszero\n      iszero\n      mul\n      or\n      swap1\n      sstore\n      pop\n        /* \"Campaign.sol\":2264:2271  request */\n      dup1\n        /* \"Campaign.sol\":2264:2285  request.approvalCount */\n      0x05\n      add\n      0x00\n        /* \"Campaign.sol\":2264:2287  request.approvalCount++ */\n      dup2\n      sload\n      dup1\n      swap3\n      swap2\n      swap1\n      tag_94\n      swap1\n      tag_87\n      jump\t// in\n    tag_94:\n      swap2\n      swap1\n      pop\n      sstore\n      pop\n        /* \"Campaign.sol\":1968:2294  {... */\n      pop\n        /* \"Campaign.sol\":1925:2294  function approveRequest(uint index) public {... */\n      pop\n      jump\t// out\n    tag_75:\n      dup3\n      dup1\n      sload\n      tag_95\n      swap1\n      tag_79\n      jump\t// in\n    tag_95:\n      swap1\n      0x00\n      mstore\n      keccak256(0x00, 0x20)\n      swap1\n      0x1f\n      add\n      0x20\n      swap1\n      div\n      dup2\n      add\n      swap3\n      dup3\n      tag_97\n      jumpi\n      0x00\n      dup6\n      sstore\n      jump(tag_96)\n    tag_97:\n      dup3\n      0x1f\n      lt\n      tag_98\n      jumpi\n      dup1\n      mload\n      not(0xff)\n      and\n      dup4\n      dup1\n      add\n      or\n      dup6\n      sstore\n      jump(tag_96)\n    tag_98:\n      dup3\n      dup1\n      add\n      0x01\n      add\n      dup6\n      sstore\n      dup3\n      iszero\n      tag_96\n      jumpi\n      swap2\n      dup3\n      add\n    tag_99:\n      dup3\n      dup2\n      gt\n      iszero\n      tag_100\n      jumpi\n      dup3\n      mload\n      dup3\n      sstore\n      swap2\n      0x20\n      add\n      swap2\n      swap1\n      0x01\n      add\n      swap1\n      jump(tag_99)\n    tag_100:\n    tag_96:\n      pop\n      swap1\n      pop\n      tag_101\n      swap2\n      swap1\n      tag_102\n      jump\t// in\n    tag_101:\n      pop\n      swap1\n      jump\t// out\n    tag_102:\n    tag_103:\n      dup1\n      dup3\n      gt\n      iszero\n      tag_104\n      jumpi\n      0x00\n      dup2\n      0x00\n      swap1\n      sstore\n      pop\n      0x01\n      add\n      jump(tag_103)\n    tag_104:\n      pop\n      swap1\n      jump\t// out\n        /* \"#utility.yul\":7:82   */\n    tag_105:\n        /* \"#utility.yul\":40:46   */\n      0x00\n        /* \"#utility.yul\":73:75   */\n      0x40\n        /* \"#utility.yul\":67:76   */\n      mload\n        /* \"#utility.yul\":57:76   */\n      swap1\n      pop\n        /* \"#utility.yul\":7:82   */\n      swap1\n      jump\t// out\n        /* \"#utility.yul\":88:205   */\n    tag_106:\n        /* \"#utility.yul\":197:198   */\n      0x00\n        /* \"#utility.yul\":194:195   */\n      dup1\n        /* \"#utility.yul\":187:199   */\n      revert\n        /* \"#utility.yul\":211:328   */\n    tag_107:\n        /* \"#utility.yul\":320:321   */\n      0x00\n        /* \"#utility.yul\":317:318   */\n      dup1\n        /* \"#utility.yul\":310:322   */\n      revert\n        /* \"#utility.yul\":334:411   */\n    tag_108:\n        /* \"#utility.yul\":371:378   */\n      0x00\n        /* \"#utility.yul\":400:405   */\n      dup2\n        /* \"#utility.yul\":389:405   */\n      swap1\n      pop\n        /* \"#utility.yul\":334:411   */\n      swap2\n      swap1\n      pop\n      jump\t// out\n        /* \"#utility.yul\":417:539   */\n    tag_109:\n        /* \"#utility.yul\":490:514   */\n      tag_146\n        /* \"#utility.yul\":508:513   */\n      dup2\n        /* \"#utility.yul\":490:514   */\n      tag_108\n      jump\t// in\n    tag_146:\n        /* \"#utility.yul\":483:488   */\n      dup2\n        /* \"#utility.yul\":480:515   */\n      eq\n        /* \"#utility.yul\":470:533   */\n      tag_147\n      jumpi\n        /* \"#utility.yul\":529:530   */\n      0x00\n        /* \"#utility.yul\":526:527   */\n      dup1\n        /* \"#utility.yul\":519:531   */\n      revert\n        /* \"#utility.yul\":470:533   */\n    tag_147:\n        /* \"#utility.yul\":417:539   */\n      pop\n      jump\t// out\n        /* \"#utility.yul\":545:684   */\n    tag_110:\n        /* \"#utility.yul\":591:596   */\n      0x00\n        /* \"#utility.yul\":629:635   */\n      dup2\n        /* \"#utility.yul\":616:636   */\n      calldataload\n        /* \"#utility.yul\":607:636   */\n      swap1\n      pop\n        /* \"#utility.yul\":645:678   */\n      tag_149\n        /* \"#utility.yul\":672:677   */\n      dup2\n        /* \"#utility.yul\":645:678   */\n      tag_109\n      jump\t// in\n    tag_149:\n        /* \"#utility.yul\":545:684   */\n      swap3\n      swap2\n      pop\n      pop\n      jump\t// out\n        /* \"#utility.yul\":690:1019   */\n    tag_15:\n        /* \"#utility.yul\":749:755   */\n      0x00\n        /* \"#utility.yul\":798:800   */\n      0x20\n        /* \"#utility.yul\":786:795   */\n      dup3\n        /* \"#utility.yul\":777:784   */\n      dup5\n        /* \"#utility.yul\":773:796   */\n      sub\n        /* \"#utility.yul\":769:801   */\n      slt\n        /* \"#utility.yul\":766:885   */\n      iszero\n      tag_151\n      jumpi\n        /* \"#utility.yul\":804:883   */\n      tag_152\n      tag_106\n      jump\t// in\n    tag_152:\n        /* \"#utility.yul\":766:885   */\n    tag_151:\n        /* \"#utility.yul\":924:925   */\n      0x00\n        /* \"#utility.yul\":949:1002   */\n      tag_153\n        /* \"#utility.yul\":994:1001   */\n      dup5\n        /* \"#utility.yul\":985:991   */\n      dup3\n        /* \"#utility.yul\":974:983   */\n      dup6\n        /* \"#utility.yul\":970:992   */\n      add\n        /* \"#utility.yul\":949:1002   */\n      tag_110\n      jump\t// in\n    tag_153:\n        /* \"#utility.yul\":939:1002   */\n      swap2\n      pop\n        /* \"#utility.yul\":895:1012   */\n      pop\n        /* \"#utility.yul\":690:1019   */\n      swap3\n      swap2\n      pop\n      pop\n      jump\t// out\n        /* \"#utility.yul\":1025:1151   */\n    tag_111:\n        /* \"#utility.yul\":1062:1069   */\n      0x00\n        /* \"#utility.yul\":1102:1144   */\n      0xffffffffffffffffffffffffffffffffffffffff\n        /* \"#utility.yul\":1095:1100   */\n      dup3\n        /* \"#utility.yul\":1091:1145   */\n      and\n        /* \"#utility.yul\":1080:1145   */\n      swap1\n      pop\n        /* \"#utility.yul\":1025:1151   */\n      swap2\n      swap1\n      pop\n      jump\t// out\n        /* \"#utility.yul\":1157:1253   */\n    tag_112:\n        /* \"#utility.yul\":1194:1201   */\n      0x00\n        /* \"#utility.yul\":1223:1247   */\n      tag_156\n        /* \"#utility.yul\":1241:1246   */\n      dup3\n        /* \"#utility.yul\":1223:1247   */\n      tag_111\n      jump\t// in\n    tag_156:\n        /* \"#utility.yul\":1212:1247   */\n      swap1\n      pop\n        /* \"#utility.yul\":1157:1253   */\n      swap2\n      swap1\n      pop\n      jump\t// out\n        /* \"#utility.yul\":1259:1381   */\n    tag_113:\n        /* \"#utility.yul\":1332:1356   */\n      tag_158\n        /* \"#utility.yul\":1350:1355   */\n      dup2\n        /* \"#utility.yul\":1332:1356   */\n      tag_112\n      jump\t// in\n    tag_158:\n        /* \"#utility.yul\":1325:1330   */\n      dup2\n        /* \"#utility.yul\":1322:1357   */\n      eq\n        /* \"#utility.yul\":1312:1375   */\n      tag_159\n      jumpi\n        /* \"#utility.yul\":1371:1372   */\n      0x00\n        /* \"#utility.yul\":1368:1369   */\n      dup1\n        /* \"#utility.yul\":1361:1373   */\n      revert\n        /* \"#utility.yul\":1312:1375   */\n    tag_159:\n        /* \"#utility.yul\":1259:1381   */\n      pop\n      jump\t// out\n        /* \"#utility.yul\":1387:1526   */\n    tag_114:\n        /* \"#utility.yul\":1433:1438   */\n      0x00\n        /* \"#utility.yul\":1471:1477   */\n      dup2\n        /* \"#utility.yul\":1458:1478   */\n      calldataload\n        /* \"#utility.yul\":1449:1478   */\n      swap1\n      pop\n        /* \"#utility.yul\":1487:1520   */\n      tag_161\n        /* \"#utility.yul\":1514:1519   */\n      dup2\n        /* \"#utility.yul\":1487:1520   */\n      tag_113\n      jump\t// in\n    tag_161:\n        /* \"#utility.yul\":1387:1526   */\n      swap3\n      swap2\n      pop\n      pop\n      jump\t// out\n        /* \"#utility.yul\":1532:1861   */\n    tag_20:\n        /* \"#utility.yul\":1591:1597   */\n      0x00\n        /* \"#utility.yul\":1640:1642   */\n      0x20\n        /* \"#utility.yul\":1628:1637   */\n      dup3\n        /* \"#utility.yul\":1619:1626   */\n      dup5\n        /* \"#utility.yul\":1615:1638   */\n      sub\n        /* \"#utility.yul\":1611:1643   */\n      slt\n        /* \"#utility.yul\":1608:1727   */\n      iszero\n      tag_163\n      jumpi\n        /* \"#utility.yul\":1646:1725   */\n      tag_164\n      tag_106\n      jump\t// in\n    tag_164:\n        /* \"#utility.yul\":1608:1727   */\n    tag_163:\n        /* \"#utility.yul\":1766:1767   */\n      0x00\n        /* \"#utility.yul\":1791:1844   */\n      tag_165\n        /* \"#utility.yul\":1836:1843   */\n      dup5\n        /* \"#utility.yul\":1827:1833   */\n      dup3\n        /* \"#utility.yul\":1816:1825   */\n      dup6\n        /* \"#utility.yul\":1812:1834   */\n      add\n        /* \"#utility.yul\":1791:1844   */\n      tag_114\n      jump\t// in\n    tag_165:\n        /* \"#utility.yul\":1781:1844   */\n      swap2\n      pop\n        /* \"#utility.yul\":1737:1854   */\n      pop\n        /* \"#utility.yul\":1532:1861   */\n      swap3\n      swap2\n      pop\n      pop\n      jump\t// out\n        /* \"#utility.yul\":1867:1957   */\n    tag_115:\n        /* \"#utility.yul\":1901:1908   */\n      0x00\n        /* \"#utility.yul\":1944:1949   */\n      dup2\n        /* \"#utility.yul\":1937:1950   */\n      iszero\n        /* \"#utility.yul\":1930:1951   */\n      iszero\n        /* \"#utility.yul\":1919:1951   */\n      swap1\n      pop\n        /* \"#utility.yul\":1867:1957   */\n      swap2\n      swap1\n      pop\n      jump\t// out\n        /* \"#utility.yul\":1963:2072   */\n    tag_116:\n        /* \"#utility.yul\":2044:2065   */\n      tag_168\n        /* \"#utility.yul\":2059:2064   */\n      dup2\n        /* \"#utility.yul\":2044:2065   */\n      tag_115\n      jump\t// in\n    tag_168:\n        /* \"#utility.yul\":2039:2042   */\n      dup3\n        /* \"#utility.yul\":2032:2066   */\n      mstore\n        /* \"#utility.yul\":1963:2072   */\n      pop\n      pop\n      jump\t// out\n        /* \"#utility.yul\":2078:2288   */\n    tag_23:\n        /* \"#utility.yul\":2165:2169   */\n      0x00\n        /* \"#utility.yul\":2203:2205   */\n      0x20\n        /* \"#utility.yul\":2192:2201   */\n      dup3\n        /* \"#utility.yul\":2188:2206   */\n      add\n        /* \"#utility.yul\":2180:2206   */\n      swap1\n      pop\n        /* \"#utility.yul\":2216:2281   */\n      tag_170\n        /* \"#utility.yul\":2278:2279   */\n      0x00\n        /* \"#utility.yul\":2267:2276   */\n      dup4\n        /* \"#utility.yul\":2263:2280   */\n      add\n        /* \"#utility.yul\":2254:2260   */\n      dup5\n        /* \"#utility.yul\":2216:2281   */\n      tag_116\n      jump\t// in\n    tag_170:\n        /* \"#utility.yul\":2078:2288   */\n      swap3\n      swap2\n      pop\n      pop\n      jump\t// out\n        /* \"#utility.yul\":2294:2411   */\n    tag_117:\n        /* \"#utility.yul\":2403:2404   */\n      0x00\n        /* \"#utility.yul\":2400:2401   */\n      dup1\n        /* \"#utility.yul\":2393:2405   */\n      revert\n        /* \"#utility.yul\":2417:2534   */\n    tag_118:\n        /* \"#utility.yul\":2526:2527   */\n      0x00\n        /* \"#utility.yul\":2523:2524   */\n      dup1\n        /* \"#utility.yul\":2516:2528   */\n      revert\n        /* \"#utility.yul\":2540:2642   */\n    tag_119:\n        /* \"#utility.yul\":2581:2587   */\n      0x00\n        /* \"#utility.yul\":2632:2634   */\n      0x1f\n        /* \"#utility.yul\":2628:2635   */\n      not\n        /* \"#utility.yul\":2623:2625   */\n      0x1f\n        /* \"#utility.yul\":2616:2621   */\n      dup4\n        /* \"#utility.yul\":2612:2626   */\n      add\n        /* \"#utility.yul\":2608:2636   */\n      and\n        /* \"#utility.yul\":2598:2636   */\n      swap1\n      pop\n        /* \"#utility.yul\":2540:2642   */\n      swap2\n      swap1\n      pop\n      jump\t// out\n        /* \"#utility.yul\":2648:2828   */\n    tag_120:\n        /* \"#utility.yul\":2696:2773   */\n      0x4e487b7100000000000000000000000000000000000000000000000000000000\n        /* \"#utility.yul\":2693:2694   */\n      0x00\n        /* \"#utility.yul\":2686:2774   */\n      mstore\n        /* \"#utility.yul\":2793:2797   */\n      0x41\n        /* \"#utility.yul\":2790:2791   */\n      0x04\n        /* \"#utility.yul\":2783:2798   */\n      mstore\n        /* \"#utility.yul\":2817:2821   */\n      0x24\n        /* \"#utility.yul\":2814:2815   */\n      0x00\n        /* \"#utility.yul\":2807:2822   */\n      revert\n        /* \"#utility.yul\":2834:3115   */\n    tag_121:\n        /* \"#utility.yul\":2917:2944   */\n      tag_176\n        /* \"#utility.yul\":2939:2943   */\n      dup3\n        /* \"#utility.yul\":2917:2944   */\n      tag_119\n      jump\t// in\n    tag_176:\n        /* \"#utility.yul\":2909:2915   */\n      dup2\n        /* \"#utility.yul\":2905:2945   */\n      add\n        /* \"#utility.yul\":3047:3053   */\n      dup2\n        /* \"#utility.yul\":3035:3045   */\n      dup2\n        /* \"#utility.yul\":3032:3054   */\n      lt\n        /* \"#utility.yul\":3011:3029   */\n      0xffffffffffffffff\n        /* \"#utility.yul\":2999:3009   */\n      dup3\n        /* \"#utility.yul\":2996:3030   */\n      gt\n        /* \"#utility.yul\":2993:3055   */\n      or\n        /* \"#utility.yul\":2990:3078   */\n      iszero\n      tag_177\n      jumpi\n        /* \"#utility.yul\":3058:3076   */\n      tag_178\n      tag_120\n      jump\t// in\n    tag_178:\n        /* \"#utility.yul\":2990:3078   */\n    tag_177:\n        /* \"#utility.yul\":3098:3108   */\n      dup1\n        /* \"#utility.yul\":3094:3096   */\n      0x40\n        /* \"#utility.yul\":3087:3109   */\n      mstore\n        /* \"#utility.yul\":2877:3115   */\n      pop\n        /* \"#utility.yul\":2834:3115   */\n      pop\n      pop\n      jump\t// out\n        /* \"#utility.yul\":3121:3250   */\n    tag_122:\n        /* \"#utility.yul\":3155:3161   */\n      0x00\n        /* \"#utility.yul\":3182:3202   */\n      tag_180\n      tag_105\n      jump\t// in\n    tag_180:\n        /* \"#utility.yul\":3172:3202   */\n      swap1\n      pop\n        /* \"#utility.yul\":3211:3244   */\n      tag_181\n        /* \"#utility.yul\":3239:3243   */\n      dup3\n        /* \"#utility.yul\":3231:3237   */\n      dup3\n        /* \"#utility.yul\":3211:3244   */\n      tag_121\n      jump\t// in\n    tag_181:\n        /* \"#utility.yul\":3121:3250   */\n      swap2\n      swap1\n      pop\n      jump\t// out\n        /* \"#utility.yul\":3256:3564   */\n    tag_123:\n        /* \"#utility.yul\":3318:3322   */\n      0x00\n        /* \"#utility.yul\":3408:3426   */\n      0xffffffffffffffff\n        /* \"#utility.yul\":3400:3406   */\n      dup3\n        /* \"#utility.yul\":3397:3427   */\n      gt\n        /* \"#utility.yul\":3394:3450   */\n      iszero\n      tag_183\n      jumpi\n        /* \"#utility.yul\":3430:3448   */\n      tag_184\n      tag_120\n      jump\t// in\n    tag_184:\n        /* \"#utility.yul\":3394:3450   */\n    tag_183:\n        /* \"#utility.yul\":3468:3497   */\n      tag_185\n        /* \"#utility.yul\":3490:3496   */\n      dup3\n        /* \"#utility.yul\":3468:3497   */\n      tag_119\n      jump\t// in\n    tag_185:\n        /* \"#utility.yul\":3460:3497   */\n      swap1\n      pop\n        /* \"#utility.yul\":3552:3556   */\n      0x20\n        /* \"#utility.yul\":3546:3550   */\n      dup2\n        /* \"#utility.yul\":3542:3557   */\n      add\n        /* \"#utility.yul\":3534:3557   */\n      swap1\n      pop\n        /* \"#utility.yul\":3256:3564   */\n      swap2\n      swap1\n      pop\n      jump\t// out\n        /* \"#utility.yul\":3570:3724   */\n    tag_124:\n        /* \"#utility.yul\":3654:3660   */\n      dup3\n        /* \"#utility.yul\":3649:3652   */\n      dup2\n        /* \"#utility.yul\":3644:3647   */\n      dup4\n        /* \"#utility.yul\":3631:3661   */\n      calldatacopy\n        /* \"#utility.yul\":3716:3717   */\n      0x00\n        /* \"#utility.yul\":3707:3713   */\n      dup4\n        /* \"#utility.yul\":3702:3705   */\n      dup4\n        /* \"#utility.yul\":3698:3714   */\n      add\n        /* \"#utility.yul\":3691:3718   */\n      mstore\n        /* \"#utility.yul\":3570:3724   */\n      pop\n      pop\n      pop\n      jump\t// out\n        /* \"#utility.yul\":3730:4142   */\n    tag_125:\n        /* \"#utility.yul\":3808:3813   */\n      0x00\n        /* \"#utility.yul\":3833:3899   */\n      tag_188\n        /* \"#utility.yul\":3849:3898   */\n      tag_189\n        /* \"#utility.yul\":3891:3897   */\n      dup5\n        /* \"#utility.yul\":3849:3898   */\n      tag_123\n      jump\t// in\n    tag_189:\n        /* \"#utility.yul\":3833:3899   */\n      tag_122\n      jump\t// in\n    tag_188:\n        /* \"#utility.yul\":3824:3899   */\n      swap1\n      pop\n        /* \"#utility.yul\":3922:3928   */\n      dup3\n        /* \"#utility.yul\":3915:3920   */\n      dup2\n        /* \"#utility.yul\":3908:3929   */\n      mstore\n        /* \"#utility.yul\":3960:3964   */\n      0x20\n        /* \"#utility.yul\":3953:3958   */\n      dup2\n        /* \"#utility.yul\":3949:3965   */\n      add\n        /* \"#utility.yul\":3998:4001   */\n      dup5\n        /* \"#utility.yul\":3989:3995   */\n      dup5\n        /* \"#utility.yul\":3984:3987   */\n      dup5\n        /* \"#utility.yul\":3980:3996   */\n      add\n        /* \"#utility.yul\":3977:4002   */\n      gt\n        /* \"#utility.yul\":3974:4086   */\n      iszero\n      tag_190\n      jumpi\n        /* \"#utility.yul\":4005:4084   */\n      tag_191\n      tag_118\n      jump\t// in\n    tag_191:\n        /* \"#utility.yul\":3974:4086   */\n    tag_190:\n        /* \"#utility.yul\":4095:4136   */\n      tag_192\n        /* \"#utility.yul\":4129:4135   */\n      dup5\n        /* \"#utility.yul\":4124:4127   */\n      dup3\n        /* \"#utility.yul\":4119:4122   */\n      dup6\n        /* \"#utility.yul\":4095:4136   */\n      tag_124\n      jump\t// in\n    tag_192:\n        /* \"#utility.yul\":3814:4142   */\n      pop\n        /* \"#utility.yul\":3730:4142   */\n      swap4\n      swap3\n      pop\n      pop\n      pop\n      jump\t// out\n        /* \"#utility.yul\":4162:4502   */\n    tag_126:\n        /* \"#utility.yul\":4218:4223   */\n      0x00\n        /* \"#utility.yul\":4267:4270   */\n      dup3\n        /* \"#utility.yul\":4260:4264   */\n      0x1f\n        /* \"#utility.yul\":4252:4258   */\n      dup4\n        /* \"#utility.yul\":4248:4265   */\n      add\n        /* \"#utility.yul\":4244:4271   */\n      slt\n        /* \"#utility.yul\":4234:4356   */\n      tag_194\n      jumpi\n        /* \"#utility.yul\":4275:4354   */\n      tag_195\n      tag_117\n      jump\t// in\n    tag_195:\n        /* \"#utility.yul\":4234:4356   */\n    tag_194:\n        /* \"#utility.yul\":4392:4398   */\n      dup2\n        /* \"#utility.yul\":4379:4399   */\n      calldataload\n        /* \"#utility.yul\":4417:4496   */\n      tag_196\n        /* \"#utility.yul\":4492:4495   */\n      dup5\n        /* \"#utility.yul\":4484:4490   */\n      dup3\n        /* \"#utility.yul\":4477:4481   */\n      0x20\n        /* \"#utility.yul\":4469:4475   */\n      dup7\n        /* \"#utility.yul\":4465:4482   */\n      add\n        /* \"#utility.yul\":4417:4496   */\n      tag_125\n      jump\t// in\n    tag_196:\n        /* \"#utility.yul\":4408:4496   */\n      swap2\n      pop\n        /* \"#utility.yul\":4224:4502   */\n      pop\n        /* \"#utility.yul\":4162:4502   */\n      swap3\n      swap2\n      pop\n      pop\n      jump\t// out\n        /* \"#utility.yul\":4508:4612   */\n    tag_127:\n        /* \"#utility.yul\":4553:4560   */\n      0x00\n        /* \"#utility.yul\":4582:4606   */\n      tag_198\n        /* \"#utility.yul\":4600:4605   */\n      dup3\n        /* \"#utility.yul\":4582:4606   */\n      tag_111\n      jump\t// in\n    tag_198:\n        /* \"#utility.yul\":4571:4606   */\n      swap1\n      pop\n        /* \"#utility.yul\":4508:4612   */\n      swap2\n      swap1\n      pop\n      jump\t// out\n        /* \"#utility.yul\":4618:4756   */\n    tag_128:\n        /* \"#utility.yul\":4699:4731   */\n      tag_200\n        /* \"#utility.yul\":4725:4730   */\n      dup2\n        /* \"#utility.yul\":4699:4731   */\n      tag_127\n      jump\t// in\n    tag_200:\n        /* \"#utility.yul\":4692:4697   */\n      dup2\n        /* \"#utility.yul\":4689:4732   */\n      eq\n        /* \"#utility.yul\":4679:4750   */\n      tag_201\n      jumpi\n        /* \"#utility.yul\":4746:4747   */\n      0x00\n        /* \"#utility.yul\":4743:4744   */\n      dup1\n        /* \"#utility.yul\":4736:4748   */\n      revert\n        /* \"#utility.yul\":4679:4750   */\n    tag_201:\n        /* \"#utility.yul\":4618:4756   */\n      pop\n      jump\t// out\n        /* \"#utility.yul\":4762:4917   */\n    tag_129:\n        /* \"#utility.yul\":4816:4821   */\n      0x00\n        /* \"#utility.yul\":4854:4860   */\n      dup2\n        /* \"#utility.yul\":4841:4861   */\n      calldataload\n        /* \"#utility.yul\":4832:4861   */\n      swap1\n      pop\n        /* \"#utility.yul\":4870:4911   */\n      tag_203\n        /* \"#utility.yul\":4905:4910   */\n      dup2\n        /* \"#utility.yul\":4870:4911   */\n      tag_128\n      jump\t// in\n    tag_203:\n        /* \"#utility.yul\":4762:4917   */\n      swap3\n      swap2\n      pop\n      pop\n      jump\t// out\n        /* \"#utility.yul\":4923:5884   */\n    tag_27:\n        /* \"#utility.yul\":5027:5033   */\n      0x00\n        /* \"#utility.yul\":5035:5041   */\n      dup1\n        /* \"#utility.yul\":5043:5049   */\n      0x00\n        /* \"#utility.yul\":5051:5057   */\n      dup1\n        /* \"#utility.yul\":5100:5103   */\n      0x80\n        /* \"#utility.yul\":5088:5097   */\n      dup6\n        /* \"#utility.yul\":5079:5086   */\n      dup8\n        /* \"#utility.yul\":5075:5098   */\n      sub\n        /* \"#utility.yul\":5071:5104   */\n      slt\n        /* \"#utility.yul\":5068:5188   */\n      iszero\n      tag_205\n      jumpi\n        /* \"#utility.yul\":5107:5186   */\n      tag_206\n      tag_106\n      jump\t// in\n    tag_206:\n        /* \"#utility.yul\":5068:5188   */\n    tag_205:\n        /* \"#utility.yul\":5255:5256   */\n      0x00\n        /* \"#utility.yul\":5244:5253   */\n      dup6\n        /* \"#utility.yul\":5240:5257   */\n      add\n        /* \"#utility.yul\":5227:5258   */\n      calldataload\n        /* \"#utility.yul\":5285:5303   */\n      0xffffffffffffffff\n        /* \"#utility.yul\":5277:5283   */\n      dup2\n        /* \"#utility.yul\":5274:5304   */\n      gt\n        /* \"#utility.yul\":5271:5388   */\n      iszero\n      tag_207\n      jumpi\n        /* \"#utility.yul\":5307:5386   */\n      tag_208\n      tag_107\n      jump\t// in\n    tag_208:\n        /* \"#utility.yul\":5271:5388   */\n    tag_207:\n        /* \"#utility.yul\":5412:5475   */\n      tag_209\n        /* \"#utility.yul\":5467:5474   */\n      dup8\n        /* \"#utility.yul\":5458:5464   */\n      dup3\n        /* \"#utility.yul\":5447:5456   */\n      dup9\n        /* \"#utility.yul\":5443:5465   */\n      add\n        /* \"#utility.yul\":5412:5475   */\n      tag_126\n      jump\t// in\n    tag_209:\n        /* \"#utility.yul\":5402:5475   */\n      swap5\n      pop\n        /* \"#utility.yul\":5198:5485   */\n      pop\n        /* \"#utility.yul\":5524:5526   */\n      0x20\n        /* \"#utility.yul\":5550:5603   */\n      tag_210\n        /* \"#utility.yul\":5595:5602   */\n      dup8\n        /* \"#utility.yul\":5586:5592   */\n      dup3\n        /* \"#utility.yul\":5575:5584   */\n      dup9\n        /* \"#utility.yul\":5571:5593   */\n      add\n        /* \"#utility.yul\":5550:5603   */\n      tag_110\n      jump\t// in\n    tag_210:\n        /* \"#utility.yul\":5540:5603   */\n      swap4\n      pop\n        /* \"#utility.yul\":5495:5613   */\n      pop\n        /* \"#utility.yul\":5652:5654   */\n      0x40\n        /* \"#utility.yul\":5678:5739   */\n      tag_211\n        /* \"#utility.yul\":5731:5738   */\n      dup8\n        /* \"#utility.yul\":5722:5728   */\n      dup3\n        /* \"#utility.yul\":5711:5720   */\n      dup9\n        /* \"#utility.yul\":5707:5729   */\n      add\n        /* \"#utility.yul\":5678:5739   */\n      tag_129\n      jump\t// in\n    tag_211:\n        /* \"#utility.yul\":5668:5739   */\n      swap3\n      pop\n        /* \"#utility.yul\":5623:5749   */\n      pop\n        /* \"#utility.yul\":5788:5790   */\n      0x60\n        /* \"#utility.yul\":5814:5867   */\n      tag_212\n        /* \"#utility.yul\":5859:5866   */\n      dup8\n        /* \"#utility.yul\":5850:5856   */\n      dup3\n        /* \"#utility.yul\":5839:5848   */\n      dup9\n        /* \"#utility.yul\":5835:5857   */\n      add\n        /* \"#utility.yul\":5814:5867   */\n      tag_110\n      jump\t// in\n    tag_212:\n        /* \"#utility.yul\":5804:5867   */\n      swap2\n      pop\n        /* \"#utility.yul\":5759:5877   */\n      pop\n        /* \"#utility.yul\":4923:5884   */\n      swap3\n      swap6\n      swap2\n      swap5\n      pop\n      swap3\n      pop\n      jump\t// out\n        /* \"#utility.yul\":5890:6008   */\n    tag_130:\n        /* \"#utility.yul\":5977:6001   */\n      tag_214\n        /* \"#utility.yul\":5995:6000   */\n      dup2\n        /* \"#utility.yul\":5977:6001   */\n      tag_112\n      jump\t// in\n    tag_214:\n        /* \"#utility.yul\":5972:5975   */\n      dup3\n        /* \"#utility.yul\":5965:6002   */\n      mstore\n        /* \"#utility.yul\":5890:6008   */\n      pop\n      pop\n      jump\t// out\n        /* \"#utility.yul\":6014:6236   */\n    tag_33:\n        /* \"#utility.yul\":6107:6111   */\n      0x00\n        /* \"#utility.yul\":6145:6147   */\n      0x20\n        /* \"#utility.yul\":6134:6143   */\n      dup3\n        /* \"#utility.yul\":6130:6148   */\n      add\n        /* \"#utility.yul\":6122:6148   */\n      swap1\n      pop\n        /* \"#utility.yul\":6158:6229   */\n      tag_216\n        /* \"#utility.yul\":6226:6227   */\n      0x00\n        /* \"#utility.yul\":6215:6224   */\n      dup4\n        /* \"#utility.yul\":6211:6228   */\n      add\n        /* \"#utility.yul\":6202:6208   */\n      dup5\n        /* \"#utility.yul\":6158:6229   */\n      tag_130\n      jump\t// in\n    tag_216:\n        /* \"#utility.yul\":6014:6236   */\n      swap3\n      swap2\n      pop\n      pop\n      jump\t// out\n        /* \"#utility.yul\":6242:6360   */\n    tag_131:\n        /* \"#utility.yul\":6329:6353   */\n      tag_218\n        /* \"#utility.yul\":6347:6352   */\n      dup2\n        /* \"#utility.yul\":6329:6353   */\n      tag_108\n      jump\t// in\n    tag_218:\n        /* \"#utility.yul\":6324:6327   */\n      dup3\n        /* \"#utility.yul\":6317:6354   */\n      mstore\n        /* \"#utility.yul\":6242:6360   */\n      pop\n      pop\n      jump\t// out\n        /* \"#utility.yul\":6366:6588   */\n    tag_38:\n        /* \"#utility.yul\":6459:6463   */\n      0x00\n        /* \"#utility.yul\":6497:6499   */\n      0x20\n        /* \"#utility.yul\":6486:6495   */\n      dup3\n        /* \"#utility.yul\":6482:6500   */\n      add\n        /* \"#utility.yul\":6474:6500   */\n      swap1\n      pop\n        /* \"#utility.yul\":6510:6581   */\n      tag_220\n        /* \"#utility.yul\":6578:6579   */\n      0x00\n        /* \"#utility.yul\":6567:6576   */\n      dup4\n        /* \"#utility.yul\":6563:6580   */\n      add\n        /* \"#utility.yul\":6554:6560   */\n      dup5\n        /* \"#utility.yul\":6510:6581   */\n      tag_131\n      jump\t// in\n    tag_220:\n        /* \"#utility.yul\":6366:6588   */\n      swap3\n      swap2\n      pop\n      pop\n      jump\t// out\n        /* \"#utility.yul\":6594:6693   */\n    tag_132:\n        /* \"#utility.yul\":6646:6652   */\n      0x00\n        /* \"#utility.yul\":6680:6685   */\n      dup2\n        /* \"#utility.yul\":6674:6686   */\n      mload\n        /* \"#utility.yul\":6664:6686   */\n      swap1\n      pop\n        /* \"#utility.yul\":6594:6693   */\n      swap2\n      swap1\n      pop\n      jump\t// out\n        /* \"#utility.yul\":6699:6868   */\n    tag_133:\n        /* \"#utility.yul\":6783:6794   */\n      0x00\n        /* \"#utility.yul\":6817:6823   */\n      dup3\n        /* \"#utility.yul\":6812:6815   */\n      dup3\n        /* \"#utility.yul\":6805:6824   */\n      mstore\n        /* \"#utility.yul\":6857:6861   */\n      0x20\n        /* \"#utility.yul\":6852:6855   */\n      dup3\n        /* \"#utility.yul\":6848:6862   */\n      add\n        /* \"#utility.yul\":6833:6862   */\n      swap1\n      pop\n        /* \"#utility.yul\":6699:6868   */\n      swap3\n      swap2\n      pop\n      pop\n      jump\t// out\n        /* \"#utility.yul\":6874:7181   */\n    tag_134:\n        /* \"#utility.yul\":6942:6943   */\n      0x00\n        /* \"#utility.yul\":6952:7065   */\n    tag_224:\n        /* \"#utility.yul\":6966:6972   */\n      dup4\n        /* \"#utility.yul\":6963:6964   */\n      dup2\n        /* \"#utility.yul\":6960:6973   */\n      lt\n        /* \"#utility.yul\":6952:7065   */\n      iszero\n      tag_226\n      jumpi\n        /* \"#utility.yul\":7051:7052   */\n      dup1\n        /* \"#utility.yul\":7046:7049   */\n      dup3\n        /* \"#utility.yul\":7042:7053   */\n      add\n        /* \"#utility.yul\":7036:7054   */\n      mload\n        /* \"#utility.yul\":7032:7033   */\n      dup2\n        /* \"#utility.yul\":7027:7030   */\n      dup5\n        /* \"#utility.yul\":7023:7034   */\n      add\n        /* \"#utility.yul\":7016:7055   */\n      mstore\n        /* \"#utility.yul\":6988:6990   */\n      0x20\n        /* \"#utility.yul\":6985:6986   */\n      dup2\n        /* \"#utility.yul\":6981:6991   */\n      add\n        /* \"#utility.yul\":6976:6991   */\n      swap1\n      pop\n        /* \"#utility.yul\":6952:7065   */\n      jump(tag_224)\n    tag_226:\n        /* \"#utility.yul\":7083:7089   */\n      dup4\n        /* \"#utility.yul\":7080:7081   */\n      dup2\n        /* \"#utility.yul\":7077:7090   */\n      gt\n        /* \"#utility.yul\":7074:7175   */\n      iszero\n      tag_227\n      jumpi\n        /* \"#utility.yul\":7163:7164   */\n      0x00\n        /* \"#utility.yul\":7154:7160   */\n      dup5\n        /* \"#utility.yul\":7149:7152   */\n      dup5\n        /* \"#utility.yul\":7145:7161   */\n      add\n        /* \"#utility.yul\":7138:7165   */\n      mstore\n        /* \"#utility.yul\":7074:7175   */\n    tag_227:\n        /* \"#utility.yul\":6923:7181   */\n      pop\n        /* \"#utility.yul\":6874:7181   */\n      pop\n      pop\n      pop\n      jump\t// out\n        /* \"#utility.yul\":7187:7551   */\n    tag_135:\n        /* \"#utility.yul\":7275:7278   */\n      0x00\n        /* \"#utility.yul\":7303:7342   */\n      tag_229\n        /* \"#utility.yul\":7336:7341   */\n      dup3\n        /* \"#utility.yul\":7303:7342   */\n      tag_132\n      jump\t// in\n    tag_229:\n        /* \"#utility.yul\":7358:7429   */\n      tag_230\n        /* \"#utility.yul\":7422:7428   */\n      dup2\n        /* \"#utility.yul\":7417:7420   */\n      dup6\n        /* \"#utility.yul\":7358:7429   */\n      tag_133\n      jump\t// in\n    tag_230:\n        /* \"#utility.yul\":7351:7429   */\n      swap4\n      pop\n        /* \"#utility.yul\":7438:7490   */\n      tag_231\n        /* \"#utility.yul\":7483:7489   */\n      dup2\n        /* \"#utility.yul\":7478:7481   */\n      dup6\n        /* \"#utility.yul\":7471:7475   */\n      0x20\n        /* \"#utility.yul\":7464:7469   */\n      dup7\n        /* \"#utility.yul\":7460:7476   */\n      add\n        /* \"#utility.yul\":7438:7490   */\n      tag_134\n      jump\t// in\n    tag_231:\n        /* \"#utility.yul\":7515:7544   */\n      tag_232\n        /* \"#utility.yul\":7537:7543   */\n      dup2\n        /* \"#utility.yul\":7515:7544   */\n      tag_119\n      jump\t// in\n    tag_232:\n        /* \"#utility.yul\":7510:7513   */\n      dup5\n        /* \"#utility.yul\":7506:7545   */\n      add\n        /* \"#utility.yul\":7499:7545   */\n      swap2\n      pop\n        /* \"#utility.yul\":7279:7551   */\n      pop\n        /* \"#utility.yul\":7187:7551   */\n      swap3\n      swap2\n      pop\n      pop\n      jump\t// out\n        /* \"#utility.yul\":7557:7699   */\n    tag_136:\n        /* \"#utility.yul\":7660:7692   */\n      tag_234\n        /* \"#utility.yul\":7686:7691   */\n      dup2\n        /* \"#utility.yul\":7660:7692   */\n      tag_127\n      jump\t// in\n    tag_234:\n        /* \"#utility.yul\":7655:7658   */\n      dup3\n        /* \"#utility.yul\":7648:7693   */\n      mstore\n        /* \"#utility.yul\":7557:7699   */\n      pop\n      pop\n      jump\t// out\n        /* \"#utility.yul\":7705:8591   */\n    tag_44:\n        /* \"#utility.yul\":7968:7972   */\n      0x00\n        /* \"#utility.yul\":8006:8009   */\n      0xc0\n        /* \"#utility.yul\":7995:8004   */\n      dup3\n        /* \"#utility.yul\":7991:8010   */\n      add\n        /* \"#utility.yul\":7983:8010   */\n      swap1\n      pop\n        /* \"#utility.yul\":8056:8065   */\n      dup2\n        /* \"#utility.yul\":8050:8054   */\n      dup2\n        /* \"#utility.yul\":8046:8066   */\n      sub\n        /* \"#utility.yul\":8042:8043   */\n      0x00\n        /* \"#utility.yul\":8031:8040   */\n      dup4\n        /* \"#utility.yul\":8027:8044   */\n      add\n        /* \"#utility.yul\":8020:8067   */\n      mstore\n        /* \"#utility.yul\":8084:8162   */\n      tag_236\n        /* \"#utility.yul\":8157:8161   */\n      dup2\n        /* \"#utility.yul\":8148:8154   */\n      dup10\n        /* \"#utility.yul\":8084:8162   */\n      tag_135\n      jump\t// in\n    tag_236:\n        /* \"#utility.yul\":8076:8162   */\n      swap1\n      pop\n        /* \"#utility.yul\":8172:8244   */\n      tag_237\n        /* \"#utility.yul\":8240:8242   */\n      0x20\n        /* \"#utility.yul\":8229:8238   */\n      dup4\n        /* \"#utility.yul\":8225:8243   */\n      add\n        /* \"#utility.yul\":8216:8222   */\n      dup9\n        /* \"#utility.yul\":8172:8244   */\n      tag_131\n      jump\t// in\n    tag_237:\n        /* \"#utility.yul\":8254:8342   */\n      tag_238\n        /* \"#utility.yul\":8338:8340   */\n      0x40\n        /* \"#utility.yul\":8327:8336   */\n      dup4\n        /* \"#utility.yul\":8323:8341   */\n      add\n        /* \"#utility.yul\":8314:8320   */\n      dup8\n        /* \"#utility.yul\":8254:8342   */\n      tag_136\n      jump\t// in\n    tag_238:\n        /* \"#utility.yul\":8352:8424   */\n      tag_239\n        /* \"#utility.yul\":8420:8422   */\n      0x60\n        /* \"#utility.yul\":8409:8418   */\n      dup4\n        /* \"#utility.yul\":8405:8423   */\n      add\n        /* \"#utility.yul\":8396:8402   */\n      dup7\n        /* \"#utility.yul\":8352:8424   */\n      tag_131\n      jump\t// in\n    tag_239:\n        /* \"#utility.yul\":8434:8501   */\n      tag_240\n        /* \"#utility.yul\":8496:8499   */\n      0x80\n        /* \"#utility.yul\":8485:8494   */\n      dup4\n        /* \"#utility.yul\":8481:8500   */\n      add\n        /* \"#utility.yul\":8472:8478   */\n      dup6\n        /* \"#utility.yul\":8434:8501   */\n      tag_116\n      jump\t// in\n    tag_240:\n        /* \"#utility.yul\":8511:8584   */\n      tag_241\n        /* \"#utility.yul\":8579:8582   */\n      0xa0\n        /* \"#utility.yul\":8568:8577   */\n      dup4\n        /* \"#utility.yul\":8564:8583   */\n      add\n        /* \"#utility.yul\":8555:8561   */\n      dup5\n        /* \"#utility.yul\":8511:8584   */\n      tag_131\n      jump\t// in\n    tag_241:\n        /* \"#utility.yul\":7705:8591   */\n      swap8\n      swap7\n      pop\n      pop\n      pop\n      pop\n      pop\n      pop\n      pop\n      jump\t// out\n        /* \"#utility.yul\":8597:8777   */\n    tag_60:\n        /* \"#utility.yul\":8645:8722   */\n      0x4e487b7100000000000000000000000000000000000000000000000000000000\n        /* \"#utility.yul\":8642:8643   */\n      0x00\n        /* \"#utility.yul\":8635:8723   */\n      mstore\n        /* \"#utility.yul\":8742:8746   */\n      0x32\n        /* \"#utility.yul\":8739:8740   */\n      0x04\n        /* \"#utility.yul\":8732:8747   */\n      mstore\n        /* \"#utility.yul\":8766:8770   */\n      0x24\n        /* \"#utility.yul\":8763:8764   */\n      0x00\n        /* \"#utility.yul\":8756:8771   */\n      revert\n        /* \"#utility.yul\":8783:8963   */\n    tag_137:\n        /* \"#utility.yul\":8831:8908   */\n      0x4e487b7100000000000000000000000000000000000000000000000000000000\n        /* \"#utility.yul\":8828:8829   */\n      0x00\n        /* \"#utility.yul\":8821:8909   */\n      mstore\n        /* \"#utility.yul\":8928:8932   */\n      0x11\n        /* \"#utility.yul\":8925:8926   */\n      0x04\n        /* \"#utility.yul\":8918:8933   */\n      mstore\n        /* \"#utility.yul\":8952:8956   */\n      0x24\n        /* \"#utility.yul\":8949:8950   */\n      0x00\n        /* \"#utility.yul\":8942:8957   */\n      revert\n        /* \"#utility.yul\":8969:9317   */\n    tag_63:\n        /* \"#utility.yul\":9009:9016   */\n      0x00\n        /* \"#utility.yul\":9032:9052   */\n      tag_245\n        /* \"#utility.yul\":9050:9051   */\n      dup3\n        /* \"#utility.yul\":9032:9052   */\n      tag_108\n      jump\t// in\n    tag_245:\n        /* \"#utility.yul\":9027:9052   */\n      swap2\n      pop\n        /* \"#utility.yul\":9066:9086   */\n      tag_246\n        /* \"#utility.yul\":9084:9085   */\n      dup4\n        /* \"#utility.yul\":9066:9086   */\n      tag_108\n      jump\t// in\n    tag_246:\n        /* \"#utility.yul\":9061:9086   */\n      swap3\n      pop\n        /* \"#utility.yul\":9254:9255   */\n      dup2\n        /* \"#utility.yul\":9186:9252   */\n      0xffffffffffffffffffffffffffffffffffffffffffffffffffffffffffffffff\n        /* \"#utility.yul\":9182:9256   */\n      div\n        /* \"#utility.yul\":9179:9180   */\n      dup4\n        /* \"#utility.yul\":9176:9257   */\n      gt\n        /* \"#utility.yul\":9171:9172   */\n      dup3\n        /* \"#utility.yul\":9164:9173   */\n      iszero\n        /* \"#utility.yul\":9157:9174   */\n      iszero\n        /* \"#utility.yul\":9153:9258   */\n      and\n        /* \"#utility.yul\":9150:9281   */\n      iszero\n      tag_247\n      jumpi\n        /* \"#utility.yul\":9261:9279   */\n      tag_248\n      tag_137\n      jump\t// in\n    tag_248:\n        /* \"#utility.yul\":9150:9281   */\n    tag_247:\n        /* \"#utility.yul\":9309:9310   */\n      dup3\n        /* \"#utility.yul\":9306:9307   */\n      dup3\n        /* \"#utility.yul\":9302:9311   */\n      mul\n        /* \"#utility.yul\":9291:9311   */\n      swap1\n      pop\n        /* \"#utility.yul\":8969:9317   */\n      swap3\n      swap2\n      pop\n      pop\n      jump\t// out\n        /* \"#utility.yul\":9323:9503   */\n    tag_138:\n        /* \"#utility.yul\":9371:9448   */\n      0x4e487b7100000000000000000000000000000000000000000000000000000000\n        /* \"#utility.yul\":9368:9369   */\n      0x00\n        /* \"#utility.yul\":9361:9449   */\n      mstore\n        /* \"#utility.yul\":9468:9472   */\n      0x12\n        /* \"#utility.yul\":9465:9466   */\n      0x04\n        /* \"#utility.yul\":9458:9473   */\n      mstore\n        /* \"#utility.yul\":9492:9496   */\n      0x24\n        /* \"#utility.yul\":9489:9490   */\n      0x00\n        /* \"#utility.yul\":9482:9497   */\n      revert\n        /* \"#utility.yul\":9509:9694   */\n    tag_65:\n        /* \"#utility.yul\":9549:9550   */\n      0x00\n        /* \"#utility.yul\":9566:9586   */\n      tag_251\n        /* \"#utility.yul\":9584:9585   */\n      dup3\n        /* \"#utility.yul\":9566:9586   */\n      tag_108\n      jump\t// in\n    tag_251:\n        /* \"#utility.yul\":9561:9586   */\n      swap2\n      pop\n        /* \"#utility.yul\":9600:9620   */\n      tag_252\n        /* \"#utility.yul\":9618:9619   */\n      dup4\n        /* \"#utility.yul\":9600:9620   */\n      tag_108\n      jump\t// in\n    tag_252:\n        /* \"#utility.yul\":9595:9620   */\n      swap3\n      pop\n        /* \"#utility.yul\":9639:9640   */\n      dup3\n        /* \"#utility.yul\":9629:9664   */\n      tag_253\n      jumpi\n        /* \"#utility.yul\":9644:9662   */\n      tag_254\n      tag_138\n      jump\t// in\n    tag_254:\n        /* \"#utility.yul\":9629:9664   */\n    tag_253:\n        /* \"#utility.yul\":9686:9687   */\n      dup3\n        /* \"#utility.yul\":9683:9684   */\n      dup3\n        /* \"#utility.yul\":9679:9688   */\n      div\n        /* \"#utility.yul\":9674:9688   */\n      swap1\n      pop\n        /* \"#utility.yul\":9509:9694   */\n      swap3\n      swap2\n      pop\n      pop\n      jump\t// out\n        /* \"#utility.yul\":9700:9880   */\n    tag_139:\n        /* \"#utility.yul\":9748:9825   */\n      0x4e487b7100000000000000000000000000000000000000000000000000000000\n        /* \"#utility.yul\":9745:9746   */\n      0x00\n        /* \"#utility.yul\":9738:9826   */\n      mstore\n        /* \"#utility.yul\":9845:9849   */\n      0x22\n        /* \"#utility.yul\":9842:9843   */\n      0x04\n        /* \"#utility.yul\":9835:9850   */\n      mstore\n        /* \"#utility.yul\":9869:9873   */\n      0x24\n        /* \"#utility.yul\":9866:9867   */\n      0x00\n        /* \"#utility.yul\":9859:9874   */\n      revert\n        /* \"#utility.yul\":9886:10206   */\n    tag_79:\n        /* \"#utility.yul\":9930:9936   */\n      0x00\n        /* \"#utility.yul\":9967:9968   */\n      0x02\n        /* \"#utility.yul\":9961:9965   */\n      dup3\n        /* \"#utility.yul\":9957:9969   */\n      div\n        /* \"#utility.yul\":9947:9969   */\n      swap1\n      pop\n        /* \"#utility.yul\":10014:10015   */\n      0x01\n        /* \"#utility.yul\":10008:10012   */\n      dup3\n        /* \"#utility.yul\":10004:10016   */\n      and\n        /* \"#utility.yul\":10035:10053   */\n      dup1\n        /* \"#utility.yul\":10025:10106   */\n      tag_257\n      jumpi\n        /* \"#utility.yul\":10091:10095   */\n      0x7f\n        /* \"#utility.yul\":10083:10089   */\n      dup3\n        /* \"#utility.yul\":10079:10096   */\n      and\n        /* \"#utility.yul\":10069:10096   */\n      swap2\n      pop\n        /* \"#utility.yul\":10025:10106   */\n    tag_257:\n        /* \"#utility.yul\":10153:10155   */\n      0x20\n        /* \"#utility.yul\":10145:10151   */\n      dup3\n        /* \"#utility.yul\":10142:10156   */\n      lt\n        /* \"#utility.yul\":10122:10140   */\n      dup2\n        /* \"#utility.yul\":10119:10157   */\n      sub\n        /* \"#utility.yul\":10116:10200   */\n      tag_258\n      jumpi\n        /* \"#utility.yul\":10172:10190   */\n      tag_259\n      tag_139\n      jump\t// in\n    tag_259:\n        /* \"#utility.yul\":10116:10200   */\n    tag_258:\n        /* \"#utility.yul\":9937:10206   */\n      pop\n        /* \"#utility.yul\":9886:10206   */\n      swap2\n      swap1\n      pop\n      jump\t// out\n        /* \"#utility.yul\":10212:10445   */\n    tag_87:\n        /* \"#utility.yul\":10251:10254   */\n      0x00\n        /* \"#utility.yul\":10274:10298   */\n      tag_261\n        /* \"#utility.yul\":10292:10297   */\n      dup3\n        /* \"#utility.yul\":10274:10298   */\n      tag_108\n      jump\t// in\n    tag_261:\n        /* \"#utility.yul\":10265:10298   */\n      swap2\n      pop\n        /* \"#utility.yul\":10320:10386   */\n      0xffffffffffffffffffffffffffffffffffffffffffffffffffffffffffffffff\n        /* \"#utility.yul\":10313:10318   */\n      dup3\n        /* \"#utility.yul\":10310:10387   */\n      sub\n        /* \"#utility.yul\":10307:10410   */\n      tag_262\n      jumpi\n        /* \"#utility.yul\":10390:10408   */\n      tag_263\n      tag_137\n      jump\t// in\n    tag_263:\n        /* \"#utility.yul\":10307:10410   */\n    tag_262:\n        /* \"#utility.yul\":10437:10438   */\n      0x01\n        /* \"#utility.yul\":10430:10435   */\n      dup3\n        /* \"#utility.yul\":10426:10439   */\n      add\n        /* \"#utility.yul\":10419:10439   */\n      swap1\n      pop\n        /* \"#utility.yul\":10212:10445   */\n      swap2\n      swap1\n      pop\n      jump\t// out\n\n    auxdata: 0xa26469706673582212205e89d4a1a3040e3f00126ab0dc1af5c306183a13c707af5ca52177a47f62f07464736f6c634300080d0033\n}\n","bytecode":{"linkReferences":{},"object":"60806040523480156200001157600080fd5b50604051620010503803806200105083398181016040528101906200003791906200012c565b8160028190555080600160006101000a81548173ffffffffffffffffffffffffffffffffffffffff021916908373ffffffffffffffffffffffffffffffffffffffff160217905550505062000173565b600080fd5b6000819050919050565b620000a1816200008c565b8114620000ad57600080fd5b50565b600081519050620000c18162000096565b92915050565b600073ffffffffffffffffffffffffffffffffffffffff82169050919050565b6000620000f482620000c7565b9050919050565b6200010681620000e7565b81146200011257600080fd5b50565b6000815190506200012681620000fb565b92915050565b6000806040838503121562000146576200014562000087565b5b60006200015685828601620000b0565b9250506020620001698582860162000115565b9150509250929050565b610ecd80620001836000396000f3fe6080604052600436106100865760003560e01c80637569b3d7116100595780637569b3d71461014557806381d12c5814610170578063937e09b1146101b2578063d7bb99ba146101dd578063d7d1bbdb146101e757610086565b8063034410061461008b5780631f6d4942146100b457806326883efa146100f1578063481c6a751461011a575b600080fd5b34801561009757600080fd5b506100b260048036038101906100ad919061088f565b610210565b005b3480156100c057600080fd5b506100db60048036038101906100d6919061091a565b610369565b6040516100e89190610962565b60405180910390f35b3480156100fd57600080fd5b5061011860048036038101906101139190610b01565b610389565b005b34801561012657600080fd5b5061012f6104a2565b60405161013c9190610b93565b60405180910390f35b34801561015157600080fd5b5061015a6104c8565b6040516101679190610bbd565b60405180910390f35b34801561017c57600080fd5b506101976004803603810190610192919061088f565b6104ce565b6040516101a996959493929190610c6f565b60405180910390f35b3480156101be57600080fd5b506101c76105cf565b6040516101d49190610bbd565b60405180910390f35b6101e56105d5565b005b3480156101f357600080fd5b5061020e6004803603810190610209919061088f565b610656565b005b600160009054906101000a900473ffffffffffffffffffffffffffffffffffffffff1673ffffffffffffffffffffffffffffffffffffffff163373ffffffffffffffffffffffffffffffffffffffff161461026a57600080fd5b600080828154811061027f5761027e610cd7565b5b906000526020600020906007020190508060030154600454606483600501546102a89190610d35565b6102b29190610dbe565b10156102bd57600080fd5b8060040160009054906101000a900460ff16156102d957600080fd5b8060020160009054906101000a900473ffffffffffffffffffffffffffffffffffffffff1673ffffffffffffffffffffffffffffffffffffffff166108fc82600101549081150290604051600060405180830381858888f19350505050158015610347573d6000803e3d6000fd5b5060018160040160006101000a81548160ff0219169083151502179055505050565b60036020528060005260406000206000915054906101000a900460ff1681565b600160009054906101000a900473ffffffffffffffffffffffffffffffffffffffff1673ffffffffffffffffffffffffffffffffffffffff163373ffffffffffffffffffffffffffffffffffffffff16146103e357600080fd5b60008060018160018154018082558091505003906000526020600020906007020190508481600001908051906020019061041e9291906107a2565b50838160010181905550828160020160006101000a81548173ffffffffffffffffffffffffffffffffffffffff021916908373ffffffffffffffffffffffffffffffffffffffff16021790555081816003018190555060008160040160006101000a81548160ff021916908315150217905550600081600501819055505050505050565b600160009054906101000a900473ffffffffffffffffffffffffffffffffffffffff1681565b60045481565b600081815481106104de57600080fd5b906000526020600020906007020160009150905080600001805461050190610e1e565b80601f016020809104026020016040519081016040528092919081815260200182805461052d90610e1e565b801561057a5780601f1061054f5761010080835404028352916020019161057a565b820191906000526020600020905b81548152906001019060200180831161055d57829003601f168201915b5050505050908060010154908060020160009054906101000a900473ffffffffffffffffffffffffffffffffffffffff16908060030154908060040160009054906101000a900460ff16908060050154905086565b60025481565b6002543410156105e457600080fd5b6001600360003373ffffffffffffffffffffffffffffffffffffffff1673ffffffffffffffffffffffffffffffffffffffff16815260200190815260200160002060006101000a81548160ff0219169083151502179055506004600081548092919061064f90610e4f565b9190505550565b600080828154811061066b5761066a610cd7565b5b90600052602060002090600702019050600360003373ffffffffffffffffffffffffffffffffffffffff1673ffffffffffffffffffffffffffffffffffffffff16815260200190815260200160002060009054906101000a900460ff166106d157600080fd5b8060060160003373ffffffffffffffffffffffffffffffffffffffff1673ffffffffffffffffffffffffffffffffffffffff16815260200190815260200160002060009054906101000a900460ff161561072a57600080fd5b60018160060160003373ffffffffffffffffffffffffffffffffffffffff1673ffffffffffffffffffffffffffffffffffffffff16815260200190815260200160002060006101000a81548160ff02191690831515021790555080600501600081548092919061079990610e4f565b91905055505050565b8280546107ae90610e1e565b90600052602060002090601f0160209004810192826107d05760008555610817565b82601f106107e957805160ff1916838001178555610817565b82800160010185558215610817579182015b828111156108165782518255916020019190600101906107fb565b5b5090506108249190610828565b5090565b5b80821115610841576000816000905550600101610829565b5090565b6000604051905090565b600080fd5b600080fd5b6000819050919050565b61086c81610859565b811461087757600080fd5b50565b60008135905061088981610863565b92915050565b6000602082840312156108a5576108a461084f565b5b60006108b38482850161087a565b91505092915050565b600073ffffffffffffffffffffffffffffffffffffffff82169050919050565b60006108e7826108bc565b9050919050565b6108f7816108dc565b811461090257600080fd5b50565b600081359050610914816108ee565b92915050565b6000602082840312156109305761092f61084f565b5b600061093e84828501610905565b91505092915050565b60008115159050919050565b61095c81610947565b82525050565b60006020820190506109776000830184610953565b92915050565b600080fd5b600080fd5b6000601f19601f8301169050919050565b7f4e487b7100000000000000000000000000000000000000000000000000000000600052604160045260246000fd5b6109d082610987565b810181811067ffffffffffffffff821117156109ef576109ee610998565b5b80604052505050565b6000610a02610845565b9050610a0e82826109c7565b919050565b600067ffffffffffffffff821115610a2e57610a2d610998565b5b610a3782610987565b9050602081019050919050565b82818337600083830152505050565b6000610a66610a6184610a13565b6109f8565b905082815260208101848484011115610a8257610a81610982565b5b610a8d848285610a44565b509392505050565b600082601f830112610aaa57610aa961097d565b5b8135610aba848260208601610a53565b91505092915050565b6000610ace826108bc565b9050919050565b610ade81610ac3565b8114610ae957600080fd5b50565b600081359050610afb81610ad5565b92915050565b60008060008060808587031215610b1b57610b1a61084f565b5b600085013567ffffffffffffffff811115610b3957610b38610854565b5b610b4587828801610a95565b9450506020610b568782880161087a565b9350506040610b6787828801610aec565b9250506060610b788782880161087a565b91505092959194509250565b610b8d816108dc565b82525050565b6000602082019050610ba86000830184610b84565b92915050565b610bb781610859565b82525050565b6000602082019050610bd26000830184610bae565b92915050565b600081519050919050565b600082825260208201905092915050565b60005b83811015610c12578082015181840152602081019050610bf7565b83811115610c21576000848401525b50505050565b6000610c3282610bd8565b610c3c8185610be3565b9350610c4c818560208601610bf4565b610c5581610987565b840191505092915050565b610c6981610ac3565b82525050565b600060c0820190508181036000830152610c898189610c27565b9050610c986020830188610bae565b610ca56040830187610c60565b610cb26060830186610bae565b610cbf6080830185610953565b610ccc60a0830184610bae565b979650505050505050565b7f4e487b7100000000000000000000000000000000000000000000000000000000600052603260045260246000fd5b7f4e487b7100000000000000000000000000000000000000000000000000000000600052601160045260246000fd5b6000610d4082610859565b9150610d4b83610859565b9250817fffffffffffffffffffffffffffffffffffffffffffffffffffffffffffffffff0483118215151615610d8457610d83610d06565b5b828202905092915050565b7f4e487b7100000000000000000000000000000000000000000000000000000000600052601260045260246000fd5b6000610dc982610859565b9150610dd483610859565b925082610de457610de3610d8f565b5b828204905092915050565b7f4e487b7100000000000000000000000000000000000000000000000000000000600052602260045260246000fd5b60006002820490506001821680610e3657607f821691505b602082108103610e4957610e48610def565b5b50919050565b6000610e5a82610859565b91507fffffffffffffffffffffffffffffffffffffffffffffffffffffffffffffffff8203610e8c57610e8b610d06565b5b60018201905091905056fea26469706673582212205e89d4a1a3040e3f00126ab0dc1af5c306183a13c707af5ca52177a47f62f07464736f6c634300080d0033","opcodes":"PUSH1 0x80 PUSH1 0x40 MSTORE CALLVALUE DUP1 ISZERO PUSH3 0x11 JUMPI PUSH1 0x0 DUP1 REVERT JUMPDEST POP PUSH1 0x40 MLOAD PUSH3 0x1050 CODESIZE SUB DUP1 PUSH3 0x1050 DUP4 CODECOPY DUP2 DUP2 ADD PUSH1 0x40 MSTORE DUP2 ADD SWAP1 PUSH3 0x37 SWAP2 SWAP1 PUSH3 0x12C JUMP JUMPDEST DUP2 PUSH1 0x2 DUP2 SWAP1 SSTORE POP DUP1 PUSH1 0x1 PUSH1 0x0 PUSH2 0x100 EXP DUP2 SLOAD DUP2 PUSH20 0xFFFFFFFFFFFFFFFFFFFFFFFFFFFFFFFFFFFFFFFF MUL NOT AND SWAP1 DUP4 PUSH20 0xFFFFFFFFFFFFFFFFFFFFFFFFFFFFFFFFFFFFFFFF AND MUL OR SWAP1 SSTORE POP POP POP PUSH3 0x173 JUMP JUMPDEST PUSH1 0x0 DUP1 REVERT JUMPDEST PUSH1 0x0 DUP2 SWAP1 POP SWAP2 SWAP1 POP JUMP JUMPDEST PUSH3 0xA1 DUP2 PUSH3 0x8C JUMP JUMPDEST DUP2 EQ PUSH3 0xAD JUMPI PUSH1 0x0 DUP1 REVERT JUMPDEST POP JUMP JUMPDEST PUSH1 0x0 DUP2 MLOAD SWAP1 POP PUSH3 0xC1 DUP2 PUSH3 0x96 JUMP JUMPDEST SWAP3 SWAP2 POP POP JUMP JUMPDEST PUSH1 0x0 PUSH20 0xFFFFFFFFFFFFFFFFFFFFFFFFFFFFFFFFFFFFFFFF DUP3 AND SWAP1 POP SWAP2 SWAP1 POP JUMP JUMPDEST PUSH1 0x0 PUSH3 0xF4 DUP3 PUSH3 0xC7 JUMP JUMPDEST SWAP1 POP SWAP2 SWAP1 POP JUMP JUMPDEST PUSH3 0x106 DUP2 PUSH3 0xE7 JUMP JUMPDEST DUP2 EQ PUSH3 0x112 JUMPI PUSH1 0x0 DUP1 REVERT JUMPDEST POP JUMP JUMPDEST PUSH1 0x0 DUP2 MLOAD SWAP1 POP PUSH3 0x126 DUP2 PUSH3 0xFB JUMP JUMPDEST SWAP3 SWAP2 POP POP JUMP JUMPDEST PUSH1 0x0 DUP1 PUSH1 0x40 DUP4 DUP6 SUB SLT ISZERO PUSH3 0x146 JUMPI PUSH3 0x145 PUSH3 0x87 JUMP JUMPDEST JUMPDEST PUSH1 0x0 PUSH3 0x156 DUP6 DUP3 DUP7 ADD PUSH3 0xB0 JUMP JUMPDEST SWAP3 POP POP PUSH1 0x20 PUSH3 0x169 DUP6 DUP3 DUP7 ADD PUSH3 0x115 JUMP JUMPDEST SWAP2 POP POP SWAP3 POP SWAP3 SWAP1 POP JUMP JUMPDEST PUSH2 0xECD DUP1 PUSH3 0x183 PUSH1 0x0 CODECOPY PUSH1 0x0 RETURN INVALID PUSH1 0x80 PUSH1 0x40 MSTORE PUSH1 0x4 CALLDATASIZE LT PUSH2 0x86 JUMPI PUSH1 0x0 CALLDATALOAD PUSH1 0xE0 SHR DUP1 PUSH4 0x7569B3D7 GT PUSH2 0x59 JUMPI DUP1 PUSH4 0x7569B3D7 EQ PUSH2 0x145 JUMPI DUP1 PUSH4 0x81D12C58 EQ PUSH2 0x170 JUMPI DUP1 PUSH4 0x937E09B1 EQ PUSH2 0x1B2 JUMPI DUP1 PUSH4 0xD7BB99BA EQ PUSH2 0x1DD JUMPI DUP1 PUSH4 0xD7D1BBDB EQ PUSH2 0x1E7 JUMPI PUSH2 0x86 JUMP JUMPDEST DUP1 PUSH4 0x3441006 EQ PUSH2 0x8B JUMPI DUP1 PUSH4 0x1F6D4942 EQ PUSH2 0xB4 JUMPI DUP1 PUSH4 0x26883EFA EQ PUSH2 0xF1 JUMPI DUP1 PUSH4 0x481C6A75 EQ PUSH2 0x11A JUMPI JUMPDEST PUSH1 0x0 DUP1 REVERT JUMPDEST CALLVALUE DUP1 ISZERO PUSH2 0x97 JUMPI PUSH1 0x0 DUP1 REVERT JUMPDEST POP PUSH2 0xB2 PUSH1 0x4 DUP1 CALLDATASIZE SUB DUP2 ADD SWAP1 PUSH2 0xAD SWAP2 SWAP1 PUSH2 0x88F JUMP JUMPDEST PUSH2 0x210 JUMP JUMPDEST STOP JUMPDEST CALLVALUE DUP1 ISZERO PUSH2 0xC0 JUMPI PUSH1 0x0 DUP1 REVERT JUMPDEST POP PUSH2 0xDB PUSH1 0x4 DUP1 CALLDATASIZE SUB DUP2 ADD SWAP1 PUSH2 0xD6 SWAP2 SWAP1 PUSH2 0x91A JUMP JUMPDEST PUSH2 0x369 JUMP JUMPDEST PUSH1 0x40 MLOAD PUSH2 0xE8 SWAP2 SWAP1 PUSH2 0x962 JUMP JUMPDEST PUSH1 0x40 MLOAD DUP1 SWAP2 SUB SWAP1 RETURN JUMPDEST CALLVALUE DUP1 ISZERO PUSH2 0xFD JUMPI PUSH1 0x0 DUP1 REVERT JUMPDEST POP PUSH2 0x118 PUSH1 0x4 DUP1 CALLDATASIZE SUB DUP2 ADD SWAP1 PUSH2 0x113 SWAP2 SWAP1 PUSH2 0xB01 JUMP JUMPDEST PUSH2 0x389 JUMP JUMPDEST STOP JUMPDEST CALLVALUE DUP1 ISZERO PUSH2 0x126 JUMPI PUSH1 0x0 DUP1 REVERT JUMPDEST POP PUSH2 0x12F PUSH2 0x4A2 JUMP JUMPDEST PUSH1 0x40 MLOAD PUSH2 0x13C SWAP2 SWAP1 PUSH2 0xB93 JUMP JUMPDEST PUSH1 0x40 MLOAD DUP1 SWAP2 SUB SWAP1 RETURN JUMPDEST CALLVALUE DUP1 ISZERO PUSH2 0x151 JUMPI PUSH1 0x0 DUP1 REVERT JUMPDEST POP PUSH2 0x15A PUSH2 0x4C8 JUMP JUMPDEST PUSH1 0x40 MLOAD PUSH2 0x167 SWAP2 SWAP1 PUSH2 0xBBD JUMP JUMPDEST PUSH1 0x40 MLOAD DUP1 SWAP2 SUB SWAP1 RETURN JUMPDEST CALLVALUE DUP1 ISZERO PUSH2 0x17C JUMPI PUSH1 0x0 DUP1 REVERT JUMPDEST POP PUSH2 0x197 PUSH1 0x4 DUP1 CALLDATASIZE SUB DUP2 ADD SWAP1 PUSH2 0x192 SWAP2 SWAP1 PUSH2 0x88F JUMP JUMPDEST PUSH2 0x4CE JUMP JUMPDEST PUSH1 0x40 MLOAD PUSH2 0x1A9 SWAP7 SWAP6 SWAP5 SWAP4 SWAP3 SWAP2 SWAP1 PUSH2 0xC6F JUMP JUMPDEST PUSH1 0x40 MLOAD DUP1 SWAP2 SUB SWAP1 RETURN JUMPDEST CALLVALUE DUP1 ISZERO PUSH2 0x1BE JUMPI PUSH1 0x0 DUP1 REVERT JUMPDEST POP PUSH2 0x1C7 PUSH2 0x5CF JUMP JUMPDEST PUSH1 0x40 MLOAD PUSH2 0x1D4 SWAP2 SWAP1 PUSH2 0xBBD JUMP JUMPDEST PUSH1 0x40 MLOAD DUP1 SWAP2 SUB SWAP1 RETURN JUMPDEST PUSH2 0x1E5 PUSH2 0x5D5 JUMP JUMPDEST STOP JUMPDEST CALLVALUE DUP1 ISZERO PUSH2 0x1F3 JUMPI PUSH1 0x0 DUP1 REVERT JUMPDEST POP PUSH2 0x20E PUSH1 0x4 DUP1 CALLDATASIZE SUB DUP2 ADD SWAP1 PUSH2 0x209 SWAP2 SWAP1 PUSH2 0x88F JUMP JUMPDEST PUSH2 0x656 JUMP JUMPDEST STOP JUMPDEST PUSH1 0x1 PUSH1 0x0 SWAP1 SLOAD SWAP1 PUSH2 0x100 EXP SWAP1 DIV PUSH20 0xFFFFFFFFFFFFFFFFFFFFFFFFFFFFFFFFFFFFFFFF AND PUSH20 0xFFFFFFFFFFFFFFFFFFFFFFFFFFFFFFFFFFFFFFFF AND CALLER PUSH20 0xFFFFFFFFFFFFFFFFFFFFFFFFFFFFFFFFFFFFFFFF AND EQ PUSH2 0x26A JUMPI PUSH1 0x0 DUP1 REVERT JUMPDEST PUSH1 0x0 DUP1 DUP3 DUP2 SLOAD DUP2 LT PUSH2 0x27F JUMPI PUSH2 0x27E PUSH2 0xCD7 JUMP JUMPDEST JUMPDEST SWAP1 PUSH1 0x0 MSTORE PUSH1 0x20 PUSH1 0x0 KECCAK256 SWAP1 PUSH1 0x7 MUL ADD SWAP1 POP DUP1 PUSH1 0x3 ADD SLOAD PUSH1 0x4 SLOAD PUSH1 0x64 DUP4 PUSH1 0x5 ADD SLOAD PUSH2 0x2A8 SWAP2 SWAP1 PUSH2 0xD35 JUMP JUMPDEST PUSH2 0x2B2 SWAP2 SWAP1 PUSH2 0xDBE JUMP JUMPDEST LT ISZERO PUSH2 0x2BD JUMPI PUSH1 0x0 DUP1 REVERT JUMPDEST DUP1 PUSH1 0x4 ADD PUSH1 0x0 SWAP1 SLOAD SWAP1 PUSH2 0x100 EXP SWAP1 DIV PUSH1 0xFF AND ISZERO PUSH2 0x2D9 JUMPI PUSH1 0x0 DUP1 REVERT JUMPDEST DUP1 PUSH1 0x2 ADD PUSH1 0x0 SWAP1 SLOAD SWAP1 PUSH2 0x100 EXP SWAP1 DIV PUSH20 0xFFFFFFFFFFFFFFFFFFFFFFFFFFFFFFFFFFFFFFFF AND PUSH20 0xFFFFFFFFFFFFFFFFFFFFFFFFFFFFFFFFFFFFFFFF AND PUSH2 0x8FC DUP3 PUSH1 0x1 ADD SLOAD SWAP1 DUP2 ISZERO MUL SWAP1 PUSH1 0x40 MLOAD PUSH1 0x0 PUSH1 0x40 MLOAD DUP1 DUP4 SUB DUP2 DUP6 DUP9 DUP9 CALL SWAP4 POP POP POP POP ISZERO DUP1 ISZERO PUSH2 0x347 JUMPI RETURNDATASIZE PUSH1 0x0 DUP1 RETURNDATACOPY RETURNDATASIZE PUSH1 0x0 REVERT JUMPDEST POP PUSH1 0x1 DUP2 PUSH1 0x4 ADD PUSH1 0x0 PUSH2 0x100 EXP DUP2 SLOAD DUP2 PUSH1 0xFF MUL NOT AND SWAP1 DUP4 ISZERO ISZERO MUL OR SWAP1 SSTORE POP POP POP JUMP JUMPDEST PUSH1 0x3 PUSH1 0x20 MSTORE DUP1 PUSH1 0x0 MSTORE PUSH1 0x40 PUSH1 0x0 KECCAK256 PUSH1 0x0 SWAP2 POP SLOAD SWAP1 PUSH2 0x100 EXP SWAP1 DIV PUSH1 0xFF AND DUP2 JUMP JUMPDEST PUSH1 0x1 PUSH1 0x0 SWAP1 SLOAD SWAP1 PUSH2 0x100 EXP SWAP1 DIV PUSH20 0xFFFFFFFFFFFFFFFFFFFFFFFFFFFFFFFFFFFFFFFF AND PUSH20 0xFFFFFFFFFFFFFFFFFFFFFFFFFFFFFFFFFFFFFFFF AND CALLER PUSH20 0xFFFFFFFFFFFFFFFFFFFFFFFFFFFFFFFFFFFFFFFF AND EQ PUSH2 0x3E3 JUMPI PUSH1 0x0 DUP1 REVERT JUMPDEST PUSH1 0x0 DUP1 PUSH1 0x1 DUP2 PUSH1 0x1 DUP2 SLOAD ADD DUP1 DUP3 SSTORE DUP1 SWAP2 POP POP SUB SWAP1 PUSH1 0x0 MSTORE PUSH1 0x20 PUSH1 0x0 KECCAK256 SWAP1 PUSH1 0x7 MUL ADD SWAP1 POP DUP5 DUP2 PUSH1 0x0 ADD SWAP1 DUP1 MLOAD SWAP1 PUSH1 0x20 ADD SWAP1 PUSH2 0x41E SWAP3 SWAP2 SWAP1 PUSH2 0x7A2 JUMP JUMPDEST POP DUP4 DUP2 PUSH1 0x1 ADD DUP2 SWAP1 SSTORE POP DUP3 DUP2 PUSH1 0x2 ADD PUSH1 0x0 PUSH2 0x100 EXP DUP2 SLOAD DUP2 PUSH20 0xFFFFFFFFFFFFFFFFFFFFFFFFFFFFFFFFFFFFFFFF MUL NOT AND SWAP1 DUP4 PUSH20 0xFFFFFFFFFFFFFFFFFFFFFFFFFFFFFFFFFFFFFFFF AND MUL OR SWAP1 SSTORE POP DUP2 DUP2 PUSH1 0x3 ADD DUP2 SWAP1 SSTORE POP PUSH1 0x0 DUP2 PUSH1 0x4 ADD PUSH1 0x0 PUSH2 0x100 EXP DUP2 SLOAD DUP2 PUSH1 0xFF MUL NOT AND SWAP1 DUP4 ISZERO ISZERO MUL OR SWAP1 SSTORE POP PUSH1 0x0 DUP2 PUSH1 0x5 ADD DUP2 SWAP1 SSTORE POP POP POP POP POP POP JUMP JUMPDEST PUSH1 0x1 PUSH1 0x0 SWAP1 SLOAD SWAP1 PUSH2 0x100 EXP SWAP1 DIV PUSH20 0xFFFFFFFFFFFFFFFFFFFFFFFFFFFFFFFFFFFFFFFF AND DUP2 JUMP JUMPDEST PUSH1 0x4 SLOAD DUP2 JUMP JUMPDEST PUSH1 0x0 DUP2 DUP2 SLOAD DUP2 LT PUSH2 0x4DE JUMPI PUSH1 0x0 DUP1 REVERT JUMPDEST SWAP1 PUSH1 0x0 MSTORE PUSH1 0x20 PUSH1 0x0 KECCAK256 SWAP1 PUSH1 0x7 MUL ADD PUSH1 0x0 SWAP2 POP SWAP1 POP DUP1 PUSH1 0x0 ADD DUP1 SLOAD PUSH2 0x501 SWAP1 PUSH2 0xE1E JUMP JUMPDEST DUP1 PUSH1 0x1F ADD PUSH1 0x20 DUP1 SWAP2 DIV MUL PUSH1 0x20 ADD PUSH1 0x40 MLOAD SWAP1 DUP2 ADD PUSH1 0x40 MSTORE DUP1 SWAP3 SWAP2 SWAP1 DUP2 DUP2 MSTORE PUSH1 0x20 ADD DUP3 DUP1 SLOAD PUSH2 0x52D SWAP1 PUSH2 0xE1E JUMP JUMPDEST DUP1 ISZERO PUSH2 0x57A JUMPI DUP1 PUSH1 0x1F LT PUSH2 0x54F JUMPI PUSH2 0x100 DUP1 DUP4 SLOAD DIV MUL DUP4 MSTORE SWAP2 PUSH1 0x20 ADD SWAP2 PUSH2 0x57A JUMP JUMPDEST DUP3 ADD SWAP2 SWAP1 PUSH1 0x0 MSTORE PUSH1 0x20 PUSH1 0x0 KECCAK256 SWAP1 JUMPDEST DUP2 SLOAD DUP2 MSTORE SWAP1 PUSH1 0x1 ADD SWAP1 PUSH1 0x20 ADD DUP1 DUP4 GT PUSH2 0x55D JUMPI DUP3 SWAP1 SUB PUSH1 0x1F AND DUP3 ADD SWAP2 JUMPDEST POP POP POP POP POP SWAP1 DUP1 PUSH1 0x1 ADD SLOAD SWAP1 DUP1 PUSH1 0x2 ADD PUSH1 0x0 SWAP1 SLOAD SWAP1 PUSH2 0x100 EXP SWAP1 DIV PUSH20 0xFFFFFFFFFFFFFFFFFFFFFFFFFFFFFFFFFFFFFFFF AND SWAP1 DUP1 PUSH1 0x3 ADD SLOAD SWAP1 DUP1 PUSH1 0x4 ADD PUSH1 0x0 SWAP1 SLOAD SWAP1 PUSH2 0x100 EXP SWAP1 DIV PUSH1 0xFF AND SWAP1 DUP1 PUSH1 0x5 ADD SLOAD SWAP1 POP DUP7 JUMP JUMPDEST PUSH1 0x2 SLOAD DUP2 JUMP JUMPDEST PUSH1 0x2 SLOAD CALLVALUE LT ISZERO PUSH2 0x5E4 JUMPI PUSH1 0x0 DUP1 REVERT JUMPDEST PUSH1 0x1 PUSH1 0x3 PUSH1 0x0 CALLER PUSH20 0xFFFFFFFFFFFFFFFFFFFFFFFFFFFFFFFFFFFFFFFF AND PUSH20 0xFFFFFFFFFFFFFFFFFFFFFFFFFFFFFFFFFFFFFFFF AND DUP2 MSTORE PUSH1 0x20 ADD SWAP1 DUP2 MSTORE PUSH1 0x20 ADD PUSH1 0x0 KECCAK256 PUSH1 0x0 PUSH2 0x100 EXP DUP2 SLOAD DUP2 PUSH1 0xFF MUL NOT AND SWAP1 DUP4 ISZERO ISZERO MUL OR SWAP1 SSTORE POP PUSH1 0x4 PUSH1 0x0 DUP2 SLOAD DUP1 SWAP3 SWAP2 SWAP1 PUSH2 0x64F SWAP1 PUSH2 0xE4F JUMP JUMPDEST SWAP2 SWAP1 POP SSTORE POP JUMP JUMPDEST PUSH1 0x0 DUP1 DUP3 DUP2 SLOAD DUP2 LT PUSH2 0x66B JUMPI PUSH2 0x66A PUSH2 0xCD7 JUMP JUMPDEST JUMPDEST SWAP1 PUSH1 0x0 MSTORE PUSH1 0x20 PUSH1 0x0 KECCAK256 SWAP1 PUSH1 0x7 MUL ADD SWAP1 POP PUSH1 0x3 PUSH1 0x0 CALLER PUSH20 0xFFFFFFFFFFFFFFFFFFFFFFFFFFFFFFFFFFFFFFFF AND PUSH20 0xFFFFFFFFFFFFFFFFFFFFFFFFFFFFFFFFFFFFFFFF AND DUP2 MSTORE PUSH1 0x20 ADD SWAP1 DUP2 MSTORE PUSH1 0x20 ADD PUSH1 0x0 KECCAK256 PUSH1 0x0 SWAP1 SLOAD SWAP1 PUSH2 0x100 EXP SWAP1 DIV PUSH1 0xFF AND PUSH2 0x6D1 JUMPI PUSH1 0x0 DUP1 REVERT JUMPDEST DUP1 PUSH1 0x6 ADD PUSH1 0x0 CALLER PUSH20 0xFFFFFFFFFFFFFFFFFFFFFFFFFFFFFFFFFFFFFFFF AND PUSH20 0xFFFFFFFFFFFFFFFFFFFFFFFFFFFFFFFFFFFFFFFF AND DUP2 MSTORE PUSH1 0x20 ADD SWAP1 DUP2 MSTORE PUSH1 0x20 ADD PUSH1 0x0 KECCAK256 PUSH1 0x0 SWAP1 SLOAD SWAP1 PUSH2 0x100 EXP SWAP1 DIV PUSH1 0xFF AND ISZERO PUSH2 0x72A JUMPI PUSH1 0x0 DUP1 REVERT JUMPDEST PUSH1 0x1 DUP2 PUSH1 0x6 ADD PUSH1 0x0 CALLER PUSH20 0xFFFFFFFFFFFFFFFFFFFFFFFFFFFFFFFFFFFFFFFF AND PUSH20 0xFFFFFFFFFFFFFFFFFFFFFFFFFFFFFFFFFFFFFFFF AND DUP2 MSTORE PUSH1 0x20 ADD SWAP1 DUP2 MSTORE PUSH1 0x20 ADD PUSH1 0x0 KECCAK256 PUSH1 0x0 PUSH2 0x100 EXP DUP2 SLOAD DUP2 PUSH1 0xFF MUL NOT AND SWAP1 DUP4 ISZERO ISZERO MUL OR SWAP1 SSTORE POP DUP1 PUSH1 0x5 ADD PUSH1 0x0 DUP2 SLOAD DUP1 SWAP3 SWAP2 SWAP1 PUSH2 0x799 SWAP1 PUSH2 0xE4F JUMP JUMPDEST SWAP2 SWAP1 POP SSTORE POP POP POP JUMP JUMPDEST DUP3 DUP1 SLOAD PUSH2 0x7AE SWAP1 PUSH2 0xE1E JUMP JUMPDEST SWAP1 PUSH1 0x0 MSTORE PUSH1 0x20 PUSH1 0x0 KECCAK256 SWAP1 PUSH1 0x1F ADD PUSH1 0x20 SWAP1 DIV DUP2 ADD SWAP3 DUP3 PUSH2 0x7D0 JUMPI PUSH1 0x0 DUP6 SSTORE PUSH2 0x817 JUMP JUMPDEST DUP3 PUSH1 0x1F LT PUSH2 0x7E9 JUMPI DUP1 MLOAD PUSH1 0xFF NOT AND DUP4 DUP1 ADD OR DUP6 SSTORE PUSH2 0x817 JUMP JUMPDEST DUP3 DUP1 ADD PUSH1 0x1 ADD DUP6 SSTORE DUP3 ISZERO PUSH2 0x817 JUMPI SWAP2 DUP3 ADD JUMPDEST DUP3 DUP2 GT ISZERO PUSH2 0x816 JUMPI DUP3 MLOAD DUP3 SSTORE SWAP2 PUSH1 0x20 ADD SWAP2 SWAP1 PUSH1 0x1 ADD SWAP1 PUSH2 0x7FB JUMP JUMPDEST JUMPDEST POP SWAP1 POP PUSH2 0x824 SWAP2 SWAP1 PUSH2 0x828 JUMP JUMPDEST POP SWAP1 JUMP JUMPDEST JUMPDEST DUP1 DUP3 GT ISZERO PUSH2 0x841 JUMPI PUSH1 0x0 DUP2 PUSH1 0x0 SWAP1 SSTORE POP PUSH1 0x1 ADD PUSH2 0x829 JUMP JUMPDEST POP SWAP1 JUMP JUMPDEST PUSH1 0x0 PUSH1 0x40 MLOAD SWAP1 POP SWAP1 JUMP JUMPDEST PUSH1 0x0 DUP1 REVERT JUMPDEST PUSH1 0x0 DUP1 REVERT JUMPDEST PUSH1 0x0 DUP2 SWAP1 POP SWAP2 SWAP1 POP JUMP JUMPDEST PUSH2 0x86C DUP2 PUSH2 0x859 JUMP JUMPDEST DUP2 EQ PUSH2 0x877 JUMPI PUSH1 0x0 DUP1 REVERT JUMPDEST POP JUMP JUMPDEST PUSH1 0x0 DUP2 CALLDATALOAD SWAP1 POP PUSH2 0x889 DUP2 PUSH2 0x863 JUMP JUMPDEST SWAP3 SWAP2 POP POP JUMP JUMPDEST PUSH1 0x0 PUSH1 0x20 DUP3 DUP5 SUB SLT ISZERO PUSH2 0x8A5 JUMPI PUSH2 0x8A4 PUSH2 0x84F JUMP JUMPDEST JUMPDEST PUSH1 0x0 PUSH2 0x8B3 DUP5 DUP3 DUP6 ADD PUSH2 0x87A JUMP JUMPDEST SWAP2 POP POP SWAP3 SWAP2 POP POP JUMP JUMPDEST PUSH1 0x0 PUSH20 0xFFFFFFFFFFFFFFFFFFFFFFFFFFFFFFFFFFFFFFFF DUP3 AND SWAP1 POP SWAP2 SWAP1 POP JUMP JUMPDEST PUSH1 0x0 PUSH2 0x8E7 DUP3 PUSH2 0x8BC JUMP JUMPDEST SWAP1 POP SWAP2 SWAP1 POP JUMP JUMPDEST PUSH2 0x8F7 DUP2 PUSH2 0x8DC JUMP JUMPDEST DUP2 EQ PUSH2 0x902 JUMPI PUSH1 0x0 DUP1 REVERT JUMPDEST POP JUMP JUMPDEST PUSH1 0x0 DUP2 CALLDATALOAD SWAP1 POP PUSH2 0x914 DUP2 PUSH2 0x8EE JUMP JUMPDEST SWAP3 SWAP2 POP POP JUMP JUMPDEST PUSH1 0x0 PUSH1 0x20 DUP3 DUP5 SUB SLT ISZERO PUSH2 0x930 JUMPI PUSH2 0x92F PUSH2 0x84F JUMP JUMPDEST JUMPDEST PUSH1 0x0 PUSH2 0x93E DUP5 DUP3 DUP6 ADD PUSH2 0x905 JUMP JUMPDEST SWAP2 POP POP SWAP3 SWAP2 POP POP JUMP JUMPDEST PUSH1 0x0 DUP2 ISZERO ISZERO SWAP1 POP SWAP2 SWAP1 POP JUMP JUMPDEST PUSH2 0x95C DUP2 PUSH2 0x947 JUMP JUMPDEST DUP3 MSTORE POP POP JUMP JUMPDEST PUSH1 0x0 PUSH1 0x20 DUP3 ADD SWAP1 POP PUSH2 0x977 PUSH1 0x0 DUP4 ADD DUP5 PUSH2 0x953 JUMP JUMPDEST SWAP3 SWAP2 POP POP JUMP JUMPDEST PUSH1 0x0 DUP1 REVERT JUMPDEST PUSH1 0x0 DUP1 REVERT JUMPDEST PUSH1 0x0 PUSH1 0x1F NOT PUSH1 0x1F DUP4 ADD AND SWAP1 POP SWAP2 SWAP1 POP JUMP JUMPDEST PUSH32 0x4E487B7100000000000000000000000000000000000000000000000000000000 PUSH1 0x0 MSTORE PUSH1 0x41 PUSH1 0x4 MSTORE PUSH1 0x24 PUSH1 0x0 REVERT JUMPDEST PUSH2 0x9D0 DUP3 PUSH2 0x987 JUMP JUMPDEST DUP2 ADD DUP2 DUP2 LT PUSH8 0xFFFFFFFFFFFFFFFF DUP3 GT OR ISZERO PUSH2 0x9EF JUMPI PUSH2 0x9EE PUSH2 0x998 JUMP JUMPDEST JUMPDEST DUP1 PUSH1 0x40 MSTORE POP POP POP JUMP JUMPDEST PUSH1 0x0 PUSH2 0xA02 PUSH2 0x845 JUMP JUMPDEST SWAP1 POP PUSH2 0xA0E DUP3 DUP3 PUSH2 0x9C7 JUMP JUMPDEST SWAP2 SWAP1 POP JUMP JUMPDEST PUSH1 0x0 PUSH8 0xFFFFFFFFFFFFFFFF DUP3 GT ISZERO PUSH2 0xA2E JUMPI PUSH2 0xA2D PUSH2 0x998 JUMP JUMPDEST JUMPDEST PUSH2 0xA37 DUP3 PUSH2 0x987 JUMP JUMPDEST SWAP1 POP PUSH1 0x20 DUP2 ADD SWAP1 POP SWAP2 SWAP1 POP JUMP JUMPDEST DUP3 DUP2 DUP4 CALLDATACOPY PUSH1 0x0 DUP4 DUP4 ADD MSTORE POP POP POP JUMP JUMPDEST PUSH1 0x0 PUSH2 0xA66 PUSH2 0xA61 DUP5 PUSH2 0xA13 JUMP JUMPDEST PUSH2 0x9F8 JUMP JUMPDEST SWAP1 POP DUP3 DUP2 MSTORE PUSH1 0x20 DUP2 ADD DUP5 DUP5 DUP5 ADD GT ISZERO PUSH2 0xA82 JUMPI PUSH2 0xA81 PUSH2 0x982 JUMP JUMPDEST JUMPDEST PUSH2 0xA8D DUP5 DUP3 DUP6 PUSH2 0xA44 JUMP JUMPDEST POP SWAP4 SWAP3 POP POP POP JUMP JUMPDEST PUSH1 0x0 DUP3 PUSH1 0x1F DUP4 ADD SLT PUSH2 0xAAA JUMPI PUSH2 0xAA9 PUSH2 0x97D JUMP JUMPDEST JUMPDEST DUP2 CALLDATALOAD PUSH2 0xABA DUP5 DUP3 PUSH1 0x20 DUP7 ADD PUSH2 0xA53 JUMP JUMPDEST SWAP2 POP POP SWAP3 SWAP2 POP POP JUMP JUMPDEST PUSH1 0x0 PUSH2 0xACE DUP3 PUSH2 0x8BC JUMP JUMPDEST SWAP1 POP SWAP2 SWAP1 POP JUMP JUMPDEST PUSH2 0xADE DUP2 PUSH2 0xAC3 JUMP JUMPDEST DUP2 EQ PUSH2 0xAE9 JUMPI PUSH1 0x0 DUP1 REVERT JUMPDEST POP JUMP JUMPDEST PUSH1 0x0 DUP2 CALLDATALOAD SWAP1 POP PUSH2 0xAFB DUP2 PUSH2 0xAD5 JUMP JUMPDEST SWAP3 SWAP2 POP POP JUMP JUMPDEST PUSH1 0x0 DUP1 PUSH1 0x0 DUP1 PUSH1 0x80 DUP6 DUP8 SUB SLT ISZERO PUSH2 0xB1B JUMPI PUSH2 0xB1A PUSH2 0x84F JUMP JUMPDEST JUMPDEST PUSH1 0x0 DUP6 ADD CALLDATALOAD PUSH8 0xFFFFFFFFFFFFFFFF DUP2 GT ISZERO PUSH2 0xB39 JUMPI PUSH2 0xB38 PUSH2 0x854 JUMP JUMPDEST JUMPDEST PUSH2 0xB45 DUP8 DUP3 DUP9 ADD PUSH2 0xA95 JUMP JUMPDEST SWAP5 POP POP PUSH1 0x20 PUSH2 0xB56 DUP8 DUP3 DUP9 ADD PUSH2 0x87A JUMP JUMPDEST SWAP4 POP POP PUSH1 0x40 PUSH2 0xB67 DUP8 DUP3 DUP9 ADD PUSH2 0xAEC JUMP JUMPDEST SWAP3 POP POP PUSH1 0x60 PUSH2 0xB78 DUP8 DUP3 DUP9 ADD PUSH2 0x87A JUMP JUMPDEST SWAP2 POP POP SWAP3 SWAP6 SWAP2 SWAP5 POP SWAP3 POP JUMP JUMPDEST PUSH2 0xB8D DUP2 PUSH2 0x8DC JUMP JUMPDEST DUP3 MSTORE POP POP JUMP JUMPDEST PUSH1 0x0 PUSH1 0x20 DUP3 ADD SWAP1 POP PUSH2 0xBA8 PUSH1 0x0 DUP4 ADD DUP5 PUSH2 0xB84 JUMP JUMPDEST SWAP3 SWAP2 POP POP JUMP JUMPDEST PUSH2 0xBB7 DUP2 PUSH2 0x859 JUMP JUMPDEST DUP3 MSTORE POP POP JUMP JUMPDEST PUSH1 0x0 PUSH1 0x20 DUP3 ADD SWAP1 POP PUSH2 0xBD2 PUSH1 0x0 DUP4 ADD DUP5 PUSH2 0xBAE JUMP JUMPDEST SWAP3 SWAP2 POP POP JUMP JUMPDEST PUSH1 0x0 DUP2 MLOAD SWAP1 POP SWAP2 SWAP1 POP JUMP JUMPDEST PUSH1 0x0 DUP3 DUP3 MSTORE PUSH1 0x20 DUP3 ADD SWAP1 POP SWAP3 SWAP2 POP POP JUMP JUMPDEST PUSH1 0x0 JUMPDEST DUP4 DUP2 LT ISZERO PUSH2 0xC12 JUMPI DUP1 DUP3 ADD MLOAD DUP2 DUP5 ADD MSTORE PUSH1 0x20 DUP2 ADD SWAP1 POP PUSH2 0xBF7 JUMP JUMPDEST DUP4 DUP2 GT ISZERO PUSH2 0xC21 JUMPI PUSH1 0x0 DUP5 DUP5 ADD MSTORE JUMPDEST POP POP POP POP JUMP JUMPDEST PUSH1 0x0 PUSH2 0xC32 DUP3 PUSH2 0xBD8 JUMP JUMPDEST PUSH2 0xC3C DUP2 DUP6 PUSH2 0xBE3 JUMP JUMPDEST SWAP4 POP PUSH2 0xC4C DUP2 DUP6 PUSH1 0x20 DUP7 ADD PUSH2 0xBF4 JUMP JUMPDEST PUSH2 0xC55 DUP2 PUSH2 0x987 JUMP JUMPDEST DUP5 ADD SWAP2 POP POP SWAP3 SWAP2 POP POP JUMP JUMPDEST PUSH2 0xC69 DUP2 PUSH2 0xAC3 JUMP JUMPDEST DUP3 MSTORE POP POP JUMP JUMPDEST PUSH1 0x0 PUSH1 0xC0 DUP3 ADD SWAP1 POP DUP2 DUP2 SUB PUSH1 0x0 DUP4 ADD MSTORE PUSH2 0xC89 DUP2 DUP10 PUSH2 0xC27 JUMP JUMPDEST SWAP1 POP PUSH2 0xC98 PUSH1 0x20 DUP4 ADD DUP9 PUSH2 0xBAE JUMP JUMPDEST PUSH2 0xCA5 PUSH1 0x40 DUP4 ADD DUP8 PUSH2 0xC60 JUMP JUMPDEST PUSH2 0xCB2 PUSH1 0x60 DUP4 ADD DUP7 PUSH2 0xBAE JUMP JUMPDEST PUSH2 0xCBF PUSH1 0x80 DUP4 ADD DUP6 PUSH2 0x953 JUMP JUMPDEST PUSH2 0xCCC PUSH1 0xA0 DUP4 ADD DUP5 PUSH2 0xBAE JUMP JUMPDEST SWAP8 SWAP7 POP POP POP POP POP POP POP JUMP JUMPDEST PUSH32 0x4E487B7100000000000000000000000000000000000000000000000000000000 PUSH1 0x0 MSTORE PUSH1 0x32 PUSH1 0x4 MSTORE PUSH1 0x24 PUSH1 0x0 REVERT JUMPDEST PUSH32 0x4E487B7100000000000000000000000000000000000000000000000000000000 PUSH1 0x0 MSTORE PUSH1 0x11 PUSH1 0x4 MSTORE PUSH1 0x24 PUSH1 0x0 REVERT JUMPDEST PUSH1 0x0 PUSH2 0xD40 DUP3 PUSH2 0x859 JUMP JUMPDEST SWAP2 POP PUSH2 0xD4B DUP4 PUSH2 0x859 JUMP JUMPDEST SWAP3 POP DUP2 PUSH32 0xFFFFFFFFFFFFFFFFFFFFFFFFFFFFFFFFFFFFFFFFFFFFFFFFFFFFFFFFFFFFFFFF DIV DUP4 GT DUP3 ISZERO ISZERO AND ISZERO PUSH2 0xD84 JUMPI PUSH2 0xD83 PUSH2 0xD06 JUMP JUMPDEST JUMPDEST DUP3 DUP3 MUL SWAP1 POP SWAP3 SWAP2 POP POP JUMP JUMPDEST PUSH32 0x4E487B7100000000000000000000000000000000000000000000000000000000 PUSH1 0x0 MSTORE PUSH1 0x12 PUSH1 0x4 MSTORE PUSH1 0x24 PUSH1 0x0 REVERT JUMPDEST PUSH1 0x0 PUSH2 0xDC9 DUP3 PUSH2 0x859 JUMP JUMPDEST SWAP2 POP PUSH2 0xDD4 DUP4 PUSH2 0x859 JUMP JUMPDEST SWAP3 POP DUP3 PUSH2 0xDE4 JUMPI PUSH2 0xDE3 PUSH2 0xD8F JUMP JUMPDEST JUMPDEST DUP3 DUP3 DIV SWAP1 POP SWAP3 SWAP2 POP POP JUMP JUMPDEST PUSH32 0x4E487B7100000000000000000000000000000000000000000000000000000000 PUSH1 0x0 MSTORE PUSH1 0x22 PUSH1 0x4 MSTORE PUSH1 0x24 PUSH1 0x0 REVERT JUMPDEST PUSH1 0x0 PUSH1 0x2 DUP3 DIV SWAP1 POP PUSH1 0x1 DUP3 AND DUP1 PUSH2 0xE36 JUMPI PUSH1 0x7F DUP3 AND SWAP2 POP JUMPDEST PUSH1 0x20 DUP3 LT DUP2 SUB PUSH2 0xE49 JUMPI PUSH2 0xE48 PUSH2 0xDEF JUMP JUMPDEST JUMPDEST POP SWAP2 SWAP1 POP JUMP JUMPDEST PUSH1 0x0 PUSH2 0xE5A DUP3 PUSH2 0x859 JUMP JUMPDEST SWAP2 POP PUSH32 0xFFFFFFFFFFFFFFFFFFFFFFFFFFFFFFFFFFFFFFFFFFFFFFFFFFFFFFFFFFFFFFFF DUP3 SUB PUSH2 0xE8C JUMPI PUSH2 0xE8B PUSH2 0xD06 JUMP JUMPDEST JUMPDEST PUSH1 0x1 DUP3 ADD SWAP1 POP SWAP2 SWAP1 POP JUMP INVALID LOG2 PUSH5 0x6970667358 0x22 SLT KECCAK256 0x5E DUP10 0xD4 LOG1 LOG3 DIV 0xE EXTCODEHASH STOP SLT PUSH11 0xB0DC1AF5C306183A13C707 0xAF 0x5C 0xA5 0x21 PUSH24 0xA47F62F07464736F6C634300080D00330000000000000000 "},"gasEstimates":{"creation":{"codeDepositCost":"757800","executionCost":"infinite","totalCost":"infinite"},"external":{"approveRequest(uint256)":"infinite","contribute()":"51024","contributors(address)":"2868","contributorsCount()":"2429","createRequest(string,uint256,address,uint256)":"infinite","finalizeRequest(uint256)":"infinite","manager()":"2581","minimumContribution()":"2473","requests(uint256)":"infinite"}},"methodIdentifiers":{"approveRequest(uint256)":"d7d1bbdb","contribute()":"d7bb99ba","contributors(address)":"1f6d4942","contributorsCount()":"7569b3d7","createRequest(string,uint256,address,uint256)":"26883efa","finalizeRequest(uint256)":"03441006","manager()":"481c6a75","minimumContribution()":"937e09b1","requests(uint256)":"81d12c58"}},"storageLayout":{"storage":[{"astId":60,"contract":"Campaign.sol:Campaign","label":"requests","offset":0,"slot":"0","type":"t_array(t_struct(Request)56_storage)dyn_storage"},{"astId":62,"contract":"Campaign.sol:Campaign","label":"manager","offset":0,"slot":"1","type":"t_address"},{"astId":64,"contract":"Campaign.sol:Campaign","label":"minimumContribution","offset":0,"slot":"2","type":"t_uint256"},{"astId":68,"contract":"Campaign.sol:Campaign","label":"contributors","offset":0,"slot":"3","type":"t_mapping(t_address,t_bool)"},{"astId":70,"contract":"Campaign.sol:Campaign","label":"contributorsCount","offset":0,"slot":"4","type":"t_uint256"}],"types":{"t_address":{"encoding":"inplace","label":"address","numberOfBytes":"20"},"t_address_payable":{"encoding":"inplace","label":"address payable","numberOfBytes":"20"},"t_array(t_struct(Request)56_storage)dyn_storage":{"base":"t_struct(Request)56_storage","encoding":"dynamic_array","label":"struct Campaign.Request[]","numberOfBytes":"32"},"t_bool":{"encoding":"inplace","label":"bool","numberOfBytes":"1"},"t_mapping(t_address,t_bool)":{"encoding":"mapping","key":"t_address","label":"mapping(address => bool)","numberOfBytes":"32","value":"t_bool"},"t_string_storage":{"encoding":"bytes","label":"string","numberOfBytes":"32"},"t_struct(Request)56_storage":{"encoding":"inplace","label":"struct Campaign.Request","members":[{"astId":41,"contract":"Campaign.sol:Campaign","label":"description","offset":0,"slot":"0","type":"t_string_storage"},{"astId":43,"contract":"Campaign.sol:Campaign","label":"value","offset":0,"slot":"1","type":"t_uint256"},{"astId":45,"contract":"Campaign.sol:Campaign","label":"recipient","offset":0,"slot":"2","type":"t_address_payable"},{"astId":47,"contract":"Campaign.sol:Campaign","label":"approvalTolerance","offset":0,"slot":"3","type":"t_uint256"},{"astId":49,"contract":"Campaign.sol:Campaign","label":"complete","offset":0,"slot":"4","type":"t_bool"},{"astId":51,"contract":"Campaign.sol:Campaign","label":"approvalCount","offset":0,"slot":"5","type":"t_uint256"},{"astId":55,"contract":"Campaign.sol:Campaign","label":"approvals","offset":0,"slot":"6","type":"t_mapping(t_address,t_bool)"}],"numberOfBytes":"224"},"t_uint256":{"encoding":"inplace","label":"uint256","numberOfBytes":"32"}}},"userdoc":{"kind":"user","methods":{},"version":1}}