{"abi":[{"inputs":[{"internalType":"uint256","name":"minimumContribution","type":"uint256"},{"internalType":"string","name":"campaignName","type":"string"}],"name":"createCampaign","outputs":[],"stateMutability":"nonpayable","type":"function"},{"inputs":[{"internalType":"uint256","name":"","type":"uint256"}],"name":"deployedCampaigns","outputs":[{"internalType":"address","name":"","type":"address"}],"stateMutability":"view","type":"function"},{"inputs":[],"name":"getDeployedCampaigns","outputs":[{"internalType":"address[]","name":"","type":"address[]"}],"stateMutability":"view","type":"function"}],"devdoc":{"kind":"dev","methods":{},"version":1},"evm":{"assembly":"    /* \"Campaign.sol\":59:488  contract CampaignFactory {... */\n  mstore(0x40, 0x80)\n  callvalue\n  dup1\n  iszero\n  tag_1\n  jumpi\n  0x00\n  dup1\n  revert\ntag_1:\n  pop\n  dataSize(sub_0)\n  dup1\n  dataOffset(sub_0)\n  0x00\n  codecopy\n  0x00\n  return\nstop\n\nsub_0: assembly {\n        /* \"Campaign.sol\":59:488  contract CampaignFactory {... */\n      mstore(0x40, 0x80)\n      callvalue\n      dup1\n      iszero\n      tag_1\n      jumpi\n      0x00\n      dup1\n      revert\n    tag_1:\n      pop\n      jumpi(tag_2, lt(calldatasize, 0x04))\n      shr(0xe0, calldataload(0x00))\n      dup1\n      0x339d50a5\n      eq\n      tag_3\n      jumpi\n      dup1\n      0x4220d656\n      eq\n      tag_4\n      jumpi\n      dup1\n      0x4acb9d4f\n      eq\n      tag_5\n      jumpi\n    tag_2:\n      0x00\n      dup1\n      revert\n        /* \"Campaign.sol\":90:124  address[] public deployedCampaigns */\n    tag_3:\n      tag_6\n      0x04\n      dup1\n      calldatasize\n      sub\n      dup2\n      add\n      swap1\n      tag_7\n      swap2\n      swap1\n      tag_8\n      jump\t// in\n    tag_7:\n      tag_9\n      jump\t// in\n    tag_6:\n      mload(0x40)\n      tag_10\n      swap2\n      swap1\n      tag_11\n      jump\t// in\n    tag_10:\n      mload(0x40)\n      dup1\n      swap2\n      sub\n      swap1\n      return\n        /* \"Campaign.sol\":131:368  function createCampaign(uint minimumContribution, string memory campaignName) public {... */\n    tag_4:\n      tag_12\n      0x04\n      dup1\n      calldatasize\n      sub\n      dup2\n      add\n      swap1\n      tag_13\n      swap2\n      swap1\n      tag_14\n      jump\t// in\n    tag_13:\n      tag_15\n      jump\t// in\n    tag_12:\n      stop\n        /* \"Campaign.sol\":374:486  function getDeployedCampaigns() public view returns (address[] memory) {... */\n    tag_5:\n      tag_16\n      tag_17\n      jump\t// in\n    tag_16:\n      mload(0x40)\n      tag_18\n      swap2\n      swap1\n      tag_19\n      jump\t// in\n    tag_18:\n      mload(0x40)\n      dup1\n      swap2\n      sub\n      swap1\n      return\n        /* \"Campaign.sol\":90:124  address[] public deployedCampaigns */\n    tag_9:\n      0x00\n      dup2\n      dup2\n      sload\n      dup2\n      lt\n      tag_20\n      jumpi\n      0x00\n      dup1\n      revert\n    tag_20:\n      swap1\n      0x00\n      mstore\n      keccak256(0x00, 0x20)\n      add\n      0x00\n      swap2\n      pop\n      sload\n      swap1\n      0x0100\n      exp\n      swap1\n      div\n      0xffffffffffffffffffffffffffffffffffffffff\n      and\n      dup2\n      jump\t// out\n        /* \"Campaign.sol\":131:368  function createCampaign(uint minimumContribution, string memory campaignName) public {... */\n    tag_15:\n        /* \"Campaign.sol\":226:245  address newCampaign */\n      0x00\n        /* \"Campaign.sol\":269:288  minimumContribution */\n      dup3\n        /* \"Campaign.sol\":290:302  campaignName */\n      dup3\n        /* \"Campaign.sol\":304:314  msg.sender */\n      caller\n        /* \"Campaign.sol\":256:315  new Campaign(minimumContribution, campaignName, msg.sender) */\n      mload(0x40)\n      tag_23\n      swap1\n      tag_24\n      jump\t// in\n    tag_23:\n      tag_25\n      swap4\n      swap3\n      swap2\n      swap1\n      tag_26\n      jump\t// in\n    tag_25:\n      mload(0x40)\n      dup1\n      swap2\n      sub\n      swap1\n      0x00\n      create\n      dup1\n      iszero\n      dup1\n      iszero\n      tag_27\n      jumpi\n      returndatasize\n      0x00\n      dup1\n      returndatacopy\n      revert(0x00, returndatasize)\n    tag_27:\n      pop\n        /* \"Campaign.sol\":226:316  address newCampaign = address(new Campaign(minimumContribution, campaignName, msg.sender)) */\n      swap1\n      pop\n        /* \"Campaign.sol\":326:343  deployedCampaigns */\n      0x00\n        /* \"Campaign.sol\":349:360  newCampaign */\n      dup2\n        /* \"Campaign.sol\":326:361  deployedCampaigns.push(newCampaign) */\n      swap1\n      dup1\n      0x01\n      dup2\n      sload\n      add\n      dup1\n      dup3\n      sstore\n      dup1\n      swap2\n      pop\n      pop\n      0x01\n      swap1\n      sub\n      swap1\n      0x00\n      mstore\n      keccak256(0x00, 0x20)\n      add\n      0x00\n      swap1\n      swap2\n      swap1\n      swap2\n      swap1\n      swap2\n      0x0100\n      exp\n      dup2\n      sload\n      dup2\n      0xffffffffffffffffffffffffffffffffffffffff\n      mul\n      not\n      and\n      swap1\n      dup4\n      0xffffffffffffffffffffffffffffffffffffffff\n      and\n      mul\n      or\n      swap1\n      sstore\n      pop\n        /* \"Campaign.sol\":216:368  {... */\n      pop\n        /* \"Campaign.sol\":131:368  function createCampaign(uint minimumContribution, string memory campaignName) public {... */\n      pop\n      pop\n      jump\t// out\n        /* \"Campaign.sol\":374:486  function getDeployedCampaigns() public view returns (address[] memory) {... */\n    tag_17:\n        /* \"Campaign.sol\":427:443  address[] memory */\n      0x60\n        /* \"Campaign.sol\":462:479  deployedCampaigns */\n      0x00\n        /* \"Campaign.sol\":455:479  return deployedCampaigns */\n      dup1\n      sload\n      dup1\n      0x20\n      mul\n      0x20\n      add\n      mload(0x40)\n      swap1\n      dup2\n      add\n      0x40\n      mstore\n      dup1\n      swap3\n      swap2\n      swap1\n      dup2\n      dup2\n      mstore\n      0x20\n      add\n      dup3\n      dup1\n      sload\n      dup1\n      iszero\n      tag_30\n      jumpi\n      0x20\n      mul\n      dup3\n      add\n      swap2\n      swap1\n      0x00\n      mstore\n      keccak256(0x00, 0x20)\n      swap1\n    tag_31:\n      dup2\n      0x00\n      swap1\n      sload\n      swap1\n      0x0100\n      exp\n      swap1\n      div\n      0xffffffffffffffffffffffffffffffffffffffff\n      and\n      0xffffffffffffffffffffffffffffffffffffffff\n      and\n      dup2\n      mstore\n      0x20\n      add\n      swap1\n      0x01\n      add\n      swap1\n      dup1\n      dup4\n      gt\n      tag_31\n      jumpi\n    tag_30:\n      pop\n      pop\n      pop\n      pop\n      pop\n      swap1\n      pop\n        /* \"Campaign.sol\":374:486  function getDeployedCampaigns() public view returns (address[] memory) {... */\n      swap1\n      jump\t// out\n    tag_24:\n      dataSize(sub_0)\n      dup1\n      dataOffset(sub_0)\n      dup4\n      codecopy\n      add\n      swap1\n      jump\t// out\n        /* \"#utility.yul\":7:82   */\n    tag_32:\n        /* \"#utility.yul\":40:46   */\n      0x00\n        /* \"#utility.yul\":73:75   */\n      0x40\n        /* \"#utility.yul\":67:76   */\n      mload\n        /* \"#utility.yul\":57:76   */\n      swap1\n      pop\n        /* \"#utility.yul\":7:82   */\n      swap1\n      jump\t// out\n        /* \"#utility.yul\":88:205   */\n    tag_33:\n        /* \"#utility.yul\":197:198   */\n      0x00\n        /* \"#utility.yul\":194:195   */\n      dup1\n        /* \"#utility.yul\":187:199   */\n      revert\n        /* \"#utility.yul\":211:328   */\n    tag_34:\n        /* \"#utility.yul\":320:321   */\n      0x00\n        /* \"#utility.yul\":317:318   */\n      dup1\n        /* \"#utility.yul\":310:322   */\n      revert\n        /* \"#utility.yul\":334:411   */\n    tag_35:\n        /* \"#utility.yul\":371:378   */\n      0x00\n        /* \"#utility.yul\":400:405   */\n      dup2\n        /* \"#utility.yul\":389:405   */\n      swap1\n      pop\n        /* \"#utility.yul\":334:411   */\n      swap2\n      swap1\n      pop\n      jump\t// out\n        /* \"#utility.yul\":417:539   */\n    tag_36:\n        /* \"#utility.yul\":490:514   */\n      tag_69\n        /* \"#utility.yul\":508:513   */\n      dup2\n        /* \"#utility.yul\":490:514   */\n      tag_35\n      jump\t// in\n    tag_69:\n        /* \"#utility.yul\":483:488   */\n      dup2\n        /* \"#utility.yul\":480:515   */\n      eq\n        /* \"#utility.yul\":470:533   */\n      tag_70\n      jumpi\n        /* \"#utility.yul\":529:530   */\n      0x00\n        /* \"#utility.yul\":526:527   */\n      dup1\n        /* \"#utility.yul\":519:531   */\n      revert\n        /* \"#utility.yul\":470:533   */\n    tag_70:\n        /* \"#utility.yul\":417:539   */\n      pop\n      jump\t// out\n        /* \"#utility.yul\":545:684   */\n    tag_37:\n        /* \"#utility.yul\":591:596   */\n      0x00\n        /* \"#utility.yul\":629:635   */\n      dup2\n        /* \"#utility.yul\":616:636   */\n      calldataload\n        /* \"#utility.yul\":607:636   */\n      swap1\n      pop\n        /* \"#utility.yul\":645:678   */\n      tag_72\n        /* \"#utility.yul\":672:677   */\n      dup2\n        /* \"#utility.yul\":645:678   */\n      tag_36\n      jump\t// in\n    tag_72:\n        /* \"#utility.yul\":545:684   */\n      swap3\n      swap2\n      pop\n      pop\n      jump\t// out\n        /* \"#utility.yul\":690:1019   */\n    tag_8:\n        /* \"#utility.yul\":749:755   */\n      0x00\n        /* \"#utility.yul\":798:800   */\n      0x20\n        /* \"#utility.yul\":786:795   */\n      dup3\n        /* \"#utility.yul\":777:784   */\n      dup5\n        /* \"#utility.yul\":773:796   */\n      sub\n        /* \"#utility.yul\":769:801   */\n      slt\n        /* \"#utility.yul\":766:885   */\n      iszero\n      tag_74\n      jumpi\n        /* \"#utility.yul\":804:883   */\n      tag_75\n      tag_33\n      jump\t// in\n    tag_75:\n        /* \"#utility.yul\":766:885   */\n    tag_74:\n        /* \"#utility.yul\":924:925   */\n      0x00\n        /* \"#utility.yul\":949:1002   */\n      tag_76\n        /* \"#utility.yul\":994:1001   */\n      dup5\n        /* \"#utility.yul\":985:991   */\n      dup3\n        /* \"#utility.yul\":974:983   */\n      dup6\n        /* \"#utility.yul\":970:992   */\n      add\n        /* \"#utility.yul\":949:1002   */\n      tag_37\n      jump\t// in\n    tag_76:\n        /* \"#utility.yul\":939:1002   */\n      swap2\n      pop\n        /* \"#utility.yul\":895:1012   */\n      pop\n        /* \"#utility.yul\":690:1019   */\n      swap3\n      swap2\n      pop\n      pop\n      jump\t// out\n        /* \"#utility.yul\":1025:1151   */\n    tag_38:\n        /* \"#utility.yul\":1062:1069   */\n      0x00\n        /* \"#utility.yul\":1102:1144   */\n      0xffffffffffffffffffffffffffffffffffffffff\n        /* \"#utility.yul\":1095:1100   */\n      dup3\n        /* \"#utility.yul\":1091:1145   */\n      and\n        /* \"#utility.yul\":1080:1145   */\n      swap1\n      pop\n        /* \"#utility.yul\":1025:1151   */\n      swap2\n      swap1\n      pop\n      jump\t// out\n        /* \"#utility.yul\":1157:1253   */\n    tag_39:\n        /* \"#utility.yul\":1194:1201   */\n      0x00\n        /* \"#utility.yul\":1223:1247   */\n      tag_79\n        /* \"#utility.yul\":1241:1246   */\n      dup3\n        /* \"#utility.yul\":1223:1247   */\n      tag_38\n      jump\t// in\n    tag_79:\n        /* \"#utility.yul\":1212:1247   */\n      swap1\n      pop\n        /* \"#utility.yul\":1157:1253   */\n      swap2\n      swap1\n      pop\n      jump\t// out\n        /* \"#utility.yul\":1259:1377   */\n    tag_40:\n        /* \"#utility.yul\":1346:1370   */\n      tag_81\n        /* \"#utility.yul\":1364:1369   */\n      dup2\n        /* \"#utility.yul\":1346:1370   */\n      tag_39\n      jump\t// in\n    tag_81:\n        /* \"#utility.yul\":1341:1344   */\n      dup3\n        /* \"#utility.yul\":1334:1371   */\n      mstore\n        /* \"#utility.yul\":1259:1377   */\n      pop\n      pop\n      jump\t// out\n        /* \"#utility.yul\":1383:1605   */\n    tag_11:\n        /* \"#utility.yul\":1476:1480   */\n      0x00\n        /* \"#utility.yul\":1514:1516   */\n      0x20\n        /* \"#utility.yul\":1503:1512   */\n      dup3\n        /* \"#utility.yul\":1499:1517   */\n      add\n        /* \"#utility.yul\":1491:1517   */\n      swap1\n      pop\n        /* \"#utility.yul\":1527:1598   */\n      tag_83\n        /* \"#utility.yul\":1595:1596   */\n      0x00\n        /* \"#utility.yul\":1584:1593   */\n      dup4\n        /* \"#utility.yul\":1580:1597   */\n      add\n        /* \"#utility.yul\":1571:1577   */\n      dup5\n        /* \"#utility.yul\":1527:1598   */\n      tag_40\n      jump\t// in\n    tag_83:\n        /* \"#utility.yul\":1383:1605   */\n      swap3\n      swap2\n      pop\n      pop\n      jump\t// out\n        /* \"#utility.yul\":1611:1728   */\n    tag_41:\n        /* \"#utility.yul\":1720:1721   */\n      0x00\n        /* \"#utility.yul\":1717:1718   */\n      dup1\n        /* \"#utility.yul\":1710:1722   */\n      revert\n        /* \"#utility.yul\":1734:1851   */\n    tag_42:\n        /* \"#utility.yul\":1843:1844   */\n      0x00\n        /* \"#utility.yul\":1840:1841   */\n      dup1\n        /* \"#utility.yul\":1833:1845   */\n      revert\n        /* \"#utility.yul\":1857:1959   */\n    tag_43:\n        /* \"#utility.yul\":1898:1904   */\n      0x00\n        /* \"#utility.yul\":1949:1951   */\n      0x1f\n        /* \"#utility.yul\":1945:1952   */\n      not\n        /* \"#utility.yul\":1940:1942   */\n      0x1f\n        /* \"#utility.yul\":1933:1938   */\n      dup4\n        /* \"#utility.yul\":1929:1943   */\n      add\n        /* \"#utility.yul\":1925:1953   */\n      and\n        /* \"#utility.yul\":1915:1953   */\n      swap1\n      pop\n        /* \"#utility.yul\":1857:1959   */\n      swap2\n      swap1\n      pop\n      jump\t// out\n        /* \"#utility.yul\":1965:2145   */\n    tag_44:\n        /* \"#utility.yul\":2013:2090   */\n      0x4e487b7100000000000000000000000000000000000000000000000000000000\n        /* \"#utility.yul\":2010:2011   */\n      0x00\n        /* \"#utility.yul\":2003:2091   */\n      mstore\n        /* \"#utility.yul\":2110:2114   */\n      0x41\n        /* \"#utility.yul\":2107:2108   */\n      0x04\n        /* \"#utility.yul\":2100:2115   */\n      mstore\n        /* \"#utility.yul\":2134:2138   */\n      0x24\n        /* \"#utility.yul\":2131:2132   */\n      0x00\n        /* \"#utility.yul\":2124:2139   */\n      revert\n        /* \"#utility.yul\":2151:2432   */\n    tag_45:\n        /* \"#utility.yul\":2234:2261   */\n      tag_89\n        /* \"#utility.yul\":2256:2260   */\n      dup3\n        /* \"#utility.yul\":2234:2261   */\n      tag_43\n      jump\t// in\n    tag_89:\n        /* \"#utility.yul\":2226:2232   */\n      dup2\n        /* \"#utility.yul\":2222:2262   */\n      add\n        /* \"#utility.yul\":2364:2370   */\n      dup2\n        /* \"#utility.yul\":2352:2362   */\n      dup2\n        /* \"#utility.yul\":2349:2371   */\n      lt\n        /* \"#utility.yul\":2328:2346   */\n      0xffffffffffffffff\n        /* \"#utility.yul\":2316:2326   */\n      dup3\n        /* \"#utility.yul\":2313:2347   */\n      gt\n        /* \"#utility.yul\":2310:2372   */\n      or\n        /* \"#utility.yul\":2307:2395   */\n      iszero\n      tag_90\n      jumpi\n        /* \"#utility.yul\":2375:2393   */\n      tag_91\n      tag_44\n      jump\t// in\n    tag_91:\n        /* \"#utility.yul\":2307:2395   */\n    tag_90:\n        /* \"#utility.yul\":2415:2425   */\n      dup1\n        /* \"#utility.yul\":2411:2413   */\n      0x40\n        /* \"#utility.yul\":2404:2426   */\n      mstore\n        /* \"#utility.yul\":2194:2432   */\n      pop\n        /* \"#utility.yul\":2151:2432   */\n      pop\n      pop\n      jump\t// out\n        /* \"#utility.yul\":2438:2567   */\n    tag_46:\n        /* \"#utility.yul\":2472:2478   */\n      0x00\n        /* \"#utility.yul\":2499:2519   */\n      tag_93\n      tag_32\n      jump\t// in\n    tag_93:\n        /* \"#utility.yul\":2489:2519   */\n      swap1\n      pop\n        /* \"#utility.yul\":2528:2561   */\n      tag_94\n        /* \"#utility.yul\":2556:2560   */\n      dup3\n        /* \"#utility.yul\":2548:2554   */\n      dup3\n        /* \"#utility.yul\":2528:2561   */\n      tag_45\n      jump\t// in\n    tag_94:\n        /* \"#utility.yul\":2438:2567   */\n      swap2\n      swap1\n      pop\n      jump\t// out\n        /* \"#utility.yul\":2573:2881   */\n    tag_47:\n        /* \"#utility.yul\":2635:2639   */\n      0x00\n        /* \"#utility.yul\":2725:2743   */\n      0xffffffffffffffff\n        /* \"#utility.yul\":2717:2723   */\n      dup3\n        /* \"#utility.yul\":2714:2744   */\n      gt\n        /* \"#utility.yul\":2711:2767   */\n      iszero\n      tag_96\n      jumpi\n        /* \"#utility.yul\":2747:2765   */\n      tag_97\n      tag_44\n      jump\t// in\n    tag_97:\n        /* \"#utility.yul\":2711:2767   */\n    tag_96:\n        /* \"#utility.yul\":2785:2814   */\n      tag_98\n        /* \"#utility.yul\":2807:2813   */\n      dup3\n        /* \"#utility.yul\":2785:2814   */\n      tag_43\n      jump\t// in\n    tag_98:\n        /* \"#utility.yul\":2777:2814   */\n      swap1\n      pop\n        /* \"#utility.yul\":2869:2873   */\n      0x20\n        /* \"#utility.yul\":2863:2867   */\n      dup2\n        /* \"#utility.yul\":2859:2874   */\n      add\n        /* \"#utility.yul\":2851:2874   */\n      swap1\n      pop\n        /* \"#utility.yul\":2573:2881   */\n      swap2\n      swap1\n      pop\n      jump\t// out\n        /* \"#utility.yul\":2887:3041   */\n    tag_48:\n        /* \"#utility.yul\":2971:2977   */\n      dup3\n        /* \"#utility.yul\":2966:2969   */\n      dup2\n        /* \"#utility.yul\":2961:2964   */\n      dup4\n        /* \"#utility.yul\":2948:2978   */\n      calldatacopy\n        /* \"#utility.yul\":3033:3034   */\n      0x00\n        /* \"#utility.yul\":3024:3030   */\n      dup4\n        /* \"#utility.yul\":3019:3022   */\n      dup4\n        /* \"#utility.yul\":3015:3031   */\n      add\n        /* \"#utility.yul\":3008:3035   */\n      mstore\n        /* \"#utility.yul\":2887:3041   */\n      pop\n      pop\n      pop\n      jump\t// out\n        /* \"#utility.yul\":3047:3459   */\n    tag_49:\n        /* \"#utility.yul\":3125:3130   */\n      0x00\n        /* \"#utility.yul\":3150:3216   */\n      tag_101\n        /* \"#utility.yul\":3166:3215   */\n      tag_102\n        /* \"#utility.yul\":3208:3214   */\n      dup5\n        /* \"#utility.yul\":3166:3215   */\n      tag_47\n      jump\t// in\n    tag_102:\n        /* \"#utility.yul\":3150:3216   */\n      tag_46\n      jump\t// in\n    tag_101:\n        /* \"#utility.yul\":3141:3216   */\n      swap1\n      pop\n        /* \"#utility.yul\":3239:3245   */\n      dup3\n        /* \"#utility.yul\":3232:3237   */\n      dup2\n        /* \"#utility.yul\":3225:3246   */\n      mstore\n        /* \"#utility.yul\":3277:3281   */\n      0x20\n        /* \"#utility.yul\":3270:3275   */\n      dup2\n        /* \"#utility.yul\":3266:3282   */\n      add\n        /* \"#utility.yul\":3315:3318   */\n      dup5\n        /* \"#utility.yul\":3306:3312   */\n      dup5\n        /* \"#utility.yul\":3301:3304   */\n      dup5\n        /* \"#utility.yul\":3297:3313   */\n      add\n        /* \"#utility.yul\":3294:3319   */\n      gt\n        /* \"#utility.yul\":3291:3403   */\n      iszero\n      tag_103\n      jumpi\n        /* \"#utility.yul\":3322:3401   */\n      tag_104\n      tag_42\n      jump\t// in\n    tag_104:\n        /* \"#utility.yul\":3291:3403   */\n    tag_103:\n        /* \"#utility.yul\":3412:3453   */\n      tag_105\n        /* \"#utility.yul\":3446:3452   */\n      dup5\n        /* \"#utility.yul\":3441:3444   */\n      dup3\n        /* \"#utility.yul\":3436:3439   */\n      dup6\n        /* \"#utility.yul\":3412:3453   */\n      tag_48\n      jump\t// in\n    tag_105:\n        /* \"#utility.yul\":3131:3459   */\n      pop\n        /* \"#utility.yul\":3047:3459   */\n      swap4\n      swap3\n      pop\n      pop\n      pop\n      jump\t// out\n        /* \"#utility.yul\":3479:3819   */\n    tag_50:\n        /* \"#utility.yul\":3535:3540   */\n      0x00\n        /* \"#utility.yul\":3584:3587   */\n      dup3\n        /* \"#utility.yul\":3577:3581   */\n      0x1f\n        /* \"#utility.yul\":3569:3575   */\n      dup4\n        /* \"#utility.yul\":3565:3582   */\n      add\n        /* \"#utility.yul\":3561:3588   */\n      slt\n        /* \"#utility.yul\":3551:3673   */\n      tag_107\n      jumpi\n        /* \"#utility.yul\":3592:3671   */\n      tag_108\n      tag_41\n      jump\t// in\n    tag_108:\n        /* \"#utility.yul\":3551:3673   */\n    tag_107:\n        /* \"#utility.yul\":3709:3715   */\n      dup2\n        /* \"#utility.yul\":3696:3716   */\n      calldataload\n        /* \"#utility.yul\":3734:3813   */\n      tag_109\n        /* \"#utility.yul\":3809:3812   */\n      dup5\n        /* \"#utility.yul\":3801:3807   */\n      dup3\n        /* \"#utility.yul\":3794:3798   */\n      0x20\n        /* \"#utility.yul\":3786:3792   */\n      dup7\n        /* \"#utility.yul\":3782:3799   */\n      add\n        /* \"#utility.yul\":3734:3813   */\n      tag_49\n      jump\t// in\n    tag_109:\n        /* \"#utility.yul\":3725:3813   */\n      swap2\n      pop\n        /* \"#utility.yul\":3541:3819   */\n      pop\n        /* \"#utility.yul\":3479:3819   */\n      swap3\n      swap2\n      pop\n      pop\n      jump\t// out\n        /* \"#utility.yul\":3825:4479   */\n    tag_14:\n        /* \"#utility.yul\":3903:3909   */\n      0x00\n        /* \"#utility.yul\":3911:3917   */\n      dup1\n        /* \"#utility.yul\":3960:3962   */\n      0x40\n        /* \"#utility.yul\":3948:3957   */\n      dup4\n        /* \"#utility.yul\":3939:3946   */\n      dup6\n        /* \"#utility.yul\":3935:3958   */\n      sub\n        /* \"#utility.yul\":3931:3963   */\n      slt\n        /* \"#utility.yul\":3928:4047   */\n      iszero\n      tag_111\n      jumpi\n        /* \"#utility.yul\":3966:4045   */\n      tag_112\n      tag_33\n      jump\t// in\n    tag_112:\n        /* \"#utility.yul\":3928:4047   */\n    tag_111:\n        /* \"#utility.yul\":4086:4087   */\n      0x00\n        /* \"#utility.yul\":4111:4164   */\n      tag_113\n        /* \"#utility.yul\":4156:4163   */\n      dup6\n        /* \"#utility.yul\":4147:4153   */\n      dup3\n        /* \"#utility.yul\":4136:4145   */\n      dup7\n        /* \"#utility.yul\":4132:4154   */\n      add\n        /* \"#utility.yul\":4111:4164   */\n      tag_37\n      jump\t// in\n    tag_113:\n        /* \"#utility.yul\":4101:4164   */\n      swap3\n      pop\n        /* \"#utility.yul\":4057:4174   */\n      pop\n        /* \"#utility.yul\":4241:4243   */\n      0x20\n        /* \"#utility.yul\":4230:4239   */\n      dup4\n        /* \"#utility.yul\":4226:4244   */\n      add\n        /* \"#utility.yul\":4213:4245   */\n      calldataload\n        /* \"#utility.yul\":4272:4290   */\n      0xffffffffffffffff\n        /* \"#utility.yul\":4264:4270   */\n      dup2\n        /* \"#utility.yul\":4261:4291   */\n      gt\n        /* \"#utility.yul\":4258:4375   */\n      iszero\n      tag_114\n      jumpi\n        /* \"#utility.yul\":4294:4373   */\n      tag_115\n      tag_34\n      jump\t// in\n    tag_115:\n        /* \"#utility.yul\":4258:4375   */\n    tag_114:\n        /* \"#utility.yul\":4399:4462   */\n      tag_116\n        /* \"#utility.yul\":4454:4461   */\n      dup6\n        /* \"#utility.yul\":4445:4451   */\n      dup3\n        /* \"#utility.yul\":4434:4443   */\n      dup7\n        /* \"#utility.yul\":4430:4452   */\n      add\n        /* \"#utility.yul\":4399:4462   */\n      tag_50\n      jump\t// in\n    tag_116:\n        /* \"#utility.yul\":4389:4462   */\n      swap2\n      pop\n        /* \"#utility.yul\":4184:4472   */\n      pop\n        /* \"#utility.yul\":3825:4479   */\n      swap3\n      pop\n      swap3\n      swap1\n      pop\n      jump\t// out\n        /* \"#utility.yul\":4485:4599   */\n    tag_51:\n        /* \"#utility.yul\":4552:4558   */\n      0x00\n        /* \"#utility.yul\":4586:4591   */\n      dup2\n        /* \"#utility.yul\":4580:4592   */\n      mload\n        /* \"#utility.yul\":4570:4592   */\n      swap1\n      pop\n        /* \"#utility.yul\":4485:4599   */\n      swap2\n      swap1\n      pop\n      jump\t// out\n        /* \"#utility.yul\":4605:4789   */\n    tag_52:\n        /* \"#utility.yul\":4704:4715   */\n      0x00\n        /* \"#utility.yul\":4738:4744   */\n      dup3\n        /* \"#utility.yul\":4733:4736   */\n      dup3\n        /* \"#utility.yul\":4726:4745   */\n      mstore\n        /* \"#utility.yul\":4778:4782   */\n      0x20\n        /* \"#utility.yul\":4773:4776   */\n      dup3\n        /* \"#utility.yul\":4769:4783   */\n      add\n        /* \"#utility.yul\":4754:4783   */\n      swap1\n      pop\n        /* \"#utility.yul\":4605:4789   */\n      swap3\n      swap2\n      pop\n      pop\n      jump\t// out\n        /* \"#utility.yul\":4795:4927   */\n    tag_53:\n        /* \"#utility.yul\":4862:4866   */\n      0x00\n        /* \"#utility.yul\":4885:4888   */\n      dup2\n        /* \"#utility.yul\":4877:4888   */\n      swap1\n      pop\n        /* \"#utility.yul\":4915:4919   */\n      0x20\n        /* \"#utility.yul\":4910:4913   */\n      dup3\n        /* \"#utility.yul\":4906:4920   */\n      add\n        /* \"#utility.yul\":4898:4920   */\n      swap1\n      pop\n        /* \"#utility.yul\":4795:4927   */\n      swap2\n      swap1\n      pop\n      jump\t// out\n        /* \"#utility.yul\":4933:5041   */\n    tag_54:\n        /* \"#utility.yul\":5010:5034   */\n      tag_121\n        /* \"#utility.yul\":5028:5033   */\n      dup2\n        /* \"#utility.yul\":5010:5034   */\n      tag_39\n      jump\t// in\n    tag_121:\n        /* \"#utility.yul\":5005:5008   */\n      dup3\n        /* \"#utility.yul\":4998:5035   */\n      mstore\n        /* \"#utility.yul\":4933:5041   */\n      pop\n      pop\n      jump\t// out\n        /* \"#utility.yul\":5047:5226   */\n    tag_55:\n        /* \"#utility.yul\":5116:5126   */\n      0x00\n        /* \"#utility.yul\":5137:5183   */\n      tag_123\n        /* \"#utility.yul\":5179:5182   */\n      dup4\n        /* \"#utility.yul\":5171:5177   */\n      dup4\n        /* \"#utility.yul\":5137:5183   */\n      tag_54\n      jump\t// in\n    tag_123:\n        /* \"#utility.yul\":5215:5219   */\n      0x20\n        /* \"#utility.yul\":5210:5213   */\n      dup4\n        /* \"#utility.yul\":5206:5220   */\n      add\n        /* \"#utility.yul\":5192:5220   */\n      swap1\n      pop\n        /* \"#utility.yul\":5047:5226   */\n      swap3\n      swap2\n      pop\n      pop\n      jump\t// out\n        /* \"#utility.yul\":5232:5345   */\n    tag_56:\n        /* \"#utility.yul\":5302:5306   */\n      0x00\n        /* \"#utility.yul\":5334:5338   */\n      0x20\n        /* \"#utility.yul\":5329:5332   */\n      dup3\n        /* \"#utility.yul\":5325:5339   */\n      add\n        /* \"#utility.yul\":5317:5339   */\n      swap1\n      pop\n        /* \"#utility.yul\":5232:5345   */\n      swap2\n      swap1\n      pop\n      jump\t// out\n        /* \"#utility.yul\":5381:6113   */\n    tag_57:\n        /* \"#utility.yul\":5500:5503   */\n      0x00\n        /* \"#utility.yul\":5529:5583   */\n      tag_126\n        /* \"#utility.yul\":5577:5582   */\n      dup3\n        /* \"#utility.yul\":5529:5583   */\n      tag_51\n      jump\t// in\n    tag_126:\n        /* \"#utility.yul\":5599:5685   */\n      tag_127\n        /* \"#utility.yul\":5678:5684   */\n      dup2\n        /* \"#utility.yul\":5673:5676   */\n      dup6\n        /* \"#utility.yul\":5599:5685   */\n      tag_52\n      jump\t// in\n    tag_127:\n        /* \"#utility.yul\":5592:5685   */\n      swap4\n      pop\n        /* \"#utility.yul\":5709:5765   */\n      tag_128\n        /* \"#utility.yul\":5759:5764   */\n      dup4\n        /* \"#utility.yul\":5709:5765   */\n      tag_53\n      jump\t// in\n    tag_128:\n        /* \"#utility.yul\":5788:5795   */\n      dup1\n        /* \"#utility.yul\":5819:5820   */\n      0x00\n        /* \"#utility.yul\":5804:6088   */\n    tag_129:\n        /* \"#utility.yul\":5829:5835   */\n      dup4\n        /* \"#utility.yul\":5826:5827   */\n      dup2\n        /* \"#utility.yul\":5823:5836   */\n      lt\n        /* \"#utility.yul\":5804:6088   */\n      iszero\n      tag_131\n      jumpi\n        /* \"#utility.yul\":5905:5911   */\n      dup2\n        /* \"#utility.yul\":5899:5912   */\n      mload\n        /* \"#utility.yul\":5932:5995   */\n      tag_132\n        /* \"#utility.yul\":5991:5994   */\n      dup9\n        /* \"#utility.yul\":5976:5989   */\n      dup3\n        /* \"#utility.yul\":5932:5995   */\n      tag_55\n      jump\t// in\n    tag_132:\n        /* \"#utility.yul\":5925:5995   */\n      swap8\n      pop\n        /* \"#utility.yul\":6018:6078   */\n      tag_133\n        /* \"#utility.yul\":6071:6077   */\n      dup4\n        /* \"#utility.yul\":6018:6078   */\n      tag_56\n      jump\t// in\n    tag_133:\n        /* \"#utility.yul\":6008:6078   */\n      swap3\n      pop\n        /* \"#utility.yul\":5864:6088   */\n      pop\n        /* \"#utility.yul\":5851:5852   */\n      0x01\n        /* \"#utility.yul\":5848:5849   */\n      dup2\n        /* \"#utility.yul\":5844:5853   */\n      add\n        /* \"#utility.yul\":5839:5853   */\n      swap1\n      pop\n        /* \"#utility.yul\":5804:6088   */\n      jump(tag_129)\n    tag_131:\n        /* \"#utility.yul\":5808:5822   */\n      pop\n        /* \"#utility.yul\":6104:6107   */\n      dup6\n        /* \"#utility.yul\":6097:6107   */\n      swap4\n      pop\n        /* \"#utility.yul\":5505:6113   */\n      pop\n      pop\n      pop\n        /* \"#utility.yul\":5381:6113   */\n      swap3\n      swap2\n      pop\n      pop\n      jump\t// out\n        /* \"#utility.yul\":6119:6492   */\n    tag_19:\n        /* \"#utility.yul\":6262:6266   */\n      0x00\n        /* \"#utility.yul\":6300:6302   */\n      0x20\n        /* \"#utility.yul\":6289:6298   */\n      dup3\n        /* \"#utility.yul\":6285:6303   */\n      add\n        /* \"#utility.yul\":6277:6303   */\n      swap1\n      pop\n        /* \"#utility.yul\":6349:6358   */\n      dup2\n        /* \"#utility.yul\":6343:6347   */\n      dup2\n        /* \"#utility.yul\":6339:6359   */\n      sub\n        /* \"#utility.yul\":6335:6336   */\n      0x00\n        /* \"#utility.yul\":6324:6333   */\n      dup4\n        /* \"#utility.yul\":6320:6337   */\n      add\n        /* \"#utility.yul\":6313:6360   */\n      mstore\n        /* \"#utility.yul\":6377:6485   */\n      tag_135\n        /* \"#utility.yul\":6480:6484   */\n      dup2\n        /* \"#utility.yul\":6471:6477   */\n      dup5\n        /* \"#utility.yul\":6377:6485   */\n      tag_57\n      jump\t// in\n    tag_135:\n        /* \"#utility.yul\":6369:6485   */\n      swap1\n      pop\n        /* \"#utility.yul\":6119:6492   */\n      swap3\n      swap2\n      pop\n      pop\n      jump\t// out\n        /* \"#utility.yul\":6498:6616   */\n    tag_58:\n        /* \"#utility.yul\":6585:6609   */\n      tag_137\n        /* \"#utility.yul\":6603:6608   */\n      dup2\n        /* \"#utility.yul\":6585:6609   */\n      tag_35\n      jump\t// in\n    tag_137:\n        /* \"#utility.yul\":6580:6583   */\n      dup3\n        /* \"#utility.yul\":6573:6610   */\n      mstore\n        /* \"#utility.yul\":6498:6616   */\n      pop\n      pop\n      jump\t// out\n        /* \"#utility.yul\":6622:6721   */\n    tag_59:\n        /* \"#utility.yul\":6674:6680   */\n      0x00\n        /* \"#utility.yul\":6708:6713   */\n      dup2\n        /* \"#utility.yul\":6702:6714   */\n      mload\n        /* \"#utility.yul\":6692:6714   */\n      swap1\n      pop\n        /* \"#utility.yul\":6622:6721   */\n      swap2\n      swap1\n      pop\n      jump\t// out\n        /* \"#utility.yul\":6727:6896   */\n    tag_60:\n        /* \"#utility.yul\":6811:6822   */\n      0x00\n        /* \"#utility.yul\":6845:6851   */\n      dup3\n        /* \"#utility.yul\":6840:6843   */\n      dup3\n        /* \"#utility.yul\":6833:6852   */\n      mstore\n        /* \"#utility.yul\":6885:6889   */\n      0x20\n        /* \"#utility.yul\":6880:6883   */\n      dup3\n        /* \"#utility.yul\":6876:6890   */\n      add\n        /* \"#utility.yul\":6861:6890   */\n      swap1\n      pop\n        /* \"#utility.yul\":6727:6896   */\n      swap3\n      swap2\n      pop\n      pop\n      jump\t// out\n        /* \"#utility.yul\":6902:7209   */\n    tag_61:\n        /* \"#utility.yul\":6970:6971   */\n      0x00\n        /* \"#utility.yul\":6980:7093   */\n    tag_141:\n        /* \"#utility.yul\":6994:7000   */\n      dup4\n        /* \"#utility.yul\":6991:6992   */\n      dup2\n        /* \"#utility.yul\":6988:7001   */\n      lt\n        /* \"#utility.yul\":6980:7093   */\n      iszero\n      tag_143\n      jumpi\n        /* \"#utility.yul\":7079:7080   */\n      dup1\n        /* \"#utility.yul\":7074:7077   */\n      dup3\n        /* \"#utility.yul\":7070:7081   */\n      add\n        /* \"#utility.yul\":7064:7082   */\n      mload\n        /* \"#utility.yul\":7060:7061   */\n      dup2\n        /* \"#utility.yul\":7055:7058   */\n      dup5\n        /* \"#utility.yul\":7051:7062   */\n      add\n        /* \"#utility.yul\":7044:7083   */\n      mstore\n        /* \"#utility.yul\":7016:7018   */\n      0x20\n        /* \"#utility.yul\":7013:7014   */\n      dup2\n        /* \"#utility.yul\":7009:7019   */\n      add\n        /* \"#utility.yul\":7004:7019   */\n      swap1\n      pop\n        /* \"#utility.yul\":6980:7093   */\n      jump(tag_141)\n    tag_143:\n        /* \"#utility.yul\":7111:7117   */\n      dup4\n        /* \"#utility.yul\":7108:7109   */\n      dup2\n        /* \"#utility.yul\":7105:7118   */\n      gt\n        /* \"#utility.yul\":7102:7203   */\n      iszero\n      tag_144\n      jumpi\n        /* \"#utility.yul\":7191:7192   */\n      0x00\n        /* \"#utility.yul\":7182:7188   */\n      dup5\n        /* \"#utility.yul\":7177:7180   */\n      dup5\n        /* \"#utility.yul\":7173:7189   */\n      add\n        /* \"#utility.yul\":7166:7193   */\n      mstore\n        /* \"#utility.yul\":7102:7203   */\n    tag_144:\n        /* \"#utility.yul\":6951:7209   */\n      pop\n        /* \"#utility.yul\":6902:7209   */\n      pop\n      pop\n      pop\n      jump\t// out\n        /* \"#utility.yul\":7215:7579   */\n    tag_62:\n        /* \"#utility.yul\":7303:7306   */\n      0x00\n        /* \"#utility.yul\":7331:7370   */\n      tag_146\n        /* \"#utility.yul\":7364:7369   */\n      dup3\n        /* \"#utility.yul\":7331:7370   */\n      tag_59\n      jump\t// in\n    tag_146:\n        /* \"#utility.yul\":7386:7457   */\n      tag_147\n        /* \"#utility.yul\":7450:7456   */\n      dup2\n        /* \"#utility.yul\":7445:7448   */\n      dup6\n        /* \"#utility.yul\":7386:7457   */\n      tag_60\n      jump\t// in\n    tag_147:\n        /* \"#utility.yul\":7379:7457   */\n      swap4\n      pop\n        /* \"#utility.yul\":7466:7518   */\n      tag_148\n        /* \"#utility.yul\":7511:7517   */\n      dup2\n        /* \"#utility.yul\":7506:7509   */\n      dup6\n        /* \"#utility.yul\":7499:7503   */\n      0x20\n        /* \"#utility.yul\":7492:7497   */\n      dup7\n        /* \"#utility.yul\":7488:7504   */\n      add\n        /* \"#utility.yul\":7466:7518   */\n      tag_61\n      jump\t// in\n    tag_148:\n        /* \"#utility.yul\":7543:7572   */\n      tag_149\n        /* \"#utility.yul\":7565:7571   */\n      dup2\n        /* \"#utility.yul\":7543:7572   */\n      tag_43\n      jump\t// in\n    tag_149:\n        /* \"#utility.yul\":7538:7541   */\n      dup5\n        /* \"#utility.yul\":7534:7573   */\n      add\n        /* \"#utility.yul\":7527:7573   */\n      swap2\n      pop\n        /* \"#utility.yul\":7307:7579   */\n      pop\n        /* \"#utility.yul\":7215:7579   */\n      swap3\n      swap2\n      pop\n      pop\n      jump\t// out\n        /* \"#utility.yul\":7585:8118   */\n    tag_26:\n        /* \"#utility.yul\":7754:7758   */\n      0x00\n        /* \"#utility.yul\":7792:7794   */\n      0x60\n        /* \"#utility.yul\":7781:7790   */\n      dup3\n        /* \"#utility.yul\":7777:7795   */\n      add\n        /* \"#utility.yul\":7769:7795   */\n      swap1\n      pop\n        /* \"#utility.yul\":7805:7876   */\n      tag_151\n        /* \"#utility.yul\":7873:7874   */\n      0x00\n        /* \"#utility.yul\":7862:7871   */\n      dup4\n        /* \"#utility.yul\":7858:7875   */\n      add\n        /* \"#utility.yul\":7849:7855   */\n      dup7\n        /* \"#utility.yul\":7805:7876   */\n      tag_58\n      jump\t// in\n    tag_151:\n        /* \"#utility.yul\":7923:7932   */\n      dup2\n        /* \"#utility.yul\":7917:7921   */\n      dup2\n        /* \"#utility.yul\":7913:7933   */\n      sub\n        /* \"#utility.yul\":7908:7910   */\n      0x20\n        /* \"#utility.yul\":7897:7906   */\n      dup4\n        /* \"#utility.yul\":7893:7911   */\n      add\n        /* \"#utility.yul\":7886:7934   */\n      mstore\n        /* \"#utility.yul\":7951:8029   */\n      tag_152\n        /* \"#utility.yul\":8024:8028   */\n      dup2\n        /* \"#utility.yul\":8015:8021   */\n      dup6\n        /* \"#utility.yul\":7951:8029   */\n      tag_62\n      jump\t// in\n    tag_152:\n        /* \"#utility.yul\":7943:8029   */\n      swap1\n      pop\n        /* \"#utility.yul\":8039:8111   */\n      tag_153\n        /* \"#utility.yul\":8107:8109   */\n      0x40\n        /* \"#utility.yul\":8096:8105   */\n      dup4\n        /* \"#utility.yul\":8092:8110   */\n      add\n        /* \"#utility.yul\":8083:8089   */\n      dup5\n        /* \"#utility.yul\":8039:8111   */\n      tag_40\n      jump\t// in\n    tag_153:\n        /* \"#utility.yul\":7585:8118   */\n      swap5\n      swap4\n      pop\n      pop\n      pop\n      pop\n      jump\t// out\n    stop\n\n    sub_0: assembly {\n            /* \"Campaign.sol\":490:3314  contract Campaign {... */\n          mstore(0x40, 0x80)\n            /* \"Campaign.sol\":1212:1423  constructor(uint _minimumContribution, string memory _campaignName, address _manager) {... */\n          callvalue\n          dup1\n          iszero\n          tag_1\n          jumpi\n          0x00\n          dup1\n          revert\n        tag_1:\n          pop\n          mload(0x40)\n          sub(codesize, bytecodeSize)\n          dup1\n          bytecodeSize\n          dup4\n          codecopy\n          dup2\n          dup2\n          add\n          0x40\n          mstore\n          dup2\n          add\n          swap1\n          tag_2\n          swap2\n          swap1\n          tag_3\n          jump\t// in\n        tag_2:\n            /* \"Campaign.sol\":1330:1350  _minimumContribution */\n          dup3\n            /* \"Campaign.sol\":1308:1327  minimumContribution */\n          0x02\n            /* \"Campaign.sol\":1308:1350  minimumContribution = _minimumContribution */\n          dup2\n          swap1\n          sstore\n          pop\n            /* \"Campaign.sol\":1375:1388  _campaignName */\n          dup2\n            /* \"Campaign.sol\":1360:1372  campaignName */\n          0x01\n            /* \"Campaign.sol\":1360:1388  campaignName = _campaignName */\n          swap1\n          dup1\n          mload\n          swap1\n          0x20\n          add\n          swap1\n          tag_6\n          swap3\n          swap2\n          swap1\n          tag_7\n          jump\t// in\n        tag_6:\n          pop\n            /* \"Campaign.sol\":1408:1416  _manager */\n          dup1\n            /* \"Campaign.sol\":1398:1405  manager */\n          0x00\n          dup1\n            /* \"Campaign.sol\":1398:1416  manager = _manager */\n          0x0100\n          exp\n          dup2\n          sload\n          dup2\n          0xffffffffffffffffffffffffffffffffffffffff\n          mul\n          not\n          and\n          swap1\n          dup4\n          0xffffffffffffffffffffffffffffffffffffffff\n          and\n          mul\n          or\n          swap1\n          sstore\n          pop\n            /* \"Campaign.sol\":1212:1423  constructor(uint _minimumContribution, string memory _campaignName, address _manager) {... */\n          pop\n          pop\n          pop\n            /* \"Campaign.sol\":490:3314  contract Campaign {... */\n          jump(tag_8)\n        tag_7:\n          dup3\n          dup1\n          sload\n          tag_9\n          swap1\n          tag_10\n          jump\t// in\n        tag_9:\n          swap1\n          0x00\n          mstore\n          keccak256(0x00, 0x20)\n          swap1\n          0x1f\n          add\n          0x20\n          swap1\n          div\n          dup2\n          add\n          swap3\n          dup3\n          tag_12\n          jumpi\n          0x00\n          dup6\n          sstore\n          jump(tag_11)\n        tag_12:\n          dup3\n          0x1f\n          lt\n          tag_13\n          jumpi\n          dup1\n          mload\n          not(0xff)\n          and\n          dup4\n          dup1\n          add\n          or\n          dup6\n          sstore\n          jump(tag_11)\n        tag_13:\n          dup3\n          dup1\n          add\n          0x01\n          add\n          dup6\n          sstore\n          dup3\n          iszero\n          tag_11\n          jumpi\n          swap2\n          dup3\n          add\n        tag_14:\n          dup3\n          dup2\n          gt\n          iszero\n          tag_15\n          jumpi\n          dup3\n          mload\n          dup3\n          sstore\n          swap2\n          0x20\n          add\n          swap2\n          swap1\n          0x01\n          add\n          swap1\n          jump(tag_14)\n        tag_15:\n        tag_11:\n          pop\n          swap1\n          pop\n          tag_16\n          swap2\n          swap1\n          tag_17\n          jump\t// in\n        tag_16:\n          pop\n          swap1\n          jump\t// out\n        tag_17:\n        tag_18:\n          dup1\n          dup3\n          gt\n          iszero\n          tag_19\n          jumpi\n          0x00\n          dup2\n          0x00\n          swap1\n          sstore\n          pop\n          0x01\n          add\n          jump(tag_18)\n        tag_19:\n          pop\n          swap1\n          jump\t// out\n            /* \"#utility.yul\":7:82   */\n        tag_20:\n            /* \"#utility.yul\":40:46   */\n          0x00\n            /* \"#utility.yul\":73:75   */\n          0x40\n            /* \"#utility.yul\":67:76   */\n          mload\n            /* \"#utility.yul\":57:76   */\n          swap1\n          pop\n            /* \"#utility.yul\":7:82   */\n          swap1\n          jump\t// out\n            /* \"#utility.yul\":88:205   */\n        tag_21:\n            /* \"#utility.yul\":197:198   */\n          0x00\n            /* \"#utility.yul\":194:195   */\n          dup1\n            /* \"#utility.yul\":187:199   */\n          revert\n            /* \"#utility.yul\":211:328   */\n        tag_22:\n            /* \"#utility.yul\":320:321   */\n          0x00\n            /* \"#utility.yul\":317:318   */\n          dup1\n            /* \"#utility.yul\":310:322   */\n          revert\n            /* \"#utility.yul\":334:411   */\n        tag_23:\n            /* \"#utility.yul\":371:378   */\n          0x00\n            /* \"#utility.yul\":400:405   */\n          dup2\n            /* \"#utility.yul\":389:405   */\n          swap1\n          pop\n            /* \"#utility.yul\":334:411   */\n          swap2\n          swap1\n          pop\n          jump\t// out\n            /* \"#utility.yul\":417:539   */\n        tag_24:\n            /* \"#utility.yul\":490:514   */\n          tag_47\n            /* \"#utility.yul\":508:513   */\n          dup2\n            /* \"#utility.yul\":490:514   */\n          tag_23\n          jump\t// in\n        tag_47:\n            /* \"#utility.yul\":483:488   */\n          dup2\n            /* \"#utility.yul\":480:515   */\n          eq\n            /* \"#utility.yul\":470:533   */\n          tag_48\n          jumpi\n            /* \"#utility.yul\":529:530   */\n          0x00\n            /* \"#utility.yul\":526:527   */\n          dup1\n            /* \"#utility.yul\":519:531   */\n          revert\n            /* \"#utility.yul\":470:533   */\n        tag_48:\n            /* \"#utility.yul\":417:539   */\n          pop\n          jump\t// out\n            /* \"#utility.yul\":545:688   */\n        tag_25:\n            /* \"#utility.yul\":602:607   */\n          0x00\n            /* \"#utility.yul\":633:639   */\n          dup2\n            /* \"#utility.yul\":627:640   */\n          mload\n            /* \"#utility.yul\":618:640   */\n          swap1\n          pop\n            /* \"#utility.yul\":649:682   */\n          tag_50\n            /* \"#utility.yul\":676:681   */\n          dup2\n            /* \"#utility.yul\":649:682   */\n          tag_24\n          jump\t// in\n        tag_50:\n            /* \"#utility.yul\":545:688   */\n          swap3\n          swap2\n          pop\n          pop\n          jump\t// out\n            /* \"#utility.yul\":694:811   */\n        tag_26:\n            /* \"#utility.yul\":803:804   */\n          0x00\n            /* \"#utility.yul\":800:801   */\n          dup1\n            /* \"#utility.yul\":793:805   */\n          revert\n            /* \"#utility.yul\":817:934   */\n        tag_27:\n            /* \"#utility.yul\":926:927   */\n          0x00\n            /* \"#utility.yul\":923:924   */\n          dup1\n            /* \"#utility.yul\":916:928   */\n          revert\n            /* \"#utility.yul\":940:1042   */\n        tag_28:\n            /* \"#utility.yul\":981:987   */\n          0x00\n            /* \"#utility.yul\":1032:1034   */\n          0x1f\n            /* \"#utility.yul\":1028:1035   */\n          not\n            /* \"#utility.yul\":1023:1025   */\n          0x1f\n            /* \"#utility.yul\":1016:1021   */\n          dup4\n            /* \"#utility.yul\":1012:1026   */\n          add\n            /* \"#utility.yul\":1008:1036   */\n          and\n            /* \"#utility.yul\":998:1036   */\n          swap1\n          pop\n            /* \"#utility.yul\":940:1042   */\n          swap2\n          swap1\n          pop\n          jump\t// out\n            /* \"#utility.yul\":1048:1228   */\n        tag_29:\n            /* \"#utility.yul\":1096:1173   */\n          0x4e487b7100000000000000000000000000000000000000000000000000000000\n            /* \"#utility.yul\":1093:1094   */\n          0x00\n            /* \"#utility.yul\":1086:1174   */\n          mstore\n            /* \"#utility.yul\":1193:1197   */\n          0x41\n            /* \"#utility.yul\":1190:1191   */\n          0x04\n            /* \"#utility.yul\":1183:1198   */\n          mstore\n            /* \"#utility.yul\":1217:1221   */\n          0x24\n            /* \"#utility.yul\":1214:1215   */\n          0x00\n            /* \"#utility.yul\":1207:1222   */\n          revert\n            /* \"#utility.yul\":1234:1515   */\n        tag_30:\n            /* \"#utility.yul\":1317:1344   */\n          tag_56\n            /* \"#utility.yul\":1339:1343   */\n          dup3\n            /* \"#utility.yul\":1317:1344   */\n          tag_28\n          jump\t// in\n        tag_56:\n            /* \"#utility.yul\":1309:1315   */\n          dup2\n            /* \"#utility.yul\":1305:1345   */\n          add\n            /* \"#utility.yul\":1447:1453   */\n          dup2\n            /* \"#utility.yul\":1435:1445   */\n          dup2\n            /* \"#utility.yul\":1432:1454   */\n          lt\n            /* \"#utility.yul\":1411:1429   */\n          0xffffffffffffffff\n            /* \"#utility.yul\":1399:1409   */\n          dup3\n            /* \"#utility.yul\":1396:1430   */\n          gt\n            /* \"#utility.yul\":1393:1455   */\n          or\n            /* \"#utility.yul\":1390:1478   */\n          iszero\n          tag_57\n          jumpi\n            /* \"#utility.yul\":1458:1476   */\n          tag_58\n          tag_29\n          jump\t// in\n        tag_58:\n            /* \"#utility.yul\":1390:1478   */\n        tag_57:\n            /* \"#utility.yul\":1498:1508   */\n          dup1\n            /* \"#utility.yul\":1494:1496   */\n          0x40\n            /* \"#utility.yul\":1487:1509   */\n          mstore\n            /* \"#utility.yul\":1277:1515   */\n          pop\n            /* \"#utility.yul\":1234:1515   */\n          pop\n          pop\n          jump\t// out\n            /* \"#utility.yul\":1521:1650   */\n        tag_31:\n            /* \"#utility.yul\":1555:1561   */\n          0x00\n            /* \"#utility.yul\":1582:1602   */\n          tag_60\n          tag_20\n          jump\t// in\n        tag_60:\n            /* \"#utility.yul\":1572:1602   */\n          swap1\n          pop\n            /* \"#utility.yul\":1611:1644   */\n          tag_61\n            /* \"#utility.yul\":1639:1643   */\n          dup3\n            /* \"#utility.yul\":1631:1637   */\n          dup3\n            /* \"#utility.yul\":1611:1644   */\n          tag_30\n          jump\t// in\n        tag_61:\n            /* \"#utility.yul\":1521:1650   */\n          swap2\n          swap1\n          pop\n          jump\t// out\n            /* \"#utility.yul\":1656:1964   */\n        tag_32:\n            /* \"#utility.yul\":1718:1722   */\n          0x00\n            /* \"#utility.yul\":1808:1826   */\n          0xffffffffffffffff\n            /* \"#utility.yul\":1800:1806   */\n          dup3\n            /* \"#utility.yul\":1797:1827   */\n          gt\n            /* \"#utility.yul\":1794:1850   */\n          iszero\n          tag_63\n          jumpi\n            /* \"#utility.yul\":1830:1848   */\n          tag_64\n          tag_29\n          jump\t// in\n        tag_64:\n            /* \"#utility.yul\":1794:1850   */\n        tag_63:\n            /* \"#utility.yul\":1868:1897   */\n          tag_65\n            /* \"#utility.yul\":1890:1896   */\n          dup3\n            /* \"#utility.yul\":1868:1897   */\n          tag_28\n          jump\t// in\n        tag_65:\n            /* \"#utility.yul\":1860:1897   */\n          swap1\n          pop\n            /* \"#utility.yul\":1952:1956   */\n          0x20\n            /* \"#utility.yul\":1946:1950   */\n          dup2\n            /* \"#utility.yul\":1942:1957   */\n          add\n            /* \"#utility.yul\":1934:1957   */\n          swap1\n          pop\n            /* \"#utility.yul\":1656:1964   */\n          swap2\n          swap1\n          pop\n          jump\t// out\n            /* \"#utility.yul\":1970:2277   */\n        tag_33:\n            /* \"#utility.yul\":2038:2039   */\n          0x00\n            /* \"#utility.yul\":2048:2161   */\n        tag_67:\n            /* \"#utility.yul\":2062:2068   */\n          dup4\n            /* \"#utility.yul\":2059:2060   */\n          dup2\n            /* \"#utility.yul\":2056:2069   */\n          lt\n            /* \"#utility.yul\":2048:2161   */\n          iszero\n          tag_69\n          jumpi\n            /* \"#utility.yul\":2147:2148   */\n          dup1\n            /* \"#utility.yul\":2142:2145   */\n          dup3\n            /* \"#utility.yul\":2138:2149   */\n          add\n            /* \"#utility.yul\":2132:2150   */\n          mload\n            /* \"#utility.yul\":2128:2129   */\n          dup2\n            /* \"#utility.yul\":2123:2126   */\n          dup5\n            /* \"#utility.yul\":2119:2130   */\n          add\n            /* \"#utility.yul\":2112:2151   */\n          mstore\n            /* \"#utility.yul\":2084:2086   */\n          0x20\n            /* \"#utility.yul\":2081:2082   */\n          dup2\n            /* \"#utility.yul\":2077:2087   */\n          add\n            /* \"#utility.yul\":2072:2087   */\n          swap1\n          pop\n            /* \"#utility.yul\":2048:2161   */\n          jump(tag_67)\n        tag_69:\n            /* \"#utility.yul\":2179:2185   */\n          dup4\n            /* \"#utility.yul\":2176:2177   */\n          dup2\n            /* \"#utility.yul\":2173:2186   */\n          gt\n            /* \"#utility.yul\":2170:2271   */\n          iszero\n          tag_70\n          jumpi\n            /* \"#utility.yul\":2259:2260   */\n          0x00\n            /* \"#utility.yul\":2250:2256   */\n          dup5\n            /* \"#utility.yul\":2245:2248   */\n          dup5\n            /* \"#utility.yul\":2241:2257   */\n          add\n            /* \"#utility.yul\":2234:2261   */\n          mstore\n            /* \"#utility.yul\":2170:2271   */\n        tag_70:\n            /* \"#utility.yul\":2019:2277   */\n          pop\n            /* \"#utility.yul\":1970:2277   */\n          pop\n          pop\n          pop\n          jump\t// out\n            /* \"#utility.yul\":2283:2704   */\n        tag_34:\n            /* \"#utility.yul\":2372:2377   */\n          0x00\n            /* \"#utility.yul\":2397:2463   */\n          tag_72\n            /* \"#utility.yul\":2413:2462   */\n          tag_73\n            /* \"#utility.yul\":2455:2461   */\n          dup5\n            /* \"#utility.yul\":2413:2462   */\n          tag_32\n          jump\t// in\n        tag_73:\n            /* \"#utility.yul\":2397:2463   */\n          tag_31\n          jump\t// in\n        tag_72:\n            /* \"#utility.yul\":2388:2463   */\n          swap1\n          pop\n            /* \"#utility.yul\":2486:2492   */\n          dup3\n            /* \"#utility.yul\":2479:2484   */\n          dup2\n            /* \"#utility.yul\":2472:2493   */\n          mstore\n            /* \"#utility.yul\":2524:2528   */\n          0x20\n            /* \"#utility.yul\":2517:2522   */\n          dup2\n            /* \"#utility.yul\":2513:2529   */\n          add\n            /* \"#utility.yul\":2562:2565   */\n          dup5\n            /* \"#utility.yul\":2553:2559   */\n          dup5\n            /* \"#utility.yul\":2548:2551   */\n          dup5\n            /* \"#utility.yul\":2544:2560   */\n          add\n            /* \"#utility.yul\":2541:2566   */\n          gt\n            /* \"#utility.yul\":2538:2650   */\n          iszero\n          tag_74\n          jumpi\n            /* \"#utility.yul\":2569:2648   */\n          tag_75\n          tag_27\n          jump\t// in\n        tag_75:\n            /* \"#utility.yul\":2538:2650   */\n        tag_74:\n            /* \"#utility.yul\":2659:2698   */\n          tag_76\n            /* \"#utility.yul\":2691:2697   */\n          dup5\n            /* \"#utility.yul\":2686:2689   */\n          dup3\n            /* \"#utility.yul\":2681:2684   */\n          dup6\n            /* \"#utility.yul\":2659:2698   */\n          tag_33\n          jump\t// in\n        tag_76:\n            /* \"#utility.yul\":2378:2704   */\n          pop\n            /* \"#utility.yul\":2283:2704   */\n          swap4\n          swap3\n          pop\n          pop\n          pop\n          jump\t// out\n            /* \"#utility.yul\":2724:3079   */\n        tag_35:\n            /* \"#utility.yul\":2791:2796   */\n          0x00\n            /* \"#utility.yul\":2840:2843   */\n          dup3\n            /* \"#utility.yul\":2833:2837   */\n          0x1f\n            /* \"#utility.yul\":2825:2831   */\n          dup4\n            /* \"#utility.yul\":2821:2838   */\n          add\n            /* \"#utility.yul\":2817:2844   */\n          slt\n            /* \"#utility.yul\":2807:2929   */\n          tag_78\n          jumpi\n            /* \"#utility.yul\":2848:2927   */\n          tag_79\n          tag_26\n          jump\t// in\n        tag_79:\n            /* \"#utility.yul\":2807:2929   */\n        tag_78:\n            /* \"#utility.yul\":2958:2964   */\n          dup2\n            /* \"#utility.yul\":2952:2965   */\n          mload\n            /* \"#utility.yul\":2983:3073   */\n          tag_80\n            /* \"#utility.yul\":3069:3072   */\n          dup5\n            /* \"#utility.yul\":3061:3067   */\n          dup3\n            /* \"#utility.yul\":3054:3058   */\n          0x20\n            /* \"#utility.yul\":3046:3052   */\n          dup7\n            /* \"#utility.yul\":3042:3059   */\n          add\n            /* \"#utility.yul\":2983:3073   */\n          tag_34\n          jump\t// in\n        tag_80:\n            /* \"#utility.yul\":2974:3073   */\n          swap2\n          pop\n            /* \"#utility.yul\":2797:3079   */\n          pop\n            /* \"#utility.yul\":2724:3079   */\n          swap3\n          swap2\n          pop\n          pop\n          jump\t// out\n            /* \"#utility.yul\":3085:3211   */\n        tag_36:\n            /* \"#utility.yul\":3122:3129   */\n          0x00\n            /* \"#utility.yul\":3162:3204   */\n          0xffffffffffffffffffffffffffffffffffffffff\n            /* \"#utility.yul\":3155:3160   */\n          dup3\n            /* \"#utility.yul\":3151:3205   */\n          and\n            /* \"#utility.yul\":3140:3205   */\n          swap1\n          pop\n            /* \"#utility.yul\":3085:3211   */\n          swap2\n          swap1\n          pop\n          jump\t// out\n            /* \"#utility.yul\":3217:3313   */\n        tag_37:\n            /* \"#utility.yul\":3254:3261   */\n          0x00\n            /* \"#utility.yul\":3283:3307   */\n          tag_83\n            /* \"#utility.yul\":3301:3306   */\n          dup3\n            /* \"#utility.yul\":3283:3307   */\n          tag_36\n          jump\t// in\n        tag_83:\n            /* \"#utility.yul\":3272:3307   */\n          swap1\n          pop\n            /* \"#utility.yul\":3217:3313   */\n          swap2\n          swap1\n          pop\n          jump\t// out\n            /* \"#utility.yul\":3319:3441   */\n        tag_38:\n            /* \"#utility.yul\":3392:3416   */\n          tag_85\n            /* \"#utility.yul\":3410:3415   */\n          dup2\n            /* \"#utility.yul\":3392:3416   */\n          tag_37\n          jump\t// in\n        tag_85:\n            /* \"#utility.yul\":3385:3390   */\n          dup2\n            /* \"#utility.yul\":3382:3417   */\n          eq\n            /* \"#utility.yul\":3372:3435   */\n          tag_86\n          jumpi\n            /* \"#utility.yul\":3431:3432   */\n          0x00\n            /* \"#utility.yul\":3428:3429   */\n          dup1\n            /* \"#utility.yul\":3421:3433   */\n          revert\n            /* \"#utility.yul\":3372:3435   */\n        tag_86:\n            /* \"#utility.yul\":3319:3441   */\n          pop\n          jump\t// out\n            /* \"#utility.yul\":3447:3590   */\n        tag_39:\n            /* \"#utility.yul\":3504:3509   */\n          0x00\n            /* \"#utility.yul\":3535:3541   */\n          dup2\n            /* \"#utility.yul\":3529:3542   */\n          mload\n            /* \"#utility.yul\":3520:3542   */\n          swap1\n          pop\n            /* \"#utility.yul\":3551:3584   */\n          tag_88\n            /* \"#utility.yul\":3578:3583   */\n          dup2\n            /* \"#utility.yul\":3551:3584   */\n          tag_38\n          jump\t// in\n        tag_88:\n            /* \"#utility.yul\":3447:3590   */\n          swap3\n          swap2\n          pop\n          pop\n          jump\t// out\n            /* \"#utility.yul\":3596:4432   */\n        tag_3:\n            /* \"#utility.yul\":3694:3700   */\n          0x00\n            /* \"#utility.yul\":3702:3708   */\n          dup1\n            /* \"#utility.yul\":3710:3716   */\n          0x00\n            /* \"#utility.yul\":3759:3761   */\n          0x60\n            /* \"#utility.yul\":3747:3756   */\n          dup5\n            /* \"#utility.yul\":3738:3745   */\n          dup7\n            /* \"#utility.yul\":3734:3757   */\n          sub\n            /* \"#utility.yul\":3730:3762   */\n          slt\n            /* \"#utility.yul\":3727:3846   */\n          iszero\n          tag_90\n          jumpi\n            /* \"#utility.yul\":3765:3844   */\n          tag_91\n          tag_21\n          jump\t// in\n        tag_91:\n            /* \"#utility.yul\":3727:3846   */\n        tag_90:\n            /* \"#utility.yul\":3885:3886   */\n          0x00\n            /* \"#utility.yul\":3910:3974   */\n          tag_92\n            /* \"#utility.yul\":3966:3973   */\n          dup7\n            /* \"#utility.yul\":3957:3963   */\n          dup3\n            /* \"#utility.yul\":3946:3955   */\n          dup8\n            /* \"#utility.yul\":3942:3964   */\n          add\n            /* \"#utility.yul\":3910:3974   */\n          tag_25\n          jump\t// in\n        tag_92:\n            /* \"#utility.yul\":3900:3974   */\n          swap4\n          pop\n            /* \"#utility.yul\":3856:3984   */\n          pop\n            /* \"#utility.yul\":4044:4046   */\n          0x20\n            /* \"#utility.yul\":4033:4042   */\n          dup5\n            /* \"#utility.yul\":4029:4047   */\n          add\n            /* \"#utility.yul\":4023:4048   */\n          mload\n            /* \"#utility.yul\":4075:4093   */\n          0xffffffffffffffff\n            /* \"#utility.yul\":4067:4073   */\n          dup2\n            /* \"#utility.yul\":4064:4094   */\n          gt\n            /* \"#utility.yul\":4061:4178   */\n          iszero\n          tag_93\n          jumpi\n            /* \"#utility.yul\":4097:4176   */\n          tag_94\n          tag_22\n          jump\t// in\n        tag_94:\n            /* \"#utility.yul\":4061:4178   */\n        tag_93:\n            /* \"#utility.yul\":4202:4276   */\n          tag_95\n            /* \"#utility.yul\":4268:4275   */\n          dup7\n            /* \"#utility.yul\":4259:4265   */\n          dup3\n            /* \"#utility.yul\":4248:4257   */\n          dup8\n            /* \"#utility.yul\":4244:4266   */\n          add\n            /* \"#utility.yul\":4202:4276   */\n          tag_35\n          jump\t// in\n        tag_95:\n            /* \"#utility.yul\":4192:4276   */\n          swap3\n          pop\n            /* \"#utility.yul\":3994:4286   */\n          pop\n            /* \"#utility.yul\":4325:4327   */\n          0x40\n            /* \"#utility.yul\":4351:4415   */\n          tag_96\n            /* \"#utility.yul\":4407:4414   */\n          dup7\n            /* \"#utility.yul\":4398:4404   */\n          dup3\n            /* \"#utility.yul\":4387:4396   */\n          dup8\n            /* \"#utility.yul\":4383:4405   */\n          add\n            /* \"#utility.yul\":4351:4415   */\n          tag_39\n          jump\t// in\n        tag_96:\n            /* \"#utility.yul\":4341:4415   */\n          swap2\n          pop\n            /* \"#utility.yul\":4296:4425   */\n          pop\n            /* \"#utility.yul\":3596:4432   */\n          swap3\n          pop\n          swap3\n          pop\n          swap3\n          jump\t// out\n            /* \"#utility.yul\":4438:4618   */\n        tag_40:\n            /* \"#utility.yul\":4486:4563   */\n          0x4e487b7100000000000000000000000000000000000000000000000000000000\n            /* \"#utility.yul\":4483:4484   */\n          0x00\n            /* \"#utility.yul\":4476:4564   */\n          mstore\n            /* \"#utility.yul\":4583:4587   */\n          0x22\n            /* \"#utility.yul\":4580:4581   */\n          0x04\n            /* \"#utility.yul\":4573:4588   */\n          mstore\n            /* \"#utility.yul\":4607:4611   */\n          0x24\n            /* \"#utility.yul\":4604:4605   */\n          0x00\n            /* \"#utility.yul\":4597:4612   */\n          revert\n            /* \"#utility.yul\":4624:4944   */\n        tag_10:\n            /* \"#utility.yul\":4668:4674   */\n          0x00\n            /* \"#utility.yul\":4705:4706   */\n          0x02\n            /* \"#utility.yul\":4699:4703   */\n          dup3\n            /* \"#utility.yul\":4695:4707   */\n          div\n            /* \"#utility.yul\":4685:4707   */\n          swap1\n          pop\n            /* \"#utility.yul\":4752:4753   */\n          0x01\n            /* \"#utility.yul\":4746:4750   */\n          dup3\n            /* \"#utility.yul\":4742:4754   */\n          and\n            /* \"#utility.yul\":4773:4791   */\n          dup1\n            /* \"#utility.yul\":4763:4844   */\n          tag_99\n          jumpi\n            /* \"#utility.yul\":4829:4833   */\n          0x7f\n            /* \"#utility.yul\":4821:4827   */\n          dup3\n            /* \"#utility.yul\":4817:4834   */\n          and\n            /* \"#utility.yul\":4807:4834   */\n          swap2\n          pop\n            /* \"#utility.yul\":4763:4844   */\n        tag_99:\n            /* \"#utility.yul\":4891:4893   */\n          0x20\n            /* \"#utility.yul\":4883:4889   */\n          dup3\n            /* \"#utility.yul\":4880:4894   */\n          lt\n            /* \"#utility.yul\":4860:4878   */\n          dup2\n            /* \"#utility.yul\":4857:4895   */\n          sub\n            /* \"#utility.yul\":4854:4938   */\n          tag_100\n          jumpi\n            /* \"#utility.yul\":4910:4928   */\n          tag_101\n          tag_40\n          jump\t// in\n        tag_101:\n            /* \"#utility.yul\":4854:4938   */\n        tag_100:\n            /* \"#utility.yul\":4675:4944   */\n          pop\n            /* \"#utility.yul\":4624:4944   */\n          swap2\n          swap1\n          pop\n          jump\t// out\n            /* \"Campaign.sol\":490:3314  contract Campaign {... */\n        tag_8:\n          dataSize(sub_0)\n          dup1\n          dataOffset(sub_0)\n          0x00\n          codecopy\n          0x00\n          return\n        stop\n\n        sub_0: assembly {\n                /* \"Campaign.sol\":490:3314  contract Campaign {... */\n              mstore(0x40, 0x80)\n              jumpi(tag_1, lt(calldatasize, 0x04))\n              shr(0xe0, calldataload(0x00))\n              dup1\n              0x7569b3d7\n              gt\n              tag_14\n              jumpi\n              dup1\n              0x7569b3d7\n              eq\n              tag_8\n              jumpi\n              dup1\n              0x81d12c58\n              eq\n              tag_9\n              jumpi\n              dup1\n              0x937e09b1\n              eq\n              tag_10\n              jumpi\n              dup1\n              0xa00c96d7\n              eq\n              tag_11\n              jumpi\n              dup1\n              0xd7bb99ba\n              eq\n              tag_12\n              jumpi\n              dup1\n              0xd7d1bbdb\n              eq\n              tag_13\n              jumpi\n              jump(tag_1)\n            tag_14:\n              dup1\n              0x03441006\n              eq\n              tag_2\n              jumpi\n              dup1\n              0x0724fda9\n              eq\n              tag_3\n              jumpi\n              dup1\n              0x1f6d4942\n              eq\n              tag_4\n              jumpi\n              dup1\n              0x26883efa\n              eq\n              tag_5\n              jumpi\n              dup1\n              0x3410452a\n              eq\n              tag_6\n              jumpi\n              dup1\n              0x481c6a75\n              eq\n              tag_7\n              jumpi\n            tag_1:\n              0x00\n              dup1\n              revert\n                /* \"Campaign.sol\":2437:2894  function finalizeRequest(uint index) public restricted {... */\n            tag_2:\n              callvalue\n              dup1\n              iszero\n              tag_15\n              jumpi\n              0x00\n              dup1\n              revert\n            tag_15:\n              pop\n              tag_16\n              0x04\n              dup1\n              calldatasize\n              sub\n              dup2\n              add\n              swap1\n              tag_17\n              swap2\n              swap1\n              tag_18\n              jump\t// in\n            tag_17:\n              tag_19\n              jump\t// in\n            tag_16:\n              stop\n                /* \"Campaign.sol\":862:888  string public campaignName */\n            tag_3:\n              callvalue\n              dup1\n              iszero\n              tag_20\n              jumpi\n              0x00\n              dup1\n              revert\n            tag_20:\n              pop\n              tag_21\n              tag_22\n              jump\t// in\n            tag_21:\n              mload(0x40)\n              tag_23\n              swap2\n              swap1\n              tag_24\n              jump\t// in\n            tag_23:\n              mload(0x40)\n              dup1\n              swap2\n              sub\n              swap1\n              return\n                /* \"Campaign.sol\":1035:1080  mapping(address  => bool) public contributors */\n            tag_4:\n              callvalue\n              dup1\n              iszero\n              tag_25\n              jumpi\n              0x00\n              dup1\n              revert\n            tag_25:\n              pop\n              tag_26\n              0x04\n              dup1\n              calldatasize\n              sub\n              dup2\n              add\n              swap1\n              tag_27\n              swap2\n              swap1\n              tag_28\n              jump\t// in\n            tag_27:\n              tag_29\n              jump\t// in\n            tag_26:\n              mload(0x40)\n              tag_30\n              swap2\n              swap1\n              tag_31\n              jump\t// in\n            tag_30:\n              mload(0x40)\n              dup1\n              swap2\n              sub\n              swap1\n              return\n                /* \"Campaign.sol\":1600:2055  function createRequest(string memory _description, uint _value, address payable _recipient, uint _approvalTolerance) public restricted {... */\n            tag_5:\n              callvalue\n              dup1\n              iszero\n              tag_32\n              jumpi\n              0x00\n              dup1\n              revert\n            tag_32:\n              pop\n              tag_33\n              0x04\n              dup1\n              calldatasize\n              sub\n              dup2\n              add\n              swap1\n              tag_34\n              swap2\n              swap1\n              tag_35\n              jump\t// in\n            tag_34:\n              tag_36\n              jump\t// in\n            tag_33:\n              stop\n                /* \"Campaign.sol\":3217:3311  function getRequestsCount() public view returns (uint) {... */\n            tag_6:\n              callvalue\n              dup1\n              iszero\n              tag_37\n              jumpi\n              0x00\n              dup1\n              revert\n            tag_37:\n              pop\n              tag_38\n              tag_39\n              jump\t// in\n            tag_38:\n              mload(0x40)\n              tag_40\n              swap2\n              swap1\n              tag_41\n              jump\t// in\n            tag_40:\n              mload(0x40)\n              dup1\n              swap2\n              sub\n              swap1\n              return\n                /* \"Campaign.sol\":834:856  address public manager */\n            tag_7:\n              callvalue\n              dup1\n              iszero\n              tag_42\n              jumpi\n              0x00\n              dup1\n              revert\n            tag_42:\n              pop\n              tag_43\n              tag_44\n              jump\t// in\n            tag_43:\n              mload(0x40)\n              tag_45\n              swap2\n              swap1\n              tag_46\n              jump\t// in\n            tag_45:\n              mload(0x40)\n              dup1\n              swap2\n              sub\n              swap1\n              return\n                /* \"Campaign.sol\":1086:1115  uint public contributorsCount */\n            tag_8:\n              callvalue\n              dup1\n              iszero\n              tag_47\n              jumpi\n              0x00\n              dup1\n              revert\n            tag_47:\n              pop\n              tag_48\n              tag_49\n              jump\t// in\n            tag_48:\n              mload(0x40)\n              tag_50\n              swap2\n              swap1\n              tag_41\n              jump\t// in\n            tag_50:\n              mload(0x40)\n              dup1\n              swap2\n              sub\n              swap1\n              return\n                /* \"Campaign.sol\":931:956  Request[] public requests */\n            tag_9:\n              callvalue\n              dup1\n              iszero\n              tag_51\n              jumpi\n              0x00\n              dup1\n              revert\n            tag_51:\n              pop\n              tag_52\n              0x04\n              dup1\n              calldatasize\n              sub\n              dup2\n              add\n              swap1\n              tag_53\n              swap2\n              swap1\n              tag_18\n              jump\t// in\n            tag_53:\n              tag_54\n              jump\t// in\n            tag_52:\n              mload(0x40)\n              tag_55\n              swap7\n              swap6\n              swap5\n              swap4\n              swap3\n              swap2\n              swap1\n              tag_56\n              jump\t// in\n            tag_55:\n              mload(0x40)\n              dup1\n              swap2\n              sub\n              swap1\n              return\n                /* \"Campaign.sol\":894:925  uint public minimumContribution */\n            tag_10:\n              callvalue\n              dup1\n              iszero\n              tag_57\n              jumpi\n              0x00\n              dup1\n              revert\n            tag_57:\n              pop\n              tag_58\n              tag_59\n              jump\t// in\n            tag_58:\n              mload(0x40)\n              tag_60\n              swap2\n              swap1\n              tag_41\n              jump\t// in\n            tag_60:\n              mload(0x40)\n              dup1\n              swap2\n              sub\n              swap1\n              return\n                /* \"Campaign.sol\":2900:3211  function getCampaignSummary() public view returns (string memory, uint, uint, uint, uint, address) {... */\n            tag_11:\n              callvalue\n              dup1\n              iszero\n              tag_61\n              jumpi\n              0x00\n              dup1\n              revert\n            tag_61:\n              pop\n              tag_62\n              tag_63\n              jump\t// in\n            tag_62:\n              mload(0x40)\n              tag_64\n              swap7\n              swap6\n              swap5\n              swap4\n              swap3\n              swap2\n              swap1\n              tag_65\n              jump\t// in\n            tag_64:\n              mload(0x40)\n              dup1\n              swap2\n              sub\n              swap1\n              return\n                /* \"Campaign.sol\":1429:1594  function contribute() public payable {... */\n            tag_12:\n              tag_66\n              tag_67\n              jump\t// in\n            tag_66:\n              stop\n                /* \"Campaign.sol\":2062:2431  function approveRequest(uint index) public {... */\n            tag_13:\n              callvalue\n              dup1\n              iszero\n              tag_68\n              jumpi\n              0x00\n              dup1\n              revert\n            tag_68:\n              pop\n              tag_69\n              0x04\n              dup1\n              calldatasize\n              sub\n              dup2\n              add\n              swap1\n              tag_70\n              swap2\n              swap1\n              tag_18\n              jump\t// in\n            tag_70:\n              tag_71\n              jump\t// in\n            tag_69:\n              stop\n                /* \"Campaign.sol\":2437:2894  function finalizeRequest(uint index) public restricted {... */\n            tag_19:\n                /* \"Campaign.sol\":1176:1183  manager */\n              0x00\n              dup1\n              sload\n              swap1\n              0x0100\n              exp\n              swap1\n              div\n              0xffffffffffffffffffffffffffffffffffffffff\n              and\n                /* \"Campaign.sol\":1162:1183  msg.sender == manager */\n              0xffffffffffffffffffffffffffffffffffffffff\n              and\n                /* \"Campaign.sol\":1162:1172  msg.sender */\n              caller\n                /* \"Campaign.sol\":1162:1183  msg.sender == manager */\n              0xffffffffffffffffffffffffffffffffffffffff\n              and\n              eq\n                /* \"Campaign.sol\":1154:1184  require(msg.sender == manager) */\n              tag_73\n              jumpi\n              0x00\n              dup1\n              revert\n            tag_73:\n                /* \"Campaign.sol\":2502:2525  Request storage request */\n              0x00\n                /* \"Campaign.sol\":2528:2536  requests */\n              0x03\n                /* \"Campaign.sol\":2537:2542  index */\n              dup3\n                /* \"Campaign.sol\":2528:2543  requests[index] */\n              dup2\n              sload\n              dup2\n              lt\n              tag_75\n              jumpi\n              tag_76\n              tag_77\n              jump\t// in\n            tag_76:\n            tag_75:\n              swap1\n              0x00\n              mstore\n              keccak256(0x00, 0x20)\n              swap1\n              0x07\n              mul\n              add\n                /* \"Campaign.sol\":2502:2543  Request storage request = requests[index] */\n              swap1\n              pop\n                /* \"Campaign.sol\":2661:2668  request */\n              dup1\n                /* \"Campaign.sol\":2661:2686  request.approvalTolerance */\n              0x03\n              add\n              sload\n                /* \"Campaign.sol\":2639:2656  contributorsCount */\n              sload(0x05)\n                /* \"Campaign.sol\":2632:2635  100 */\n              0x64\n                /* \"Campaign.sol\":2608:2615  request */\n              dup4\n                /* \"Campaign.sol\":2608:2629  request.approvalCount */\n              0x05\n              add\n              sload\n                /* \"Campaign.sol\":2608:2635  request.approvalCount * 100 */\n              tag_79\n              swap2\n              swap1\n              tag_80\n              jump\t// in\n            tag_79:\n                /* \"Campaign.sol\":2607:2656  (request.approvalCount * 100) / contributorsCount */\n              tag_81\n              swap2\n              swap1\n              tag_82\n              jump\t// in\n            tag_81:\n                /* \"Campaign.sol\":2606:2686  ((request.approvalCount * 100) / contributorsCount) >= request.approvalTolerance */\n              lt\n              iszero\n                /* \"Campaign.sol\":2598:2687  require(((request.approvalCount * 100) / contributorsCount) >= request.approvalTolerance) */\n              tag_83\n              jumpi\n              0x00\n              dup1\n              revert\n            tag_83:\n                /* \"Campaign.sol\":2750:2757  request */\n              dup1\n                /* \"Campaign.sol\":2750:2766  request.complete */\n              0x04\n              add\n              0x00\n              swap1\n              sload\n              swap1\n              0x0100\n              exp\n              swap1\n              div\n              0xff\n              and\n                /* \"Campaign.sol\":2749:2766  !request.complete */\n              iszero\n                /* \"Campaign.sol\":2741:2767  require(!request.complete) */\n              tag_84\n              jumpi\n              0x00\n              dup1\n              revert\n            tag_84:\n                /* \"Campaign.sol\":2813:2820  request */\n              dup1\n                /* \"Campaign.sol\":2813:2830  request.recipient */\n              0x02\n              add\n              0x00\n              swap1\n              sload\n              swap1\n              0x0100\n              exp\n              swap1\n              div\n              0xffffffffffffffffffffffffffffffffffffffff\n              and\n                /* \"Campaign.sol\":2813:2839  request.recipient.transfer */\n              0xffffffffffffffffffffffffffffffffffffffff\n              and\n                /* \"Campaign.sol\":2813:2854  request.recipient.transfer(request.value) */\n              0x08fc\n                /* \"Campaign.sol\":2840:2847  request */\n              dup3\n                /* \"Campaign.sol\":2840:2853  request.value */\n              0x01\n              add\n              sload\n                /* \"Campaign.sol\":2813:2854  request.recipient.transfer(request.value) */\n              swap1\n              dup2\n              iszero\n              mul\n              swap1\n              mload(0x40)\n              0x00\n              mload(0x40)\n              dup1\n              dup4\n              sub\n              dup2\n              dup6\n              dup9\n              dup9\n              call\n              swap4\n              pop\n              pop\n              pop\n              pop\n              iszero\n              dup1\n              iszero\n              tag_86\n              jumpi\n              returndatasize\n              0x00\n              dup1\n              returndatacopy\n              revert(0x00, returndatasize)\n            tag_86:\n              pop\n                /* \"Campaign.sol\":2883:2887  true */\n              0x01\n                /* \"Campaign.sol\":2864:2871  request */\n              dup2\n                /* \"Campaign.sol\":2864:2880  request.complete */\n              0x04\n              add\n              0x00\n                /* \"Campaign.sol\":2864:2887  request.complete = true */\n              0x0100\n              exp\n              dup2\n              sload\n              dup2\n              0xff\n              mul\n              not\n              and\n              swap1\n              dup4\n              iszero\n              iszero\n              mul\n              or\n              swap1\n              sstore\n              pop\n                /* \"Campaign.sol\":2492:2894  {... */\n              pop\n                /* \"Campaign.sol\":2437:2894  function finalizeRequest(uint index) public restricted {... */\n              pop\n              jump\t// out\n                /* \"Campaign.sol\":862:888  string public campaignName */\n            tag_22:\n              0x01\n              dup1\n              sload\n              tag_87\n              swap1\n              tag_88\n              jump\t// in\n            tag_87:\n              dup1\n              0x1f\n              add\n              0x20\n              dup1\n              swap2\n              div\n              mul\n              0x20\n              add\n              mload(0x40)\n              swap1\n              dup2\n              add\n              0x40\n              mstore\n              dup1\n              swap3\n              swap2\n              swap1\n              dup2\n              dup2\n              mstore\n              0x20\n              add\n              dup3\n              dup1\n              sload\n              tag_89\n              swap1\n              tag_88\n              jump\t// in\n            tag_89:\n              dup1\n              iszero\n              tag_90\n              jumpi\n              dup1\n              0x1f\n              lt\n              tag_91\n              jumpi\n              0x0100\n              dup1\n              dup4\n              sload\n              div\n              mul\n              dup4\n              mstore\n              swap2\n              0x20\n              add\n              swap2\n              jump(tag_90)\n            tag_91:\n              dup3\n              add\n              swap2\n              swap1\n              0x00\n              mstore\n              keccak256(0x00, 0x20)\n              swap1\n            tag_92:\n              dup2\n              sload\n              dup2\n              mstore\n              swap1\n              0x01\n              add\n              swap1\n              0x20\n              add\n              dup1\n              dup4\n              gt\n              tag_92\n              jumpi\n              dup3\n              swap1\n              sub\n              0x1f\n              and\n              dup3\n              add\n              swap2\n            tag_90:\n              pop\n              pop\n              pop\n              pop\n              pop\n              dup2\n              jump\t// out\n                /* \"Campaign.sol\":1035:1080  mapping(address  => bool) public contributors */\n            tag_29:\n              mstore(0x20, 0x04)\n              dup1\n              0x00\n              mstore\n              keccak256(0x00, 0x40)\n              0x00\n              swap2\n              pop\n              sload\n              swap1\n              0x0100\n              exp\n              swap1\n              div\n              0xff\n              and\n              dup2\n              jump\t// out\n                /* \"Campaign.sol\":1600:2055  function createRequest(string memory _description, uint _value, address payable _recipient, uint _approvalTolerance) public restricted {... */\n            tag_36:\n                /* \"Campaign.sol\":1176:1183  manager */\n              0x00\n              dup1\n              sload\n              swap1\n              0x0100\n              exp\n              swap1\n              div\n              0xffffffffffffffffffffffffffffffffffffffff\n              and\n                /* \"Campaign.sol\":1162:1183  msg.sender == manager */\n              0xffffffffffffffffffffffffffffffffffffffff\n              and\n                /* \"Campaign.sol\":1162:1172  msg.sender */\n              caller\n                /* \"Campaign.sol\":1162:1183  msg.sender == manager */\n              0xffffffffffffffffffffffffffffffffffffffff\n              and\n              eq\n                /* \"Campaign.sol\":1154:1184  require(msg.sender == manager) */\n              tag_94\n              jumpi\n              0x00\n              dup1\n              revert\n            tag_94:\n                /* \"Campaign.sol\":1745:1771  Request storage newRequest */\n              0x00\n                /* \"Campaign.sol\":1774:1782  requests */\n              0x03\n                /* \"Campaign.sol\":1774:1789  requests.push() */\n              0x01\n              dup2\n              0x01\n              dup2\n              sload\n              add\n              dup1\n              dup3\n              sstore\n              dup1\n              swap2\n              pop\n              pop\n              sub\n              swap1\n              0x00\n              mstore\n              keccak256(0x00, 0x20)\n              swap1\n              0x07\n              mul\n              add\n                /* \"Campaign.sol\":1745:1789  Request storage newRequest = requests.push() */\n              swap1\n              pop\n                /* \"Campaign.sol\":1824:1836  _description */\n              dup5\n                /* \"Campaign.sol\":1799:1809  newRequest */\n              dup2\n                /* \"Campaign.sol\":1799:1821  newRequest.description */\n              0x00\n              add\n                /* \"Campaign.sol\":1799:1836  newRequest.description = _description */\n              swap1\n              dup1\n              mload\n              swap1\n              0x20\n              add\n              swap1\n              tag_97\n              swap3\n              swap2\n              swap1\n              tag_98\n              jump\t// in\n            tag_97:\n              pop\n                /* \"Campaign.sol\":1865:1871  _value */\n              dup4\n                /* \"Campaign.sol\":1846:1856  newRequest */\n              dup2\n                /* \"Campaign.sol\":1846:1862  newRequest.value */\n              0x01\n              add\n                /* \"Campaign.sol\":1846:1871  newRequest.value = _value */\n              dup2\n              swap1\n              sstore\n              pop\n                /* \"Campaign.sol\":1904:1914  _recipient */\n              dup3\n                /* \"Campaign.sol\":1881:1891  newRequest */\n              dup2\n                /* \"Campaign.sol\":1881:1901  newRequest.recipient */\n              0x02\n              add\n              0x00\n                /* \"Campaign.sol\":1881:1914  newRequest.recipient = _recipient */\n              0x0100\n              exp\n              dup2\n              sload\n              dup2\n              0xffffffffffffffffffffffffffffffffffffffff\n              mul\n              not\n              and\n              swap1\n              dup4\n              0xffffffffffffffffffffffffffffffffffffffff\n              and\n              mul\n              or\n              swap1\n              sstore\n              pop\n                /* \"Campaign.sol\":1955:1973  _approvalTolerance */\n              dup2\n                /* \"Campaign.sol\":1924:1934  newRequest */\n              dup2\n                /* \"Campaign.sol\":1924:1952  newRequest.approvalTolerance */\n              0x03\n              add\n                /* \"Campaign.sol\":1924:1973  newRequest.approvalTolerance = _approvalTolerance */\n              dup2\n              swap1\n              sstore\n              pop\n                /* \"Campaign.sol\":2005:2010  false */\n              0x00\n                /* \"Campaign.sol\":1983:1993  newRequest */\n              dup2\n                /* \"Campaign.sol\":1983:2002  newRequest.complete */\n              0x04\n              add\n              0x00\n                /* \"Campaign.sol\":1983:2010  newRequest.complete = false */\n              0x0100\n              exp\n              dup2\n              sload\n              dup2\n              0xff\n              mul\n              not\n              and\n              swap1\n              dup4\n              iszero\n              iszero\n              mul\n              or\n              swap1\n              sstore\n              pop\n                /* \"Campaign.sol\":2047:2048  0 */\n              0x00\n                /* \"Campaign.sol\":2020:2030  newRequest */\n              dup2\n                /* \"Campaign.sol\":2020:2044  newRequest.approvalCount */\n              0x05\n              add\n                /* \"Campaign.sol\":2020:2048  newRequest.approvalCount = 0 */\n              dup2\n              swap1\n              sstore\n              pop\n                /* \"Campaign.sol\":1735:2055  {... */\n              pop\n                /* \"Campaign.sol\":1600:2055  function createRequest(string memory _description, uint _value, address payable _recipient, uint _approvalTolerance) public restricted {... */\n              pop\n              pop\n              pop\n              pop\n              jump\t// out\n                /* \"Campaign.sol\":3217:3311  function getRequestsCount() public view returns (uint) {... */\n            tag_39:\n                /* \"Campaign.sol\":3266:3270  uint */\n              0x00\n                /* \"Campaign.sol\":3289:3297  requests */\n              0x03\n                /* \"Campaign.sol\":3289:3304  requests.length */\n              dup1\n              sload\n              swap1\n              pop\n                /* \"Campaign.sol\":3282:3304  return requests.length */\n              swap1\n              pop\n                /* \"Campaign.sol\":3217:3311  function getRequestsCount() public view returns (uint) {... */\n              swap1\n              jump\t// out\n                /* \"Campaign.sol\":834:856  address public manager */\n            tag_44:\n              0x00\n              dup1\n              sload\n              swap1\n              0x0100\n              exp\n              swap1\n              div\n              0xffffffffffffffffffffffffffffffffffffffff\n              and\n              dup2\n              jump\t// out\n                /* \"Campaign.sol\":1086:1115  uint public contributorsCount */\n            tag_49:\n              sload(0x05)\n              dup2\n              jump\t// out\n                /* \"Campaign.sol\":931:956  Request[] public requests */\n            tag_54:\n              0x03\n              dup2\n              dup2\n              sload\n              dup2\n              lt\n              tag_100\n              jumpi\n              0x00\n              dup1\n              revert\n            tag_100:\n              swap1\n              0x00\n              mstore\n              keccak256(0x00, 0x20)\n              swap1\n              0x07\n              mul\n              add\n              0x00\n              swap2\n              pop\n              swap1\n              pop\n              dup1\n              0x00\n              add\n              dup1\n              sload\n              tag_102\n              swap1\n              tag_88\n              jump\t// in\n            tag_102:\n              dup1\n              0x1f\n              add\n              0x20\n              dup1\n              swap2\n              div\n              mul\n              0x20\n              add\n              mload(0x40)\n              swap1\n              dup2\n              add\n              0x40\n              mstore\n              dup1\n              swap3\n              swap2\n              swap1\n              dup2\n              dup2\n              mstore\n              0x20\n              add\n              dup3\n              dup1\n              sload\n              tag_103\n              swap1\n              tag_88\n              jump\t// in\n            tag_103:\n              dup1\n              iszero\n              tag_104\n              jumpi\n              dup1\n              0x1f\n              lt\n              tag_105\n              jumpi\n              0x0100\n              dup1\n              dup4\n              sload\n              div\n              mul\n              dup4\n              mstore\n              swap2\n              0x20\n              add\n              swap2\n              jump(tag_104)\n            tag_105:\n              dup3\n              add\n              swap2\n              swap1\n              0x00\n              mstore\n              keccak256(0x00, 0x20)\n              swap1\n            tag_106:\n              dup2\n              sload\n              dup2\n              mstore\n              swap1\n              0x01\n              add\n              swap1\n              0x20\n              add\n              dup1\n              dup4\n              gt\n              tag_106\n              jumpi\n              dup3\n              swap1\n              sub\n              0x1f\n              and\n              dup3\n              add\n              swap2\n            tag_104:\n              pop\n              pop\n              pop\n              pop\n              pop\n              swap1\n              dup1\n              0x01\n              add\n              sload\n              swap1\n              dup1\n              0x02\n              add\n              0x00\n              swap1\n              sload\n              swap1\n              0x0100\n              exp\n              swap1\n              div\n              0xffffffffffffffffffffffffffffffffffffffff\n              and\n              swap1\n              dup1\n              0x03\n              add\n              sload\n              swap1\n              dup1\n              0x04\n              add\n              0x00\n              swap1\n              sload\n              swap1\n              0x0100\n              exp\n              swap1\n              div\n              0xff\n              and\n              swap1\n              dup1\n              0x05\n              add\n              sload\n              swap1\n              pop\n              dup7\n              jump\t// out\n                /* \"Campaign.sol\":894:925  uint public minimumContribution */\n            tag_59:\n              sload(0x02)\n              dup2\n              jump\t// out\n                /* \"Campaign.sol\":2900:3211  function getCampaignSummary() public view returns (string memory, uint, uint, uint, uint, address) {... */\n            tag_63:\n                /* \"Campaign.sol\":2951:2964  string memory */\n              0x60\n                /* \"Campaign.sol\":2966:2970  uint */\n              0x00\n                /* \"Campaign.sol\":2972:2976  uint */\n              dup1\n                /* \"Campaign.sol\":2978:2982  uint */\n              0x00\n                /* \"Campaign.sol\":2984:2988  uint */\n              dup1\n                /* \"Campaign.sol\":2990:2997  address */\n              0x00\n                /* \"Campaign.sol\":3030:3042  campaignName */\n              0x01\n                /* \"Campaign.sol\":3056:3077  address(this).balance */\n              selfbalance\n                /* \"Campaign.sol\":3092:3111  minimumContribution */\n              sload(0x02)\n                /* \"Campaign.sol\":3126:3134  requests */\n              0x03\n                /* \"Campaign.sol\":3126:3141  requests.length */\n              dup1\n              sload\n              swap1\n              pop\n                /* \"Campaign.sol\":3156:3173  contributorsCount */\n              sload(0x05)\n                /* \"Campaign.sol\":3187:3194  manager */\n              0x00\n              dup1\n              sload\n              swap1\n              0x0100\n              exp\n              swap1\n              div\n              0xffffffffffffffffffffffffffffffffffffffff\n              and\n                /* \"Campaign.sol\":3009:3204  return (... */\n              dup6\n              dup1\n              sload\n              tag_108\n              swap1\n              tag_88\n              jump\t// in\n            tag_108:\n              dup1\n              0x1f\n              add\n              0x20\n              dup1\n              swap2\n              div\n              mul\n              0x20\n              add\n              mload(0x40)\n              swap1\n              dup2\n              add\n              0x40\n              mstore\n              dup1\n              swap3\n              swap2\n              swap1\n              dup2\n              dup2\n              mstore\n              0x20\n              add\n              dup3\n              dup1\n              sload\n              tag_109\n              swap1\n              tag_88\n              jump\t// in\n            tag_109:\n              dup1\n              iszero\n              tag_110\n              jumpi\n              dup1\n              0x1f\n              lt\n              tag_111\n              jumpi\n              0x0100\n              dup1\n              dup4\n              sload\n              div\n              mul\n              dup4\n              mstore\n              swap2\n              0x20\n              add\n              swap2\n              jump(tag_110)\n            tag_111:\n              dup3\n              add\n              swap2\n              swap1\n              0x00\n              mstore\n              keccak256(0x00, 0x20)\n              swap1\n            tag_112:\n              dup2\n              sload\n              dup2\n              mstore\n              swap1\n              0x01\n              add\n              swap1\n              0x20\n              add\n              dup1\n              dup4\n              gt\n              tag_112\n              jumpi\n              dup3\n              swap1\n              sub\n              0x1f\n              and\n              dup3\n              add\n              swap2\n            tag_110:\n              pop\n              pop\n              pop\n              pop\n              pop\n              swap6\n              pop\n              swap6\n              pop\n              swap6\n              pop\n              swap6\n              pop\n              swap6\n              pop\n              swap6\n              pop\n              swap6\n              pop\n                /* \"Campaign.sol\":2900:3211  function getCampaignSummary() public view returns (string memory, uint, uint, uint, uint, address) {... */\n              swap1\n              swap2\n              swap3\n              swap4\n              swap5\n              swap6\n              jump\t// out\n                /* \"Campaign.sol\":1429:1594  function contribute() public payable {... */\n            tag_67:\n                /* \"Campaign.sol\":1497:1516  minimumContribution */\n              sload(0x02)\n                /* \"Campaign.sol\":1484:1493  msg.value */\n              callvalue\n                /* \"Campaign.sol\":1484:1516  msg.value >= minimumContribution */\n              lt\n              iszero\n                /* \"Campaign.sol\":1476:1517  require(msg.value >= minimumContribution) */\n              tag_114\n              jumpi\n              0x00\n              dup1\n              revert\n            tag_114:\n                /* \"Campaign.sol\":1554:1558  true */\n              0x01\n                /* \"Campaign.sol\":1527:1539  contributors */\n              0x04\n                /* \"Campaign.sol\":1527:1551  contributors[msg.sender] */\n              0x00\n                /* \"Campaign.sol\":1540:1550  msg.sender */\n              caller\n                /* \"Campaign.sol\":1527:1551  contributors[msg.sender] */\n              0xffffffffffffffffffffffffffffffffffffffff\n              and\n              0xffffffffffffffffffffffffffffffffffffffff\n              and\n              dup2\n              mstore\n              0x20\n              add\n              swap1\n              dup2\n              mstore\n              0x20\n              add\n              0x00\n              keccak256\n              0x00\n                /* \"Campaign.sol\":1527:1558  contributors[msg.sender] = true */\n              0x0100\n              exp\n              dup2\n              sload\n              dup2\n              0xff\n              mul\n              not\n              and\n              swap1\n              dup4\n              iszero\n              iszero\n              mul\n              or\n              swap1\n              sstore\n              pop\n                /* \"Campaign.sol\":1568:1585  contributorsCount */\n              0x05\n              0x00\n                /* \"Campaign.sol\":1568:1587  contributorsCount++ */\n              dup2\n              sload\n              dup1\n              swap3\n              swap2\n              swap1\n              tag_115\n              swap1\n              tag_116\n              jump\t// in\n            tag_115:\n              swap2\n              swap1\n              pop\n              sstore\n              pop\n                /* \"Campaign.sol\":1429:1594  function contribute() public payable {... */\n              jump\t// out\n                /* \"Campaign.sol\":2062:2431  function approveRequest(uint index) public {... */\n            tag_71:\n                /* \"Campaign.sol\":2115:2138  Request storage request */\n              0x00\n                /* \"Campaign.sol\":2141:2149  requests */\n              0x03\n                /* \"Campaign.sol\":2150:2155  index */\n              dup3\n                /* \"Campaign.sol\":2141:2156  requests[index] */\n              dup2\n              sload\n              dup2\n              lt\n              tag_118\n              jumpi\n              tag_119\n              tag_77\n              jump\t// in\n            tag_119:\n            tag_118:\n              swap1\n              0x00\n              mstore\n              keccak256(0x00, 0x20)\n              swap1\n              0x07\n              mul\n              add\n                /* \"Campaign.sol\":2115:2156  Request storage request = requests[index] */\n              swap1\n              pop\n                /* \"Campaign.sol\":2225:2237  contributors */\n              0x04\n                /* \"Campaign.sol\":2225:2249  contributors[msg.sender] */\n              0x00\n                /* \"Campaign.sol\":2238:2248  msg.sender */\n              caller\n                /* \"Campaign.sol\":2225:2249  contributors[msg.sender] */\n              0xffffffffffffffffffffffffffffffffffffffff\n              and\n              0xffffffffffffffffffffffffffffffffffffffff\n              and\n              dup2\n              mstore\n              0x20\n              add\n              swap1\n              dup2\n              mstore\n              0x20\n              add\n              0x00\n              keccak256\n              0x00\n              swap1\n              sload\n              swap1\n              0x0100\n              exp\n              swap1\n              div\n              0xff\n              and\n                /* \"Campaign.sol\":2217:2250  require(contributors[msg.sender]) */\n              tag_121\n              jumpi\n              0x00\n              dup1\n              revert\n            tag_121:\n                /* \"Campaign.sol\":2314:2321  request */\n              dup1\n                /* \"Campaign.sol\":2314:2331  request.approvals */\n              0x06\n              add\n                /* \"Campaign.sol\":2314:2343  request.approvals[msg.sender] */\n              0x00\n                /* \"Campaign.sol\":2332:2342  msg.sender */\n              caller\n                /* \"Campaign.sol\":2314:2343  request.approvals[msg.sender] */\n              0xffffffffffffffffffffffffffffffffffffffff\n              and\n              0xffffffffffffffffffffffffffffffffffffffff\n              and\n              dup2\n              mstore\n              0x20\n              add\n              swap1\n              dup2\n              mstore\n              0x20\n              add\n              0x00\n              keccak256\n              0x00\n              swap1\n              sload\n              swap1\n              0x0100\n              exp\n              swap1\n              div\n              0xff\n              and\n                /* \"Campaign.sol\":2313:2343  !request.approvals[msg.sender] */\n              iszero\n                /* \"Campaign.sol\":2305:2344  require(!request.approvals[msg.sender]) */\n              tag_122\n              jumpi\n              0x00\n              dup1\n              revert\n            tag_122:\n                /* \"Campaign.sol\":2387:2391  true */\n              0x01\n                /* \"Campaign.sol\":2355:2362  request */\n              dup2\n                /* \"Campaign.sol\":2355:2372  request.approvals */\n              0x06\n              add\n                /* \"Campaign.sol\":2355:2384  request.approvals[msg.sender] */\n              0x00\n                /* \"Campaign.sol\":2373:2383  msg.sender */\n              caller\n                /* \"Campaign.sol\":2355:2384  request.approvals[msg.sender] */\n              0xffffffffffffffffffffffffffffffffffffffff\n              and\n              0xffffffffffffffffffffffffffffffffffffffff\n              and\n              dup2\n              mstore\n              0x20\n              add\n              swap1\n              dup2\n              mstore\n              0x20\n              add\n              0x00\n              keccak256\n              0x00\n                /* \"Campaign.sol\":2355:2391  request.approvals[msg.sender] = true */\n              0x0100\n              exp\n              dup2\n              sload\n              dup2\n              0xff\n              mul\n              not\n              and\n              swap1\n              dup4\n              iszero\n              iszero\n              mul\n              or\n              swap1\n              sstore\n              pop\n                /* \"Campaign.sol\":2401:2408  request */\n              dup1\n                /* \"Campaign.sol\":2401:2422  request.approvalCount */\n              0x05\n              add\n              0x00\n                /* \"Campaign.sol\":2401:2424  request.approvalCount++ */\n              dup2\n              sload\n              dup1\n              swap3\n              swap2\n              swap1\n              tag_123\n              swap1\n              tag_116\n              jump\t// in\n            tag_123:\n              swap2\n              swap1\n              pop\n              sstore\n              pop\n                /* \"Campaign.sol\":2105:2431  {... */\n              pop\n                /* \"Campaign.sol\":2062:2431  function approveRequest(uint index) public {... */\n              pop\n              jump\t// out\n            tag_98:\n              dup3\n              dup1\n              sload\n              tag_124\n              swap1\n              tag_88\n              jump\t// in\n            tag_124:\n              swap1\n              0x00\n              mstore\n              keccak256(0x00, 0x20)\n              swap1\n              0x1f\n              add\n              0x20\n              swap1\n              div\n              dup2\n              add\n              swap3\n              dup3\n              tag_126\n              jumpi\n              0x00\n              dup6\n              sstore\n              jump(tag_125)\n            tag_126:\n              dup3\n              0x1f\n              lt\n              tag_127\n              jumpi\n              dup1\n              mload\n              not(0xff)\n              and\n              dup4\n              dup1\n              add\n              or\n              dup6\n              sstore\n              jump(tag_125)\n            tag_127:\n              dup3\n              dup1\n              add\n              0x01\n              add\n              dup6\n              sstore\n              dup3\n              iszero\n              tag_125\n              jumpi\n              swap2\n              dup3\n              add\n            tag_128:\n              dup3\n              dup2\n              gt\n              iszero\n              tag_129\n              jumpi\n              dup3\n              mload\n              dup3\n              sstore\n              swap2\n              0x20\n              add\n              swap2\n              swap1\n              0x01\n              add\n              swap1\n              jump(tag_128)\n            tag_129:\n            tag_125:\n              pop\n              swap1\n              pop\n              tag_130\n              swap2\n              swap1\n              tag_131\n              jump\t// in\n            tag_130:\n              pop\n              swap1\n              jump\t// out\n            tag_131:\n            tag_132:\n              dup1\n              dup3\n              gt\n              iszero\n              tag_133\n              jumpi\n              0x00\n              dup2\n              0x00\n              swap1\n              sstore\n              pop\n              0x01\n              add\n              jump(tag_132)\n            tag_133:\n              pop\n              swap1\n              jump\t// out\n                /* \"#utility.yul\":7:82   */\n            tag_134:\n                /* \"#utility.yul\":40:46   */\n              0x00\n                /* \"#utility.yul\":73:75   */\n              0x40\n                /* \"#utility.yul\":67:76   */\n              mload\n                /* \"#utility.yul\":57:76   */\n              swap1\n              pop\n                /* \"#utility.yul\":7:82   */\n              swap1\n              jump\t// out\n                /* \"#utility.yul\":88:205   */\n            tag_135:\n                /* \"#utility.yul\":197:198   */\n              0x00\n                /* \"#utility.yul\":194:195   */\n              dup1\n                /* \"#utility.yul\":187:199   */\n              revert\n                /* \"#utility.yul\":211:328   */\n            tag_136:\n                /* \"#utility.yul\":320:321   */\n              0x00\n                /* \"#utility.yul\":317:318   */\n              dup1\n                /* \"#utility.yul\":310:322   */\n              revert\n                /* \"#utility.yul\":334:411   */\n            tag_137:\n                /* \"#utility.yul\":371:378   */\n              0x00\n                /* \"#utility.yul\":400:405   */\n              dup2\n                /* \"#utility.yul\":389:405   */\n              swap1\n              pop\n                /* \"#utility.yul\":334:411   */\n              swap2\n              swap1\n              pop\n              jump\t// out\n                /* \"#utility.yul\":417:539   */\n            tag_138:\n                /* \"#utility.yul\":490:514   */\n              tag_175\n                /* \"#utility.yul\":508:513   */\n              dup2\n                /* \"#utility.yul\":490:514   */\n              tag_137\n              jump\t// in\n            tag_175:\n                /* \"#utility.yul\":483:488   */\n              dup2\n                /* \"#utility.yul\":480:515   */\n              eq\n                /* \"#utility.yul\":470:533   */\n              tag_176\n              jumpi\n                /* \"#utility.yul\":529:530   */\n              0x00\n                /* \"#utility.yul\":526:527   */\n              dup1\n                /* \"#utility.yul\":519:531   */\n              revert\n                /* \"#utility.yul\":470:533   */\n            tag_176:\n                /* \"#utility.yul\":417:539   */\n              pop\n              jump\t// out\n                /* \"#utility.yul\":545:684   */\n            tag_139:\n                /* \"#utility.yul\":591:596   */\n              0x00\n                /* \"#utility.yul\":629:635   */\n              dup2\n                /* \"#utility.yul\":616:636   */\n              calldataload\n                /* \"#utility.yul\":607:636   */\n              swap1\n              pop\n                /* \"#utility.yul\":645:678   */\n              tag_178\n                /* \"#utility.yul\":672:677   */\n              dup2\n                /* \"#utility.yul\":645:678   */\n              tag_138\n              jump\t// in\n            tag_178:\n                /* \"#utility.yul\":545:684   */\n              swap3\n              swap2\n              pop\n              pop\n              jump\t// out\n                /* \"#utility.yul\":690:1019   */\n            tag_18:\n                /* \"#utility.yul\":749:755   */\n              0x00\n                /* \"#utility.yul\":798:800   */\n              0x20\n                /* \"#utility.yul\":786:795   */\n              dup3\n                /* \"#utility.yul\":777:784   */\n              dup5\n                /* \"#utility.yul\":773:796   */\n              sub\n                /* \"#utility.yul\":769:801   */\n              slt\n                /* \"#utility.yul\":766:885   */\n              iszero\n              tag_180\n              jumpi\n                /* \"#utility.yul\":804:883   */\n              tag_181\n              tag_135\n              jump\t// in\n            tag_181:\n                /* \"#utility.yul\":766:885   */\n            tag_180:\n                /* \"#utility.yul\":924:925   */\n              0x00\n                /* \"#utility.yul\":949:1002   */\n              tag_182\n                /* \"#utility.yul\":994:1001   */\n              dup5\n                /* \"#utility.yul\":985:991   */\n              dup3\n                /* \"#utility.yul\":974:983   */\n              dup6\n                /* \"#utility.yul\":970:992   */\n              add\n                /* \"#utility.yul\":949:1002   */\n              tag_139\n              jump\t// in\n            tag_182:\n                /* \"#utility.yul\":939:1002   */\n              swap2\n              pop\n                /* \"#utility.yul\":895:1012   */\n              pop\n                /* \"#utility.yul\":690:1019   */\n              swap3\n              swap2\n              pop\n              pop\n              jump\t// out\n                /* \"#utility.yul\":1025:1124   */\n            tag_140:\n                /* \"#utility.yul\":1077:1083   */\n              0x00\n                /* \"#utility.yul\":1111:1116   */\n              dup2\n                /* \"#utility.yul\":1105:1117   */\n              mload\n                /* \"#utility.yul\":1095:1117   */\n              swap1\n              pop\n                /* \"#utility.yul\":1025:1124   */\n              swap2\n              swap1\n              pop\n              jump\t// out\n                /* \"#utility.yul\":1130:1299   */\n            tag_141:\n                /* \"#utility.yul\":1214:1225   */\n              0x00\n                /* \"#utility.yul\":1248:1254   */\n              dup3\n                /* \"#utility.yul\":1243:1246   */\n              dup3\n                /* \"#utility.yul\":1236:1255   */\n              mstore\n                /* \"#utility.yul\":1288:1292   */\n              0x20\n                /* \"#utility.yul\":1283:1286   */\n              dup3\n                /* \"#utility.yul\":1279:1293   */\n              add\n                /* \"#utility.yul\":1264:1293   */\n              swap1\n              pop\n                /* \"#utility.yul\":1130:1299   */\n              swap3\n              swap2\n              pop\n              pop\n              jump\t// out\n                /* \"#utility.yul\":1305:1612   */\n            tag_142:\n                /* \"#utility.yul\":1373:1374   */\n              0x00\n                /* \"#utility.yul\":1383:1496   */\n            tag_186:\n                /* \"#utility.yul\":1397:1403   */\n              dup4\n                /* \"#utility.yul\":1394:1395   */\n              dup2\n                /* \"#utility.yul\":1391:1404   */\n              lt\n                /* \"#utility.yul\":1383:1496   */\n              iszero\n              tag_188\n              jumpi\n                /* \"#utility.yul\":1482:1483   */\n              dup1\n                /* \"#utility.yul\":1477:1480   */\n              dup3\n                /* \"#utility.yul\":1473:1484   */\n              add\n                /* \"#utility.yul\":1467:1485   */\n              mload\n                /* \"#utility.yul\":1463:1464   */\n              dup2\n                /* \"#utility.yul\":1458:1461   */\n              dup5\n                /* \"#utility.yul\":1454:1465   */\n              add\n                /* \"#utility.yul\":1447:1486   */\n              mstore\n                /* \"#utility.yul\":1419:1421   */\n              0x20\n                /* \"#utility.yul\":1416:1417   */\n              dup2\n                /* \"#utility.yul\":1412:1422   */\n              add\n                /* \"#utility.yul\":1407:1422   */\n              swap1\n              pop\n                /* \"#utility.yul\":1383:1496   */\n              jump(tag_186)\n            tag_188:\n                /* \"#utility.yul\":1514:1520   */\n              dup4\n                /* \"#utility.yul\":1511:1512   */\n              dup2\n                /* \"#utility.yul\":1508:1521   */\n              gt\n                /* \"#utility.yul\":1505:1606   */\n              iszero\n              tag_189\n              jumpi\n                /* \"#utility.yul\":1594:1595   */\n              0x00\n                /* \"#utility.yul\":1585:1591   */\n              dup5\n                /* \"#utility.yul\":1580:1583   */\n              dup5\n                /* \"#utility.yul\":1576:1592   */\n              add\n                /* \"#utility.yul\":1569:1596   */\n              mstore\n                /* \"#utility.yul\":1505:1606   */\n            tag_189:\n                /* \"#utility.yul\":1354:1612   */\n              pop\n                /* \"#utility.yul\":1305:1612   */\n              pop\n              pop\n              pop\n              jump\t// out\n                /* \"#utility.yul\":1618:1720   */\n            tag_143:\n                /* \"#utility.yul\":1659:1665   */\n              0x00\n                /* \"#utility.yul\":1710:1712   */\n              0x1f\n                /* \"#utility.yul\":1706:1713   */\n              not\n                /* \"#utility.yul\":1701:1703   */\n              0x1f\n                /* \"#utility.yul\":1694:1699   */\n              dup4\n                /* \"#utility.yul\":1690:1704   */\n              add\n                /* \"#utility.yul\":1686:1714   */\n              and\n                /* \"#utility.yul\":1676:1714   */\n              swap1\n              pop\n                /* \"#utility.yul\":1618:1720   */\n              swap2\n              swap1\n              pop\n              jump\t// out\n                /* \"#utility.yul\":1726:2090   */\n            tag_144:\n                /* \"#utility.yul\":1814:1817   */\n              0x00\n                /* \"#utility.yul\":1842:1881   */\n              tag_192\n                /* \"#utility.yul\":1875:1880   */\n              dup3\n                /* \"#utility.yul\":1842:1881   */\n              tag_140\n              jump\t// in\n            tag_192:\n                /* \"#utility.yul\":1897:1968   */\n              tag_193\n                /* \"#utility.yul\":1961:1967   */\n              dup2\n                /* \"#utility.yul\":1956:1959   */\n              dup6\n                /* \"#utility.yul\":1897:1968   */\n              tag_141\n              jump\t// in\n            tag_193:\n                /* \"#utility.yul\":1890:1968   */\n              swap4\n              pop\n                /* \"#utility.yul\":1977:2029   */\n              tag_194\n                /* \"#utility.yul\":2022:2028   */\n              dup2\n                /* \"#utility.yul\":2017:2020   */\n              dup6\n                /* \"#utility.yul\":2010:2014   */\n              0x20\n                /* \"#utility.yul\":2003:2008   */\n              dup7\n                /* \"#utility.yul\":1999:2015   */\n              add\n                /* \"#utility.yul\":1977:2029   */\n              tag_142\n              jump\t// in\n            tag_194:\n                /* \"#utility.yul\":2054:2083   */\n              tag_195\n                /* \"#utility.yul\":2076:2082   */\n              dup2\n                /* \"#utility.yul\":2054:2083   */\n              tag_143\n              jump\t// in\n            tag_195:\n                /* \"#utility.yul\":2049:2052   */\n              dup5\n                /* \"#utility.yul\":2045:2084   */\n              add\n                /* \"#utility.yul\":2038:2084   */\n              swap2\n              pop\n                /* \"#utility.yul\":1818:2090   */\n              pop\n                /* \"#utility.yul\":1726:2090   */\n              swap3\n              swap2\n              pop\n              pop\n              jump\t// out\n                /* \"#utility.yul\":2096:2409   */\n            tag_24:\n                /* \"#utility.yul\":2209:2213   */\n              0x00\n                /* \"#utility.yul\":2247:2249   */\n              0x20\n                /* \"#utility.yul\":2236:2245   */\n              dup3\n                /* \"#utility.yul\":2232:2250   */\n              add\n                /* \"#utility.yul\":2224:2250   */\n              swap1\n              pop\n                /* \"#utility.yul\":2296:2305   */\n              dup2\n                /* \"#utility.yul\":2290:2294   */\n              dup2\n                /* \"#utility.yul\":2286:2306   */\n              sub\n                /* \"#utility.yul\":2282:2283   */\n              0x00\n                /* \"#utility.yul\":2271:2280   */\n              dup4\n                /* \"#utility.yul\":2267:2284   */\n              add\n                /* \"#utility.yul\":2260:2307   */\n              mstore\n                /* \"#utility.yul\":2324:2402   */\n              tag_197\n                /* \"#utility.yul\":2397:2401   */\n              dup2\n                /* \"#utility.yul\":2388:2394   */\n              dup5\n                /* \"#utility.yul\":2324:2402   */\n              tag_144\n              jump\t// in\n            tag_197:\n                /* \"#utility.yul\":2316:2402   */\n              swap1\n              pop\n                /* \"#utility.yul\":2096:2409   */\n              swap3\n              swap2\n              pop\n              pop\n              jump\t// out\n                /* \"#utility.yul\":2415:2541   */\n            tag_145:\n                /* \"#utility.yul\":2452:2459   */\n              0x00\n                /* \"#utility.yul\":2492:2534   */\n              0xffffffffffffffffffffffffffffffffffffffff\n                /* \"#utility.yul\":2485:2490   */\n              dup3\n                /* \"#utility.yul\":2481:2535   */\n              and\n                /* \"#utility.yul\":2470:2535   */\n              swap1\n              pop\n                /* \"#utility.yul\":2415:2541   */\n              swap2\n              swap1\n              pop\n              jump\t// out\n                /* \"#utility.yul\":2547:2643   */\n            tag_146:\n                /* \"#utility.yul\":2584:2591   */\n              0x00\n                /* \"#utility.yul\":2613:2637   */\n              tag_200\n                /* \"#utility.yul\":2631:2636   */\n              dup3\n                /* \"#utility.yul\":2613:2637   */\n              tag_145\n              jump\t// in\n            tag_200:\n                /* \"#utility.yul\":2602:2637   */\n              swap1\n              pop\n                /* \"#utility.yul\":2547:2643   */\n              swap2\n              swap1\n              pop\n              jump\t// out\n                /* \"#utility.yul\":2649:2771   */\n            tag_147:\n                /* \"#utility.yul\":2722:2746   */\n              tag_202\n                /* \"#utility.yul\":2740:2745   */\n              dup2\n                /* \"#utility.yul\":2722:2746   */\n              tag_146\n              jump\t// in\n            tag_202:\n                /* \"#utility.yul\":2715:2720   */\n              dup2\n                /* \"#utility.yul\":2712:2747   */\n              eq\n                /* \"#utility.yul\":2702:2765   */\n              tag_203\n              jumpi\n                /* \"#utility.yul\":2761:2762   */\n              0x00\n                /* \"#utility.yul\":2758:2759   */\n              dup1\n                /* \"#utility.yul\":2751:2763   */\n              revert\n                /* \"#utility.yul\":2702:2765   */\n            tag_203:\n                /* \"#utility.yul\":2649:2771   */\n              pop\n              jump\t// out\n                /* \"#utility.yul\":2777:2916   */\n            tag_148:\n                /* \"#utility.yul\":2823:2828   */\n              0x00\n                /* \"#utility.yul\":2861:2867   */\n              dup2\n                /* \"#utility.yul\":2848:2868   */\n              calldataload\n                /* \"#utility.yul\":2839:2868   */\n              swap1\n              pop\n                /* \"#utility.yul\":2877:2910   */\n              tag_205\n                /* \"#utility.yul\":2904:2909   */\n              dup2\n                /* \"#utility.yul\":2877:2910   */\n              tag_147\n              jump\t// in\n            tag_205:\n                /* \"#utility.yul\":2777:2916   */\n              swap3\n              swap2\n              pop\n              pop\n              jump\t// out\n                /* \"#utility.yul\":2922:3251   */\n            tag_28:\n                /* \"#utility.yul\":2981:2987   */\n              0x00\n                /* \"#utility.yul\":3030:3032   */\n              0x20\n                /* \"#utility.yul\":3018:3027   */\n              dup3\n                /* \"#utility.yul\":3009:3016   */\n              dup5\n                /* \"#utility.yul\":3005:3028   */\n              sub\n                /* \"#utility.yul\":3001:3033   */\n              slt\n                /* \"#utility.yul\":2998:3117   */\n              iszero\n              tag_207\n              jumpi\n                /* \"#utility.yul\":3036:3115   */\n              tag_208\n              tag_135\n              jump\t// in\n            tag_208:\n                /* \"#utility.yul\":2998:3117   */\n            tag_207:\n                /* \"#utility.yul\":3156:3157   */\n              0x00\n                /* \"#utility.yul\":3181:3234   */\n              tag_209\n                /* \"#utility.yul\":3226:3233   */\n              dup5\n                /* \"#utility.yul\":3217:3223   */\n              dup3\n                /* \"#utility.yul\":3206:3215   */\n              dup6\n                /* \"#utility.yul\":3202:3224   */\n              add\n                /* \"#utility.yul\":3181:3234   */\n              tag_148\n              jump\t// in\n            tag_209:\n                /* \"#utility.yul\":3171:3234   */\n              swap2\n              pop\n                /* \"#utility.yul\":3127:3244   */\n              pop\n                /* \"#utility.yul\":2922:3251   */\n              swap3\n              swap2\n              pop\n              pop\n              jump\t// out\n                /* \"#utility.yul\":3257:3347   */\n            tag_149:\n                /* \"#utility.yul\":3291:3298   */\n              0x00\n                /* \"#utility.yul\":3334:3339   */\n              dup2\n                /* \"#utility.yul\":3327:3340   */\n              iszero\n                /* \"#utility.yul\":3320:3341   */\n              iszero\n                /* \"#utility.yul\":3309:3341   */\n              swap1\n              pop\n                /* \"#utility.yul\":3257:3347   */\n              swap2\n              swap1\n              pop\n              jump\t// out\n                /* \"#utility.yul\":3353:3462   */\n            tag_150:\n                /* \"#utility.yul\":3434:3455   */\n              tag_212\n                /* \"#utility.yul\":3449:3454   */\n              dup2\n                /* \"#utility.yul\":3434:3455   */\n              tag_149\n              jump\t// in\n            tag_212:\n                /* \"#utility.yul\":3429:3432   */\n              dup3\n                /* \"#utility.yul\":3422:3456   */\n              mstore\n                /* \"#utility.yul\":3353:3462   */\n              pop\n              pop\n              jump\t// out\n                /* \"#utility.yul\":3468:3678   */\n            tag_31:\n                /* \"#utility.yul\":3555:3559   */\n              0x00\n                /* \"#utility.yul\":3593:3595   */\n              0x20\n                /* \"#utility.yul\":3582:3591   */\n              dup3\n                /* \"#utility.yul\":3578:3596   */\n              add\n                /* \"#utility.yul\":3570:3596   */\n              swap1\n              pop\n                /* \"#utility.yul\":3606:3671   */\n              tag_214\n                /* \"#utility.yul\":3668:3669   */\n              0x00\n                /* \"#utility.yul\":3657:3666   */\n              dup4\n                /* \"#utility.yul\":3653:3670   */\n              add\n                /* \"#utility.yul\":3644:3650   */\n              dup5\n                /* \"#utility.yul\":3606:3671   */\n              tag_150\n              jump\t// in\n            tag_214:\n                /* \"#utility.yul\":3468:3678   */\n              swap3\n              swap2\n              pop\n              pop\n              jump\t// out\n                /* \"#utility.yul\":3684:3801   */\n            tag_151:\n                /* \"#utility.yul\":3793:3794   */\n              0x00\n                /* \"#utility.yul\":3790:3791   */\n              dup1\n                /* \"#utility.yul\":3783:3795   */\n              revert\n                /* \"#utility.yul\":3807:3924   */\n            tag_152:\n                /* \"#utility.yul\":3916:3917   */\n              0x00\n                /* \"#utility.yul\":3913:3914   */\n              dup1\n                /* \"#utility.yul\":3906:3918   */\n              revert\n                /* \"#utility.yul\":3930:4110   */\n            tag_153:\n                /* \"#utility.yul\":3978:4055   */\n              0x4e487b7100000000000000000000000000000000000000000000000000000000\n                /* \"#utility.yul\":3975:3976   */\n              0x00\n                /* \"#utility.yul\":3968:4056   */\n              mstore\n                /* \"#utility.yul\":4075:4079   */\n              0x41\n                /* \"#utility.yul\":4072:4073   */\n              0x04\n                /* \"#utility.yul\":4065:4080   */\n              mstore\n                /* \"#utility.yul\":4099:4103   */\n              0x24\n                /* \"#utility.yul\":4096:4097   */\n              0x00\n                /* \"#utility.yul\":4089:4104   */\n              revert\n                /* \"#utility.yul\":4116:4397   */\n            tag_154:\n                /* \"#utility.yul\":4199:4226   */\n              tag_219\n                /* \"#utility.yul\":4221:4225   */\n              dup3\n                /* \"#utility.yul\":4199:4226   */\n              tag_143\n              jump\t// in\n            tag_219:\n                /* \"#utility.yul\":4191:4197   */\n              dup2\n                /* \"#utility.yul\":4187:4227   */\n              add\n                /* \"#utility.yul\":4329:4335   */\n              dup2\n                /* \"#utility.yul\":4317:4327   */\n              dup2\n                /* \"#utility.yul\":4314:4336   */\n              lt\n                /* \"#utility.yul\":4293:4311   */\n              0xffffffffffffffff\n                /* \"#utility.yul\":4281:4291   */\n              dup3\n                /* \"#utility.yul\":4278:4312   */\n              gt\n                /* \"#utility.yul\":4275:4337   */\n              or\n                /* \"#utility.yul\":4272:4360   */\n              iszero\n              tag_220\n              jumpi\n                /* \"#utility.yul\":4340:4358   */\n              tag_221\n              tag_153\n              jump\t// in\n            tag_221:\n                /* \"#utility.yul\":4272:4360   */\n            tag_220:\n                /* \"#utility.yul\":4380:4390   */\n              dup1\n                /* \"#utility.yul\":4376:4378   */\n              0x40\n                /* \"#utility.yul\":4369:4391   */\n              mstore\n                /* \"#utility.yul\":4159:4397   */\n              pop\n                /* \"#utility.yul\":4116:4397   */\n              pop\n              pop\n              jump\t// out\n                /* \"#utility.yul\":4403:4532   */\n            tag_155:\n                /* \"#utility.yul\":4437:4443   */\n              0x00\n                /* \"#utility.yul\":4464:4484   */\n              tag_223\n              tag_134\n              jump\t// in\n            tag_223:\n                /* \"#utility.yul\":4454:4484   */\n              swap1\n              pop\n                /* \"#utility.yul\":4493:4526   */\n              tag_224\n                /* \"#utility.yul\":4521:4525   */\n              dup3\n                /* \"#utility.yul\":4513:4519   */\n              dup3\n                /* \"#utility.yul\":4493:4526   */\n              tag_154\n              jump\t// in\n            tag_224:\n                /* \"#utility.yul\":4403:4532   */\n              swap2\n              swap1\n              pop\n              jump\t// out\n                /* \"#utility.yul\":4538:4846   */\n            tag_156:\n                /* \"#utility.yul\":4600:4604   */\n              0x00\n                /* \"#utility.yul\":4690:4708   */\n              0xffffffffffffffff\n                /* \"#utility.yul\":4682:4688   */\n              dup3\n                /* \"#utility.yul\":4679:4709   */\n              gt\n                /* \"#utility.yul\":4676:4732   */\n              iszero\n              tag_226\n              jumpi\n                /* \"#utility.yul\":4712:4730   */\n              tag_227\n              tag_153\n              jump\t// in\n            tag_227:\n                /* \"#utility.yul\":4676:4732   */\n            tag_226:\n                /* \"#utility.yul\":4750:4779   */\n              tag_228\n                /* \"#utility.yul\":4772:4778   */\n              dup3\n                /* \"#utility.yul\":4750:4779   */\n              tag_143\n              jump\t// in\n            tag_228:\n                /* \"#utility.yul\":4742:4779   */\n              swap1\n              pop\n                /* \"#utility.yul\":4834:4838   */\n              0x20\n                /* \"#utility.yul\":4828:4832   */\n              dup2\n                /* \"#utility.yul\":4824:4839   */\n              add\n                /* \"#utility.yul\":4816:4839   */\n              swap1\n              pop\n                /* \"#utility.yul\":4538:4846   */\n              swap2\n              swap1\n              pop\n              jump\t// out\n                /* \"#utility.yul\":4852:5006   */\n            tag_157:\n                /* \"#utility.yul\":4936:4942   */\n              dup3\n                /* \"#utility.yul\":4931:4934   */\n              dup2\n                /* \"#utility.yul\":4926:4929   */\n              dup4\n                /* \"#utility.yul\":4913:4943   */\n              calldatacopy\n                /* \"#utility.yul\":4998:4999   */\n              0x00\n                /* \"#utility.yul\":4989:4995   */\n              dup4\n                /* \"#utility.yul\":4984:4987   */\n              dup4\n                /* \"#utility.yul\":4980:4996   */\n              add\n                /* \"#utility.yul\":4973:5000   */\n              mstore\n                /* \"#utility.yul\":4852:5006   */\n              pop\n              pop\n              pop\n              jump\t// out\n                /* \"#utility.yul\":5012:5424   */\n            tag_158:\n                /* \"#utility.yul\":5090:5095   */\n              0x00\n                /* \"#utility.yul\":5115:5181   */\n              tag_231\n                /* \"#utility.yul\":5131:5180   */\n              tag_232\n                /* \"#utility.yul\":5173:5179   */\n              dup5\n                /* \"#utility.yul\":5131:5180   */\n              tag_156\n              jump\t// in\n            tag_232:\n                /* \"#utility.yul\":5115:5181   */\n              tag_155\n              jump\t// in\n            tag_231:\n                /* \"#utility.yul\":5106:5181   */\n              swap1\n              pop\n                /* \"#utility.yul\":5204:5210   */\n              dup3\n                /* \"#utility.yul\":5197:5202   */\n              dup2\n                /* \"#utility.yul\":5190:5211   */\n              mstore\n                /* \"#utility.yul\":5242:5246   */\n              0x20\n                /* \"#utility.yul\":5235:5240   */\n              dup2\n                /* \"#utility.yul\":5231:5247   */\n              add\n                /* \"#utility.yul\":5280:5283   */\n              dup5\n                /* \"#utility.yul\":5271:5277   */\n              dup5\n                /* \"#utility.yul\":5266:5269   */\n              dup5\n                /* \"#utility.yul\":5262:5278   */\n              add\n                /* \"#utility.yul\":5259:5284   */\n              gt\n                /* \"#utility.yul\":5256:5368   */\n              iszero\n              tag_233\n              jumpi\n                /* \"#utility.yul\":5287:5366   */\n              tag_234\n              tag_152\n              jump\t// in\n            tag_234:\n                /* \"#utility.yul\":5256:5368   */\n            tag_233:\n                /* \"#utility.yul\":5377:5418   */\n              tag_235\n                /* \"#utility.yul\":5411:5417   */\n              dup5\n                /* \"#utility.yul\":5406:5409   */\n              dup3\n                /* \"#utility.yul\":5401:5404   */\n              dup6\n                /* \"#utility.yul\":5377:5418   */\n              tag_157\n              jump\t// in\n            tag_235:\n                /* \"#utility.yul\":5096:5424   */\n              pop\n                /* \"#utility.yul\":5012:5424   */\n              swap4\n              swap3\n              pop\n              pop\n              pop\n              jump\t// out\n                /* \"#utility.yul\":5444:5784   */\n            tag_159:\n                /* \"#utility.yul\":5500:5505   */\n              0x00\n                /* \"#utility.yul\":5549:5552   */\n              dup3\n                /* \"#utility.yul\":5542:5546   */\n              0x1f\n                /* \"#utility.yul\":5534:5540   */\n              dup4\n                /* \"#utility.yul\":5530:5547   */\n              add\n                /* \"#utility.yul\":5526:5553   */\n              slt\n                /* \"#utility.yul\":5516:5638   */\n              tag_237\n              jumpi\n                /* \"#utility.yul\":5557:5636   */\n              tag_238\n              tag_151\n              jump\t// in\n            tag_238:\n                /* \"#utility.yul\":5516:5638   */\n            tag_237:\n                /* \"#utility.yul\":5674:5680   */\n              dup2\n                /* \"#utility.yul\":5661:5681   */\n              calldataload\n                /* \"#utility.yul\":5699:5778   */\n              tag_239\n                /* \"#utility.yul\":5774:5777   */\n              dup5\n                /* \"#utility.yul\":5766:5772   */\n              dup3\n                /* \"#utility.yul\":5759:5763   */\n              0x20\n                /* \"#utility.yul\":5751:5757   */\n              dup7\n                /* \"#utility.yul\":5747:5764   */\n              add\n                /* \"#utility.yul\":5699:5778   */\n              tag_158\n              jump\t// in\n            tag_239:\n                /* \"#utility.yul\":5690:5778   */\n              swap2\n              pop\n                /* \"#utility.yul\":5506:5784   */\n              pop\n                /* \"#utility.yul\":5444:5784   */\n              swap3\n              swap2\n              pop\n              pop\n              jump\t// out\n                /* \"#utility.yul\":5790:5894   */\n            tag_160:\n                /* \"#utility.yul\":5835:5842   */\n              0x00\n                /* \"#utility.yul\":5864:5888   */\n              tag_241\n                /* \"#utility.yul\":5882:5887   */\n              dup3\n                /* \"#utility.yul\":5864:5888   */\n              tag_145\n              jump\t// in\n            tag_241:\n                /* \"#utility.yul\":5853:5888   */\n              swap1\n              pop\n                /* \"#utility.yul\":5790:5894   */\n              swap2\n              swap1\n              pop\n              jump\t// out\n                /* \"#utility.yul\":5900:6038   */\n            tag_161:\n                /* \"#utility.yul\":5981:6013   */\n              tag_243\n                /* \"#utility.yul\":6007:6012   */\n              dup2\n                /* \"#utility.yul\":5981:6013   */\n              tag_160\n              jump\t// in\n            tag_243:\n                /* \"#utility.yul\":5974:5979   */\n              dup2\n                /* \"#utility.yul\":5971:6014   */\n              eq\n                /* \"#utility.yul\":5961:6032   */\n              tag_244\n              jumpi\n                /* \"#utility.yul\":6028:6029   */\n              0x00\n                /* \"#utility.yul\":6025:6026   */\n              dup1\n                /* \"#utility.yul\":6018:6030   */\n              revert\n                /* \"#utility.yul\":5961:6032   */\n            tag_244:\n                /* \"#utility.yul\":5900:6038   */\n              pop\n              jump\t// out\n                /* \"#utility.yul\":6044:6199   */\n            tag_162:\n                /* \"#utility.yul\":6098:6103   */\n              0x00\n                /* \"#utility.yul\":6136:6142   */\n              dup2\n                /* \"#utility.yul\":6123:6143   */\n              calldataload\n                /* \"#utility.yul\":6114:6143   */\n              swap1\n              pop\n                /* \"#utility.yul\":6152:6193   */\n              tag_246\n                /* \"#utility.yul\":6187:6192   */\n              dup2\n                /* \"#utility.yul\":6152:6193   */\n              tag_161\n              jump\t// in\n            tag_246:\n                /* \"#utility.yul\":6044:6199   */\n              swap3\n              swap2\n              pop\n              pop\n              jump\t// out\n                /* \"#utility.yul\":6205:7166   */\n            tag_35:\n                /* \"#utility.yul\":6309:6315   */\n              0x00\n                /* \"#utility.yul\":6317:6323   */\n              dup1\n                /* \"#utility.yul\":6325:6331   */\n              0x00\n                /* \"#utility.yul\":6333:6339   */\n              dup1\n                /* \"#utility.yul\":6382:6385   */\n              0x80\n                /* \"#utility.yul\":6370:6379   */\n              dup6\n                /* \"#utility.yul\":6361:6368   */\n              dup8\n                /* \"#utility.yul\":6357:6380   */\n              sub\n                /* \"#utility.yul\":6353:6386   */\n              slt\n                /* \"#utility.yul\":6350:6470   */\n              iszero\n              tag_248\n              jumpi\n                /* \"#utility.yul\":6389:6468   */\n              tag_249\n              tag_135\n              jump\t// in\n            tag_249:\n                /* \"#utility.yul\":6350:6470   */\n            tag_248:\n                /* \"#utility.yul\":6537:6538   */\n              0x00\n                /* \"#utility.yul\":6526:6535   */\n              dup6\n                /* \"#utility.yul\":6522:6539   */\n              add\n                /* \"#utility.yul\":6509:6540   */\n              calldataload\n                /* \"#utility.yul\":6567:6585   */\n              0xffffffffffffffff\n                /* \"#utility.yul\":6559:6565   */\n              dup2\n                /* \"#utility.yul\":6556:6586   */\n              gt\n                /* \"#utility.yul\":6553:6670   */\n              iszero\n              tag_250\n              jumpi\n                /* \"#utility.yul\":6589:6668   */\n              tag_251\n              tag_136\n              jump\t// in\n            tag_251:\n                /* \"#utility.yul\":6553:6670   */\n            tag_250:\n                /* \"#utility.yul\":6694:6757   */\n              tag_252\n                /* \"#utility.yul\":6749:6756   */\n              dup8\n                /* \"#utility.yul\":6740:6746   */\n              dup3\n                /* \"#utility.yul\":6729:6738   */\n              dup9\n                /* \"#utility.yul\":6725:6747   */\n              add\n                /* \"#utility.yul\":6694:6757   */\n              tag_159\n              jump\t// in\n            tag_252:\n                /* \"#utility.yul\":6684:6757   */\n              swap5\n              pop\n                /* \"#utility.yul\":6480:6767   */\n              pop\n                /* \"#utility.yul\":6806:6808   */\n              0x20\n                /* \"#utility.yul\":6832:6885   */\n              tag_253\n                /* \"#utility.yul\":6877:6884   */\n              dup8\n                /* \"#utility.yul\":6868:6874   */\n              dup3\n                /* \"#utility.yul\":6857:6866   */\n              dup9\n                /* \"#utility.yul\":6853:6875   */\n              add\n                /* \"#utility.yul\":6832:6885   */\n              tag_139\n              jump\t// in\n            tag_253:\n                /* \"#utility.yul\":6822:6885   */\n              swap4\n              pop\n                /* \"#utility.yul\":6777:6895   */\n              pop\n                /* \"#utility.yul\":6934:6936   */\n              0x40\n                /* \"#utility.yul\":6960:7021   */\n              tag_254\n                /* \"#utility.yul\":7013:7020   */\n              dup8\n                /* \"#utility.yul\":7004:7010   */\n              dup3\n                /* \"#utility.yul\":6993:7002   */\n              dup9\n                /* \"#utility.yul\":6989:7011   */\n              add\n                /* \"#utility.yul\":6960:7021   */\n              tag_162\n              jump\t// in\n            tag_254:\n                /* \"#utility.yul\":6950:7021   */\n              swap3\n              pop\n                /* \"#utility.yul\":6905:7031   */\n              pop\n                /* \"#utility.yul\":7070:7072   */\n              0x60\n                /* \"#utility.yul\":7096:7149   */\n              tag_255\n                /* \"#utility.yul\":7141:7148   */\n              dup8\n                /* \"#utility.yul\":7132:7138   */\n              dup3\n                /* \"#utility.yul\":7121:7130   */\n              dup9\n                /* \"#utility.yul\":7117:7139   */\n              add\n                /* \"#utility.yul\":7096:7149   */\n              tag_139\n              jump\t// in\n            tag_255:\n                /* \"#utility.yul\":7086:7149   */\n              swap2\n              pop\n                /* \"#utility.yul\":7041:7159   */\n              pop\n                /* \"#utility.yul\":6205:7166   */\n              swap3\n              swap6\n              swap2\n              swap5\n              pop\n              swap3\n              pop\n              jump\t// out\n                /* \"#utility.yul\":7172:7290   */\n            tag_163:\n                /* \"#utility.yul\":7259:7283   */\n              tag_257\n                /* \"#utility.yul\":7277:7282   */\n              dup2\n                /* \"#utility.yul\":7259:7283   */\n              tag_137\n              jump\t// in\n            tag_257:\n                /* \"#utility.yul\":7254:7257   */\n              dup3\n                /* \"#utility.yul\":7247:7284   */\n              mstore\n                /* \"#utility.yul\":7172:7290   */\n              pop\n              pop\n              jump\t// out\n                /* \"#utility.yul\":7296:7518   */\n            tag_41:\n                /* \"#utility.yul\":7389:7393   */\n              0x00\n                /* \"#utility.yul\":7427:7429   */\n              0x20\n                /* \"#utility.yul\":7416:7425   */\n              dup3\n                /* \"#utility.yul\":7412:7430   */\n              add\n                /* \"#utility.yul\":7404:7430   */\n              swap1\n              pop\n                /* \"#utility.yul\":7440:7511   */\n              tag_259\n                /* \"#utility.yul\":7508:7509   */\n              0x00\n                /* \"#utility.yul\":7497:7506   */\n              dup4\n                /* \"#utility.yul\":7493:7510   */\n              add\n                /* \"#utility.yul\":7484:7490   */\n              dup5\n                /* \"#utility.yul\":7440:7511   */\n              tag_163\n              jump\t// in\n            tag_259:\n                /* \"#utility.yul\":7296:7518   */\n              swap3\n              swap2\n              pop\n              pop\n              jump\t// out\n                /* \"#utility.yul\":7524:7642   */\n            tag_164:\n                /* \"#utility.yul\":7611:7635   */\n              tag_261\n                /* \"#utility.yul\":7629:7634   */\n              dup2\n                /* \"#utility.yul\":7611:7635   */\n              tag_146\n              jump\t// in\n            tag_261:\n                /* \"#utility.yul\":7606:7609   */\n              dup3\n                /* \"#utility.yul\":7599:7636   */\n              mstore\n                /* \"#utility.yul\":7524:7642   */\n              pop\n              pop\n              jump\t// out\n                /* \"#utility.yul\":7648:7870   */\n            tag_46:\n                /* \"#utility.yul\":7741:7745   */\n              0x00\n                /* \"#utility.yul\":7779:7781   */\n              0x20\n                /* \"#utility.yul\":7768:7777   */\n              dup3\n                /* \"#utility.yul\":7764:7782   */\n              add\n                /* \"#utility.yul\":7756:7782   */\n              swap1\n              pop\n                /* \"#utility.yul\":7792:7863   */\n              tag_263\n                /* \"#utility.yul\":7860:7861   */\n              0x00\n                /* \"#utility.yul\":7849:7858   */\n              dup4\n                /* \"#utility.yul\":7845:7862   */\n              add\n                /* \"#utility.yul\":7836:7842   */\n              dup5\n                /* \"#utility.yul\":7792:7863   */\n              tag_164\n              jump\t// in\n            tag_263:\n                /* \"#utility.yul\":7648:7870   */\n              swap3\n              swap2\n              pop\n              pop\n              jump\t// out\n                /* \"#utility.yul\":7876:8018   */\n            tag_165:\n                /* \"#utility.yul\":7979:8011   */\n              tag_265\n                /* \"#utility.yul\":8005:8010   */\n              dup2\n                /* \"#utility.yul\":7979:8011   */\n              tag_160\n              jump\t// in\n            tag_265:\n                /* \"#utility.yul\":7974:7977   */\n              dup3\n                /* \"#utility.yul\":7967:8012   */\n              mstore\n                /* \"#utility.yul\":7876:8018   */\n              pop\n              pop\n              jump\t// out\n                /* \"#utility.yul\":8024:8910   */\n            tag_56:\n                /* \"#utility.yul\":8287:8291   */\n              0x00\n                /* \"#utility.yul\":8325:8328   */\n              0xc0\n                /* \"#utility.yul\":8314:8323   */\n              dup3\n                /* \"#utility.yul\":8310:8329   */\n              add\n                /* \"#utility.yul\":8302:8329   */\n              swap1\n              pop\n                /* \"#utility.yul\":8375:8384   */\n              dup2\n                /* \"#utility.yul\":8369:8373   */\n              dup2\n                /* \"#utility.yul\":8365:8385   */\n              sub\n                /* \"#utility.yul\":8361:8362   */\n              0x00\n                /* \"#utility.yul\":8350:8359   */\n              dup4\n                /* \"#utility.yul\":8346:8363   */\n              add\n                /* \"#utility.yul\":8339:8386   */\n              mstore\n                /* \"#utility.yul\":8403:8481   */\n              tag_267\n                /* \"#utility.yul\":8476:8480   */\n              dup2\n                /* \"#utility.yul\":8467:8473   */\n              dup10\n                /* \"#utility.yul\":8403:8481   */\n              tag_144\n              jump\t// in\n            tag_267:\n                /* \"#utility.yul\":8395:8481   */\n              swap1\n              pop\n                /* \"#utility.yul\":8491:8563   */\n              tag_268\n                /* \"#utility.yul\":8559:8561   */\n              0x20\n                /* \"#utility.yul\":8548:8557   */\n              dup4\n                /* \"#utility.yul\":8544:8562   */\n              add\n                /* \"#utility.yul\":8535:8541   */\n              dup9\n                /* \"#utility.yul\":8491:8563   */\n              tag_163\n              jump\t// in\n            tag_268:\n                /* \"#utility.yul\":8573:8661   */\n              tag_269\n                /* \"#utility.yul\":8657:8659   */\n              0x40\n                /* \"#utility.yul\":8646:8655   */\n              dup4\n                /* \"#utility.yul\":8642:8660   */\n              add\n                /* \"#utility.yul\":8633:8639   */\n              dup8\n                /* \"#utility.yul\":8573:8661   */\n              tag_165\n              jump\t// in\n            tag_269:\n                /* \"#utility.yul\":8671:8743   */\n              tag_270\n                /* \"#utility.yul\":8739:8741   */\n              0x60\n                /* \"#utility.yul\":8728:8737   */\n              dup4\n                /* \"#utility.yul\":8724:8742   */\n              add\n                /* \"#utility.yul\":8715:8721   */\n              dup7\n                /* \"#utility.yul\":8671:8743   */\n              tag_163\n              jump\t// in\n            tag_270:\n                /* \"#utility.yul\":8753:8820   */\n              tag_271\n                /* \"#utility.yul\":8815:8818   */\n              0x80\n                /* \"#utility.yul\":8804:8813   */\n              dup4\n                /* \"#utility.yul\":8800:8819   */\n              add\n                /* \"#utility.yul\":8791:8797   */\n              dup6\n                /* \"#utility.yul\":8753:8820   */\n              tag_150\n              jump\t// in\n            tag_271:\n                /* \"#utility.yul\":8830:8903   */\n              tag_272\n                /* \"#utility.yul\":8898:8901   */\n              0xa0\n                /* \"#utility.yul\":8887:8896   */\n              dup4\n                /* \"#utility.yul\":8883:8902   */\n              add\n                /* \"#utility.yul\":8874:8880   */\n              dup5\n                /* \"#utility.yul\":8830:8903   */\n              tag_163\n              jump\t// in\n            tag_272:\n                /* \"#utility.yul\":8024:8910   */\n              swap8\n              swap7\n              pop\n              pop\n              pop\n              pop\n              pop\n              pop\n              pop\n              jump\t// out\n                /* \"#utility.yul\":8916:9782   */\n            tag_65:\n                /* \"#utility.yul\":9169:9173   */\n              0x00\n                /* \"#utility.yul\":9207:9210   */\n              0xc0\n                /* \"#utility.yul\":9196:9205   */\n              dup3\n                /* \"#utility.yul\":9192:9211   */\n              add\n                /* \"#utility.yul\":9184:9211   */\n              swap1\n              pop\n                /* \"#utility.yul\":9257:9266   */\n              dup2\n                /* \"#utility.yul\":9251:9255   */\n              dup2\n                /* \"#utility.yul\":9247:9267   */\n              sub\n                /* \"#utility.yul\":9243:9244   */\n              0x00\n                /* \"#utility.yul\":9232:9241   */\n              dup4\n                /* \"#utility.yul\":9228:9245   */\n              add\n                /* \"#utility.yul\":9221:9268   */\n              mstore\n                /* \"#utility.yul\":9285:9363   */\n              tag_274\n                /* \"#utility.yul\":9358:9362   */\n              dup2\n                /* \"#utility.yul\":9349:9355   */\n              dup10\n                /* \"#utility.yul\":9285:9363   */\n              tag_144\n              jump\t// in\n            tag_274:\n                /* \"#utility.yul\":9277:9363   */\n              swap1\n              pop\n                /* \"#utility.yul\":9373:9445   */\n              tag_275\n                /* \"#utility.yul\":9441:9443   */\n              0x20\n                /* \"#utility.yul\":9430:9439   */\n              dup4\n                /* \"#utility.yul\":9426:9444   */\n              add\n                /* \"#utility.yul\":9417:9423   */\n              dup9\n                /* \"#utility.yul\":9373:9445   */\n              tag_163\n              jump\t// in\n            tag_275:\n                /* \"#utility.yul\":9455:9527   */\n              tag_276\n                /* \"#utility.yul\":9523:9525   */\n              0x40\n                /* \"#utility.yul\":9512:9521   */\n              dup4\n                /* \"#utility.yul\":9508:9526   */\n              add\n                /* \"#utility.yul\":9499:9505   */\n              dup8\n                /* \"#utility.yul\":9455:9527   */\n              tag_163\n              jump\t// in\n            tag_276:\n                /* \"#utility.yul\":9537:9609   */\n              tag_277\n                /* \"#utility.yul\":9605:9607   */\n              0x60\n                /* \"#utility.yul\":9594:9603   */\n              dup4\n                /* \"#utility.yul\":9590:9608   */\n              add\n                /* \"#utility.yul\":9581:9587   */\n              dup7\n                /* \"#utility.yul\":9537:9609   */\n              tag_163\n              jump\t// in\n            tag_277:\n                /* \"#utility.yul\":9619:9692   */\n              tag_278\n                /* \"#utility.yul\":9687:9690   */\n              0x80\n                /* \"#utility.yul\":9676:9685   */\n              dup4\n                /* \"#utility.yul\":9672:9691   */\n              add\n                /* \"#utility.yul\":9663:9669   */\n              dup6\n                /* \"#utility.yul\":9619:9692   */\n              tag_163\n              jump\t// in\n            tag_278:\n                /* \"#utility.yul\":9702:9775   */\n              tag_279\n                /* \"#utility.yul\":9770:9773   */\n              0xa0\n                /* \"#utility.yul\":9759:9768   */\n              dup4\n                /* \"#utility.yul\":9755:9774   */\n              add\n                /* \"#utility.yul\":9746:9752   */\n              dup5\n                /* \"#utility.yul\":9702:9775   */\n              tag_164\n              jump\t// in\n            tag_279:\n                /* \"#utility.yul\":8916:9782   */\n              swap8\n              swap7\n              pop\n              pop\n              pop\n              pop\n              pop\n              pop\n              pop\n              jump\t// out\n                /* \"#utility.yul\":9788:9968   */\n            tag_77:\n                /* \"#utility.yul\":9836:9913   */\n              0x4e487b7100000000000000000000000000000000000000000000000000000000\n                /* \"#utility.yul\":9833:9834   */\n              0x00\n                /* \"#utility.yul\":9826:9914   */\n              mstore\n                /* \"#utility.yul\":9933:9937   */\n              0x32\n                /* \"#utility.yul\":9930:9931   */\n              0x04\n                /* \"#utility.yul\":9923:9938   */\n              mstore\n                /* \"#utility.yul\":9957:9961   */\n              0x24\n                /* \"#utility.yul\":9954:9955   */\n              0x00\n                /* \"#utility.yul\":9947:9962   */\n              revert\n                /* \"#utility.yul\":9974:10154   */\n            tag_166:\n                /* \"#utility.yul\":10022:10099   */\n              0x4e487b7100000000000000000000000000000000000000000000000000000000\n                /* \"#utility.yul\":10019:10020   */\n              0x00\n                /* \"#utility.yul\":10012:10100   */\n              mstore\n                /* \"#utility.yul\":10119:10123   */\n              0x11\n                /* \"#utility.yul\":10116:10117   */\n              0x04\n                /* \"#utility.yul\":10109:10124   */\n              mstore\n                /* \"#utility.yul\":10143:10147   */\n              0x24\n                /* \"#utility.yul\":10140:10141   */\n              0x00\n                /* \"#utility.yul\":10133:10148   */\n              revert\n                /* \"#utility.yul\":10160:10508   */\n            tag_80:\n                /* \"#utility.yul\":10200:10207   */\n              0x00\n                /* \"#utility.yul\":10223:10243   */\n              tag_283\n                /* \"#utility.yul\":10241:10242   */\n              dup3\n                /* \"#utility.yul\":10223:10243   */\n              tag_137\n              jump\t// in\n            tag_283:\n                /* \"#utility.yul\":10218:10243   */\n              swap2\n              pop\n                /* \"#utility.yul\":10257:10277   */\n              tag_284\n                /* \"#utility.yul\":10275:10276   */\n              dup4\n                /* \"#utility.yul\":10257:10277   */\n              tag_137\n              jump\t// in\n            tag_284:\n                /* \"#utility.yul\":10252:10277   */\n              swap3\n              pop\n                /* \"#utility.yul\":10445:10446   */\n              dup2\n                /* \"#utility.yul\":10377:10443   */\n              0xffffffffffffffffffffffffffffffffffffffffffffffffffffffffffffffff\n                /* \"#utility.yul\":10373:10447   */\n              div\n                /* \"#utility.yul\":10370:10371   */\n              dup4\n                /* \"#utility.yul\":10367:10448   */\n              gt\n                /* \"#utility.yul\":10362:10363   */\n              dup3\n                /* \"#utility.yul\":10355:10364   */\n              iszero\n                /* \"#utility.yul\":10348:10365   */\n              iszero\n                /* \"#utility.yul\":10344:10449   */\n              and\n                /* \"#utility.yul\":10341:10472   */\n              iszero\n              tag_285\n              jumpi\n                /* \"#utility.yul\":10452:10470   */\n              tag_286\n              tag_166\n              jump\t// in\n            tag_286:\n                /* \"#utility.yul\":10341:10472   */\n            tag_285:\n                /* \"#utility.yul\":10500:10501   */\n              dup3\n                /* \"#utility.yul\":10497:10498   */\n              dup3\n                /* \"#utility.yul\":10493:10502   */\n              mul\n                /* \"#utility.yul\":10482:10502   */\n              swap1\n              pop\n                /* \"#utility.yul\":10160:10508   */\n              swap3\n              swap2\n              pop\n              pop\n              jump\t// out\n                /* \"#utility.yul\":10514:10694   */\n            tag_167:\n                /* \"#utility.yul\":10562:10639   */\n              0x4e487b7100000000000000000000000000000000000000000000000000000000\n                /* \"#utility.yul\":10559:10560   */\n              0x00\n                /* \"#utility.yul\":10552:10640   */\n              mstore\n                /* \"#utility.yul\":10659:10663   */\n              0x12\n                /* \"#utility.yul\":10656:10657   */\n              0x04\n                /* \"#utility.yul\":10649:10664   */\n              mstore\n                /* \"#utility.yul\":10683:10687   */\n              0x24\n                /* \"#utility.yul\":10680:10681   */\n              0x00\n                /* \"#utility.yul\":10673:10688   */\n              revert\n                /* \"#utility.yul\":10700:10885   */\n            tag_82:\n                /* \"#utility.yul\":10740:10741   */\n              0x00\n                /* \"#utility.yul\":10757:10777   */\n              tag_289\n                /* \"#utility.yul\":10775:10776   */\n              dup3\n                /* \"#utility.yul\":10757:10777   */\n              tag_137\n              jump\t// in\n            tag_289:\n                /* \"#utility.yul\":10752:10777   */\n              swap2\n              pop\n                /* \"#utility.yul\":10791:10811   */\n              tag_290\n                /* \"#utility.yul\":10809:10810   */\n              dup4\n                /* \"#utility.yul\":10791:10811   */\n              tag_137\n              jump\t// in\n            tag_290:\n                /* \"#utility.yul\":10786:10811   */\n              swap3\n              pop\n                /* \"#utility.yul\":10830:10831   */\n              dup3\n                /* \"#utility.yul\":10820:10855   */\n              tag_291\n              jumpi\n                /* \"#utility.yul\":10835:10853   */\n              tag_292\n              tag_167\n              jump\t// in\n            tag_292:\n                /* \"#utility.yul\":10820:10855   */\n            tag_291:\n                /* \"#utility.yul\":10877:10878   */\n              dup3\n                /* \"#utility.yul\":10874:10875   */\n              dup3\n                /* \"#utility.yul\":10870:10879   */\n              div\n                /* \"#utility.yul\":10865:10879   */\n              swap1\n              pop\n                /* \"#utility.yul\":10700:10885   */\n              swap3\n              swap2\n              pop\n              pop\n              jump\t// out\n                /* \"#utility.yul\":10891:11071   */\n            tag_168:\n                /* \"#utility.yul\":10939:11016   */\n              0x4e487b7100000000000000000000000000000000000000000000000000000000\n                /* \"#utility.yul\":10936:10937   */\n              0x00\n                /* \"#utility.yul\":10929:11017   */\n              mstore\n                /* \"#utility.yul\":11036:11040   */\n              0x22\n                /* \"#utility.yul\":11033:11034   */\n              0x04\n                /* \"#utility.yul\":11026:11041   */\n              mstore\n                /* \"#utility.yul\":11060:11064   */\n              0x24\n                /* \"#utility.yul\":11057:11058   */\n              0x00\n                /* \"#utility.yul\":11050:11065   */\n              revert\n                /* \"#utility.yul\":11077:11397   */\n            tag_88:\n                /* \"#utility.yul\":11121:11127   */\n              0x00\n                /* \"#utility.yul\":11158:11159   */\n              0x02\n                /* \"#utility.yul\":11152:11156   */\n              dup3\n                /* \"#utility.yul\":11148:11160   */\n              div\n                /* \"#utility.yul\":11138:11160   */\n              swap1\n              pop\n                /* \"#utility.yul\":11205:11206   */\n              0x01\n                /* \"#utility.yul\":11199:11203   */\n              dup3\n                /* \"#utility.yul\":11195:11207   */\n              and\n                /* \"#utility.yul\":11226:11244   */\n              dup1\n                /* \"#utility.yul\":11216:11297   */\n              tag_295\n              jumpi\n                /* \"#utility.yul\":11282:11286   */\n              0x7f\n                /* \"#utility.yul\":11274:11280   */\n              dup3\n                /* \"#utility.yul\":11270:11287   */\n              and\n                /* \"#utility.yul\":11260:11287   */\n              swap2\n              pop\n                /* \"#utility.yul\":11216:11297   */\n            tag_295:\n                /* \"#utility.yul\":11344:11346   */\n              0x20\n                /* \"#utility.yul\":11336:11342   */\n              dup3\n                /* \"#utility.yul\":11333:11347   */\n              lt\n                /* \"#utility.yul\":11313:11331   */\n              dup2\n                /* \"#utility.yul\":11310:11348   */\n              sub\n                /* \"#utility.yul\":11307:11391   */\n              tag_296\n              jumpi\n                /* \"#utility.yul\":11363:11381   */\n              tag_297\n              tag_168\n              jump\t// in\n            tag_297:\n                /* \"#utility.yul\":11307:11391   */\n            tag_296:\n                /* \"#utility.yul\":11128:11397   */\n              pop\n                /* \"#utility.yul\":11077:11397   */\n              swap2\n              swap1\n              pop\n              jump\t// out\n                /* \"#utility.yul\":11403:11636   */\n            tag_116:\n                /* \"#utility.yul\":11442:11445   */\n              0x00\n                /* \"#utility.yul\":11465:11489   */\n              tag_299\n                /* \"#utility.yul\":11483:11488   */\n              dup3\n                /* \"#utility.yul\":11465:11489   */\n              tag_137\n              jump\t// in\n            tag_299:\n                /* \"#utility.yul\":11456:11489   */\n              swap2\n              pop\n                /* \"#utility.yul\":11511:11577   */\n              0xffffffffffffffffffffffffffffffffffffffffffffffffffffffffffffffff\n                /* \"#utility.yul\":11504:11509   */\n              dup3\n                /* \"#utility.yul\":11501:11578   */\n              sub\n                /* \"#utility.yul\":11498:11601   */\n              tag_300\n              jumpi\n                /* \"#utility.yul\":11581:11599   */\n              tag_301\n              tag_166\n              jump\t// in\n            tag_301:\n                /* \"#utility.yul\":11498:11601   */\n            tag_300:\n                /* \"#utility.yul\":11628:11629   */\n              0x01\n                /* \"#utility.yul\":11621:11626   */\n              dup3\n                /* \"#utility.yul\":11617:11630   */\n              add\n                /* \"#utility.yul\":11610:11630   */\n              swap1\n              pop\n                /* \"#utility.yul\":11403:11636   */\n              swap2\n              swap1\n              pop\n              jump\t// out\n\n            auxdata: 0xa2646970667358221220aa8d2790ef796e07c6f72df6cc30d3127e433a4f7d5b83734bc98153619bc49464736f6c634300080d0033\n        }\n    }\n\n    auxdata: 0xa2646970667358221220e96cbd0e27f8068b16c60385b48e1b31f419b5a542a9376b674b9e9d520a376764736f6c634300080d0033\n}\n","bytecode":{"linkReferences":{},"object":"608060405234801561001057600080fd5b50611cf1806100206000396000f3fe60806040523480156200001157600080fd5b5060043610620000465760003560e01c8063339d50a5146200004b5780634220d65614620000815780634acb9d4f14620000a1575b600080fd5b62000069600480360381019062000063919062000299565b620000c3565b60405162000078919062000310565b60405180910390f35b6200009f60048036038101906200009991906200048f565b62000103565b005b620000ab620001ac565b604051620000ba9190620005c3565b60405180910390f35b60008181548110620000d457600080fd5b906000526020600020016000915054906101000a900473ffffffffffffffffffffffffffffffffffffffff1681565b600082823360405162000116906200023c565b62000124939291906200068b565b604051809103906000f08015801562000141573d6000803e3d6000fd5b5090506000819080600181540180825580915050600190039060005260206000200160009091909190916101000a81548173ffffffffffffffffffffffffffffffffffffffff021916908373ffffffffffffffffffffffffffffffffffffffff160217905550505050565b606060008054806020026020016040519081016040528092919081815260200182805480156200023257602002820191906000526020600020905b8160009054906101000a900473ffffffffffffffffffffffffffffffffffffffff1673ffffffffffffffffffffffffffffffffffffffff1681526020019060010190808311620001e7575b5050505050905090565b6115ec80620006d083390190565b6000604051905090565b600080fd5b600080fd5b6000819050919050565b62000273816200025e565b81146200027f57600080fd5b50565b600081359050620002938162000268565b92915050565b600060208284031215620002b257620002b162000254565b5b6000620002c28482850162000282565b91505092915050565b600073ffffffffffffffffffffffffffffffffffffffff82169050919050565b6000620002f882620002cb565b9050919050565b6200030a81620002eb565b82525050565b6000602082019050620003276000830184620002ff565b92915050565b600080fd5b600080fd5b6000601f19601f8301169050919050565b7f4e487b7100000000000000000000000000000000000000000000000000000000600052604160045260246000fd5b620003828262000337565b810181811067ffffffffffffffff82111715620003a457620003a362000348565b5b80604052505050565b6000620003b96200024a565b9050620003c7828262000377565b919050565b600067ffffffffffffffff821115620003ea57620003e962000348565b5b620003f58262000337565b9050602081019050919050565b82818337600083830152505050565b6000620004286200042284620003cc565b620003ad565b90508281526020810184848401111562000447576200044662000332565b5b6200045484828562000402565b509392505050565b600082601f8301126200047457620004736200032d565b5b81356200048684826020860162000411565b91505092915050565b60008060408385031215620004a957620004a862000254565b5b6000620004b98582860162000282565b925050602083013567ffffffffffffffff811115620004dd57620004dc62000259565b5b620004eb858286016200045c565b9150509250929050565b600081519050919050565b600082825260208201905092915050565b6000819050602082019050919050565b6200052c81620002eb565b82525050565b600062000540838362000521565b60208301905092915050565b6000602082019050919050565b60006200056682620004f5565b62000572818562000500565b93506200057f8362000511565b8060005b83811015620005b65781516200059a888262000532565b9750620005a7836200054c565b92505060018101905062000583565b5085935050505092915050565b60006020820190508181036000830152620005df818462000559565b905092915050565b620005f2816200025e565b82525050565b600081519050919050565b600082825260208201905092915050565b60005b838110156200063457808201518184015260208101905062000617565b8381111562000644576000848401525b50505050565b60006200065782620005f8565b62000663818562000603565b93506200067581856020860162000614565b620006808162000337565b840191505092915050565b6000606082019050620006a26000830186620005e7565b8181036020830152620006b681856200064a565b9050620006c76040830184620002ff565b94935050505056fe60806040523480156200001157600080fd5b50604051620015ec380380620015ec83398181016040528101906200003791906200038d565b82600281905550816001908051906020019062000056929190620000a0565b50806000806101000a81548173ffffffffffffffffffffffffffffffffffffffff021916908373ffffffffffffffffffffffffffffffffffffffff1602179055505050506200046c565b828054620000ae9062000437565b90600052602060002090601f016020900481019282620000d257600085556200011e565b82601f10620000ed57805160ff19168380011785556200011e565b828001600101855582156200011e579182015b828111156200011d57825182559160200191906001019062000100565b5b5090506200012d919062000131565b5090565b5b808211156200014c57600081600090555060010162000132565b5090565b6000604051905090565b600080fd5b600080fd5b6000819050919050565b620001798162000164565b81146200018557600080fd5b50565b60008151905062000199816200016e565b92915050565b600080fd5b600080fd5b6000601f19601f8301169050919050565b7f4e487b7100000000000000000000000000000000000000000000000000000000600052604160045260246000fd5b620001f482620001a9565b810181811067ffffffffffffffff82111715620002165762000215620001ba565b5b80604052505050565b60006200022b62000150565b9050620002398282620001e9565b919050565b600067ffffffffffffffff8211156200025c576200025b620001ba565b5b6200026782620001a9565b9050602081019050919050565b60005b838110156200029457808201518184015260208101905062000277565b83811115620002a4576000848401525b50505050565b6000620002c1620002bb846200023e565b6200021f565b905082815260208101848484011115620002e057620002df620001a4565b5b620002ed84828562000274565b509392505050565b600082601f8301126200030d576200030c6200019f565b5b81516200031f848260208601620002aa565b91505092915050565b600073ffffffffffffffffffffffffffffffffffffffff82169050919050565b6000620003558262000328565b9050919050565b620003678162000348565b81146200037357600080fd5b50565b60008151905062000387816200035c565b92915050565b600080600060608486031215620003a957620003a86200015a565b5b6000620003b98682870162000188565b935050602084015167ffffffffffffffff811115620003dd57620003dc6200015f565b5b620003eb86828701620002f5565b9250506040620003fe8682870162000376565b9150509250925092565b7f4e487b7100000000000000000000000000000000000000000000000000000000600052602260045260246000fd5b600060028204905060018216806200045057607f821691505b60208210810362000466576200046562000408565b5b50919050565b611170806200047c6000396000f3fe6080604052600436106100a75760003560e01c80637569b3d7116100645780637569b3d7146101bc57806381d12c58146101e7578063937e09b114610229578063a00c96d714610254578063d7bb99ba14610284578063d7d1bbdb1461028e576100a7565b806303441006146100ac5780630724fda9146100d55780631f6d49421461010057806326883efa1461013d5780633410452a14610166578063481c6a7514610191575b600080fd5b3480156100b857600080fd5b506100d360048036038101906100ce9190610aa8565b6102b7565b005b3480156100e157600080fd5b506100ea61040f565b6040516100f79190610b6e565b60405180910390f35b34801561010c57600080fd5b5061012760048036038101906101229190610bee565b61049d565b6040516101349190610c36565b60405180910390f35b34801561014957600080fd5b50610164600480360381019061015f9190610dc4565b6104bd565b005b34801561017257600080fd5b5061017b6105d5565b6040516101889190610e56565b60405180910390f35b34801561019d57600080fd5b506101a66105e2565b6040516101b39190610e80565b60405180910390f35b3480156101c857600080fd5b506101d1610606565b6040516101de9190610e56565b60405180910390f35b3480156101f357600080fd5b5061020e60048036038101906102099190610aa8565b61060c565b60405161022096959493929190610eaa565b60405180910390f35b34801561023557600080fd5b5061023e61070d565b60405161024b9190610e56565b60405180910390f35b34801561026057600080fd5b50610269610713565b60405161027b96959493929190610f12565b60405180910390f35b61028c6107ed565b005b34801561029a57600080fd5b506102b560048036038101906102b09190610aa8565b61086e565b005b60008054906101000a900473ffffffffffffffffffffffffffffffffffffffff1673ffffffffffffffffffffffffffffffffffffffff163373ffffffffffffffffffffffffffffffffffffffff161461030f57600080fd5b60006003828154811061032557610324610f7a565b5b9060005260206000209060070201905080600301546005546064836005015461034e9190610fd8565b6103589190611061565b101561036357600080fd5b8060040160009054906101000a900460ff161561037f57600080fd5b8060020160009054906101000a900473ffffffffffffffffffffffffffffffffffffffff1673ffffffffffffffffffffffffffffffffffffffff166108fc82600101549081150290604051600060405180830381858888f193505050501580156103ed573d6000803e3d6000fd5b5060018160040160006101000a81548160ff0219169083151502179055505050565b6001805461041c906110c1565b80601f0160208091040260200160405190810160405280929190818152602001828054610448906110c1565b80156104955780601f1061046a57610100808354040283529160200191610495565b820191906000526020600020905b81548152906001019060200180831161047857829003601f168201915b505050505081565b60046020528060005260406000206000915054906101000a900460ff1681565b60008054906101000a900473ffffffffffffffffffffffffffffffffffffffff1673ffffffffffffffffffffffffffffffffffffffff163373ffffffffffffffffffffffffffffffffffffffff161461051557600080fd5b600060036001816001815401808255809150500390600052602060002090600702019050848160000190805190602001906105519291906109bb565b50838160010181905550828160020160006101000a81548173ffffffffffffffffffffffffffffffffffffffff021916908373ffffffffffffffffffffffffffffffffffffffff16021790555081816003018190555060008160040160006101000a81548160ff021916908315150217905550600081600501819055505050505050565b6000600380549050905090565b60008054906101000a900473ffffffffffffffffffffffffffffffffffffffff1681565b60055481565b6003818154811061061c57600080fd5b906000526020600020906007020160009150905080600001805461063f906110c1565b80601f016020809104026020016040519081016040528092919081815260200182805461066b906110c1565b80156106b85780601f1061068d576101008083540402835291602001916106b8565b820191906000526020600020905b81548152906001019060200180831161069b57829003601f168201915b5050505050908060010154908060020160009054906101000a900473ffffffffffffffffffffffffffffffffffffffff16908060030154908060040160009054906101000a900460ff16908060050154905086565b60025481565b6060600080600080600060014760025460038054905060055460008054906101000a900473ffffffffffffffffffffffffffffffffffffffff16858054610759906110c1565b80601f0160208091040260200160405190810160405280929190818152602001828054610785906110c1565b80156107d25780601f106107a7576101008083540402835291602001916107d2565b820191906000526020600020905b8154815290600101906020018083116107b557829003601f168201915b50505050509550955095509550955095509550909192939495565b6002543410156107fc57600080fd5b6001600460003373ffffffffffffffffffffffffffffffffffffffff1673ffffffffffffffffffffffffffffffffffffffff16815260200190815260200160002060006101000a81548160ff02191690831515021790555060056000815480929190610867906110f2565b9190505550565b60006003828154811061088457610883610f7a565b5b90600052602060002090600702019050600460003373ffffffffffffffffffffffffffffffffffffffff1673ffffffffffffffffffffffffffffffffffffffff16815260200190815260200160002060009054906101000a900460ff166108ea57600080fd5b8060060160003373ffffffffffffffffffffffffffffffffffffffff1673ffffffffffffffffffffffffffffffffffffffff16815260200190815260200160002060009054906101000a900460ff161561094357600080fd5b60018160060160003373ffffffffffffffffffffffffffffffffffffffff1673ffffffffffffffffffffffffffffffffffffffff16815260200190815260200160002060006101000a81548160ff0219169083151502179055508060050160008154809291906109b2906110f2565b91905055505050565b8280546109c7906110c1565b90600052602060002090601f0160209004810192826109e95760008555610a30565b82601f10610a0257805160ff1916838001178555610a30565b82800160010185558215610a30579182015b82811115610a2f578251825591602001919060010190610a14565b5b509050610a3d9190610a41565b5090565b5b80821115610a5a576000816000905550600101610a42565b5090565b6000604051905090565b600080fd5b600080fd5b6000819050919050565b610a8581610a72565b8114610a9057600080fd5b50565b600081359050610aa281610a7c565b92915050565b600060208284031215610abe57610abd610a68565b5b6000610acc84828501610a93565b91505092915050565b600081519050919050565b600082825260208201905092915050565b60005b83811015610b0f578082015181840152602081019050610af4565b83811115610b1e576000848401525b50505050565b6000601f19601f8301169050919050565b6000610b4082610ad5565b610b4a8185610ae0565b9350610b5a818560208601610af1565b610b6381610b24565b840191505092915050565b60006020820190508181036000830152610b888184610b35565b905092915050565b600073ffffffffffffffffffffffffffffffffffffffff82169050919050565b6000610bbb82610b90565b9050919050565b610bcb81610bb0565b8114610bd657600080fd5b50565b600081359050610be881610bc2565b92915050565b600060208284031215610c0457610c03610a68565b5b6000610c1284828501610bd9565b91505092915050565b60008115159050919050565b610c3081610c1b565b82525050565b6000602082019050610c4b6000830184610c27565b92915050565b600080fd5b600080fd5b7f4e487b7100000000000000000000000000000000000000000000000000000000600052604160045260246000fd5b610c9382610b24565b810181811067ffffffffffffffff82111715610cb257610cb1610c5b565b5b80604052505050565b6000610cc5610a5e565b9050610cd18282610c8a565b919050565b600067ffffffffffffffff821115610cf157610cf0610c5b565b5b610cfa82610b24565b9050602081019050919050565b82818337600083830152505050565b6000610d29610d2484610cd6565b610cbb565b905082815260208101848484011115610d4557610d44610c56565b5b610d50848285610d07565b509392505050565b600082601f830112610d6d57610d6c610c51565b5b8135610d7d848260208601610d16565b91505092915050565b6000610d9182610b90565b9050919050565b610da181610d86565b8114610dac57600080fd5b50565b600081359050610dbe81610d98565b92915050565b60008060008060808587031215610dde57610ddd610a68565b5b600085013567ffffffffffffffff811115610dfc57610dfb610a6d565b5b610e0887828801610d58565b9450506020610e1987828801610a93565b9350506040610e2a87828801610daf565b9250506060610e3b87828801610a93565b91505092959194509250565b610e5081610a72565b82525050565b6000602082019050610e6b6000830184610e47565b92915050565b610e7a81610bb0565b82525050565b6000602082019050610e956000830184610e71565b92915050565b610ea481610d86565b82525050565b600060c0820190508181036000830152610ec48189610b35565b9050610ed36020830188610e47565b610ee06040830187610e9b565b610eed6060830186610e47565b610efa6080830185610c27565b610f0760a0830184610e47565b979650505050505050565b600060c0820190508181036000830152610f2c8189610b35565b9050610f3b6020830188610e47565b610f486040830187610e47565b610f556060830186610e47565b610f626080830185610e47565b610f6f60a0830184610e71565b979650505050505050565b7f4e487b7100000000000000000000000000000000000000000000000000000000600052603260045260246000fd5b7f4e487b7100000000000000000000000000000000000000000000000000000000600052601160045260246000fd5b6000610fe382610a72565b9150610fee83610a72565b9250817fffffffffffffffffffffffffffffffffffffffffffffffffffffffffffffffff048311821515161561102757611026610fa9565b5b828202905092915050565b7f4e487b7100000000000000000000000000000000000000000000000000000000600052601260045260246000fd5b600061106c82610a72565b915061107783610a72565b92508261108757611086611032565b5b828204905092915050565b7f4e487b7100000000000000000000000000000000000000000000000000000000600052602260045260246000fd5b600060028204905060018216806110d957607f821691505b6020821081036110ec576110eb611092565b5b50919050565b60006110fd82610a72565b91507fffffffffffffffffffffffffffffffffffffffffffffffffffffffffffffffff820361112f5761112e610fa9565b5b60018201905091905056fea2646970667358221220aa8d2790ef796e07c6f72df6cc30d3127e433a4f7d5b83734bc98153619bc49464736f6c634300080d0033a2646970667358221220e96cbd0e27f8068b16c60385b48e1b31f419b5a542a9376b674b9e9d520a376764736f6c634300080d0033","opcodes":"PUSH1 0x80 PUSH1 0x40 MSTORE CALLVALUE DUP1 ISZERO PUSH2 0x10 JUMPI PUSH1 0x0 DUP1 REVERT JUMPDEST POP PUSH2 0x1CF1 DUP1 PUSH2 0x20 PUSH1 0x0 CODECOPY PUSH1 0x0 RETURN INVALID PUSH1 0x80 PUSH1 0x40 MSTORE CALLVALUE DUP1 ISZERO PUSH3 0x11 JUMPI PUSH1 0x0 DUP1 REVERT JUMPDEST POP PUSH1 0x4 CALLDATASIZE LT PUSH3 0x46 JUMPI PUSH1 0x0 CALLDATALOAD PUSH1 0xE0 SHR DUP1 PUSH4 0x339D50A5 EQ PUSH3 0x4B JUMPI DUP1 PUSH4 0x4220D656 EQ PUSH3 0x81 JUMPI DUP1 PUSH4 0x4ACB9D4F EQ PUSH3 0xA1 JUMPI JUMPDEST PUSH1 0x0 DUP1 REVERT JUMPDEST PUSH3 0x69 PUSH1 0x4 DUP1 CALLDATASIZE SUB DUP2 ADD SWAP1 PUSH3 0x63 SWAP2 SWAP1 PUSH3 0x299 JUMP JUMPDEST PUSH3 0xC3 JUMP JUMPDEST PUSH1 0x40 MLOAD PUSH3 0x78 SWAP2 SWAP1 PUSH3 0x310 JUMP JUMPDEST PUSH1 0x40 MLOAD DUP1 SWAP2 SUB SWAP1 RETURN JUMPDEST PUSH3 0x9F PUSH1 0x4 DUP1 CALLDATASIZE SUB DUP2 ADD SWAP1 PUSH3 0x99 SWAP2 SWAP1 PUSH3 0x48F JUMP JUMPDEST PUSH3 0x103 JUMP JUMPDEST STOP JUMPDEST PUSH3 0xAB PUSH3 0x1AC JUMP JUMPDEST PUSH1 0x40 MLOAD PUSH3 0xBA SWAP2 SWAP1 PUSH3 0x5C3 JUMP JUMPDEST PUSH1 0x40 MLOAD DUP1 SWAP2 SUB SWAP1 RETURN JUMPDEST PUSH1 0x0 DUP2 DUP2 SLOAD DUP2 LT PUSH3 0xD4 JUMPI PUSH1 0x0 DUP1 REVERT JUMPDEST SWAP1 PUSH1 0x0 MSTORE PUSH1 0x20 PUSH1 0x0 KECCAK256 ADD PUSH1 0x0 SWAP2 POP SLOAD SWAP1 PUSH2 0x100 EXP SWAP1 DIV PUSH20 0xFFFFFFFFFFFFFFFFFFFFFFFFFFFFFFFFFFFFFFFF AND DUP2 JUMP JUMPDEST PUSH1 0x0 DUP3 DUP3 CALLER PUSH1 0x40 MLOAD PUSH3 0x116 SWAP1 PUSH3 0x23C JUMP JUMPDEST PUSH3 0x124 SWAP4 SWAP3 SWAP2 SWAP1 PUSH3 0x68B JUMP JUMPDEST PUSH1 0x40 MLOAD DUP1 SWAP2 SUB SWAP1 PUSH1 0x0 CREATE DUP1 ISZERO DUP1 ISZERO PUSH3 0x141 JUMPI RETURNDATASIZE PUSH1 0x0 DUP1 RETURNDATACOPY RETURNDATASIZE PUSH1 0x0 REVERT JUMPDEST POP SWAP1 POP PUSH1 0x0 DUP2 SWAP1 DUP1 PUSH1 0x1 DUP2 SLOAD ADD DUP1 DUP3 SSTORE DUP1 SWAP2 POP POP PUSH1 0x1 SWAP1 SUB SWAP1 PUSH1 0x0 MSTORE PUSH1 0x20 PUSH1 0x0 KECCAK256 ADD PUSH1 0x0 SWAP1 SWAP2 SWAP1 SWAP2 SWAP1 SWAP2 PUSH2 0x100 EXP DUP2 SLOAD DUP2 PUSH20 0xFFFFFFFFFFFFFFFFFFFFFFFFFFFFFFFFFFFFFFFF MUL NOT AND SWAP1 DUP4 PUSH20 0xFFFFFFFFFFFFFFFFFFFFFFFFFFFFFFFFFFFFFFFF AND MUL OR SWAP1 SSTORE POP POP POP POP JUMP JUMPDEST PUSH1 0x60 PUSH1 0x0 DUP1 SLOAD DUP1 PUSH1 0x20 MUL PUSH1 0x20 ADD PUSH1 0x40 MLOAD SWAP1 DUP2 ADD PUSH1 0x40 MSTORE DUP1 SWAP3 SWAP2 SWAP1 DUP2 DUP2 MSTORE PUSH1 0x20 ADD DUP3 DUP1 SLOAD DUP1 ISZERO PUSH3 0x232 JUMPI PUSH1 0x20 MUL DUP3 ADD SWAP2 SWAP1 PUSH1 0x0 MSTORE PUSH1 0x20 PUSH1 0x0 KECCAK256 SWAP1 JUMPDEST DUP2 PUSH1 0x0 SWAP1 SLOAD SWAP1 PUSH2 0x100 EXP SWAP1 DIV PUSH20 0xFFFFFFFFFFFFFFFFFFFFFFFFFFFFFFFFFFFFFFFF AND PUSH20 0xFFFFFFFFFFFFFFFFFFFFFFFFFFFFFFFFFFFFFFFF AND DUP2 MSTORE PUSH1 0x20 ADD SWAP1 PUSH1 0x1 ADD SWAP1 DUP1 DUP4 GT PUSH3 0x1E7 JUMPI JUMPDEST POP POP POP POP POP SWAP1 POP SWAP1 JUMP JUMPDEST PUSH2 0x15EC DUP1 PUSH3 0x6D0 DUP4 CODECOPY ADD SWAP1 JUMP JUMPDEST PUSH1 0x0 PUSH1 0x40 MLOAD SWAP1 POP SWAP1 JUMP JUMPDEST PUSH1 0x0 DUP1 REVERT JUMPDEST PUSH1 0x0 DUP1 REVERT JUMPDEST PUSH1 0x0 DUP2 SWAP1 POP SWAP2 SWAP1 POP JUMP JUMPDEST PUSH3 0x273 DUP2 PUSH3 0x25E JUMP JUMPDEST DUP2 EQ PUSH3 0x27F JUMPI PUSH1 0x0 DUP1 REVERT JUMPDEST POP JUMP JUMPDEST PUSH1 0x0 DUP2 CALLDATALOAD SWAP1 POP PUSH3 0x293 DUP2 PUSH3 0x268 JUMP JUMPDEST SWAP3 SWAP2 POP POP JUMP JUMPDEST PUSH1 0x0 PUSH1 0x20 DUP3 DUP5 SUB SLT ISZERO PUSH3 0x2B2 JUMPI PUSH3 0x2B1 PUSH3 0x254 JUMP JUMPDEST JUMPDEST PUSH1 0x0 PUSH3 0x2C2 DUP5 DUP3 DUP6 ADD PUSH3 0x282 JUMP JUMPDEST SWAP2 POP POP SWAP3 SWAP2 POP POP JUMP JUMPDEST PUSH1 0x0 PUSH20 0xFFFFFFFFFFFFFFFFFFFFFFFFFFFFFFFFFFFFFFFF DUP3 AND SWAP1 POP SWAP2 SWAP1 POP JUMP JUMPDEST PUSH1 0x0 PUSH3 0x2F8 DUP3 PUSH3 0x2CB JUMP JUMPDEST SWAP1 POP SWAP2 SWAP1 POP JUMP JUMPDEST PUSH3 0x30A DUP2 PUSH3 0x2EB JUMP JUMPDEST DUP3 MSTORE POP POP JUMP JUMPDEST PUSH1 0x0 PUSH1 0x20 DUP3 ADD SWAP1 POP PUSH3 0x327 PUSH1 0x0 DUP4 ADD DUP5 PUSH3 0x2FF JUMP JUMPDEST SWAP3 SWAP2 POP POP JUMP JUMPDEST PUSH1 0x0 DUP1 REVERT JUMPDEST PUSH1 0x0 DUP1 REVERT JUMPDEST PUSH1 0x0 PUSH1 0x1F NOT PUSH1 0x1F DUP4 ADD AND SWAP1 POP SWAP2 SWAP1 POP JUMP JUMPDEST PUSH32 0x4E487B7100000000000000000000000000000000000000000000000000000000 PUSH1 0x0 MSTORE PUSH1 0x41 PUSH1 0x4 MSTORE PUSH1 0x24 PUSH1 0x0 REVERT JUMPDEST PUSH3 0x382 DUP3 PUSH3 0x337 JUMP JUMPDEST DUP2 ADD DUP2 DUP2 LT PUSH8 0xFFFFFFFFFFFFFFFF DUP3 GT OR ISZERO PUSH3 0x3A4 JUMPI PUSH3 0x3A3 PUSH3 0x348 JUMP JUMPDEST JUMPDEST DUP1 PUSH1 0x40 MSTORE POP POP POP JUMP JUMPDEST PUSH1 0x0 PUSH3 0x3B9 PUSH3 0x24A JUMP JUMPDEST SWAP1 POP PUSH3 0x3C7 DUP3 DUP3 PUSH3 0x377 JUMP JUMPDEST SWAP2 SWAP1 POP JUMP JUMPDEST PUSH1 0x0 PUSH8 0xFFFFFFFFFFFFFFFF DUP3 GT ISZERO PUSH3 0x3EA JUMPI PUSH3 0x3E9 PUSH3 0x348 JUMP JUMPDEST JUMPDEST PUSH3 0x3F5 DUP3 PUSH3 0x337 JUMP JUMPDEST SWAP1 POP PUSH1 0x20 DUP2 ADD SWAP1 POP SWAP2 SWAP1 POP JUMP JUMPDEST DUP3 DUP2 DUP4 CALLDATACOPY PUSH1 0x0 DUP4 DUP4 ADD MSTORE POP POP POP JUMP JUMPDEST PUSH1 0x0 PUSH3 0x428 PUSH3 0x422 DUP5 PUSH3 0x3CC JUMP JUMPDEST PUSH3 0x3AD JUMP JUMPDEST SWAP1 POP DUP3 DUP2 MSTORE PUSH1 0x20 DUP2 ADD DUP5 DUP5 DUP5 ADD GT ISZERO PUSH3 0x447 JUMPI PUSH3 0x446 PUSH3 0x332 JUMP JUMPDEST JUMPDEST PUSH3 0x454 DUP5 DUP3 DUP6 PUSH3 0x402 JUMP JUMPDEST POP SWAP4 SWAP3 POP POP POP JUMP JUMPDEST PUSH1 0x0 DUP3 PUSH1 0x1F DUP4 ADD SLT PUSH3 0x474 JUMPI PUSH3 0x473 PUSH3 0x32D JUMP JUMPDEST JUMPDEST DUP2 CALLDATALOAD PUSH3 0x486 DUP5 DUP3 PUSH1 0x20 DUP7 ADD PUSH3 0x411 JUMP JUMPDEST SWAP2 POP POP SWAP3 SWAP2 POP POP JUMP JUMPDEST PUSH1 0x0 DUP1 PUSH1 0x40 DUP4 DUP6 SUB SLT ISZERO PUSH3 0x4A9 JUMPI PUSH3 0x4A8 PUSH3 0x254 JUMP JUMPDEST JUMPDEST PUSH1 0x0 PUSH3 0x4B9 DUP6 DUP3 DUP7 ADD PUSH3 0x282 JUMP JUMPDEST SWAP3 POP POP PUSH1 0x20 DUP4 ADD CALLDATALOAD PUSH8 0xFFFFFFFFFFFFFFFF DUP2 GT ISZERO PUSH3 0x4DD JUMPI PUSH3 0x4DC PUSH3 0x259 JUMP JUMPDEST JUMPDEST PUSH3 0x4EB DUP6 DUP3 DUP7 ADD PUSH3 0x45C JUMP JUMPDEST SWAP2 POP POP SWAP3 POP SWAP3 SWAP1 POP JUMP JUMPDEST PUSH1 0x0 DUP2 MLOAD SWAP1 POP SWAP2 SWAP1 POP JUMP JUMPDEST PUSH1 0x0 DUP3 DUP3 MSTORE PUSH1 0x20 DUP3 ADD SWAP1 POP SWAP3 SWAP2 POP POP JUMP JUMPDEST PUSH1 0x0 DUP2 SWAP1 POP PUSH1 0x20 DUP3 ADD SWAP1 POP SWAP2 SWAP1 POP JUMP JUMPDEST PUSH3 0x52C DUP2 PUSH3 0x2EB JUMP JUMPDEST DUP3 MSTORE POP POP JUMP JUMPDEST PUSH1 0x0 PUSH3 0x540 DUP4 DUP4 PUSH3 0x521 JUMP JUMPDEST PUSH1 0x20 DUP4 ADD SWAP1 POP SWAP3 SWAP2 POP POP JUMP JUMPDEST PUSH1 0x0 PUSH1 0x20 DUP3 ADD SWAP1 POP SWAP2 SWAP1 POP JUMP JUMPDEST PUSH1 0x0 PUSH3 0x566 DUP3 PUSH3 0x4F5 JUMP JUMPDEST PUSH3 0x572 DUP2 DUP6 PUSH3 0x500 JUMP JUMPDEST SWAP4 POP PUSH3 0x57F DUP4 PUSH3 0x511 JUMP JUMPDEST DUP1 PUSH1 0x0 JUMPDEST DUP4 DUP2 LT ISZERO PUSH3 0x5B6 JUMPI DUP2 MLOAD PUSH3 0x59A DUP9 DUP3 PUSH3 0x532 JUMP JUMPDEST SWAP8 POP PUSH3 0x5A7 DUP4 PUSH3 0x54C JUMP JUMPDEST SWAP3 POP POP PUSH1 0x1 DUP2 ADD SWAP1 POP PUSH3 0x583 JUMP JUMPDEST POP DUP6 SWAP4 POP POP POP POP SWAP3 SWAP2 POP POP JUMP JUMPDEST PUSH1 0x0 PUSH1 0x20 DUP3 ADD SWAP1 POP DUP2 DUP2 SUB PUSH1 0x0 DUP4 ADD MSTORE PUSH3 0x5DF DUP2 DUP5 PUSH3 0x559 JUMP JUMPDEST SWAP1 POP SWAP3 SWAP2 POP POP JUMP JUMPDEST PUSH3 0x5F2 DUP2 PUSH3 0x25E JUMP JUMPDEST DUP3 MSTORE POP POP JUMP JUMPDEST PUSH1 0x0 DUP2 MLOAD SWAP1 POP SWAP2 SWAP1 POP JUMP JUMPDEST PUSH1 0x0 DUP3 DUP3 MSTORE PUSH1 0x20 DUP3 ADD SWAP1 POP SWAP3 SWAP2 POP POP JUMP JUMPDEST PUSH1 0x0 JUMPDEST DUP4 DUP2 LT ISZERO PUSH3 0x634 JUMPI DUP1 DUP3 ADD MLOAD DUP2 DUP5 ADD MSTORE PUSH1 0x20 DUP2 ADD SWAP1 POP PUSH3 0x617 JUMP JUMPDEST DUP4 DUP2 GT ISZERO PUSH3 0x644 JUMPI PUSH1 0x0 DUP5 DUP5 ADD MSTORE JUMPDEST POP POP POP POP JUMP JUMPDEST PUSH1 0x0 PUSH3 0x657 DUP3 PUSH3 0x5F8 JUMP JUMPDEST PUSH3 0x663 DUP2 DUP6 PUSH3 0x603 JUMP JUMPDEST SWAP4 POP PUSH3 0x675 DUP2 DUP6 PUSH1 0x20 DUP7 ADD PUSH3 0x614 JUMP JUMPDEST PUSH3 0x680 DUP2 PUSH3 0x337 JUMP JUMPDEST DUP5 ADD SWAP2 POP POP SWAP3 SWAP2 POP POP JUMP JUMPDEST PUSH1 0x0 PUSH1 0x60 DUP3 ADD SWAP1 POP PUSH3 0x6A2 PUSH1 0x0 DUP4 ADD DUP7 PUSH3 0x5E7 JUMP JUMPDEST DUP2 DUP2 SUB PUSH1 0x20 DUP4 ADD MSTORE PUSH3 0x6B6 DUP2 DUP6 PUSH3 0x64A JUMP JUMPDEST SWAP1 POP PUSH3 0x6C7 PUSH1 0x40 DUP4 ADD DUP5 PUSH3 0x2FF JUMP JUMPDEST SWAP5 SWAP4 POP POP POP POP JUMP INVALID PUSH1 0x80 PUSH1 0x40 MSTORE CALLVALUE DUP1 ISZERO PUSH3 0x11 JUMPI PUSH1 0x0 DUP1 REVERT JUMPDEST POP PUSH1 0x40 MLOAD PUSH3 0x15EC CODESIZE SUB DUP1 PUSH3 0x15EC DUP4 CODECOPY DUP2 DUP2 ADD PUSH1 0x40 MSTORE DUP2 ADD SWAP1 PUSH3 0x37 SWAP2 SWAP1 PUSH3 0x38D JUMP JUMPDEST DUP3 PUSH1 0x2 DUP2 SWAP1 SSTORE POP DUP2 PUSH1 0x1 SWAP1 DUP1 MLOAD SWAP1 PUSH1 0x20 ADD SWAP1 PUSH3 0x56 SWAP3 SWAP2 SWAP1 PUSH3 0xA0 JUMP JUMPDEST POP DUP1 PUSH1 0x0 DUP1 PUSH2 0x100 EXP DUP2 SLOAD DUP2 PUSH20 0xFFFFFFFFFFFFFFFFFFFFFFFFFFFFFFFFFFFFFFFF MUL NOT AND SWAP1 DUP4 PUSH20 0xFFFFFFFFFFFFFFFFFFFFFFFFFFFFFFFFFFFFFFFF AND MUL OR SWAP1 SSTORE POP POP POP POP PUSH3 0x46C JUMP JUMPDEST DUP3 DUP1 SLOAD PUSH3 0xAE SWAP1 PUSH3 0x437 JUMP JUMPDEST SWAP1 PUSH1 0x0 MSTORE PUSH1 0x20 PUSH1 0x0 KECCAK256 SWAP1 PUSH1 0x1F ADD PUSH1 0x20 SWAP1 DIV DUP2 ADD SWAP3 DUP3 PUSH3 0xD2 JUMPI PUSH1 0x0 DUP6 SSTORE PUSH3 0x11E JUMP JUMPDEST DUP3 PUSH1 0x1F LT PUSH3 0xED JUMPI DUP1 MLOAD PUSH1 0xFF NOT AND DUP4 DUP1 ADD OR DUP6 SSTORE PUSH3 0x11E JUMP JUMPDEST DUP3 DUP1 ADD PUSH1 0x1 ADD DUP6 SSTORE DUP3 ISZERO PUSH3 0x11E JUMPI SWAP2 DUP3 ADD JUMPDEST DUP3 DUP2 GT ISZERO PUSH3 0x11D JUMPI DUP3 MLOAD DUP3 SSTORE SWAP2 PUSH1 0x20 ADD SWAP2 SWAP1 PUSH1 0x1 ADD SWAP1 PUSH3 0x100 JUMP JUMPDEST JUMPDEST POP SWAP1 POP PUSH3 0x12D SWAP2 SWAP1 PUSH3 0x131 JUMP JUMPDEST POP SWAP1 JUMP JUMPDEST JUMPDEST DUP1 DUP3 GT ISZERO PUSH3 0x14C JUMPI PUSH1 0x0 DUP2 PUSH1 0x0 SWAP1 SSTORE POP PUSH1 0x1 ADD PUSH3 0x132 JUMP JUMPDEST POP SWAP1 JUMP JUMPDEST PUSH1 0x0 PUSH1 0x40 MLOAD SWAP1 POP SWAP1 JUMP JUMPDEST PUSH1 0x0 DUP1 REVERT JUMPDEST PUSH1 0x0 DUP1 REVERT JUMPDEST PUSH1 0x0 DUP2 SWAP1 POP SWAP2 SWAP1 POP JUMP JUMPDEST PUSH3 0x179 DUP2 PUSH3 0x164 JUMP JUMPDEST DUP2 EQ PUSH3 0x185 JUMPI PUSH1 0x0 DUP1 REVERT JUMPDEST POP JUMP JUMPDEST PUSH1 0x0 DUP2 MLOAD SWAP1 POP PUSH3 0x199 DUP2 PUSH3 0x16E JUMP JUMPDEST SWAP3 SWAP2 POP POP JUMP JUMPDEST PUSH1 0x0 DUP1 REVERT JUMPDEST PUSH1 0x0 DUP1 REVERT JUMPDEST PUSH1 0x0 PUSH1 0x1F NOT PUSH1 0x1F DUP4 ADD AND SWAP1 POP SWAP2 SWAP1 POP JUMP JUMPDEST PUSH32 0x4E487B7100000000000000000000000000000000000000000000000000000000 PUSH1 0x0 MSTORE PUSH1 0x41 PUSH1 0x4 MSTORE PUSH1 0x24 PUSH1 0x0 REVERT JUMPDEST PUSH3 0x1F4 DUP3 PUSH3 0x1A9 JUMP JUMPDEST DUP2 ADD DUP2 DUP2 LT PUSH8 0xFFFFFFFFFFFFFFFF DUP3 GT OR ISZERO PUSH3 0x216 JUMPI PUSH3 0x215 PUSH3 0x1BA JUMP JUMPDEST JUMPDEST DUP1 PUSH1 0x40 MSTORE POP POP POP JUMP JUMPDEST PUSH1 0x0 PUSH3 0x22B PUSH3 0x150 JUMP JUMPDEST SWAP1 POP PUSH3 0x239 DUP3 DUP3 PUSH3 0x1E9 JUMP JUMPDEST SWAP2 SWAP1 POP JUMP JUMPDEST PUSH1 0x0 PUSH8 0xFFFFFFFFFFFFFFFF DUP3 GT ISZERO PUSH3 0x25C JUMPI PUSH3 0x25B PUSH3 0x1BA JUMP JUMPDEST JUMPDEST PUSH3 0x267 DUP3 PUSH3 0x1A9 JUMP JUMPDEST SWAP1 POP PUSH1 0x20 DUP2 ADD SWAP1 POP SWAP2 SWAP1 POP JUMP JUMPDEST PUSH1 0x0 JUMPDEST DUP4 DUP2 LT ISZERO PUSH3 0x294 JUMPI DUP1 DUP3 ADD MLOAD DUP2 DUP5 ADD MSTORE PUSH1 0x20 DUP2 ADD SWAP1 POP PUSH3 0x277 JUMP JUMPDEST DUP4 DUP2 GT ISZERO PUSH3 0x2A4 JUMPI PUSH1 0x0 DUP5 DUP5 ADD MSTORE JUMPDEST POP POP POP POP JUMP JUMPDEST PUSH1 0x0 PUSH3 0x2C1 PUSH3 0x2BB DUP5 PUSH3 0x23E JUMP JUMPDEST PUSH3 0x21F JUMP JUMPDEST SWAP1 POP DUP3 DUP2 MSTORE PUSH1 0x20 DUP2 ADD DUP5 DUP5 DUP5 ADD GT ISZERO PUSH3 0x2E0 JUMPI PUSH3 0x2DF PUSH3 0x1A4 JUMP JUMPDEST JUMPDEST PUSH3 0x2ED DUP5 DUP3 DUP6 PUSH3 0x274 JUMP JUMPDEST POP SWAP4 SWAP3 POP POP POP JUMP JUMPDEST PUSH1 0x0 DUP3 PUSH1 0x1F DUP4 ADD SLT PUSH3 0x30D JUMPI PUSH3 0x30C PUSH3 0x19F JUMP JUMPDEST JUMPDEST DUP2 MLOAD PUSH3 0x31F DUP5 DUP3 PUSH1 0x20 DUP7 ADD PUSH3 0x2AA JUMP JUMPDEST SWAP2 POP POP SWAP3 SWAP2 POP POP JUMP JUMPDEST PUSH1 0x0 PUSH20 0xFFFFFFFFFFFFFFFFFFFFFFFFFFFFFFFFFFFFFFFF DUP3 AND SWAP1 POP SWAP2 SWAP1 POP JUMP JUMPDEST PUSH1 0x0 PUSH3 0x355 DUP3 PUSH3 0x328 JUMP JUMPDEST SWAP1 POP SWAP2 SWAP1 POP JUMP JUMPDEST PUSH3 0x367 DUP2 PUSH3 0x348 JUMP JUMPDEST DUP2 EQ PUSH3 0x373 JUMPI PUSH1 0x0 DUP1 REVERT JUMPDEST POP JUMP JUMPDEST PUSH1 0x0 DUP2 MLOAD SWAP1 POP PUSH3 0x387 DUP2 PUSH3 0x35C JUMP JUMPDEST SWAP3 SWAP2 POP POP JUMP JUMPDEST PUSH1 0x0 DUP1 PUSH1 0x0 PUSH1 0x60 DUP5 DUP7 SUB SLT ISZERO PUSH3 0x3A9 JUMPI PUSH3 0x3A8 PUSH3 0x15A JUMP JUMPDEST JUMPDEST PUSH1 0x0 PUSH3 0x3B9 DUP7 DUP3 DUP8 ADD PUSH3 0x188 JUMP JUMPDEST SWAP4 POP POP PUSH1 0x20 DUP5 ADD MLOAD PUSH8 0xFFFFFFFFFFFFFFFF DUP2 GT ISZERO PUSH3 0x3DD JUMPI PUSH3 0x3DC PUSH3 0x15F JUMP JUMPDEST JUMPDEST PUSH3 0x3EB DUP7 DUP3 DUP8 ADD PUSH3 0x2F5 JUMP JUMPDEST SWAP3 POP POP PUSH1 0x40 PUSH3 0x3FE DUP7 DUP3 DUP8 ADD PUSH3 0x376 JUMP JUMPDEST SWAP2 POP POP SWAP3 POP SWAP3 POP SWAP3 JUMP JUMPDEST PUSH32 0x4E487B7100000000000000000000000000000000000000000000000000000000 PUSH1 0x0 MSTORE PUSH1 0x22 PUSH1 0x4 MSTORE PUSH1 0x24 PUSH1 0x0 REVERT JUMPDEST PUSH1 0x0 PUSH1 0x2 DUP3 DIV SWAP1 POP PUSH1 0x1 DUP3 AND DUP1 PUSH3 0x450 JUMPI PUSH1 0x7F DUP3 AND SWAP2 POP JUMPDEST PUSH1 0x20 DUP3 LT DUP2 SUB PUSH3 0x466 JUMPI PUSH3 0x465 PUSH3 0x408 JUMP JUMPDEST JUMPDEST POP SWAP2 SWAP1 POP JUMP JUMPDEST PUSH2 0x1170 DUP1 PUSH3 0x47C PUSH1 0x0 CODECOPY PUSH1 0x0 RETURN INVALID PUSH1 0x80 PUSH1 0x40 MSTORE PUSH1 0x4 CALLDATASIZE LT PUSH2 0xA7 JUMPI PUSH1 0x0 CALLDATALOAD PUSH1 0xE0 SHR DUP1 PUSH4 0x7569B3D7 GT PUSH2 0x64 JUMPI DUP1 PUSH4 0x7569B3D7 EQ PUSH2 0x1BC JUMPI DUP1 PUSH4 0x81D12C58 EQ PUSH2 0x1E7 JUMPI DUP1 PUSH4 0x937E09B1 EQ PUSH2 0x229 JUMPI DUP1 PUSH4 0xA00C96D7 EQ PUSH2 0x254 JUMPI DUP1 PUSH4 0xD7BB99BA EQ PUSH2 0x284 JUMPI DUP1 PUSH4 0xD7D1BBDB EQ PUSH2 0x28E JUMPI PUSH2 0xA7 JUMP JUMPDEST DUP1 PUSH4 0x3441006 EQ PUSH2 0xAC JUMPI DUP1 PUSH4 0x724FDA9 EQ PUSH2 0xD5 JUMPI DUP1 PUSH4 0x1F6D4942 EQ PUSH2 0x100 JUMPI DUP1 PUSH4 0x26883EFA EQ PUSH2 0x13D JUMPI DUP1 PUSH4 0x3410452A EQ PUSH2 0x166 JUMPI DUP1 PUSH4 0x481C6A75 EQ PUSH2 0x191 JUMPI JUMPDEST PUSH1 0x0 DUP1 REVERT JUMPDEST CALLVALUE DUP1 ISZERO PUSH2 0xB8 JUMPI PUSH1 0x0 DUP1 REVERT JUMPDEST POP PUSH2 0xD3 PUSH1 0x4 DUP1 CALLDATASIZE SUB DUP2 ADD SWAP1 PUSH2 0xCE SWAP2 SWAP1 PUSH2 0xAA8 JUMP JUMPDEST PUSH2 0x2B7 JUMP JUMPDEST STOP JUMPDEST CALLVALUE DUP1 ISZERO PUSH2 0xE1 JUMPI PUSH1 0x0 DUP1 REVERT JUMPDEST POP PUSH2 0xEA PUSH2 0x40F JUMP JUMPDEST PUSH1 0x40 MLOAD PUSH2 0xF7 SWAP2 SWAP1 PUSH2 0xB6E JUMP JUMPDEST PUSH1 0x40 MLOAD DUP1 SWAP2 SUB SWAP1 RETURN JUMPDEST CALLVALUE DUP1 ISZERO PUSH2 0x10C JUMPI PUSH1 0x0 DUP1 REVERT JUMPDEST POP PUSH2 0x127 PUSH1 0x4 DUP1 CALLDATASIZE SUB DUP2 ADD SWAP1 PUSH2 0x122 SWAP2 SWAP1 PUSH2 0xBEE JUMP JUMPDEST PUSH2 0x49D JUMP JUMPDEST PUSH1 0x40 MLOAD PUSH2 0x134 SWAP2 SWAP1 PUSH2 0xC36 JUMP JUMPDEST PUSH1 0x40 MLOAD DUP1 SWAP2 SUB SWAP1 RETURN JUMPDEST CALLVALUE DUP1 ISZERO PUSH2 0x149 JUMPI PUSH1 0x0 DUP1 REVERT JUMPDEST POP PUSH2 0x164 PUSH1 0x4 DUP1 CALLDATASIZE SUB DUP2 ADD SWAP1 PUSH2 0x15F SWAP2 SWAP1 PUSH2 0xDC4 JUMP JUMPDEST PUSH2 0x4BD JUMP JUMPDEST STOP JUMPDEST CALLVALUE DUP1 ISZERO PUSH2 0x172 JUMPI PUSH1 0x0 DUP1 REVERT JUMPDEST POP PUSH2 0x17B PUSH2 0x5D5 JUMP JUMPDEST PUSH1 0x40 MLOAD PUSH2 0x188 SWAP2 SWAP1 PUSH2 0xE56 JUMP JUMPDEST PUSH1 0x40 MLOAD DUP1 SWAP2 SUB SWAP1 RETURN JUMPDEST CALLVALUE DUP1 ISZERO PUSH2 0x19D JUMPI PUSH1 0x0 DUP1 REVERT JUMPDEST POP PUSH2 0x1A6 PUSH2 0x5E2 JUMP JUMPDEST PUSH1 0x40 MLOAD PUSH2 0x1B3 SWAP2 SWAP1 PUSH2 0xE80 JUMP JUMPDEST PUSH1 0x40 MLOAD DUP1 SWAP2 SUB SWAP1 RETURN JUMPDEST CALLVALUE DUP1 ISZERO PUSH2 0x1C8 JUMPI PUSH1 0x0 DUP1 REVERT JUMPDEST POP PUSH2 0x1D1 PUSH2 0x606 JUMP JUMPDEST PUSH1 0x40 MLOAD PUSH2 0x1DE SWAP2 SWAP1 PUSH2 0xE56 JUMP JUMPDEST PUSH1 0x40 MLOAD DUP1 SWAP2 SUB SWAP1 RETURN JUMPDEST CALLVALUE DUP1 ISZERO PUSH2 0x1F3 JUMPI PUSH1 0x0 DUP1 REVERT JUMPDEST POP PUSH2 0x20E PUSH1 0x4 DUP1 CALLDATASIZE SUB DUP2 ADD SWAP1 PUSH2 0x209 SWAP2 SWAP1 PUSH2 0xAA8 JUMP JUMPDEST PUSH2 0x60C JUMP JUMPDEST PUSH1 0x40 MLOAD PUSH2 0x220 SWAP7 SWAP6 SWAP5 SWAP4 SWAP3 SWAP2 SWAP1 PUSH2 0xEAA JUMP JUMPDEST PUSH1 0x40 MLOAD DUP1 SWAP2 SUB SWAP1 RETURN JUMPDEST CALLVALUE DUP1 ISZERO PUSH2 0x235 JUMPI PUSH1 0x0 DUP1 REVERT JUMPDEST POP PUSH2 0x23E PUSH2 0x70D JUMP JUMPDEST PUSH1 0x40 MLOAD PUSH2 0x24B SWAP2 SWAP1 PUSH2 0xE56 JUMP JUMPDEST PUSH1 0x40 MLOAD DUP1 SWAP2 SUB SWAP1 RETURN JUMPDEST CALLVALUE DUP1 ISZERO PUSH2 0x260 JUMPI PUSH1 0x0 DUP1 REVERT JUMPDEST POP PUSH2 0x269 PUSH2 0x713 JUMP JUMPDEST PUSH1 0x40 MLOAD PUSH2 0x27B SWAP7 SWAP6 SWAP5 SWAP4 SWAP3 SWAP2 SWAP1 PUSH2 0xF12 JUMP JUMPDEST PUSH1 0x40 MLOAD DUP1 SWAP2 SUB SWAP1 RETURN JUMPDEST PUSH2 0x28C PUSH2 0x7ED JUMP JUMPDEST STOP JUMPDEST CALLVALUE DUP1 ISZERO PUSH2 0x29A JUMPI PUSH1 0x0 DUP1 REVERT JUMPDEST POP PUSH2 0x2B5 PUSH1 0x4 DUP1 CALLDATASIZE SUB DUP2 ADD SWAP1 PUSH2 0x2B0 SWAP2 SWAP1 PUSH2 0xAA8 JUMP JUMPDEST PUSH2 0x86E JUMP JUMPDEST STOP JUMPDEST PUSH1 0x0 DUP1 SLOAD SWAP1 PUSH2 0x100 EXP SWAP1 DIV PUSH20 0xFFFFFFFFFFFFFFFFFFFFFFFFFFFFFFFFFFFFFFFF AND PUSH20 0xFFFFFFFFFFFFFFFFFFFFFFFFFFFFFFFFFFFFFFFF AND CALLER PUSH20 0xFFFFFFFFFFFFFFFFFFFFFFFFFFFFFFFFFFFFFFFF AND EQ PUSH2 0x30F JUMPI PUSH1 0x0 DUP1 REVERT JUMPDEST PUSH1 0x0 PUSH1 0x3 DUP3 DUP2 SLOAD DUP2 LT PUSH2 0x325 JUMPI PUSH2 0x324 PUSH2 0xF7A JUMP JUMPDEST JUMPDEST SWAP1 PUSH1 0x0 MSTORE PUSH1 0x20 PUSH1 0x0 KECCAK256 SWAP1 PUSH1 0x7 MUL ADD SWAP1 POP DUP1 PUSH1 0x3 ADD SLOAD PUSH1 0x5 SLOAD PUSH1 0x64 DUP4 PUSH1 0x5 ADD SLOAD PUSH2 0x34E SWAP2 SWAP1 PUSH2 0xFD8 JUMP JUMPDEST PUSH2 0x358 SWAP2 SWAP1 PUSH2 0x1061 JUMP JUMPDEST LT ISZERO PUSH2 0x363 JUMPI PUSH1 0x0 DUP1 REVERT JUMPDEST DUP1 PUSH1 0x4 ADD PUSH1 0x0 SWAP1 SLOAD SWAP1 PUSH2 0x100 EXP SWAP1 DIV PUSH1 0xFF AND ISZERO PUSH2 0x37F JUMPI PUSH1 0x0 DUP1 REVERT JUMPDEST DUP1 PUSH1 0x2 ADD PUSH1 0x0 SWAP1 SLOAD SWAP1 PUSH2 0x100 EXP SWAP1 DIV PUSH20 0xFFFFFFFFFFFFFFFFFFFFFFFFFFFFFFFFFFFFFFFF AND PUSH20 0xFFFFFFFFFFFFFFFFFFFFFFFFFFFFFFFFFFFFFFFF AND PUSH2 0x8FC DUP3 PUSH1 0x1 ADD SLOAD SWAP1 DUP2 ISZERO MUL SWAP1 PUSH1 0x40 MLOAD PUSH1 0x0 PUSH1 0x40 MLOAD DUP1 DUP4 SUB DUP2 DUP6 DUP9 DUP9 CALL SWAP4 POP POP POP POP ISZERO DUP1 ISZERO PUSH2 0x3ED JUMPI RETURNDATASIZE PUSH1 0x0 DUP1 RETURNDATACOPY RETURNDATASIZE PUSH1 0x0 REVERT JUMPDEST POP PUSH1 0x1 DUP2 PUSH1 0x4 ADD PUSH1 0x0 PUSH2 0x100 EXP DUP2 SLOAD DUP2 PUSH1 0xFF MUL NOT AND SWAP1 DUP4 ISZERO ISZERO MUL OR SWAP1 SSTORE POP POP POP JUMP JUMPDEST PUSH1 0x1 DUP1 SLOAD PUSH2 0x41C SWAP1 PUSH2 0x10C1 JUMP JUMPDEST DUP1 PUSH1 0x1F ADD PUSH1 0x20 DUP1 SWAP2 DIV MUL PUSH1 0x20 ADD PUSH1 0x40 MLOAD SWAP1 DUP2 ADD PUSH1 0x40 MSTORE DUP1 SWAP3 SWAP2 SWAP1 DUP2 DUP2 MSTORE PUSH1 0x20 ADD DUP3 DUP1 SLOAD PUSH2 0x448 SWAP1 PUSH2 0x10C1 JUMP JUMPDEST DUP1 ISZERO PUSH2 0x495 JUMPI DUP1 PUSH1 0x1F LT PUSH2 0x46A JUMPI PUSH2 0x100 DUP1 DUP4 SLOAD DIV MUL DUP4 MSTORE SWAP2 PUSH1 0x20 ADD SWAP2 PUSH2 0x495 JUMP JUMPDEST DUP3 ADD SWAP2 SWAP1 PUSH1 0x0 MSTORE PUSH1 0x20 PUSH1 0x0 KECCAK256 SWAP1 JUMPDEST DUP2 SLOAD DUP2 MSTORE SWAP1 PUSH1 0x1 ADD SWAP1 PUSH1 0x20 ADD DUP1 DUP4 GT PUSH2 0x478 JUMPI DUP3 SWAP1 SUB PUSH1 0x1F AND DUP3 ADD SWAP2 JUMPDEST POP POP POP POP POP DUP2 JUMP JUMPDEST PUSH1 0x4 PUSH1 0x20 MSTORE DUP1 PUSH1 0x0 MSTORE PUSH1 0x40 PUSH1 0x0 KECCAK256 PUSH1 0x0 SWAP2 POP SLOAD SWAP1 PUSH2 0x100 EXP SWAP1 DIV PUSH1 0xFF AND DUP2 JUMP JUMPDEST PUSH1 0x0 DUP1 SLOAD SWAP1 PUSH2 0x100 EXP SWAP1 DIV PUSH20 0xFFFFFFFFFFFFFFFFFFFFFFFFFFFFFFFFFFFFFFFF AND PUSH20 0xFFFFFFFFFFFFFFFFFFFFFFFFFFFFFFFFFFFFFFFF AND CALLER PUSH20 0xFFFFFFFFFFFFFFFFFFFFFFFFFFFFFFFFFFFFFFFF AND EQ PUSH2 0x515 JUMPI PUSH1 0x0 DUP1 REVERT JUMPDEST PUSH1 0x0 PUSH1 0x3 PUSH1 0x1 DUP2 PUSH1 0x1 DUP2 SLOAD ADD DUP1 DUP3 SSTORE DUP1 SWAP2 POP POP SUB SWAP1 PUSH1 0x0 MSTORE PUSH1 0x20 PUSH1 0x0 KECCAK256 SWAP1 PUSH1 0x7 MUL ADD SWAP1 POP DUP5 DUP2 PUSH1 0x0 ADD SWAP1 DUP1 MLOAD SWAP1 PUSH1 0x20 ADD SWAP1 PUSH2 0x551 SWAP3 SWAP2 SWAP1 PUSH2 0x9BB JUMP JUMPDEST POP DUP4 DUP2 PUSH1 0x1 ADD DUP2 SWAP1 SSTORE POP DUP3 DUP2 PUSH1 0x2 ADD PUSH1 0x0 PUSH2 0x100 EXP DUP2 SLOAD DUP2 PUSH20 0xFFFFFFFFFFFFFFFFFFFFFFFFFFFFFFFFFFFFFFFF MUL NOT AND SWAP1 DUP4 PUSH20 0xFFFFFFFFFFFFFFFFFFFFFFFFFFFFFFFFFFFFFFFF AND MUL OR SWAP1 SSTORE POP DUP2 DUP2 PUSH1 0x3 ADD DUP2 SWAP1 SSTORE POP PUSH1 0x0 DUP2 PUSH1 0x4 ADD PUSH1 0x0 PUSH2 0x100 EXP DUP2 SLOAD DUP2 PUSH1 0xFF MUL NOT AND SWAP1 DUP4 ISZERO ISZERO MUL OR SWAP1 SSTORE POP PUSH1 0x0 DUP2 PUSH1 0x5 ADD DUP2 SWAP1 SSTORE POP POP POP POP POP POP JUMP JUMPDEST PUSH1 0x0 PUSH1 0x3 DUP1 SLOAD SWAP1 POP SWAP1 POP SWAP1 JUMP JUMPDEST PUSH1 0x0 DUP1 SLOAD SWAP1 PUSH2 0x100 EXP SWAP1 DIV PUSH20 0xFFFFFFFFFFFFFFFFFFFFFFFFFFFFFFFFFFFFFFFF AND DUP2 JUMP JUMPDEST PUSH1 0x5 SLOAD DUP2 JUMP JUMPDEST PUSH1 0x3 DUP2 DUP2 SLOAD DUP2 LT PUSH2 0x61C JUMPI PUSH1 0x0 DUP1 REVERT JUMPDEST SWAP1 PUSH1 0x0 MSTORE PUSH1 0x20 PUSH1 0x0 KECCAK256 SWAP1 PUSH1 0x7 MUL ADD PUSH1 0x0 SWAP2 POP SWAP1 POP DUP1 PUSH1 0x0 ADD DUP1 SLOAD PUSH2 0x63F SWAP1 PUSH2 0x10C1 JUMP JUMPDEST DUP1 PUSH1 0x1F ADD PUSH1 0x20 DUP1 SWAP2 DIV MUL PUSH1 0x20 ADD PUSH1 0x40 MLOAD SWAP1 DUP2 ADD PUSH1 0x40 MSTORE DUP1 SWAP3 SWAP2 SWAP1 DUP2 DUP2 MSTORE PUSH1 0x20 ADD DUP3 DUP1 SLOAD PUSH2 0x66B SWAP1 PUSH2 0x10C1 JUMP JUMPDEST DUP1 ISZERO PUSH2 0x6B8 JUMPI DUP1 PUSH1 0x1F LT PUSH2 0x68D JUMPI PUSH2 0x100 DUP1 DUP4 SLOAD DIV MUL DUP4 MSTORE SWAP2 PUSH1 0x20 ADD SWAP2 PUSH2 0x6B8 JUMP JUMPDEST DUP3 ADD SWAP2 SWAP1 PUSH1 0x0 MSTORE PUSH1 0x20 PUSH1 0x0 KECCAK256 SWAP1 JUMPDEST DUP2 SLOAD DUP2 MSTORE SWAP1 PUSH1 0x1 ADD SWAP1 PUSH1 0x20 ADD DUP1 DUP4 GT PUSH2 0x69B JUMPI DUP3 SWAP1 SUB PUSH1 0x1F AND DUP3 ADD SWAP2 JUMPDEST POP POP POP POP POP SWAP1 DUP1 PUSH1 0x1 ADD SLOAD SWAP1 DUP1 PUSH1 0x2 ADD PUSH1 0x0 SWAP1 SLOAD SWAP1 PUSH2 0x100 EXP SWAP1 DIV PUSH20 0xFFFFFFFFFFFFFFFFFFFFFFFFFFFFFFFFFFFFFFFF AND SWAP1 DUP1 PUSH1 0x3 ADD SLOAD SWAP1 DUP1 PUSH1 0x4 ADD PUSH1 0x0 SWAP1 SLOAD SWAP1 PUSH2 0x100 EXP SWAP1 DIV PUSH1 0xFF AND SWAP1 DUP1 PUSH1 0x5 ADD SLOAD SWAP1 POP DUP7 JUMP JUMPDEST PUSH1 0x2 SLOAD DUP2 JUMP JUMPDEST PUSH1 0x60 PUSH1 0x0 DUP1 PUSH1 0x0 DUP1 PUSH1 0x0 PUSH1 0x1 SELFBALANCE PUSH1 0x2 SLOAD PUSH1 0x3 DUP1 SLOAD SWAP1 POP PUSH1 0x5 SLOAD PUSH1 0x0 DUP1 SLOAD SWAP1 PUSH2 0x100 EXP SWAP1 DIV PUSH20 0xFFFFFFFFFFFFFFFFFFFFFFFFFFFFFFFFFFFFFFFF AND DUP6 DUP1 SLOAD PUSH2 0x759 SWAP1 PUSH2 0x10C1 JUMP JUMPDEST DUP1 PUSH1 0x1F ADD PUSH1 0x20 DUP1 SWAP2 DIV MUL PUSH1 0x20 ADD PUSH1 0x40 MLOAD SWAP1 DUP2 ADD PUSH1 0x40 MSTORE DUP1 SWAP3 SWAP2 SWAP1 DUP2 DUP2 MSTORE PUSH1 0x20 ADD DUP3 DUP1 SLOAD PUSH2 0x785 SWAP1 PUSH2 0x10C1 JUMP JUMPDEST DUP1 ISZERO PUSH2 0x7D2 JUMPI DUP1 PUSH1 0x1F LT PUSH2 0x7A7 JUMPI PUSH2 0x100 DUP1 DUP4 SLOAD DIV MUL DUP4 MSTORE SWAP2 PUSH1 0x20 ADD SWAP2 PUSH2 0x7D2 JUMP JUMPDEST DUP3 ADD SWAP2 SWAP1 PUSH1 0x0 MSTORE PUSH1 0x20 PUSH1 0x0 KECCAK256 SWAP1 JUMPDEST DUP2 SLOAD DUP2 MSTORE SWAP1 PUSH1 0x1 ADD SWAP1 PUSH1 0x20 ADD DUP1 DUP4 GT PUSH2 0x7B5 JUMPI DUP3 SWAP1 SUB PUSH1 0x1F AND DUP3 ADD SWAP2 JUMPDEST POP POP POP POP POP SWAP6 POP SWAP6 POP SWAP6 POP SWAP6 POP SWAP6 POP SWAP6 POP SWAP6 POP SWAP1 SWAP2 SWAP3 SWAP4 SWAP5 SWAP6 JUMP JUMPDEST PUSH1 0x2 SLOAD CALLVALUE LT ISZERO PUSH2 0x7FC JUMPI PUSH1 0x0 DUP1 REVERT JUMPDEST PUSH1 0x1 PUSH1 0x4 PUSH1 0x0 CALLER PUSH20 0xFFFFFFFFFFFFFFFFFFFFFFFFFFFFFFFFFFFFFFFF AND PUSH20 0xFFFFFFFFFFFFFFFFFFFFFFFFFFFFFFFFFFFFFFFF AND DUP2 MSTORE PUSH1 0x20 ADD SWAP1 DUP2 MSTORE PUSH1 0x20 ADD PUSH1 0x0 KECCAK256 PUSH1 0x0 PUSH2 0x100 EXP DUP2 SLOAD DUP2 PUSH1 0xFF MUL NOT AND SWAP1 DUP4 ISZERO ISZERO MUL OR SWAP1 SSTORE POP PUSH1 0x5 PUSH1 0x0 DUP2 SLOAD DUP1 SWAP3 SWAP2 SWAP1 PUSH2 0x867 SWAP1 PUSH2 0x10F2 JUMP JUMPDEST SWAP2 SWAP1 POP SSTORE POP JUMP JUMPDEST PUSH1 0x0 PUSH1 0x3 DUP3 DUP2 SLOAD DUP2 LT PUSH2 0x884 JUMPI PUSH2 0x883 PUSH2 0xF7A JUMP JUMPDEST JUMPDEST SWAP1 PUSH1 0x0 MSTORE PUSH1 0x20 PUSH1 0x0 KECCAK256 SWAP1 PUSH1 0x7 MUL ADD SWAP1 POP PUSH1 0x4 PUSH1 0x0 CALLER PUSH20 0xFFFFFFFFFFFFFFFFFFFFFFFFFFFFFFFFFFFFFFFF AND PUSH20 0xFFFFFFFFFFFFFFFFFFFFFFFFFFFFFFFFFFFFFFFF AND DUP2 MSTORE PUSH1 0x20 ADD SWAP1 DUP2 MSTORE PUSH1 0x20 ADD PUSH1 0x0 KECCAK256 PUSH1 0x0 SWAP1 SLOAD SWAP1 PUSH2 0x100 EXP SWAP1 DIV PUSH1 0xFF AND PUSH2 0x8EA JUMPI PUSH1 0x0 DUP1 REVERT JUMPDEST DUP1 PUSH1 0x6 ADD PUSH1 0x0 CALLER PUSH20 0xFFFFFFFFFFFFFFFFFFFFFFFFFFFFFFFFFFFFFFFF AND PUSH20 0xFFFFFFFFFFFFFFFFFFFFFFFFFFFFFFFFFFFFFFFF AND DUP2 MSTORE PUSH1 0x20 ADD SWAP1 DUP2 MSTORE PUSH1 0x20 ADD PUSH1 0x0 KECCAK256 PUSH1 0x0 SWAP1 SLOAD SWAP1 PUSH2 0x100 EXP SWAP1 DIV PUSH1 0xFF AND ISZERO PUSH2 0x943 JUMPI PUSH1 0x0 DUP1 REVERT JUMPDEST PUSH1 0x1 DUP2 PUSH1 0x6 ADD PUSH1 0x0 CALLER PUSH20 0xFFFFFFFFFFFFFFFFFFFFFFFFFFFFFFFFFFFFFFFF AND PUSH20 0xFFFFFFFFFFFFFFFFFFFFFFFFFFFFFFFFFFFFFFFF AND DUP2 MSTORE PUSH1 0x20 ADD SWAP1 DUP2 MSTORE PUSH1 0x20 ADD PUSH1 0x0 KECCAK256 PUSH1 0x0 PUSH2 0x100 EXP DUP2 SLOAD DUP2 PUSH1 0xFF MUL NOT AND SWAP1 DUP4 ISZERO ISZERO MUL OR SWAP1 SSTORE POP DUP1 PUSH1 0x5 ADD PUSH1 0x0 DUP2 SLOAD DUP1 SWAP3 SWAP2 SWAP1 PUSH2 0x9B2 SWAP1 PUSH2 0x10F2 JUMP JUMPDEST SWAP2 SWAP1 POP SSTORE POP POP POP JUMP JUMPDEST DUP3 DUP1 SLOAD PUSH2 0x9C7 SWAP1 PUSH2 0x10C1 JUMP JUMPDEST SWAP1 PUSH1 0x0 MSTORE PUSH1 0x20 PUSH1 0x0 KECCAK256 SWAP1 PUSH1 0x1F ADD PUSH1 0x20 SWAP1 DIV DUP2 ADD SWAP3 DUP3 PUSH2 0x9E9 JUMPI PUSH1 0x0 DUP6 SSTORE PUSH2 0xA30 JUMP JUMPDEST DUP3 PUSH1 0x1F LT PUSH2 0xA02 JUMPI DUP1 MLOAD PUSH1 0xFF NOT AND DUP4 DUP1 ADD OR DUP6 SSTORE PUSH2 0xA30 JUMP JUMPDEST DUP3 DUP1 ADD PUSH1 0x1 ADD DUP6 SSTORE DUP3 ISZERO PUSH2 0xA30 JUMPI SWAP2 DUP3 ADD JUMPDEST DUP3 DUP2 GT ISZERO PUSH2 0xA2F JUMPI DUP3 MLOAD DUP3 SSTORE SWAP2 PUSH1 0x20 ADD SWAP2 SWAP1 PUSH1 0x1 ADD SWAP1 PUSH2 0xA14 JUMP JUMPDEST JUMPDEST POP SWAP1 POP PUSH2 0xA3D SWAP2 SWAP1 PUSH2 0xA41 JUMP JUMPDEST POP SWAP1 JUMP JUMPDEST JUMPDEST DUP1 DUP3 GT ISZERO PUSH2 0xA5A JUMPI PUSH1 0x0 DUP2 PUSH1 0x0 SWAP1 SSTORE POP PUSH1 0x1 ADD PUSH2 0xA42 JUMP JUMPDEST POP SWAP1 JUMP JUMPDEST PUSH1 0x0 PUSH1 0x40 MLOAD SWAP1 POP SWAP1 JUMP JUMPDEST PUSH1 0x0 DUP1 REVERT JUMPDEST PUSH1 0x0 DUP1 REVERT JUMPDEST PUSH1 0x0 DUP2 SWAP1 POP SWAP2 SWAP1 POP JUMP JUMPDEST PUSH2 0xA85 DUP2 PUSH2 0xA72 JUMP JUMPDEST DUP2 EQ PUSH2 0xA90 JUMPI PUSH1 0x0 DUP1 REVERT JUMPDEST POP JUMP JUMPDEST PUSH1 0x0 DUP2 CALLDATALOAD SWAP1 POP PUSH2 0xAA2 DUP2 PUSH2 0xA7C JUMP JUMPDEST SWAP3 SWAP2 POP POP JUMP JUMPDEST PUSH1 0x0 PUSH1 0x20 DUP3 DUP5 SUB SLT ISZERO PUSH2 0xABE JUMPI PUSH2 0xABD PUSH2 0xA68 JUMP JUMPDEST JUMPDEST PUSH1 0x0 PUSH2 0xACC DUP5 DUP3 DUP6 ADD PUSH2 0xA93 JUMP JUMPDEST SWAP2 POP POP SWAP3 SWAP2 POP POP JUMP JUMPDEST PUSH1 0x0 DUP2 MLOAD SWAP1 POP SWAP2 SWAP1 POP JUMP JUMPDEST PUSH1 0x0 DUP3 DUP3 MSTORE PUSH1 0x20 DUP3 ADD SWAP1 POP SWAP3 SWAP2 POP POP JUMP JUMPDEST PUSH1 0x0 JUMPDEST DUP4 DUP2 LT ISZERO PUSH2 0xB0F JUMPI DUP1 DUP3 ADD MLOAD DUP2 DUP5 ADD MSTORE PUSH1 0x20 DUP2 ADD SWAP1 POP PUSH2 0xAF4 JUMP JUMPDEST DUP4 DUP2 GT ISZERO PUSH2 0xB1E JUMPI PUSH1 0x0 DUP5 DUP5 ADD MSTORE JUMPDEST POP POP POP POP JUMP JUMPDEST PUSH1 0x0 PUSH1 0x1F NOT PUSH1 0x1F DUP4 ADD AND SWAP1 POP SWAP2 SWAP1 POP JUMP JUMPDEST PUSH1 0x0 PUSH2 0xB40 DUP3 PUSH2 0xAD5 JUMP JUMPDEST PUSH2 0xB4A DUP2 DUP6 PUSH2 0xAE0 JUMP JUMPDEST SWAP4 POP PUSH2 0xB5A DUP2 DUP6 PUSH1 0x20 DUP7 ADD PUSH2 0xAF1 JUMP JUMPDEST PUSH2 0xB63 DUP2 PUSH2 0xB24 JUMP JUMPDEST DUP5 ADD SWAP2 POP POP SWAP3 SWAP2 POP POP JUMP JUMPDEST PUSH1 0x0 PUSH1 0x20 DUP3 ADD SWAP1 POP DUP2 DUP2 SUB PUSH1 0x0 DUP4 ADD MSTORE PUSH2 0xB88 DUP2 DUP5 PUSH2 0xB35 JUMP JUMPDEST SWAP1 POP SWAP3 SWAP2 POP POP JUMP JUMPDEST PUSH1 0x0 PUSH20 0xFFFFFFFFFFFFFFFFFFFFFFFFFFFFFFFFFFFFFFFF DUP3 AND SWAP1 POP SWAP2 SWAP1 POP JUMP JUMPDEST PUSH1 0x0 PUSH2 0xBBB DUP3 PUSH2 0xB90 JUMP JUMPDEST SWAP1 POP SWAP2 SWAP1 POP JUMP JUMPDEST PUSH2 0xBCB DUP2 PUSH2 0xBB0 JUMP JUMPDEST DUP2 EQ PUSH2 0xBD6 JUMPI PUSH1 0x0 DUP1 REVERT JUMPDEST POP JUMP JUMPDEST PUSH1 0x0 DUP2 CALLDATALOAD SWAP1 POP PUSH2 0xBE8 DUP2 PUSH2 0xBC2 JUMP JUMPDEST SWAP3 SWAP2 POP POP JUMP JUMPDEST PUSH1 0x0 PUSH1 0x20 DUP3 DUP5 SUB SLT ISZERO PUSH2 0xC04 JUMPI PUSH2 0xC03 PUSH2 0xA68 JUMP JUMPDEST JUMPDEST PUSH1 0x0 PUSH2 0xC12 DUP5 DUP3 DUP6 ADD PUSH2 0xBD9 JUMP JUMPDEST SWAP2 POP POP SWAP3 SWAP2 POP POP JUMP JUMPDEST PUSH1 0x0 DUP2 ISZERO ISZERO SWAP1 POP SWAP2 SWAP1 POP JUMP JUMPDEST PUSH2 0xC30 DUP2 PUSH2 0xC1B JUMP JUMPDEST DUP3 MSTORE POP POP JUMP JUMPDEST PUSH1 0x0 PUSH1 0x20 DUP3 ADD SWAP1 POP PUSH2 0xC4B PUSH1 0x0 DUP4 ADD DUP5 PUSH2 0xC27 JUMP JUMPDEST SWAP3 SWAP2 POP POP JUMP JUMPDEST PUSH1 0x0 DUP1 REVERT JUMPDEST PUSH1 0x0 DUP1 REVERT JUMPDEST PUSH32 0x4E487B7100000000000000000000000000000000000000000000000000000000 PUSH1 0x0 MSTORE PUSH1 0x41 PUSH1 0x4 MSTORE PUSH1 0x24 PUSH1 0x0 REVERT JUMPDEST PUSH2 0xC93 DUP3 PUSH2 0xB24 JUMP JUMPDEST DUP2 ADD DUP2 DUP2 LT PUSH8 0xFFFFFFFFFFFFFFFF DUP3 GT OR ISZERO PUSH2 0xCB2 JUMPI PUSH2 0xCB1 PUSH2 0xC5B JUMP JUMPDEST JUMPDEST DUP1 PUSH1 0x40 MSTORE POP POP POP JUMP JUMPDEST PUSH1 0x0 PUSH2 0xCC5 PUSH2 0xA5E JUMP JUMPDEST SWAP1 POP PUSH2 0xCD1 DUP3 DUP3 PUSH2 0xC8A JUMP JUMPDEST SWAP2 SWAP1 POP JUMP JUMPDEST PUSH1 0x0 PUSH8 0xFFFFFFFFFFFFFFFF DUP3 GT ISZERO PUSH2 0xCF1 JUMPI PUSH2 0xCF0 PUSH2 0xC5B JUMP JUMPDEST JUMPDEST PUSH2 0xCFA DUP3 PUSH2 0xB24 JUMP JUMPDEST SWAP1 POP PUSH1 0x20 DUP2 ADD SWAP1 POP SWAP2 SWAP1 POP JUMP JUMPDEST DUP3 DUP2 DUP4 CALLDATACOPY PUSH1 0x0 DUP4 DUP4 ADD MSTORE POP POP POP JUMP JUMPDEST PUSH1 0x0 PUSH2 0xD29 PUSH2 0xD24 DUP5 PUSH2 0xCD6 JUMP JUMPDEST PUSH2 0xCBB JUMP JUMPDEST SWAP1 POP DUP3 DUP2 MSTORE PUSH1 0x20 DUP2 ADD DUP5 DUP5 DUP5 ADD GT ISZERO PUSH2 0xD45 JUMPI PUSH2 0xD44 PUSH2 0xC56 JUMP JUMPDEST JUMPDEST PUSH2 0xD50 DUP5 DUP3 DUP6 PUSH2 0xD07 JUMP JUMPDEST POP SWAP4 SWAP3 POP POP POP JUMP JUMPDEST PUSH1 0x0 DUP3 PUSH1 0x1F DUP4 ADD SLT PUSH2 0xD6D JUMPI PUSH2 0xD6C PUSH2 0xC51 JUMP JUMPDEST JUMPDEST DUP2 CALLDATALOAD PUSH2 0xD7D DUP5 DUP3 PUSH1 0x20 DUP7 ADD PUSH2 0xD16 JUMP JUMPDEST SWAP2 POP POP SWAP3 SWAP2 POP POP JUMP JUMPDEST PUSH1 0x0 PUSH2 0xD91 DUP3 PUSH2 0xB90 JUMP JUMPDEST SWAP1 POP SWAP2 SWAP1 POP JUMP JUMPDEST PUSH2 0xDA1 DUP2 PUSH2 0xD86 JUMP JUMPDEST DUP2 EQ PUSH2 0xDAC JUMPI PUSH1 0x0 DUP1 REVERT JUMPDEST POP JUMP JUMPDEST PUSH1 0x0 DUP2 CALLDATALOAD SWAP1 POP PUSH2 0xDBE DUP2 PUSH2 0xD98 JUMP JUMPDEST SWAP3 SWAP2 POP POP JUMP JUMPDEST PUSH1 0x0 DUP1 PUSH1 0x0 DUP1 PUSH1 0x80 DUP6 DUP8 SUB SLT ISZERO PUSH2 0xDDE JUMPI PUSH2 0xDDD PUSH2 0xA68 JUMP JUMPDEST JUMPDEST PUSH1 0x0 DUP6 ADD CALLDATALOAD PUSH8 0xFFFFFFFFFFFFFFFF DUP2 GT ISZERO PUSH2 0xDFC JUMPI PUSH2 0xDFB PUSH2 0xA6D JUMP JUMPDEST JUMPDEST PUSH2 0xE08 DUP8 DUP3 DUP9 ADD PUSH2 0xD58 JUMP JUMPDEST SWAP5 POP POP PUSH1 0x20 PUSH2 0xE19 DUP8 DUP3 DUP9 ADD PUSH2 0xA93 JUMP JUMPDEST SWAP4 POP POP PUSH1 0x40 PUSH2 0xE2A DUP8 DUP3 DUP9 ADD PUSH2 0xDAF JUMP JUMPDEST SWAP3 POP POP PUSH1 0x60 PUSH2 0xE3B DUP8 DUP3 DUP9 ADD PUSH2 0xA93 JUMP JUMPDEST SWAP2 POP POP SWAP3 SWAP6 SWAP2 SWAP5 POP SWAP3 POP JUMP JUMPDEST PUSH2 0xE50 DUP2 PUSH2 0xA72 JUMP JUMPDEST DUP3 MSTORE POP POP JUMP JUMPDEST PUSH1 0x0 PUSH1 0x20 DUP3 ADD SWAP1 POP PUSH2 0xE6B PUSH1 0x0 DUP4 ADD DUP5 PUSH2 0xE47 JUMP JUMPDEST SWAP3 SWAP2 POP POP JUMP JUMPDEST PUSH2 0xE7A DUP2 PUSH2 0xBB0 JUMP JUMPDEST DUP3 MSTORE POP POP JUMP JUMPDEST PUSH1 0x0 PUSH1 0x20 DUP3 ADD SWAP1 POP PUSH2 0xE95 PUSH1 0x0 DUP4 ADD DUP5 PUSH2 0xE71 JUMP JUMPDEST SWAP3 SWAP2 POP POP JUMP JUMPDEST PUSH2 0xEA4 DUP2 PUSH2 0xD86 JUMP JUMPDEST DUP3 MSTORE POP POP JUMP JUMPDEST PUSH1 0x0 PUSH1 0xC0 DUP3 ADD SWAP1 POP DUP2 DUP2 SUB PUSH1 0x0 DUP4 ADD MSTORE PUSH2 0xEC4 DUP2 DUP10 PUSH2 0xB35 JUMP JUMPDEST SWAP1 POP PUSH2 0xED3 PUSH1 0x20 DUP4 ADD DUP9 PUSH2 0xE47 JUMP JUMPDEST PUSH2 0xEE0 PUSH1 0x40 DUP4 ADD DUP8 PUSH2 0xE9B JUMP JUMPDEST PUSH2 0xEED PUSH1 0x60 DUP4 ADD DUP7 PUSH2 0xE47 JUMP JUMPDEST PUSH2 0xEFA PUSH1 0x80 DUP4 ADD DUP6 PUSH2 0xC27 JUMP JUMPDEST PUSH2 0xF07 PUSH1 0xA0 DUP4 ADD DUP5 PUSH2 0xE47 JUMP JUMPDEST SWAP8 SWAP7 POP POP POP POP POP POP POP JUMP JUMPDEST PUSH1 0x0 PUSH1 0xC0 DUP3 ADD SWAP1 POP DUP2 DUP2 SUB PUSH1 0x0 DUP4 ADD MSTORE PUSH2 0xF2C DUP2 DUP10 PUSH2 0xB35 JUMP JUMPDEST SWAP1 POP PUSH2 0xF3B PUSH1 0x20 DUP4 ADD DUP9 PUSH2 0xE47 JUMP JUMPDEST PUSH2 0xF48 PUSH1 0x40 DUP4 ADD DUP8 PUSH2 0xE47 JUMP JUMPDEST PUSH2 0xF55 PUSH1 0x60 DUP4 ADD DUP7 PUSH2 0xE47 JUMP JUMPDEST PUSH2 0xF62 PUSH1 0x80 DUP4 ADD DUP6 PUSH2 0xE47 JUMP JUMPDEST PUSH2 0xF6F PUSH1 0xA0 DUP4 ADD DUP5 PUSH2 0xE71 JUMP JUMPDEST SWAP8 SWAP7 POP POP POP POP POP POP POP JUMP JUMPDEST PUSH32 0x4E487B7100000000000000000000000000000000000000000000000000000000 PUSH1 0x0 MSTORE PUSH1 0x32 PUSH1 0x4 MSTORE PUSH1 0x24 PUSH1 0x0 REVERT JUMPDEST PUSH32 0x4E487B7100000000000000000000000000000000000000000000000000000000 PUSH1 0x0 MSTORE PUSH1 0x11 PUSH1 0x4 MSTORE PUSH1 0x24 PUSH1 0x0 REVERT JUMPDEST PUSH1 0x0 PUSH2 0xFE3 DUP3 PUSH2 0xA72 JUMP JUMPDEST SWAP2 POP PUSH2 0xFEE DUP4 PUSH2 0xA72 JUMP JUMPDEST SWAP3 POP DUP2 PUSH32 0xFFFFFFFFFFFFFFFFFFFFFFFFFFFFFFFFFFFFFFFFFFFFFFFFFFFFFFFFFFFFFFFF DIV DUP4 GT DUP3 ISZERO ISZERO AND ISZERO PUSH2 0x1027 JUMPI PUSH2 0x1026 PUSH2 0xFA9 JUMP JUMPDEST JUMPDEST DUP3 DUP3 MUL SWAP1 POP SWAP3 SWAP2 POP POP JUMP JUMPDEST PUSH32 0x4E487B7100000000000000000000000000000000000000000000000000000000 PUSH1 0x0 MSTORE PUSH1 0x12 PUSH1 0x4 MSTORE PUSH1 0x24 PUSH1 0x0 REVERT JUMPDEST PUSH1 0x0 PUSH2 0x106C DUP3 PUSH2 0xA72 JUMP JUMPDEST SWAP2 POP PUSH2 0x1077 DUP4 PUSH2 0xA72 JUMP JUMPDEST SWAP3 POP DUP3 PUSH2 0x1087 JUMPI PUSH2 0x1086 PUSH2 0x1032 JUMP JUMPDEST JUMPDEST DUP3 DUP3 DIV SWAP1 POP SWAP3 SWAP2 POP POP JUMP JUMPDEST PUSH32 0x4E487B7100000000000000000000000000000000000000000000000000000000 PUSH1 0x0 MSTORE PUSH1 0x22 PUSH1 0x4 MSTORE PUSH1 0x24 PUSH1 0x0 REVERT JUMPDEST PUSH1 0x0 PUSH1 0x2 DUP3 DIV SWAP1 POP PUSH1 0x1 DUP3 AND DUP1 PUSH2 0x10D9 JUMPI PUSH1 0x7F DUP3 AND SWAP2 POP JUMPDEST PUSH1 0x20 DUP3 LT DUP2 SUB PUSH2 0x10EC JUMPI PUSH2 0x10EB PUSH2 0x1092 JUMP JUMPDEST JUMPDEST POP SWAP2 SWAP1 POP JUMP JUMPDEST PUSH1 0x0 PUSH2 0x10FD DUP3 PUSH2 0xA72 JUMP JUMPDEST SWAP2 POP PUSH32 0xFFFFFFFFFFFFFFFFFFFFFFFFFFFFFFFFFFFFFFFFFFFFFFFFFFFFFFFFFFFFFFFF DUP3 SUB PUSH2 0x112F JUMPI PUSH2 0x112E PUSH2 0xFA9 JUMP JUMPDEST JUMPDEST PUSH1 0x1 DUP3 ADD SWAP1 POP SWAP2 SWAP1 POP JUMP INVALID LOG2 PUSH5 0x6970667358 0x22 SLT KECCAK256 0xAA DUP14 0x27 SWAP1 0xEF PUSH26 0x6E07C6F72DF6CC30D3127E433A4F7D5B83734BC98153619BC494 PUSH5 0x736F6C6343 STOP ADDMOD 0xD STOP CALLER LOG2 PUSH5 0x6970667358 0x22 SLT KECCAK256 0xE9 PUSH13 0xBD0E27F8068B16C60385B48E1B BALANCE DELEGATECALL NOT 0xB5 0xA5 TIMESTAMP 0xA9 CALLDATACOPY PUSH12 0x674B9E9D520A376764736F6C PUSH4 0x4300080D STOP CALLER "},"gasEstimates":{"creation":{"codeDepositCost":"1481800","executionCost":"1548","totalCost":"1483348"},"external":{"createCampaign(uint256,string)":"infinite","deployedCampaigns(uint256)":"4934","getDeployedCampaigns()":"infinite"}},"methodIdentifiers":{"createCampaign(uint256,string)":"4220d656","deployedCampaigns(uint256)":"339d50a5","getDeployedCampaigns()":"4acb9d4f"}},"storageLayout":{"storage":[{"astId":4,"contract":"Campaign.sol:CampaignFactory","label":"deployedCampaigns","offset":0,"slot":"0","type":"t_array(t_address)dyn_storage"}],"types":{"t_address":{"encoding":"inplace","label":"address","numberOfBytes":"20"},"t_array(t_address)dyn_storage":{"base":"t_address","encoding":"dynamic_array","label":"address[]","numberOfBytes":"32"}}},"userdoc":{"kind":"user","methods":{},"version":1}}