{"abi":[{"inputs":[{"internalType":"uint256","name":"","type":"uint256"}],"name":"campaignNames","outputs":[{"internalType":"string","name":"","type":"string"}],"stateMutability":"view","type":"function"},{"inputs":[{"internalType":"uint256","name":"minimumContribution","type":"uint256"},{"internalType":"string","name":"campaignName","type":"string"}],"name":"createCampaign","outputs":[],"stateMutability":"nonpayable","type":"function"},{"inputs":[{"internalType":"uint256","name":"","type":"uint256"}],"name":"deployedCampaigns","outputs":[{"internalType":"address","name":"","type":"address"}],"stateMutability":"view","type":"function"},{"inputs":[],"name":"getCampaignNames","outputs":[{"internalType":"string[]","name":"","type":"string[]"}],"stateMutability":"view","type":"function"},{"inputs":[],"name":"getDeployedCampaigns","outputs":[{"internalType":"address[]","name":"","type":"address[]"}],"stateMutability":"view","type":"function"}],"devdoc":{"kind":"dev","methods":{},"version":1},"evm":{"assembly":"    /* \"Campaign.sol\":59:675  contract CampaignFactory {... */\n  mstore(0x40, 0x80)\n  callvalue\n  dup1\n  iszero\n  tag_1\n  jumpi\n  0x00\n  dup1\n  revert\ntag_1:\n  pop\n  dataSize(sub_0)\n  dup1\n  dataOffset(sub_0)\n  0x00\n  codecopy\n  0x00\n  return\nstop\n\nsub_0: assembly {\n        /* \"Campaign.sol\":59:675  contract CampaignFactory {... */\n      mstore(0x40, 0x80)\n      callvalue\n      dup1\n      iszero\n      tag_1\n      jumpi\n      0x00\n      dup1\n      revert\n    tag_1:\n      pop\n      jumpi(tag_2, lt(calldatasize, 0x04))\n      shr(0xe0, calldataload(0x00))\n      dup1\n      0x339d50a5\n      eq\n      tag_3\n      jumpi\n      dup1\n      0x4220d656\n      eq\n      tag_4\n      jumpi\n      dup1\n      0x4acb9d4f\n      eq\n      tag_5\n      jumpi\n      dup1\n      0x634a321d\n      eq\n      tag_6\n      jumpi\n      dup1\n      0x9e4ed4d1\n      eq\n      tag_7\n      jumpi\n    tag_2:\n      0x00\n      dup1\n      revert\n        /* \"Campaign.sol\":90:124  address[] public deployedCampaigns */\n    tag_3:\n      tag_8\n      0x04\n      dup1\n      calldatasize\n      sub\n      dup2\n      add\n      swap1\n      tag_9\n      swap2\n      swap1\n      tag_10\n      jump\t// in\n    tag_9:\n      tag_11\n      jump\t// in\n    tag_8:\n      mload(0x40)\n      tag_12\n      swap2\n      swap1\n      tag_13\n      jump\t// in\n    tag_12:\n      mload(0x40)\n      dup1\n      swap2\n      sub\n      swap1\n      return\n        /* \"Campaign.sol\":166:445  function createCampaign(uint minimumContribution, string memory campaignName) public {... */\n    tag_4:\n      tag_14\n      0x04\n      dup1\n      calldatasize\n      sub\n      dup2\n      add\n      swap1\n      tag_15\n      swap2\n      swap1\n      tag_16\n      jump\t// in\n    tag_15:\n      tag_17\n      jump\t// in\n    tag_14:\n      stop\n        /* \"Campaign.sol\":451:563  function getDeployedCampaigns() public view returns (address[] memory) {... */\n    tag_5:\n      tag_18\n      tag_19\n      jump\t// in\n    tag_18:\n      mload(0x40)\n      tag_20\n      swap2\n      swap1\n      tag_21\n      jump\t// in\n    tag_20:\n      mload(0x40)\n      dup1\n      swap2\n      sub\n      swap1\n      return\n        /* \"Campaign.sol\":130:159  string[] public campaignNames */\n    tag_6:\n      tag_22\n      0x04\n      dup1\n      calldatasize\n      sub\n      dup2\n      add\n      swap1\n      tag_23\n      swap2\n      swap1\n      tag_10\n      jump\t// in\n    tag_23:\n      tag_24\n      jump\t// in\n    tag_22:\n      mload(0x40)\n      tag_25\n      swap2\n      swap1\n      tag_26\n      jump\t// in\n    tag_25:\n      mload(0x40)\n      dup1\n      swap2\n      sub\n      swap1\n      return\n        /* \"Campaign.sol\":569:672  function getCampaignNames() public view returns (string[] memory) {... */\n    tag_7:\n      tag_27\n      tag_28\n      jump\t// in\n    tag_27:\n      mload(0x40)\n      tag_29\n      swap2\n      swap1\n      tag_30\n      jump\t// in\n    tag_29:\n      mload(0x40)\n      dup1\n      swap2\n      sub\n      swap1\n      return\n        /* \"Campaign.sol\":90:124  address[] public deployedCampaigns */\n    tag_11:\n      0x00\n      dup2\n      dup2\n      sload\n      dup2\n      lt\n      tag_31\n      jumpi\n      0x00\n      dup1\n      revert\n    tag_31:\n      swap1\n      0x00\n      mstore\n      keccak256(0x00, 0x20)\n      add\n      0x00\n      swap2\n      pop\n      sload\n      swap1\n      0x0100\n      exp\n      swap1\n      div\n      0xffffffffffffffffffffffffffffffffffffffff\n      and\n      dup2\n      jump\t// out\n        /* \"Campaign.sol\":166:445  function createCampaign(uint minimumContribution, string memory campaignName) public {... */\n    tag_17:\n        /* \"Campaign.sol\":261:280  address newCampaign */\n      0x00\n        /* \"Campaign.sol\":304:323  minimumContribution */\n      dup3\n        /* \"Campaign.sol\":325:337  campaignName */\n      dup3\n        /* \"Campaign.sol\":339:349  msg.sender */\n      caller\n        /* \"Campaign.sol\":291:350  new Campaign(minimumContribution, campaignName, msg.sender) */\n      mload(0x40)\n      tag_34\n      swap1\n      tag_35\n      jump\t// in\n    tag_34:\n      tag_36\n      swap4\n      swap3\n      swap2\n      swap1\n      tag_37\n      jump\t// in\n    tag_36:\n      mload(0x40)\n      dup1\n      swap2\n      sub\n      swap1\n      0x00\n      create\n      dup1\n      iszero\n      dup1\n      iszero\n      tag_38\n      jumpi\n      returndatasize\n      0x00\n      dup1\n      returndatacopy\n      revert(0x00, returndatasize)\n    tag_38:\n      pop\n        /* \"Campaign.sol\":261:351  address newCampaign = address(new Campaign(minimumContribution, campaignName, msg.sender)) */\n      swap1\n      pop\n        /* \"Campaign.sol\":361:378  deployedCampaigns */\n      0x00\n        /* \"Campaign.sol\":384:395  newCampaign */\n      dup2\n        /* \"Campaign.sol\":361:396  deployedCampaigns.push(newCampaign) */\n      swap1\n      dup1\n      0x01\n      dup2\n      sload\n      add\n      dup1\n      dup3\n      sstore\n      dup1\n      swap2\n      pop\n      pop\n      0x01\n      swap1\n      sub\n      swap1\n      0x00\n      mstore\n      keccak256(0x00, 0x20)\n      add\n      0x00\n      swap1\n      swap2\n      swap1\n      swap2\n      swap1\n      swap2\n      0x0100\n      exp\n      dup2\n      sload\n      dup2\n      0xffffffffffffffffffffffffffffffffffffffff\n      mul\n      not\n      and\n      swap1\n      dup4\n      0xffffffffffffffffffffffffffffffffffffffff\n      and\n      mul\n      or\n      swap1\n      sstore\n      pop\n        /* \"Campaign.sol\":406:419  campaignNames */\n      0x01\n        /* \"Campaign.sol\":425:437  campaignName */\n      dup3\n        /* \"Campaign.sol\":406:438  campaignNames.push(campaignName) */\n      swap1\n      dup1\n      0x01\n      dup2\n      sload\n      add\n      dup1\n      dup3\n      sstore\n      dup1\n      swap2\n      pop\n      pop\n      0x01\n      swap1\n      sub\n      swap1\n      0x00\n      mstore\n      keccak256(0x00, 0x20)\n      add\n      0x00\n      swap1\n      swap2\n      swap1\n      swap2\n      swap1\n      swap2\n      pop\n      swap1\n      dup1\n      mload\n      swap1\n      0x20\n      add\n      swap1\n      tag_41\n      swap3\n      swap2\n      swap1\n      tag_42\n      jump\t// in\n    tag_41:\n      pop\n        /* \"Campaign.sol\":251:445  {... */\n      pop\n        /* \"Campaign.sol\":166:445  function createCampaign(uint minimumContribution, string memory campaignName) public {... */\n      pop\n      pop\n      jump\t// out\n        /* \"Campaign.sol\":451:563  function getDeployedCampaigns() public view returns (address[] memory) {... */\n    tag_19:\n        /* \"Campaign.sol\":504:520  address[] memory */\n      0x60\n        /* \"Campaign.sol\":539:556  deployedCampaigns */\n      0x00\n        /* \"Campaign.sol\":532:556  return deployedCampaigns */\n      dup1\n      sload\n      dup1\n      0x20\n      mul\n      0x20\n      add\n      mload(0x40)\n      swap1\n      dup2\n      add\n      0x40\n      mstore\n      dup1\n      swap3\n      swap2\n      swap1\n      dup2\n      dup2\n      mstore\n      0x20\n      add\n      dup3\n      dup1\n      sload\n      dup1\n      iszero\n      tag_44\n      jumpi\n      0x20\n      mul\n      dup3\n      add\n      swap2\n      swap1\n      0x00\n      mstore\n      keccak256(0x00, 0x20)\n      swap1\n    tag_45:\n      dup2\n      0x00\n      swap1\n      sload\n      swap1\n      0x0100\n      exp\n      swap1\n      div\n      0xffffffffffffffffffffffffffffffffffffffff\n      and\n      0xffffffffffffffffffffffffffffffffffffffff\n      and\n      dup2\n      mstore\n      0x20\n      add\n      swap1\n      0x01\n      add\n      swap1\n      dup1\n      dup4\n      gt\n      tag_45\n      jumpi\n    tag_44:\n      pop\n      pop\n      pop\n      pop\n      pop\n      swap1\n      pop\n        /* \"Campaign.sol\":451:563  function getDeployedCampaigns() public view returns (address[] memory) {... */\n      swap1\n      jump\t// out\n        /* \"Campaign.sol\":130:159  string[] public campaignNames */\n    tag_24:\n      0x01\n      dup2\n      dup2\n      sload\n      dup2\n      lt\n      tag_46\n      jumpi\n      0x00\n      dup1\n      revert\n    tag_46:\n      swap1\n      0x00\n      mstore\n      keccak256(0x00, 0x20)\n      add\n      0x00\n      swap2\n      pop\n      swap1\n      pop\n      dup1\n      sload\n      tag_48\n      swap1\n      tag_49\n      jump\t// in\n    tag_48:\n      dup1\n      0x1f\n      add\n      0x20\n      dup1\n      swap2\n      div\n      mul\n      0x20\n      add\n      mload(0x40)\n      swap1\n      dup2\n      add\n      0x40\n      mstore\n      dup1\n      swap3\n      swap2\n      swap1\n      dup2\n      dup2\n      mstore\n      0x20\n      add\n      dup3\n      dup1\n      sload\n      tag_50\n      swap1\n      tag_49\n      jump\t// in\n    tag_50:\n      dup1\n      iszero\n      tag_51\n      jumpi\n      dup1\n      0x1f\n      lt\n      tag_52\n      jumpi\n      0x0100\n      dup1\n      dup4\n      sload\n      div\n      mul\n      dup4\n      mstore\n      swap2\n      0x20\n      add\n      swap2\n      jump(tag_51)\n    tag_52:\n      dup3\n      add\n      swap2\n      swap1\n      0x00\n      mstore\n      keccak256(0x00, 0x20)\n      swap1\n    tag_53:\n      dup2\n      sload\n      dup2\n      mstore\n      swap1\n      0x01\n      add\n      swap1\n      0x20\n      add\n      dup1\n      dup4\n      gt\n      tag_53\n      jumpi\n      dup3\n      swap1\n      sub\n      0x1f\n      and\n      dup3\n      add\n      swap2\n    tag_51:\n      pop\n      pop\n      pop\n      pop\n      pop\n      dup2\n      jump\t// out\n        /* \"Campaign.sol\":569:672  function getCampaignNames() public view returns (string[] memory) {... */\n    tag_28:\n        /* \"Campaign.sol\":618:633  string[] memory */\n      0x60\n        /* \"Campaign.sol\":652:665  campaignNames */\n      0x01\n        /* \"Campaign.sol\":645:665  return campaignNames */\n      dup1\n      sload\n      dup1\n      0x20\n      mul\n      0x20\n      add\n      mload(0x40)\n      swap1\n      dup2\n      add\n      0x40\n      mstore\n      dup1\n      swap3\n      swap2\n      swap1\n      dup2\n      dup2\n      mstore\n      0x20\n      add\n      0x00\n      swap1\n    tag_55:\n      dup3\n      dup3\n      lt\n      iszero\n      tag_56\n      jumpi\n      dup4\n      dup3\n      swap1\n      0x00\n      mstore\n      keccak256(0x00, 0x20)\n      add\n      dup1\n      sload\n      tag_58\n      swap1\n      tag_49\n      jump\t// in\n    tag_58:\n      dup1\n      0x1f\n      add\n      0x20\n      dup1\n      swap2\n      div\n      mul\n      0x20\n      add\n      mload(0x40)\n      swap1\n      dup2\n      add\n      0x40\n      mstore\n      dup1\n      swap3\n      swap2\n      swap1\n      dup2\n      dup2\n      mstore\n      0x20\n      add\n      dup3\n      dup1\n      sload\n      tag_59\n      swap1\n      tag_49\n      jump\t// in\n    tag_59:\n      dup1\n      iszero\n      tag_60\n      jumpi\n      dup1\n      0x1f\n      lt\n      tag_61\n      jumpi\n      0x0100\n      dup1\n      dup4\n      sload\n      div\n      mul\n      dup4\n      mstore\n      swap2\n      0x20\n      add\n      swap2\n      jump(tag_60)\n    tag_61:\n      dup3\n      add\n      swap2\n      swap1\n      0x00\n      mstore\n      keccak256(0x00, 0x20)\n      swap1\n    tag_62:\n      dup2\n      sload\n      dup2\n      mstore\n      swap1\n      0x01\n      add\n      swap1\n      0x20\n      add\n      dup1\n      dup4\n      gt\n      tag_62\n      jumpi\n      dup3\n      swap1\n      sub\n      0x1f\n      and\n      dup3\n      add\n      swap2\n    tag_60:\n      pop\n      pop\n      pop\n      pop\n      pop\n      dup2\n      mstore\n      0x20\n      add\n      swap1\n      0x01\n      add\n      swap1\n      jump(tag_55)\n    tag_56:\n      pop\n      pop\n      pop\n      pop\n      swap1\n      pop\n        /* \"Campaign.sol\":569:672  function getCampaignNames() public view returns (string[] memory) {... */\n      swap1\n      jump\t// out\n    tag_35:\n      dataSize(sub_0)\n      dup1\n      dataOffset(sub_0)\n      dup4\n      codecopy\n      add\n      swap1\n      jump\t// out\n    tag_42:\n      dup3\n      dup1\n      sload\n      tag_63\n      swap1\n      tag_49\n      jump\t// in\n    tag_63:\n      swap1\n      0x00\n      mstore\n      keccak256(0x00, 0x20)\n      swap1\n      0x1f\n      add\n      0x20\n      swap1\n      div\n      dup2\n      add\n      swap3\n      dup3\n      tag_65\n      jumpi\n      0x00\n      dup6\n      sstore\n      jump(tag_64)\n    tag_65:\n      dup3\n      0x1f\n      lt\n      tag_66\n      jumpi\n      dup1\n      mload\n      not(0xff)\n      and\n      dup4\n      dup1\n      add\n      or\n      dup6\n      sstore\n      jump(tag_64)\n    tag_66:\n      dup3\n      dup1\n      add\n      0x01\n      add\n      dup6\n      sstore\n      dup3\n      iszero\n      tag_64\n      jumpi\n      swap2\n      dup3\n      add\n    tag_67:\n      dup3\n      dup2\n      gt\n      iszero\n      tag_68\n      jumpi\n      dup3\n      mload\n      dup3\n      sstore\n      swap2\n      0x20\n      add\n      swap2\n      swap1\n      0x01\n      add\n      swap1\n      jump(tag_67)\n    tag_68:\n    tag_64:\n      pop\n      swap1\n      pop\n      tag_69\n      swap2\n      swap1\n      tag_70\n      jump\t// in\n    tag_69:\n      pop\n      swap1\n      jump\t// out\n    tag_70:\n    tag_71:\n      dup1\n      dup3\n      gt\n      iszero\n      tag_72\n      jumpi\n      0x00\n      dup2\n      0x00\n      swap1\n      sstore\n      pop\n      0x01\n      add\n      jump(tag_71)\n    tag_72:\n      pop\n      swap1\n      jump\t// out\n        /* \"#utility.yul\":7:82   */\n    tag_73:\n        /* \"#utility.yul\":40:46   */\n      0x00\n        /* \"#utility.yul\":73:75   */\n      0x40\n        /* \"#utility.yul\":67:76   */\n      mload\n        /* \"#utility.yul\":57:76   */\n      swap1\n      pop\n        /* \"#utility.yul\":7:82   */\n      swap1\n      jump\t// out\n        /* \"#utility.yul\":88:205   */\n    tag_74:\n        /* \"#utility.yul\":197:198   */\n      0x00\n        /* \"#utility.yul\":194:195   */\n      dup1\n        /* \"#utility.yul\":187:199   */\n      revert\n        /* \"#utility.yul\":211:328   */\n    tag_75:\n        /* \"#utility.yul\":320:321   */\n      0x00\n        /* \"#utility.yul\":317:318   */\n      dup1\n        /* \"#utility.yul\":310:322   */\n      revert\n        /* \"#utility.yul\":334:411   */\n    tag_76:\n        /* \"#utility.yul\":371:378   */\n      0x00\n        /* \"#utility.yul\":400:405   */\n      dup2\n        /* \"#utility.yul\":389:405   */\n      swap1\n      pop\n        /* \"#utility.yul\":334:411   */\n      swap2\n      swap1\n      pop\n      jump\t// out\n        /* \"#utility.yul\":417:539   */\n    tag_77:\n        /* \"#utility.yul\":490:514   */\n      tag_119\n        /* \"#utility.yul\":508:513   */\n      dup2\n        /* \"#utility.yul\":490:514   */\n      tag_76\n      jump\t// in\n    tag_119:\n        /* \"#utility.yul\":483:488   */\n      dup2\n        /* \"#utility.yul\":480:515   */\n      eq\n        /* \"#utility.yul\":470:533   */\n      tag_120\n      jumpi\n        /* \"#utility.yul\":529:530   */\n      0x00\n        /* \"#utility.yul\":526:527   */\n      dup1\n        /* \"#utility.yul\":519:531   */\n      revert\n        /* \"#utility.yul\":470:533   */\n    tag_120:\n        /* \"#utility.yul\":417:539   */\n      pop\n      jump\t// out\n        /* \"#utility.yul\":545:684   */\n    tag_78:\n        /* \"#utility.yul\":591:596   */\n      0x00\n        /* \"#utility.yul\":629:635   */\n      dup2\n        /* \"#utility.yul\":616:636   */\n      calldataload\n        /* \"#utility.yul\":607:636   */\n      swap1\n      pop\n        /* \"#utility.yul\":645:678   */\n      tag_122\n        /* \"#utility.yul\":672:677   */\n      dup2\n        /* \"#utility.yul\":645:678   */\n      tag_77\n      jump\t// in\n    tag_122:\n        /* \"#utility.yul\":545:684   */\n      swap3\n      swap2\n      pop\n      pop\n      jump\t// out\n        /* \"#utility.yul\":690:1019   */\n    tag_10:\n        /* \"#utility.yul\":749:755   */\n      0x00\n        /* \"#utility.yul\":798:800   */\n      0x20\n        /* \"#utility.yul\":786:795   */\n      dup3\n        /* \"#utility.yul\":777:784   */\n      dup5\n        /* \"#utility.yul\":773:796   */\n      sub\n        /* \"#utility.yul\":769:801   */\n      slt\n        /* \"#utility.yul\":766:885   */\n      iszero\n      tag_124\n      jumpi\n        /* \"#utility.yul\":804:883   */\n      tag_125\n      tag_74\n      jump\t// in\n    tag_125:\n        /* \"#utility.yul\":766:885   */\n    tag_124:\n        /* \"#utility.yul\":924:925   */\n      0x00\n        /* \"#utility.yul\":949:1002   */\n      tag_126\n        /* \"#utility.yul\":994:1001   */\n      dup5\n        /* \"#utility.yul\":985:991   */\n      dup3\n        /* \"#utility.yul\":974:983   */\n      dup6\n        /* \"#utility.yul\":970:992   */\n      add\n        /* \"#utility.yul\":949:1002   */\n      tag_78\n      jump\t// in\n    tag_126:\n        /* \"#utility.yul\":939:1002   */\n      swap2\n      pop\n        /* \"#utility.yul\":895:1012   */\n      pop\n        /* \"#utility.yul\":690:1019   */\n      swap3\n      swap2\n      pop\n      pop\n      jump\t// out\n        /* \"#utility.yul\":1025:1151   */\n    tag_79:\n        /* \"#utility.yul\":1062:1069   */\n      0x00\n        /* \"#utility.yul\":1102:1144   */\n      0xffffffffffffffffffffffffffffffffffffffff\n        /* \"#utility.yul\":1095:1100   */\n      dup3\n        /* \"#utility.yul\":1091:1145   */\n      and\n        /* \"#utility.yul\":1080:1145   */\n      swap1\n      pop\n        /* \"#utility.yul\":1025:1151   */\n      swap2\n      swap1\n      pop\n      jump\t// out\n        /* \"#utility.yul\":1157:1253   */\n    tag_80:\n        /* \"#utility.yul\":1194:1201   */\n      0x00\n        /* \"#utility.yul\":1223:1247   */\n      tag_129\n        /* \"#utility.yul\":1241:1246   */\n      dup3\n        /* \"#utility.yul\":1223:1247   */\n      tag_79\n      jump\t// in\n    tag_129:\n        /* \"#utility.yul\":1212:1247   */\n      swap1\n      pop\n        /* \"#utility.yul\":1157:1253   */\n      swap2\n      swap1\n      pop\n      jump\t// out\n        /* \"#utility.yul\":1259:1377   */\n    tag_81:\n        /* \"#utility.yul\":1346:1370   */\n      tag_131\n        /* \"#utility.yul\":1364:1369   */\n      dup2\n        /* \"#utility.yul\":1346:1370   */\n      tag_80\n      jump\t// in\n    tag_131:\n        /* \"#utility.yul\":1341:1344   */\n      dup3\n        /* \"#utility.yul\":1334:1371   */\n      mstore\n        /* \"#utility.yul\":1259:1377   */\n      pop\n      pop\n      jump\t// out\n        /* \"#utility.yul\":1383:1605   */\n    tag_13:\n        /* \"#utility.yul\":1476:1480   */\n      0x00\n        /* \"#utility.yul\":1514:1516   */\n      0x20\n        /* \"#utility.yul\":1503:1512   */\n      dup3\n        /* \"#utility.yul\":1499:1517   */\n      add\n        /* \"#utility.yul\":1491:1517   */\n      swap1\n      pop\n        /* \"#utility.yul\":1527:1598   */\n      tag_133\n        /* \"#utility.yul\":1595:1596   */\n      0x00\n        /* \"#utility.yul\":1584:1593   */\n      dup4\n        /* \"#utility.yul\":1580:1597   */\n      add\n        /* \"#utility.yul\":1571:1577   */\n      dup5\n        /* \"#utility.yul\":1527:1598   */\n      tag_81\n      jump\t// in\n    tag_133:\n        /* \"#utility.yul\":1383:1605   */\n      swap3\n      swap2\n      pop\n      pop\n      jump\t// out\n        /* \"#utility.yul\":1611:1728   */\n    tag_82:\n        /* \"#utility.yul\":1720:1721   */\n      0x00\n        /* \"#utility.yul\":1717:1718   */\n      dup1\n        /* \"#utility.yul\":1710:1722   */\n      revert\n        /* \"#utility.yul\":1734:1851   */\n    tag_83:\n        /* \"#utility.yul\":1843:1844   */\n      0x00\n        /* \"#utility.yul\":1840:1841   */\n      dup1\n        /* \"#utility.yul\":1833:1845   */\n      revert\n        /* \"#utility.yul\":1857:1959   */\n    tag_84:\n        /* \"#utility.yul\":1898:1904   */\n      0x00\n        /* \"#utility.yul\":1949:1951   */\n      0x1f\n        /* \"#utility.yul\":1945:1952   */\n      not\n        /* \"#utility.yul\":1940:1942   */\n      0x1f\n        /* \"#utility.yul\":1933:1938   */\n      dup4\n        /* \"#utility.yul\":1929:1943   */\n      add\n        /* \"#utility.yul\":1925:1953   */\n      and\n        /* \"#utility.yul\":1915:1953   */\n      swap1\n      pop\n        /* \"#utility.yul\":1857:1959   */\n      swap2\n      swap1\n      pop\n      jump\t// out\n        /* \"#utility.yul\":1965:2145   */\n    tag_85:\n        /* \"#utility.yul\":2013:2090   */\n      0x4e487b7100000000000000000000000000000000000000000000000000000000\n        /* \"#utility.yul\":2010:2011   */\n      0x00\n        /* \"#utility.yul\":2003:2091   */\n      mstore\n        /* \"#utility.yul\":2110:2114   */\n      0x41\n        /* \"#utility.yul\":2107:2108   */\n      0x04\n        /* \"#utility.yul\":2100:2115   */\n      mstore\n        /* \"#utility.yul\":2134:2138   */\n      0x24\n        /* \"#utility.yul\":2131:2132   */\n      0x00\n        /* \"#utility.yul\":2124:2139   */\n      revert\n        /* \"#utility.yul\":2151:2432   */\n    tag_86:\n        /* \"#utility.yul\":2234:2261   */\n      tag_139\n        /* \"#utility.yul\":2256:2260   */\n      dup3\n        /* \"#utility.yul\":2234:2261   */\n      tag_84\n      jump\t// in\n    tag_139:\n        /* \"#utility.yul\":2226:2232   */\n      dup2\n        /* \"#utility.yul\":2222:2262   */\n      add\n        /* \"#utility.yul\":2364:2370   */\n      dup2\n        /* \"#utility.yul\":2352:2362   */\n      dup2\n        /* \"#utility.yul\":2349:2371   */\n      lt\n        /* \"#utility.yul\":2328:2346   */\n      0xffffffffffffffff\n        /* \"#utility.yul\":2316:2326   */\n      dup3\n        /* \"#utility.yul\":2313:2347   */\n      gt\n        /* \"#utility.yul\":2310:2372   */\n      or\n        /* \"#utility.yul\":2307:2395   */\n      iszero\n      tag_140\n      jumpi\n        /* \"#utility.yul\":2375:2393   */\n      tag_141\n      tag_85\n      jump\t// in\n    tag_141:\n        /* \"#utility.yul\":2307:2395   */\n    tag_140:\n        /* \"#utility.yul\":2415:2425   */\n      dup1\n        /* \"#utility.yul\":2411:2413   */\n      0x40\n        /* \"#utility.yul\":2404:2426   */\n      mstore\n        /* \"#utility.yul\":2194:2432   */\n      pop\n        /* \"#utility.yul\":2151:2432   */\n      pop\n      pop\n      jump\t// out\n        /* \"#utility.yul\":2438:2567   */\n    tag_87:\n        /* \"#utility.yul\":2472:2478   */\n      0x00\n        /* \"#utility.yul\":2499:2519   */\n      tag_143\n      tag_73\n      jump\t// in\n    tag_143:\n        /* \"#utility.yul\":2489:2519   */\n      swap1\n      pop\n        /* \"#utility.yul\":2528:2561   */\n      tag_144\n        /* \"#utility.yul\":2556:2560   */\n      dup3\n        /* \"#utility.yul\":2548:2554   */\n      dup3\n        /* \"#utility.yul\":2528:2561   */\n      tag_86\n      jump\t// in\n    tag_144:\n        /* \"#utility.yul\":2438:2567   */\n      swap2\n      swap1\n      pop\n      jump\t// out\n        /* \"#utility.yul\":2573:2881   */\n    tag_88:\n        /* \"#utility.yul\":2635:2639   */\n      0x00\n        /* \"#utility.yul\":2725:2743   */\n      0xffffffffffffffff\n        /* \"#utility.yul\":2717:2723   */\n      dup3\n        /* \"#utility.yul\":2714:2744   */\n      gt\n        /* \"#utility.yul\":2711:2767   */\n      iszero\n      tag_146\n      jumpi\n        /* \"#utility.yul\":2747:2765   */\n      tag_147\n      tag_85\n      jump\t// in\n    tag_147:\n        /* \"#utility.yul\":2711:2767   */\n    tag_146:\n        /* \"#utility.yul\":2785:2814   */\n      tag_148\n        /* \"#utility.yul\":2807:2813   */\n      dup3\n        /* \"#utility.yul\":2785:2814   */\n      tag_84\n      jump\t// in\n    tag_148:\n        /* \"#utility.yul\":2777:2814   */\n      swap1\n      pop\n        /* \"#utility.yul\":2869:2873   */\n      0x20\n        /* \"#utility.yul\":2863:2867   */\n      dup2\n        /* \"#utility.yul\":2859:2874   */\n      add\n        /* \"#utility.yul\":2851:2874   */\n      swap1\n      pop\n        /* \"#utility.yul\":2573:2881   */\n      swap2\n      swap1\n      pop\n      jump\t// out\n        /* \"#utility.yul\":2887:3041   */\n    tag_89:\n        /* \"#utility.yul\":2971:2977   */\n      dup3\n        /* \"#utility.yul\":2966:2969   */\n      dup2\n        /* \"#utility.yul\":2961:2964   */\n      dup4\n        /* \"#utility.yul\":2948:2978   */\n      calldatacopy\n        /* \"#utility.yul\":3033:3034   */\n      0x00\n        /* \"#utility.yul\":3024:3030   */\n      dup4\n        /* \"#utility.yul\":3019:3022   */\n      dup4\n        /* \"#utility.yul\":3015:3031   */\n      add\n        /* \"#utility.yul\":3008:3035   */\n      mstore\n        /* \"#utility.yul\":2887:3041   */\n      pop\n      pop\n      pop\n      jump\t// out\n        /* \"#utility.yul\":3047:3459   */\n    tag_90:\n        /* \"#utility.yul\":3125:3130   */\n      0x00\n        /* \"#utility.yul\":3150:3216   */\n      tag_151\n        /* \"#utility.yul\":3166:3215   */\n      tag_152\n        /* \"#utility.yul\":3208:3214   */\n      dup5\n        /* \"#utility.yul\":3166:3215   */\n      tag_88\n      jump\t// in\n    tag_152:\n        /* \"#utility.yul\":3150:3216   */\n      tag_87\n      jump\t// in\n    tag_151:\n        /* \"#utility.yul\":3141:3216   */\n      swap1\n      pop\n        /* \"#utility.yul\":3239:3245   */\n      dup3\n        /* \"#utility.yul\":3232:3237   */\n      dup2\n        /* \"#utility.yul\":3225:3246   */\n      mstore\n        /* \"#utility.yul\":3277:3281   */\n      0x20\n        /* \"#utility.yul\":3270:3275   */\n      dup2\n        /* \"#utility.yul\":3266:3282   */\n      add\n        /* \"#utility.yul\":3315:3318   */\n      dup5\n        /* \"#utility.yul\":3306:3312   */\n      dup5\n        /* \"#utility.yul\":3301:3304   */\n      dup5\n        /* \"#utility.yul\":3297:3313   */\n      add\n        /* \"#utility.yul\":3294:3319   */\n      gt\n        /* \"#utility.yul\":3291:3403   */\n      iszero\n      tag_153\n      jumpi\n        /* \"#utility.yul\":3322:3401   */\n      tag_154\n      tag_83\n      jump\t// in\n    tag_154:\n        /* \"#utility.yul\":3291:3403   */\n    tag_153:\n        /* \"#utility.yul\":3412:3453   */\n      tag_155\n        /* \"#utility.yul\":3446:3452   */\n      dup5\n        /* \"#utility.yul\":3441:3444   */\n      dup3\n        /* \"#utility.yul\":3436:3439   */\n      dup6\n        /* \"#utility.yul\":3412:3453   */\n      tag_89\n      jump\t// in\n    tag_155:\n        /* \"#utility.yul\":3131:3459   */\n      pop\n        /* \"#utility.yul\":3047:3459   */\n      swap4\n      swap3\n      pop\n      pop\n      pop\n      jump\t// out\n        /* \"#utility.yul\":3479:3819   */\n    tag_91:\n        /* \"#utility.yul\":3535:3540   */\n      0x00\n        /* \"#utility.yul\":3584:3587   */\n      dup3\n        /* \"#utility.yul\":3577:3581   */\n      0x1f\n        /* \"#utility.yul\":3569:3575   */\n      dup4\n        /* \"#utility.yul\":3565:3582   */\n      add\n        /* \"#utility.yul\":3561:3588   */\n      slt\n        /* \"#utility.yul\":3551:3673   */\n      tag_157\n      jumpi\n        /* \"#utility.yul\":3592:3671   */\n      tag_158\n      tag_82\n      jump\t// in\n    tag_158:\n        /* \"#utility.yul\":3551:3673   */\n    tag_157:\n        /* \"#utility.yul\":3709:3715   */\n      dup2\n        /* \"#utility.yul\":3696:3716   */\n      calldataload\n        /* \"#utility.yul\":3734:3813   */\n      tag_159\n        /* \"#utility.yul\":3809:3812   */\n      dup5\n        /* \"#utility.yul\":3801:3807   */\n      dup3\n        /* \"#utility.yul\":3794:3798   */\n      0x20\n        /* \"#utility.yul\":3786:3792   */\n      dup7\n        /* \"#utility.yul\":3782:3799   */\n      add\n        /* \"#utility.yul\":3734:3813   */\n      tag_90\n      jump\t// in\n    tag_159:\n        /* \"#utility.yul\":3725:3813   */\n      swap2\n      pop\n        /* \"#utility.yul\":3541:3819   */\n      pop\n        /* \"#utility.yul\":3479:3819   */\n      swap3\n      swap2\n      pop\n      pop\n      jump\t// out\n        /* \"#utility.yul\":3825:4479   */\n    tag_16:\n        /* \"#utility.yul\":3903:3909   */\n      0x00\n        /* \"#utility.yul\":3911:3917   */\n      dup1\n        /* \"#utility.yul\":3960:3962   */\n      0x40\n        /* \"#utility.yul\":3948:3957   */\n      dup4\n        /* \"#utility.yul\":3939:3946   */\n      dup6\n        /* \"#utility.yul\":3935:3958   */\n      sub\n        /* \"#utility.yul\":3931:3963   */\n      slt\n        /* \"#utility.yul\":3928:4047   */\n      iszero\n      tag_161\n      jumpi\n        /* \"#utility.yul\":3966:4045   */\n      tag_162\n      tag_74\n      jump\t// in\n    tag_162:\n        /* \"#utility.yul\":3928:4047   */\n    tag_161:\n        /* \"#utility.yul\":4086:4087   */\n      0x00\n        /* \"#utility.yul\":4111:4164   */\n      tag_163\n        /* \"#utility.yul\":4156:4163   */\n      dup6\n        /* \"#utility.yul\":4147:4153   */\n      dup3\n        /* \"#utility.yul\":4136:4145   */\n      dup7\n        /* \"#utility.yul\":4132:4154   */\n      add\n        /* \"#utility.yul\":4111:4164   */\n      tag_78\n      jump\t// in\n    tag_163:\n        /* \"#utility.yul\":4101:4164   */\n      swap3\n      pop\n        /* \"#utility.yul\":4057:4174   */\n      pop\n        /* \"#utility.yul\":4241:4243   */\n      0x20\n        /* \"#utility.yul\":4230:4239   */\n      dup4\n        /* \"#utility.yul\":4226:4244   */\n      add\n        /* \"#utility.yul\":4213:4245   */\n      calldataload\n        /* \"#utility.yul\":4272:4290   */\n      0xffffffffffffffff\n        /* \"#utility.yul\":4264:4270   */\n      dup2\n        /* \"#utility.yul\":4261:4291   */\n      gt\n        /* \"#utility.yul\":4258:4375   */\n      iszero\n      tag_164\n      jumpi\n        /* \"#utility.yul\":4294:4373   */\n      tag_165\n      tag_75\n      jump\t// in\n    tag_165:\n        /* \"#utility.yul\":4258:4375   */\n    tag_164:\n        /* \"#utility.yul\":4399:4462   */\n      tag_166\n        /* \"#utility.yul\":4454:4461   */\n      dup6\n        /* \"#utility.yul\":4445:4451   */\n      dup3\n        /* \"#utility.yul\":4434:4443   */\n      dup7\n        /* \"#utility.yul\":4430:4452   */\n      add\n        /* \"#utility.yul\":4399:4462   */\n      tag_91\n      jump\t// in\n    tag_166:\n        /* \"#utility.yul\":4389:4462   */\n      swap2\n      pop\n        /* \"#utility.yul\":4184:4472   */\n      pop\n        /* \"#utility.yul\":3825:4479   */\n      swap3\n      pop\n      swap3\n      swap1\n      pop\n      jump\t// out\n        /* \"#utility.yul\":4485:4599   */\n    tag_92:\n        /* \"#utility.yul\":4552:4558   */\n      0x00\n        /* \"#utility.yul\":4586:4591   */\n      dup2\n        /* \"#utility.yul\":4580:4592   */\n      mload\n        /* \"#utility.yul\":4570:4592   */\n      swap1\n      pop\n        /* \"#utility.yul\":4485:4599   */\n      swap2\n      swap1\n      pop\n      jump\t// out\n        /* \"#utility.yul\":4605:4789   */\n    tag_93:\n        /* \"#utility.yul\":4704:4715   */\n      0x00\n        /* \"#utility.yul\":4738:4744   */\n      dup3\n        /* \"#utility.yul\":4733:4736   */\n      dup3\n        /* \"#utility.yul\":4726:4745   */\n      mstore\n        /* \"#utility.yul\":4778:4782   */\n      0x20\n        /* \"#utility.yul\":4773:4776   */\n      dup3\n        /* \"#utility.yul\":4769:4783   */\n      add\n        /* \"#utility.yul\":4754:4783   */\n      swap1\n      pop\n        /* \"#utility.yul\":4605:4789   */\n      swap3\n      swap2\n      pop\n      pop\n      jump\t// out\n        /* \"#utility.yul\":4795:4927   */\n    tag_94:\n        /* \"#utility.yul\":4862:4866   */\n      0x00\n        /* \"#utility.yul\":4885:4888   */\n      dup2\n        /* \"#utility.yul\":4877:4888   */\n      swap1\n      pop\n        /* \"#utility.yul\":4915:4919   */\n      0x20\n        /* \"#utility.yul\":4910:4913   */\n      dup3\n        /* \"#utility.yul\":4906:4920   */\n      add\n        /* \"#utility.yul\":4898:4920   */\n      swap1\n      pop\n        /* \"#utility.yul\":4795:4927   */\n      swap2\n      swap1\n      pop\n      jump\t// out\n        /* \"#utility.yul\":4933:5041   */\n    tag_95:\n        /* \"#utility.yul\":5010:5034   */\n      tag_171\n        /* \"#utility.yul\":5028:5033   */\n      dup2\n        /* \"#utility.yul\":5010:5034   */\n      tag_80\n      jump\t// in\n    tag_171:\n        /* \"#utility.yul\":5005:5008   */\n      dup3\n        /* \"#utility.yul\":4998:5035   */\n      mstore\n        /* \"#utility.yul\":4933:5041   */\n      pop\n      pop\n      jump\t// out\n        /* \"#utility.yul\":5047:5226   */\n    tag_96:\n        /* \"#utility.yul\":5116:5126   */\n      0x00\n        /* \"#utility.yul\":5137:5183   */\n      tag_173\n        /* \"#utility.yul\":5179:5182   */\n      dup4\n        /* \"#utility.yul\":5171:5177   */\n      dup4\n        /* \"#utility.yul\":5137:5183   */\n      tag_95\n      jump\t// in\n    tag_173:\n        /* \"#utility.yul\":5215:5219   */\n      0x20\n        /* \"#utility.yul\":5210:5213   */\n      dup4\n        /* \"#utility.yul\":5206:5220   */\n      add\n        /* \"#utility.yul\":5192:5220   */\n      swap1\n      pop\n        /* \"#utility.yul\":5047:5226   */\n      swap3\n      swap2\n      pop\n      pop\n      jump\t// out\n        /* \"#utility.yul\":5232:5345   */\n    tag_97:\n        /* \"#utility.yul\":5302:5306   */\n      0x00\n        /* \"#utility.yul\":5334:5338   */\n      0x20\n        /* \"#utility.yul\":5329:5332   */\n      dup3\n        /* \"#utility.yul\":5325:5339   */\n      add\n        /* \"#utility.yul\":5317:5339   */\n      swap1\n      pop\n        /* \"#utility.yul\":5232:5345   */\n      swap2\n      swap1\n      pop\n      jump\t// out\n        /* \"#utility.yul\":5381:6113   */\n    tag_98:\n        /* \"#utility.yul\":5500:5503   */\n      0x00\n        /* \"#utility.yul\":5529:5583   */\n      tag_176\n        /* \"#utility.yul\":5577:5582   */\n      dup3\n        /* \"#utility.yul\":5529:5583   */\n      tag_92\n      jump\t// in\n    tag_176:\n        /* \"#utility.yul\":5599:5685   */\n      tag_177\n        /* \"#utility.yul\":5678:5684   */\n      dup2\n        /* \"#utility.yul\":5673:5676   */\n      dup6\n        /* \"#utility.yul\":5599:5685   */\n      tag_93\n      jump\t// in\n    tag_177:\n        /* \"#utility.yul\":5592:5685   */\n      swap4\n      pop\n        /* \"#utility.yul\":5709:5765   */\n      tag_178\n        /* \"#utility.yul\":5759:5764   */\n      dup4\n        /* \"#utility.yul\":5709:5765   */\n      tag_94\n      jump\t// in\n    tag_178:\n        /* \"#utility.yul\":5788:5795   */\n      dup1\n        /* \"#utility.yul\":5819:5820   */\n      0x00\n        /* \"#utility.yul\":5804:6088   */\n    tag_179:\n        /* \"#utility.yul\":5829:5835   */\n      dup4\n        /* \"#utility.yul\":5826:5827   */\n      dup2\n        /* \"#utility.yul\":5823:5836   */\n      lt\n        /* \"#utility.yul\":5804:6088   */\n      iszero\n      tag_181\n      jumpi\n        /* \"#utility.yul\":5905:5911   */\n      dup2\n        /* \"#utility.yul\":5899:5912   */\n      mload\n        /* \"#utility.yul\":5932:5995   */\n      tag_182\n        /* \"#utility.yul\":5991:5994   */\n      dup9\n        /* \"#utility.yul\":5976:5989   */\n      dup3\n        /* \"#utility.yul\":5932:5995   */\n      tag_96\n      jump\t// in\n    tag_182:\n        /* \"#utility.yul\":5925:5995   */\n      swap8\n      pop\n        /* \"#utility.yul\":6018:6078   */\n      tag_183\n        /* \"#utility.yul\":6071:6077   */\n      dup4\n        /* \"#utility.yul\":6018:6078   */\n      tag_97\n      jump\t// in\n    tag_183:\n        /* \"#utility.yul\":6008:6078   */\n      swap3\n      pop\n        /* \"#utility.yul\":5864:6088   */\n      pop\n        /* \"#utility.yul\":5851:5852   */\n      0x01\n        /* \"#utility.yul\":5848:5849   */\n      dup2\n        /* \"#utility.yul\":5844:5853   */\n      add\n        /* \"#utility.yul\":5839:5853   */\n      swap1\n      pop\n        /* \"#utility.yul\":5804:6088   */\n      jump(tag_179)\n    tag_181:\n        /* \"#utility.yul\":5808:5822   */\n      pop\n        /* \"#utility.yul\":6104:6107   */\n      dup6\n        /* \"#utility.yul\":6097:6107   */\n      swap4\n      pop\n        /* \"#utility.yul\":5505:6113   */\n      pop\n      pop\n      pop\n        /* \"#utility.yul\":5381:6113   */\n      swap3\n      swap2\n      pop\n      pop\n      jump\t// out\n        /* \"#utility.yul\":6119:6492   */\n    tag_21:\n        /* \"#utility.yul\":6262:6266   */\n      0x00\n        /* \"#utility.yul\":6300:6302   */\n      0x20\n        /* \"#utility.yul\":6289:6298   */\n      dup3\n        /* \"#utility.yul\":6285:6303   */\n      add\n        /* \"#utility.yul\":6277:6303   */\n      swap1\n      pop\n        /* \"#utility.yul\":6349:6358   */\n      dup2\n        /* \"#utility.yul\":6343:6347   */\n      dup2\n        /* \"#utility.yul\":6339:6359   */\n      sub\n        /* \"#utility.yul\":6335:6336   */\n      0x00\n        /* \"#utility.yul\":6324:6333   */\n      dup4\n        /* \"#utility.yul\":6320:6337   */\n      add\n        /* \"#utility.yul\":6313:6360   */\n      mstore\n        /* \"#utility.yul\":6377:6485   */\n      tag_185\n        /* \"#utility.yul\":6480:6484   */\n      dup2\n        /* \"#utility.yul\":6471:6477   */\n      dup5\n        /* \"#utility.yul\":6377:6485   */\n      tag_98\n      jump\t// in\n    tag_185:\n        /* \"#utility.yul\":6369:6485   */\n      swap1\n      pop\n        /* \"#utility.yul\":6119:6492   */\n      swap3\n      swap2\n      pop\n      pop\n      jump\t// out\n        /* \"#utility.yul\":6498:6597   */\n    tag_99:\n        /* \"#utility.yul\":6550:6556   */\n      0x00\n        /* \"#utility.yul\":6584:6589   */\n      dup2\n        /* \"#utility.yul\":6578:6590   */\n      mload\n        /* \"#utility.yul\":6568:6590   */\n      swap1\n      pop\n        /* \"#utility.yul\":6498:6597   */\n      swap2\n      swap1\n      pop\n      jump\t// out\n        /* \"#utility.yul\":6603:6772   */\n    tag_100:\n        /* \"#utility.yul\":6687:6698   */\n      0x00\n        /* \"#utility.yul\":6721:6727   */\n      dup3\n        /* \"#utility.yul\":6716:6719   */\n      dup3\n        /* \"#utility.yul\":6709:6728   */\n      mstore\n        /* \"#utility.yul\":6761:6765   */\n      0x20\n        /* \"#utility.yul\":6756:6759   */\n      dup3\n        /* \"#utility.yul\":6752:6766   */\n      add\n        /* \"#utility.yul\":6737:6766   */\n      swap1\n      pop\n        /* \"#utility.yul\":6603:6772   */\n      swap3\n      swap2\n      pop\n      pop\n      jump\t// out\n        /* \"#utility.yul\":6778:7085   */\n    tag_101:\n        /* \"#utility.yul\":6846:6847   */\n      0x00\n        /* \"#utility.yul\":6856:6969   */\n    tag_189:\n        /* \"#utility.yul\":6870:6876   */\n      dup4\n        /* \"#utility.yul\":6867:6868   */\n      dup2\n        /* \"#utility.yul\":6864:6877   */\n      lt\n        /* \"#utility.yul\":6856:6969   */\n      iszero\n      tag_191\n      jumpi\n        /* \"#utility.yul\":6955:6956   */\n      dup1\n        /* \"#utility.yul\":6950:6953   */\n      dup3\n        /* \"#utility.yul\":6946:6957   */\n      add\n        /* \"#utility.yul\":6940:6958   */\n      mload\n        /* \"#utility.yul\":6936:6937   */\n      dup2\n        /* \"#utility.yul\":6931:6934   */\n      dup5\n        /* \"#utility.yul\":6927:6938   */\n      add\n        /* \"#utility.yul\":6920:6959   */\n      mstore\n        /* \"#utility.yul\":6892:6894   */\n      0x20\n        /* \"#utility.yul\":6889:6890   */\n      dup2\n        /* \"#utility.yul\":6885:6895   */\n      add\n        /* \"#utility.yul\":6880:6895   */\n      swap1\n      pop\n        /* \"#utility.yul\":6856:6969   */\n      jump(tag_189)\n    tag_191:\n        /* \"#utility.yul\":6987:6993   */\n      dup4\n        /* \"#utility.yul\":6984:6985   */\n      dup2\n        /* \"#utility.yul\":6981:6994   */\n      gt\n        /* \"#utility.yul\":6978:7079   */\n      iszero\n      tag_192\n      jumpi\n        /* \"#utility.yul\":7067:7068   */\n      0x00\n        /* \"#utility.yul\":7058:7064   */\n      dup5\n        /* \"#utility.yul\":7053:7056   */\n      dup5\n        /* \"#utility.yul\":7049:7065   */\n      add\n        /* \"#utility.yul\":7042:7069   */\n      mstore\n        /* \"#utility.yul\":6978:7079   */\n    tag_192:\n        /* \"#utility.yul\":6827:7085   */\n      pop\n        /* \"#utility.yul\":6778:7085   */\n      pop\n      pop\n      pop\n      jump\t// out\n        /* \"#utility.yul\":7091:7455   */\n    tag_102:\n        /* \"#utility.yul\":7179:7182   */\n      0x00\n        /* \"#utility.yul\":7207:7246   */\n      tag_194\n        /* \"#utility.yul\":7240:7245   */\n      dup3\n        /* \"#utility.yul\":7207:7246   */\n      tag_99\n      jump\t// in\n    tag_194:\n        /* \"#utility.yul\":7262:7333   */\n      tag_195\n        /* \"#utility.yul\":7326:7332   */\n      dup2\n        /* \"#utility.yul\":7321:7324   */\n      dup6\n        /* \"#utility.yul\":7262:7333   */\n      tag_100\n      jump\t// in\n    tag_195:\n        /* \"#utility.yul\":7255:7333   */\n      swap4\n      pop\n        /* \"#utility.yul\":7342:7394   */\n      tag_196\n        /* \"#utility.yul\":7387:7393   */\n      dup2\n        /* \"#utility.yul\":7382:7385   */\n      dup6\n        /* \"#utility.yul\":7375:7379   */\n      0x20\n        /* \"#utility.yul\":7368:7373   */\n      dup7\n        /* \"#utility.yul\":7364:7380   */\n      add\n        /* \"#utility.yul\":7342:7394   */\n      tag_101\n      jump\t// in\n    tag_196:\n        /* \"#utility.yul\":7419:7448   */\n      tag_197\n        /* \"#utility.yul\":7441:7447   */\n      dup2\n        /* \"#utility.yul\":7419:7448   */\n      tag_84\n      jump\t// in\n    tag_197:\n        /* \"#utility.yul\":7414:7417   */\n      dup5\n        /* \"#utility.yul\":7410:7449   */\n      add\n        /* \"#utility.yul\":7403:7449   */\n      swap2\n      pop\n        /* \"#utility.yul\":7183:7455   */\n      pop\n        /* \"#utility.yul\":7091:7455   */\n      swap3\n      swap2\n      pop\n      pop\n      jump\t// out\n        /* \"#utility.yul\":7461:7774   */\n    tag_26:\n        /* \"#utility.yul\":7574:7578   */\n      0x00\n        /* \"#utility.yul\":7612:7614   */\n      0x20\n        /* \"#utility.yul\":7601:7610   */\n      dup3\n        /* \"#utility.yul\":7597:7615   */\n      add\n        /* \"#utility.yul\":7589:7615   */\n      swap1\n      pop\n        /* \"#utility.yul\":7661:7670   */\n      dup2\n        /* \"#utility.yul\":7655:7659   */\n      dup2\n        /* \"#utility.yul\":7651:7671   */\n      sub\n        /* \"#utility.yul\":7647:7648   */\n      0x00\n        /* \"#utility.yul\":7636:7645   */\n      dup4\n        /* \"#utility.yul\":7632:7649   */\n      add\n        /* \"#utility.yul\":7625:7672   */\n      mstore\n        /* \"#utility.yul\":7689:7767   */\n      tag_199\n        /* \"#utility.yul\":7762:7766   */\n      dup2\n        /* \"#utility.yul\":7753:7759   */\n      dup5\n        /* \"#utility.yul\":7689:7767   */\n      tag_102\n      jump\t// in\n    tag_199:\n        /* \"#utility.yul\":7681:7767   */\n      swap1\n      pop\n        /* \"#utility.yul\":7461:7774   */\n      swap3\n      swap2\n      pop\n      pop\n      jump\t// out\n        /* \"#utility.yul\":7780:7904   */\n    tag_103:\n        /* \"#utility.yul\":7857:7863   */\n      0x00\n        /* \"#utility.yul\":7891:7896   */\n      dup2\n        /* \"#utility.yul\":7885:7897   */\n      mload\n        /* \"#utility.yul\":7875:7897   */\n      swap1\n      pop\n        /* \"#utility.yul\":7780:7904   */\n      swap2\n      swap1\n      pop\n      jump\t// out\n        /* \"#utility.yul\":7910:8104   */\n    tag_104:\n        /* \"#utility.yul\":8019:8030   */\n      0x00\n        /* \"#utility.yul\":8053:8059   */\n      dup3\n        /* \"#utility.yul\":8048:8051   */\n      dup3\n        /* \"#utility.yul\":8041:8060   */\n      mstore\n        /* \"#utility.yul\":8093:8097   */\n      0x20\n        /* \"#utility.yul\":8088:8091   */\n      dup3\n        /* \"#utility.yul\":8084:8098   */\n      add\n        /* \"#utility.yul\":8069:8098   */\n      swap1\n      pop\n        /* \"#utility.yul\":7910:8104   */\n      swap3\n      swap2\n      pop\n      pop\n      jump\t// out\n        /* \"#utility.yul\":8110:8252   */\n    tag_105:\n        /* \"#utility.yul\":8187:8191   */\n      0x00\n        /* \"#utility.yul\":8210:8213   */\n      dup2\n        /* \"#utility.yul\":8202:8213   */\n      swap1\n      pop\n        /* \"#utility.yul\":8240:8244   */\n      0x20\n        /* \"#utility.yul\":8235:8238   */\n      dup3\n        /* \"#utility.yul\":8231:8245   */\n      add\n        /* \"#utility.yul\":8223:8245   */\n      swap1\n      pop\n        /* \"#utility.yul\":8110:8252   */\n      swap2\n      swap1\n      pop\n      jump\t// out\n        /* \"#utility.yul\":8258:8417   */\n    tag_106:\n        /* \"#utility.yul\":8332:8343   */\n      0x00\n        /* \"#utility.yul\":8366:8372   */\n      dup3\n        /* \"#utility.yul\":8361:8364   */\n      dup3\n        /* \"#utility.yul\":8354:8373   */\n      mstore\n        /* \"#utility.yul\":8406:8410   */\n      0x20\n        /* \"#utility.yul\":8401:8404   */\n      dup3\n        /* \"#utility.yul\":8397:8411   */\n      add\n        /* \"#utility.yul\":8382:8411   */\n      swap1\n      pop\n        /* \"#utility.yul\":8258:8417   */\n      swap3\n      swap2\n      pop\n      pop\n      jump\t// out\n        /* \"#utility.yul\":8423:8767   */\n    tag_107:\n        /* \"#utility.yul\":8501:8504   */\n      0x00\n        /* \"#utility.yul\":8529:8568   */\n      tag_205\n        /* \"#utility.yul\":8562:8567   */\n      dup3\n        /* \"#utility.yul\":8529:8568   */\n      tag_99\n      jump\t// in\n    tag_205:\n        /* \"#utility.yul\":8584:8645   */\n      tag_206\n        /* \"#utility.yul\":8638:8644   */\n      dup2\n        /* \"#utility.yul\":8633:8636   */\n      dup6\n        /* \"#utility.yul\":8584:8645   */\n      tag_106\n      jump\t// in\n    tag_206:\n        /* \"#utility.yul\":8577:8645   */\n      swap4\n      pop\n        /* \"#utility.yul\":8654:8706   */\n      tag_207\n        /* \"#utility.yul\":8699:8705   */\n      dup2\n        /* \"#utility.yul\":8694:8697   */\n      dup6\n        /* \"#utility.yul\":8687:8691   */\n      0x20\n        /* \"#utility.yul\":8680:8685   */\n      dup7\n        /* \"#utility.yul\":8676:8692   */\n      add\n        /* \"#utility.yul\":8654:8706   */\n      tag_101\n      jump\t// in\n    tag_207:\n        /* \"#utility.yul\":8731:8760   */\n      tag_208\n        /* \"#utility.yul\":8753:8759   */\n      dup2\n        /* \"#utility.yul\":8731:8760   */\n      tag_84\n      jump\t// in\n    tag_208:\n        /* \"#utility.yul\":8726:8729   */\n      dup5\n        /* \"#utility.yul\":8722:8761   */\n      add\n        /* \"#utility.yul\":8715:8761   */\n      swap2\n      pop\n        /* \"#utility.yul\":8505:8767   */\n      pop\n        /* \"#utility.yul\":8423:8767   */\n      swap3\n      swap2\n      pop\n      pop\n      jump\t// out\n        /* \"#utility.yul\":8773:8969   */\n    tag_108:\n        /* \"#utility.yul\":8862:8872   */\n      0x00\n        /* \"#utility.yul\":8897:8963   */\n      tag_210\n        /* \"#utility.yul\":8959:8962   */\n      dup4\n        /* \"#utility.yul\":8951:8957   */\n      dup4\n        /* \"#utility.yul\":8897:8963   */\n      tag_107\n      jump\t// in\n    tag_210:\n        /* \"#utility.yul\":8883:8963   */\n      swap1\n      pop\n        /* \"#utility.yul\":8773:8969   */\n      swap3\n      swap2\n      pop\n      pop\n      jump\t// out\n        /* \"#utility.yul\":8975:9098   */\n    tag_109:\n        /* \"#utility.yul\":9055:9059   */\n      0x00\n        /* \"#utility.yul\":9087:9091   */\n      0x20\n        /* \"#utility.yul\":9082:9085   */\n      dup3\n        /* \"#utility.yul\":9078:9092   */\n      add\n        /* \"#utility.yul\":9070:9092   */\n      swap1\n      pop\n        /* \"#utility.yul\":8975:9098   */\n      swap2\n      swap1\n      pop\n      jump\t// out\n        /* \"#utility.yul\":9132:10123   */\n    tag_110:\n        /* \"#utility.yul\":9271:9274   */\n      0x00\n        /* \"#utility.yul\":9300:9364   */\n      tag_213\n        /* \"#utility.yul\":9358:9363   */\n      dup3\n        /* \"#utility.yul\":9300:9364   */\n      tag_103\n      jump\t// in\n    tag_213:\n        /* \"#utility.yul\":9380:9476   */\n      tag_214\n        /* \"#utility.yul\":9469:9475   */\n      dup2\n        /* \"#utility.yul\":9464:9467   */\n      dup6\n        /* \"#utility.yul\":9380:9476   */\n      tag_104\n      jump\t// in\n    tag_214:\n        /* \"#utility.yul\":9373:9476   */\n      swap4\n      pop\n        /* \"#utility.yul\":9502:9505   */\n      dup4\n        /* \"#utility.yul\":9547:9551   */\n      0x20\n        /* \"#utility.yul\":9539:9545   */\n      dup3\n        /* \"#utility.yul\":9535:9552   */\n      mul\n        /* \"#utility.yul\":9530:9533   */\n      dup6\n        /* \"#utility.yul\":9526:9553   */\n      add\n        /* \"#utility.yul\":9577:9643   */\n      tag_215\n        /* \"#utility.yul\":9637:9642   */\n      dup6\n        /* \"#utility.yul\":9577:9643   */\n      tag_105\n      jump\t// in\n    tag_215:\n        /* \"#utility.yul\":9666:9673   */\n      dup1\n        /* \"#utility.yul\":9697:9698   */\n      0x00\n        /* \"#utility.yul\":9682:10078   */\n    tag_216:\n        /* \"#utility.yul\":9707:9713   */\n      dup6\n        /* \"#utility.yul\":9704:9705   */\n      dup2\n        /* \"#utility.yul\":9701:9714   */\n      lt\n        /* \"#utility.yul\":9682:10078   */\n      iszero\n      tag_218\n      jumpi\n        /* \"#utility.yul\":9778:9787   */\n      dup5\n        /* \"#utility.yul\":9772:9776   */\n      dup5\n        /* \"#utility.yul\":9768:9788   */\n      sub\n        /* \"#utility.yul\":9763:9766   */\n      dup10\n        /* \"#utility.yul\":9756:9789   */\n      mstore\n        /* \"#utility.yul\":9829:9835   */\n      dup2\n        /* \"#utility.yul\":9823:9836   */\n      mload\n        /* \"#utility.yul\":9857:9941   */\n      tag_219\n        /* \"#utility.yul\":9936:9940   */\n      dup6\n        /* \"#utility.yul\":9921:9934   */\n      dup3\n        /* \"#utility.yul\":9857:9941   */\n      tag_108\n      jump\t// in\n    tag_219:\n        /* \"#utility.yul\":9849:9941   */\n      swap5\n      pop\n        /* \"#utility.yul\":9964:10034   */\n      tag_220\n        /* \"#utility.yul\":10027:10033   */\n      dup4\n        /* \"#utility.yul\":9964:10034   */\n      tag_109\n      jump\t// in\n    tag_220:\n        /* \"#utility.yul\":9954:10034   */\n      swap3\n      pop\n        /* \"#utility.yul\":10063:10067   */\n      0x20\n        /* \"#utility.yul\":10058:10061   */\n      dup11\n        /* \"#utility.yul\":10054:10068   */\n      add\n        /* \"#utility.yul\":10047:10068   */\n      swap10\n      pop\n        /* \"#utility.yul\":9742:10078   */\n      pop\n        /* \"#utility.yul\":9729:9730   */\n      0x01\n        /* \"#utility.yul\":9726:9727   */\n      dup2\n        /* \"#utility.yul\":9722:9731   */\n      add\n        /* \"#utility.yul\":9717:9731   */\n      swap1\n      pop\n        /* \"#utility.yul\":9682:10078   */\n      jump(tag_216)\n    tag_218:\n        /* \"#utility.yul\":9686:9700   */\n      pop\n        /* \"#utility.yul\":10094:10098   */\n      dup3\n        /* \"#utility.yul\":10087:10098   */\n      swap8\n      pop\n        /* \"#utility.yul\":10114:10117   */\n      dup8\n        /* \"#utility.yul\":10107:10117   */\n      swap6\n      pop\n        /* \"#utility.yul\":9276:10123   */\n      pop\n      pop\n      pop\n      pop\n      pop\n        /* \"#utility.yul\":9132:10123   */\n      swap3\n      swap2\n      pop\n      pop\n      jump\t// out\n        /* \"#utility.yul\":10129:10542   */\n    tag_30:\n        /* \"#utility.yul\":10292:10296   */\n      0x00\n        /* \"#utility.yul\":10330:10332   */\n      0x20\n        /* \"#utility.yul\":10319:10328   */\n      dup3\n        /* \"#utility.yul\":10315:10333   */\n      add\n        /* \"#utility.yul\":10307:10333   */\n      swap1\n      pop\n        /* \"#utility.yul\":10379:10388   */\n      dup2\n        /* \"#utility.yul\":10373:10377   */\n      dup2\n        /* \"#utility.yul\":10369:10389   */\n      sub\n        /* \"#utility.yul\":10365:10366   */\n      0x00\n        /* \"#utility.yul\":10354:10363   */\n      dup4\n        /* \"#utility.yul\":10350:10367   */\n      add\n        /* \"#utility.yul\":10343:10390   */\n      mstore\n        /* \"#utility.yul\":10407:10535   */\n      tag_222\n        /* \"#utility.yul\":10530:10534   */\n      dup2\n        /* \"#utility.yul\":10521:10527   */\n      dup5\n        /* \"#utility.yul\":10407:10535   */\n      tag_110\n      jump\t// in\n    tag_222:\n        /* \"#utility.yul\":10399:10535   */\n      swap1\n      pop\n        /* \"#utility.yul\":10129:10542   */\n      swap3\n      swap2\n      pop\n      pop\n      jump\t// out\n        /* \"#utility.yul\":10548:10666   */\n    tag_111:\n        /* \"#utility.yul\":10635:10659   */\n      tag_224\n        /* \"#utility.yul\":10653:10658   */\n      dup2\n        /* \"#utility.yul\":10635:10659   */\n      tag_76\n      jump\t// in\n    tag_224:\n        /* \"#utility.yul\":10630:10633   */\n      dup3\n        /* \"#utility.yul\":10623:10660   */\n      mstore\n        /* \"#utility.yul\":10548:10666   */\n      pop\n      pop\n      jump\t// out\n        /* \"#utility.yul\":10672:11205   */\n    tag_37:\n        /* \"#utility.yul\":10841:10845   */\n      0x00\n        /* \"#utility.yul\":10879:10881   */\n      0x60\n        /* \"#utility.yul\":10868:10877   */\n      dup3\n        /* \"#utility.yul\":10864:10882   */\n      add\n        /* \"#utility.yul\":10856:10882   */\n      swap1\n      pop\n        /* \"#utility.yul\":10892:10963   */\n      tag_226\n        /* \"#utility.yul\":10960:10961   */\n      0x00\n        /* \"#utility.yul\":10949:10958   */\n      dup4\n        /* \"#utility.yul\":10945:10962   */\n      add\n        /* \"#utility.yul\":10936:10942   */\n      dup7\n        /* \"#utility.yul\":10892:10963   */\n      tag_111\n      jump\t// in\n    tag_226:\n        /* \"#utility.yul\":11010:11019   */\n      dup2\n        /* \"#utility.yul\":11004:11008   */\n      dup2\n        /* \"#utility.yul\":11000:11020   */\n      sub\n        /* \"#utility.yul\":10995:10997   */\n      0x20\n        /* \"#utility.yul\":10984:10993   */\n      dup4\n        /* \"#utility.yul\":10980:10998   */\n      add\n        /* \"#utility.yul\":10973:11021   */\n      mstore\n        /* \"#utility.yul\":11038:11116   */\n      tag_227\n        /* \"#utility.yul\":11111:11115   */\n      dup2\n        /* \"#utility.yul\":11102:11108   */\n      dup6\n        /* \"#utility.yul\":11038:11116   */\n      tag_102\n      jump\t// in\n    tag_227:\n        /* \"#utility.yul\":11030:11116   */\n      swap1\n      pop\n        /* \"#utility.yul\":11126:11198   */\n      tag_228\n        /* \"#utility.yul\":11194:11196   */\n      0x40\n        /* \"#utility.yul\":11183:11192   */\n      dup4\n        /* \"#utility.yul\":11179:11197   */\n      add\n        /* \"#utility.yul\":11170:11176   */\n      dup5\n        /* \"#utility.yul\":11126:11198   */\n      tag_81\n      jump\t// in\n    tag_228:\n        /* \"#utility.yul\":10672:11205   */\n      swap5\n      swap4\n      pop\n      pop\n      pop\n      pop\n      jump\t// out\n        /* \"#utility.yul\":11211:11391   */\n    tag_112:\n        /* \"#utility.yul\":11259:11336   */\n      0x4e487b7100000000000000000000000000000000000000000000000000000000\n        /* \"#utility.yul\":11256:11257   */\n      0x00\n        /* \"#utility.yul\":11249:11337   */\n      mstore\n        /* \"#utility.yul\":11356:11360   */\n      0x22\n        /* \"#utility.yul\":11353:11354   */\n      0x04\n        /* \"#utility.yul\":11346:11361   */\n      mstore\n        /* \"#utility.yul\":11380:11384   */\n      0x24\n        /* \"#utility.yul\":11377:11378   */\n      0x00\n        /* \"#utility.yul\":11370:11385   */\n      revert\n        /* \"#utility.yul\":11397:11717   */\n    tag_49:\n        /* \"#utility.yul\":11441:11447   */\n      0x00\n        /* \"#utility.yul\":11478:11479   */\n      0x02\n        /* \"#utility.yul\":11472:11476   */\n      dup3\n        /* \"#utility.yul\":11468:11480   */\n      div\n        /* \"#utility.yul\":11458:11480   */\n      swap1\n      pop\n        /* \"#utility.yul\":11525:11526   */\n      0x01\n        /* \"#utility.yul\":11519:11523   */\n      dup3\n        /* \"#utility.yul\":11515:11527   */\n      and\n        /* \"#utility.yul\":11546:11564   */\n      dup1\n        /* \"#utility.yul\":11536:11617   */\n      tag_231\n      jumpi\n        /* \"#utility.yul\":11602:11606   */\n      0x7f\n        /* \"#utility.yul\":11594:11600   */\n      dup3\n        /* \"#utility.yul\":11590:11607   */\n      and\n        /* \"#utility.yul\":11580:11607   */\n      swap2\n      pop\n        /* \"#utility.yul\":11536:11617   */\n    tag_231:\n        /* \"#utility.yul\":11664:11666   */\n      0x20\n        /* \"#utility.yul\":11656:11662   */\n      dup3\n        /* \"#utility.yul\":11653:11667   */\n      lt\n        /* \"#utility.yul\":11633:11651   */\n      dup2\n        /* \"#utility.yul\":11630:11668   */\n      sub\n        /* \"#utility.yul\":11627:11711   */\n      tag_232\n      jumpi\n        /* \"#utility.yul\":11683:11701   */\n      tag_233\n      tag_112\n      jump\t// in\n    tag_233:\n        /* \"#utility.yul\":11627:11711   */\n    tag_232:\n        /* \"#utility.yul\":11448:11717   */\n      pop\n        /* \"#utility.yul\":11397:11717   */\n      swap2\n      swap1\n      pop\n      jump\t// out\n    stop\n\n    sub_0: assembly {\n            /* \"Campaign.sol\":677:3558  contract Campaign {... */\n          mstore(0x40, 0x80)\n            /* \"Campaign.sol\":1390:1601  constructor(uint _minimumContribution, string memory _campaignName, address _manager) {... */\n          callvalue\n          dup1\n          iszero\n          tag_1\n          jumpi\n          0x00\n          dup1\n          revert\n        tag_1:\n          pop\n          mload(0x40)\n          sub(codesize, bytecodeSize)\n          dup1\n          bytecodeSize\n          dup4\n          codecopy\n          dup2\n          dup2\n          add\n          0x40\n          mstore\n          dup2\n          add\n          swap1\n          tag_2\n          swap2\n          swap1\n          tag_3\n          jump\t// in\n        tag_2:\n            /* \"Campaign.sol\":1508:1528  _minimumContribution */\n          dup3\n            /* \"Campaign.sol\":1486:1505  minimumContribution */\n          0x02\n            /* \"Campaign.sol\":1486:1528  minimumContribution = _minimumContribution */\n          dup2\n          swap1\n          sstore\n          pop\n            /* \"Campaign.sol\":1553:1566  _campaignName */\n          dup2\n            /* \"Campaign.sol\":1538:1550  campaignName */\n          0x01\n            /* \"Campaign.sol\":1538:1566  campaignName = _campaignName */\n          swap1\n          dup1\n          mload\n          swap1\n          0x20\n          add\n          swap1\n          tag_6\n          swap3\n          swap2\n          swap1\n          tag_7\n          jump\t// in\n        tag_6:\n          pop\n            /* \"Campaign.sol\":1586:1594  _manager */\n          dup1\n            /* \"Campaign.sol\":1576:1583  manager */\n          0x00\n          dup1\n            /* \"Campaign.sol\":1576:1594  manager = _manager */\n          0x0100\n          exp\n          dup2\n          sload\n          dup2\n          0xffffffffffffffffffffffffffffffffffffffff\n          mul\n          not\n          and\n          swap1\n          dup4\n          0xffffffffffffffffffffffffffffffffffffffff\n          and\n          mul\n          or\n          swap1\n          sstore\n          pop\n            /* \"Campaign.sol\":1390:1601  constructor(uint _minimumContribution, string memory _campaignName, address _manager) {... */\n          pop\n          pop\n          pop\n            /* \"Campaign.sol\":677:3558  contract Campaign {... */\n          jump(tag_8)\n        tag_7:\n          dup3\n          dup1\n          sload\n          tag_9\n          swap1\n          tag_10\n          jump\t// in\n        tag_9:\n          swap1\n          0x00\n          mstore\n          keccak256(0x00, 0x20)\n          swap1\n          0x1f\n          add\n          0x20\n          swap1\n          div\n          dup2\n          add\n          swap3\n          dup3\n          tag_12\n          jumpi\n          0x00\n          dup6\n          sstore\n          jump(tag_11)\n        tag_12:\n          dup3\n          0x1f\n          lt\n          tag_13\n          jumpi\n          dup1\n          mload\n          not(0xff)\n          and\n          dup4\n          dup1\n          add\n          or\n          dup6\n          sstore\n          jump(tag_11)\n        tag_13:\n          dup3\n          dup1\n          add\n          0x01\n          add\n          dup6\n          sstore\n          dup3\n          iszero\n          tag_11\n          jumpi\n          swap2\n          dup3\n          add\n        tag_14:\n          dup3\n          dup2\n          gt\n          iszero\n          tag_15\n          jumpi\n          dup3\n          mload\n          dup3\n          sstore\n          swap2\n          0x20\n          add\n          swap2\n          swap1\n          0x01\n          add\n          swap1\n          jump(tag_14)\n        tag_15:\n        tag_11:\n          pop\n          swap1\n          pop\n          tag_16\n          swap2\n          swap1\n          tag_17\n          jump\t// in\n        tag_16:\n          pop\n          swap1\n          jump\t// out\n        tag_17:\n        tag_18:\n          dup1\n          dup3\n          gt\n          iszero\n          tag_19\n          jumpi\n          0x00\n          dup2\n          0x00\n          swap1\n          sstore\n          pop\n          0x01\n          add\n          jump(tag_18)\n        tag_19:\n          pop\n          swap1\n          jump\t// out\n            /* \"#utility.yul\":7:82   */\n        tag_20:\n            /* \"#utility.yul\":40:46   */\n          0x00\n            /* \"#utility.yul\":73:75   */\n          0x40\n            /* \"#utility.yul\":67:76   */\n          mload\n            /* \"#utility.yul\":57:76   */\n          swap1\n          pop\n            /* \"#utility.yul\":7:82   */\n          swap1\n          jump\t// out\n            /* \"#utility.yul\":88:205   */\n        tag_21:\n            /* \"#utility.yul\":197:198   */\n          0x00\n            /* \"#utility.yul\":194:195   */\n          dup1\n            /* \"#utility.yul\":187:199   */\n          revert\n            /* \"#utility.yul\":211:328   */\n        tag_22:\n            /* \"#utility.yul\":320:321   */\n          0x00\n            /* \"#utility.yul\":317:318   */\n          dup1\n            /* \"#utility.yul\":310:322   */\n          revert\n            /* \"#utility.yul\":334:411   */\n        tag_23:\n            /* \"#utility.yul\":371:378   */\n          0x00\n            /* \"#utility.yul\":400:405   */\n          dup2\n            /* \"#utility.yul\":389:405   */\n          swap1\n          pop\n            /* \"#utility.yul\":334:411   */\n          swap2\n          swap1\n          pop\n          jump\t// out\n            /* \"#utility.yul\":417:539   */\n        tag_24:\n            /* \"#utility.yul\":490:514   */\n          tag_47\n            /* \"#utility.yul\":508:513   */\n          dup2\n            /* \"#utility.yul\":490:514   */\n          tag_23\n          jump\t// in\n        tag_47:\n            /* \"#utility.yul\":483:488   */\n          dup2\n            /* \"#utility.yul\":480:515   */\n          eq\n            /* \"#utility.yul\":470:533   */\n          tag_48\n          jumpi\n            /* \"#utility.yul\":529:530   */\n          0x00\n            /* \"#utility.yul\":526:527   */\n          dup1\n            /* \"#utility.yul\":519:531   */\n          revert\n            /* \"#utility.yul\":470:533   */\n        tag_48:\n            /* \"#utility.yul\":417:539   */\n          pop\n          jump\t// out\n            /* \"#utility.yul\":545:688   */\n        tag_25:\n            /* \"#utility.yul\":602:607   */\n          0x00\n            /* \"#utility.yul\":633:639   */\n          dup2\n            /* \"#utility.yul\":627:640   */\n          mload\n            /* \"#utility.yul\":618:640   */\n          swap1\n          pop\n            /* \"#utility.yul\":649:682   */\n          tag_50\n            /* \"#utility.yul\":676:681   */\n          dup2\n            /* \"#utility.yul\":649:682   */\n          tag_24\n          jump\t// in\n        tag_50:\n            /* \"#utility.yul\":545:688   */\n          swap3\n          swap2\n          pop\n          pop\n          jump\t// out\n            /* \"#utility.yul\":694:811   */\n        tag_26:\n            /* \"#utility.yul\":803:804   */\n          0x00\n            /* \"#utility.yul\":800:801   */\n          dup1\n            /* \"#utility.yul\":793:805   */\n          revert\n            /* \"#utility.yul\":817:934   */\n        tag_27:\n            /* \"#utility.yul\":926:927   */\n          0x00\n            /* \"#utility.yul\":923:924   */\n          dup1\n            /* \"#utility.yul\":916:928   */\n          revert\n            /* \"#utility.yul\":940:1042   */\n        tag_28:\n            /* \"#utility.yul\":981:987   */\n          0x00\n            /* \"#utility.yul\":1032:1034   */\n          0x1f\n            /* \"#utility.yul\":1028:1035   */\n          not\n            /* \"#utility.yul\":1023:1025   */\n          0x1f\n            /* \"#utility.yul\":1016:1021   */\n          dup4\n            /* \"#utility.yul\":1012:1026   */\n          add\n            /* \"#utility.yul\":1008:1036   */\n          and\n            /* \"#utility.yul\":998:1036   */\n          swap1\n          pop\n            /* \"#utility.yul\":940:1042   */\n          swap2\n          swap1\n          pop\n          jump\t// out\n            /* \"#utility.yul\":1048:1228   */\n        tag_29:\n            /* \"#utility.yul\":1096:1173   */\n          0x4e487b7100000000000000000000000000000000000000000000000000000000\n            /* \"#utility.yul\":1093:1094   */\n          0x00\n            /* \"#utility.yul\":1086:1174   */\n          mstore\n            /* \"#utility.yul\":1193:1197   */\n          0x41\n            /* \"#utility.yul\":1190:1191   */\n          0x04\n            /* \"#utility.yul\":1183:1198   */\n          mstore\n            /* \"#utility.yul\":1217:1221   */\n          0x24\n            /* \"#utility.yul\":1214:1215   */\n          0x00\n            /* \"#utility.yul\":1207:1222   */\n          revert\n            /* \"#utility.yul\":1234:1515   */\n        tag_30:\n            /* \"#utility.yul\":1317:1344   */\n          tag_56\n            /* \"#utility.yul\":1339:1343   */\n          dup3\n            /* \"#utility.yul\":1317:1344   */\n          tag_28\n          jump\t// in\n        tag_56:\n            /* \"#utility.yul\":1309:1315   */\n          dup2\n            /* \"#utility.yul\":1305:1345   */\n          add\n            /* \"#utility.yul\":1447:1453   */\n          dup2\n            /* \"#utility.yul\":1435:1445   */\n          dup2\n            /* \"#utility.yul\":1432:1454   */\n          lt\n            /* \"#utility.yul\":1411:1429   */\n          0xffffffffffffffff\n            /* \"#utility.yul\":1399:1409   */\n          dup3\n            /* \"#utility.yul\":1396:1430   */\n          gt\n            /* \"#utility.yul\":1393:1455   */\n          or\n            /* \"#utility.yul\":1390:1478   */\n          iszero\n          tag_57\n          jumpi\n            /* \"#utility.yul\":1458:1476   */\n          tag_58\n          tag_29\n          jump\t// in\n        tag_58:\n            /* \"#utility.yul\":1390:1478   */\n        tag_57:\n            /* \"#utility.yul\":1498:1508   */\n          dup1\n            /* \"#utility.yul\":1494:1496   */\n          0x40\n            /* \"#utility.yul\":1487:1509   */\n          mstore\n            /* \"#utility.yul\":1277:1515   */\n          pop\n            /* \"#utility.yul\":1234:1515   */\n          pop\n          pop\n          jump\t// out\n            /* \"#utility.yul\":1521:1650   */\n        tag_31:\n            /* \"#utility.yul\":1555:1561   */\n          0x00\n            /* \"#utility.yul\":1582:1602   */\n          tag_60\n          tag_20\n          jump\t// in\n        tag_60:\n            /* \"#utility.yul\":1572:1602   */\n          swap1\n          pop\n            /* \"#utility.yul\":1611:1644   */\n          tag_61\n            /* \"#utility.yul\":1639:1643   */\n          dup3\n            /* \"#utility.yul\":1631:1637   */\n          dup3\n            /* \"#utility.yul\":1611:1644   */\n          tag_30\n          jump\t// in\n        tag_61:\n            /* \"#utility.yul\":1521:1650   */\n          swap2\n          swap1\n          pop\n          jump\t// out\n            /* \"#utility.yul\":1656:1964   */\n        tag_32:\n            /* \"#utility.yul\":1718:1722   */\n          0x00\n            /* \"#utility.yul\":1808:1826   */\n          0xffffffffffffffff\n            /* \"#utility.yul\":1800:1806   */\n          dup3\n            /* \"#utility.yul\":1797:1827   */\n          gt\n            /* \"#utility.yul\":1794:1850   */\n          iszero\n          tag_63\n          jumpi\n            /* \"#utility.yul\":1830:1848   */\n          tag_64\n          tag_29\n          jump\t// in\n        tag_64:\n            /* \"#utility.yul\":1794:1850   */\n        tag_63:\n            /* \"#utility.yul\":1868:1897   */\n          tag_65\n            /* \"#utility.yul\":1890:1896   */\n          dup3\n            /* \"#utility.yul\":1868:1897   */\n          tag_28\n          jump\t// in\n        tag_65:\n            /* \"#utility.yul\":1860:1897   */\n          swap1\n          pop\n            /* \"#utility.yul\":1952:1956   */\n          0x20\n            /* \"#utility.yul\":1946:1950   */\n          dup2\n            /* \"#utility.yul\":1942:1957   */\n          add\n            /* \"#utility.yul\":1934:1957   */\n          swap1\n          pop\n            /* \"#utility.yul\":1656:1964   */\n          swap2\n          swap1\n          pop\n          jump\t// out\n            /* \"#utility.yul\":1970:2277   */\n        tag_33:\n            /* \"#utility.yul\":2038:2039   */\n          0x00\n            /* \"#utility.yul\":2048:2161   */\n        tag_67:\n            /* \"#utility.yul\":2062:2068   */\n          dup4\n            /* \"#utility.yul\":2059:2060   */\n          dup2\n            /* \"#utility.yul\":2056:2069   */\n          lt\n            /* \"#utility.yul\":2048:2161   */\n          iszero\n          tag_69\n          jumpi\n            /* \"#utility.yul\":2147:2148   */\n          dup1\n            /* \"#utility.yul\":2142:2145   */\n          dup3\n            /* \"#utility.yul\":2138:2149   */\n          add\n            /* \"#utility.yul\":2132:2150   */\n          mload\n            /* \"#utility.yul\":2128:2129   */\n          dup2\n            /* \"#utility.yul\":2123:2126   */\n          dup5\n            /* \"#utility.yul\":2119:2130   */\n          add\n            /* \"#utility.yul\":2112:2151   */\n          mstore\n            /* \"#utility.yul\":2084:2086   */\n          0x20\n            /* \"#utility.yul\":2081:2082   */\n          dup2\n            /* \"#utility.yul\":2077:2087   */\n          add\n            /* \"#utility.yul\":2072:2087   */\n          swap1\n          pop\n            /* \"#utility.yul\":2048:2161   */\n          jump(tag_67)\n        tag_69:\n            /* \"#utility.yul\":2179:2185   */\n          dup4\n            /* \"#utility.yul\":2176:2177   */\n          dup2\n            /* \"#utility.yul\":2173:2186   */\n          gt\n            /* \"#utility.yul\":2170:2271   */\n          iszero\n          tag_70\n          jumpi\n            /* \"#utility.yul\":2259:2260   */\n          0x00\n            /* \"#utility.yul\":2250:2256   */\n          dup5\n            /* \"#utility.yul\":2245:2248   */\n          dup5\n            /* \"#utility.yul\":2241:2257   */\n          add\n            /* \"#utility.yul\":2234:2261   */\n          mstore\n            /* \"#utility.yul\":2170:2271   */\n        tag_70:\n            /* \"#utility.yul\":2019:2277   */\n          pop\n            /* \"#utility.yul\":1970:2277   */\n          pop\n          pop\n          pop\n          jump\t// out\n            /* \"#utility.yul\":2283:2704   */\n        tag_34:\n            /* \"#utility.yul\":2372:2377   */\n          0x00\n            /* \"#utility.yul\":2397:2463   */\n          tag_72\n            /* \"#utility.yul\":2413:2462   */\n          tag_73\n            /* \"#utility.yul\":2455:2461   */\n          dup5\n            /* \"#utility.yul\":2413:2462   */\n          tag_32\n          jump\t// in\n        tag_73:\n            /* \"#utility.yul\":2397:2463   */\n          tag_31\n          jump\t// in\n        tag_72:\n            /* \"#utility.yul\":2388:2463   */\n          swap1\n          pop\n            /* \"#utility.yul\":2486:2492   */\n          dup3\n            /* \"#utility.yul\":2479:2484   */\n          dup2\n            /* \"#utility.yul\":2472:2493   */\n          mstore\n            /* \"#utility.yul\":2524:2528   */\n          0x20\n            /* \"#utility.yul\":2517:2522   */\n          dup2\n            /* \"#utility.yul\":2513:2529   */\n          add\n            /* \"#utility.yul\":2562:2565   */\n          dup5\n            /* \"#utility.yul\":2553:2559   */\n          dup5\n            /* \"#utility.yul\":2548:2551   */\n          dup5\n            /* \"#utility.yul\":2544:2560   */\n          add\n            /* \"#utility.yul\":2541:2566   */\n          gt\n            /* \"#utility.yul\":2538:2650   */\n          iszero\n          tag_74\n          jumpi\n            /* \"#utility.yul\":2569:2648   */\n          tag_75\n          tag_27\n          jump\t// in\n        tag_75:\n            /* \"#utility.yul\":2538:2650   */\n        tag_74:\n            /* \"#utility.yul\":2659:2698   */\n          tag_76\n            /* \"#utility.yul\":2691:2697   */\n          dup5\n            /* \"#utility.yul\":2686:2689   */\n          dup3\n            /* \"#utility.yul\":2681:2684   */\n          dup6\n            /* \"#utility.yul\":2659:2698   */\n          tag_33\n          jump\t// in\n        tag_76:\n            /* \"#utility.yul\":2378:2704   */\n          pop\n            /* \"#utility.yul\":2283:2704   */\n          swap4\n          swap3\n          pop\n          pop\n          pop\n          jump\t// out\n            /* \"#utility.yul\":2724:3079   */\n        tag_35:\n            /* \"#utility.yul\":2791:2796   */\n          0x00\n            /* \"#utility.yul\":2840:2843   */\n          dup3\n            /* \"#utility.yul\":2833:2837   */\n          0x1f\n            /* \"#utility.yul\":2825:2831   */\n          dup4\n            /* \"#utility.yul\":2821:2838   */\n          add\n            /* \"#utility.yul\":2817:2844   */\n          slt\n            /* \"#utility.yul\":2807:2929   */\n          tag_78\n          jumpi\n            /* \"#utility.yul\":2848:2927   */\n          tag_79\n          tag_26\n          jump\t// in\n        tag_79:\n            /* \"#utility.yul\":2807:2929   */\n        tag_78:\n            /* \"#utility.yul\":2958:2964   */\n          dup2\n            /* \"#utility.yul\":2952:2965   */\n          mload\n            /* \"#utility.yul\":2983:3073   */\n          tag_80\n            /* \"#utility.yul\":3069:3072   */\n          dup5\n            /* \"#utility.yul\":3061:3067   */\n          dup3\n            /* \"#utility.yul\":3054:3058   */\n          0x20\n            /* \"#utility.yul\":3046:3052   */\n          dup7\n            /* \"#utility.yul\":3042:3059   */\n          add\n            /* \"#utility.yul\":2983:3073   */\n          tag_34\n          jump\t// in\n        tag_80:\n            /* \"#utility.yul\":2974:3073   */\n          swap2\n          pop\n            /* \"#utility.yul\":2797:3079   */\n          pop\n            /* \"#utility.yul\":2724:3079   */\n          swap3\n          swap2\n          pop\n          pop\n          jump\t// out\n            /* \"#utility.yul\":3085:3211   */\n        tag_36:\n            /* \"#utility.yul\":3122:3129   */\n          0x00\n            /* \"#utility.yul\":3162:3204   */\n          0xffffffffffffffffffffffffffffffffffffffff\n            /* \"#utility.yul\":3155:3160   */\n          dup3\n            /* \"#utility.yul\":3151:3205   */\n          and\n            /* \"#utility.yul\":3140:3205   */\n          swap1\n          pop\n            /* \"#utility.yul\":3085:3211   */\n          swap2\n          swap1\n          pop\n          jump\t// out\n            /* \"#utility.yul\":3217:3313   */\n        tag_37:\n            /* \"#utility.yul\":3254:3261   */\n          0x00\n            /* \"#utility.yul\":3283:3307   */\n          tag_83\n            /* \"#utility.yul\":3301:3306   */\n          dup3\n            /* \"#utility.yul\":3283:3307   */\n          tag_36\n          jump\t// in\n        tag_83:\n            /* \"#utility.yul\":3272:3307   */\n          swap1\n          pop\n            /* \"#utility.yul\":3217:3313   */\n          swap2\n          swap1\n          pop\n          jump\t// out\n            /* \"#utility.yul\":3319:3441   */\n        tag_38:\n            /* \"#utility.yul\":3392:3416   */\n          tag_85\n            /* \"#utility.yul\":3410:3415   */\n          dup2\n            /* \"#utility.yul\":3392:3416   */\n          tag_37\n          jump\t// in\n        tag_85:\n            /* \"#utility.yul\":3385:3390   */\n          dup2\n            /* \"#utility.yul\":3382:3417   */\n          eq\n            /* \"#utility.yul\":3372:3435   */\n          tag_86\n          jumpi\n            /* \"#utility.yul\":3431:3432   */\n          0x00\n            /* \"#utility.yul\":3428:3429   */\n          dup1\n            /* \"#utility.yul\":3421:3433   */\n          revert\n            /* \"#utility.yul\":3372:3435   */\n        tag_86:\n            /* \"#utility.yul\":3319:3441   */\n          pop\n          jump\t// out\n            /* \"#utility.yul\":3447:3590   */\n        tag_39:\n            /* \"#utility.yul\":3504:3509   */\n          0x00\n            /* \"#utility.yul\":3535:3541   */\n          dup2\n            /* \"#utility.yul\":3529:3542   */\n          mload\n            /* \"#utility.yul\":3520:3542   */\n          swap1\n          pop\n            /* \"#utility.yul\":3551:3584   */\n          tag_88\n            /* \"#utility.yul\":3578:3583   */\n          dup2\n            /* \"#utility.yul\":3551:3584   */\n          tag_38\n          jump\t// in\n        tag_88:\n            /* \"#utility.yul\":3447:3590   */\n          swap3\n          swap2\n          pop\n          pop\n          jump\t// out\n            /* \"#utility.yul\":3596:4432   */\n        tag_3:\n            /* \"#utility.yul\":3694:3700   */\n          0x00\n            /* \"#utility.yul\":3702:3708   */\n          dup1\n            /* \"#utility.yul\":3710:3716   */\n          0x00\n            /* \"#utility.yul\":3759:3761   */\n          0x60\n            /* \"#utility.yul\":3747:3756   */\n          dup5\n            /* \"#utility.yul\":3738:3745   */\n          dup7\n            /* \"#utility.yul\":3734:3757   */\n          sub\n            /* \"#utility.yul\":3730:3762   */\n          slt\n            /* \"#utility.yul\":3727:3846   */\n          iszero\n          tag_90\n          jumpi\n            /* \"#utility.yul\":3765:3844   */\n          tag_91\n          tag_21\n          jump\t// in\n        tag_91:\n            /* \"#utility.yul\":3727:3846   */\n        tag_90:\n            /* \"#utility.yul\":3885:3886   */\n          0x00\n            /* \"#utility.yul\":3910:3974   */\n          tag_92\n            /* \"#utility.yul\":3966:3973   */\n          dup7\n            /* \"#utility.yul\":3957:3963   */\n          dup3\n            /* \"#utility.yul\":3946:3955   */\n          dup8\n            /* \"#utility.yul\":3942:3964   */\n          add\n            /* \"#utility.yul\":3910:3974   */\n          tag_25\n          jump\t// in\n        tag_92:\n            /* \"#utility.yul\":3900:3974   */\n          swap4\n          pop\n            /* \"#utility.yul\":3856:3984   */\n          pop\n            /* \"#utility.yul\":4044:4046   */\n          0x20\n            /* \"#utility.yul\":4033:4042   */\n          dup5\n            /* \"#utility.yul\":4029:4047   */\n          add\n            /* \"#utility.yul\":4023:4048   */\n          mload\n            /* \"#utility.yul\":4075:4093   */\n          0xffffffffffffffff\n            /* \"#utility.yul\":4067:4073   */\n          dup2\n            /* \"#utility.yul\":4064:4094   */\n          gt\n            /* \"#utility.yul\":4061:4178   */\n          iszero\n          tag_93\n          jumpi\n            /* \"#utility.yul\":4097:4176   */\n          tag_94\n          tag_22\n          jump\t// in\n        tag_94:\n            /* \"#utility.yul\":4061:4178   */\n        tag_93:\n            /* \"#utility.yul\":4202:4276   */\n          tag_95\n            /* \"#utility.yul\":4268:4275   */\n          dup7\n            /* \"#utility.yul\":4259:4265   */\n          dup3\n            /* \"#utility.yul\":4248:4257   */\n          dup8\n            /* \"#utility.yul\":4244:4266   */\n          add\n            /* \"#utility.yul\":4202:4276   */\n          tag_35\n          jump\t// in\n        tag_95:\n            /* \"#utility.yul\":4192:4276   */\n          swap3\n          pop\n            /* \"#utility.yul\":3994:4286   */\n          pop\n            /* \"#utility.yul\":4325:4327   */\n          0x40\n            /* \"#utility.yul\":4351:4415   */\n          tag_96\n            /* \"#utility.yul\":4407:4414   */\n          dup7\n            /* \"#utility.yul\":4398:4404   */\n          dup3\n            /* \"#utility.yul\":4387:4396   */\n          dup8\n            /* \"#utility.yul\":4383:4405   */\n          add\n            /* \"#utility.yul\":4351:4415   */\n          tag_39\n          jump\t// in\n        tag_96:\n            /* \"#utility.yul\":4341:4415   */\n          swap2\n          pop\n            /* \"#utility.yul\":4296:4425   */\n          pop\n            /* \"#utility.yul\":3596:4432   */\n          swap3\n          pop\n          swap3\n          pop\n          swap3\n          jump\t// out\n            /* \"#utility.yul\":4438:4618   */\n        tag_40:\n            /* \"#utility.yul\":4486:4563   */\n          0x4e487b7100000000000000000000000000000000000000000000000000000000\n            /* \"#utility.yul\":4483:4484   */\n          0x00\n            /* \"#utility.yul\":4476:4564   */\n          mstore\n            /* \"#utility.yul\":4583:4587   */\n          0x22\n            /* \"#utility.yul\":4580:4581   */\n          0x04\n            /* \"#utility.yul\":4573:4588   */\n          mstore\n            /* \"#utility.yul\":4607:4611   */\n          0x24\n            /* \"#utility.yul\":4604:4605   */\n          0x00\n            /* \"#utility.yul\":4597:4612   */\n          revert\n            /* \"#utility.yul\":4624:4944   */\n        tag_10:\n            /* \"#utility.yul\":4668:4674   */\n          0x00\n            /* \"#utility.yul\":4705:4706   */\n          0x02\n            /* \"#utility.yul\":4699:4703   */\n          dup3\n            /* \"#utility.yul\":4695:4707   */\n          div\n            /* \"#utility.yul\":4685:4707   */\n          swap1\n          pop\n            /* \"#utility.yul\":4752:4753   */\n          0x01\n            /* \"#utility.yul\":4746:4750   */\n          dup3\n            /* \"#utility.yul\":4742:4754   */\n          and\n            /* \"#utility.yul\":4773:4791   */\n          dup1\n            /* \"#utility.yul\":4763:4844   */\n          tag_99\n          jumpi\n            /* \"#utility.yul\":4829:4833   */\n          0x7f\n            /* \"#utility.yul\":4821:4827   */\n          dup3\n            /* \"#utility.yul\":4817:4834   */\n          and\n            /* \"#utility.yul\":4807:4834   */\n          swap2\n          pop\n            /* \"#utility.yul\":4763:4844   */\n        tag_99:\n            /* \"#utility.yul\":4891:4893   */\n          0x20\n            /* \"#utility.yul\":4883:4889   */\n          dup3\n            /* \"#utility.yul\":4880:4894   */\n          lt\n            /* \"#utility.yul\":4860:4878   */\n          dup2\n            /* \"#utility.yul\":4857:4895   */\n          sub\n            /* \"#utility.yul\":4854:4938   */\n          tag_100\n          jumpi\n            /* \"#utility.yul\":4910:4928   */\n          tag_101\n          tag_40\n          jump\t// in\n        tag_101:\n            /* \"#utility.yul\":4854:4938   */\n        tag_100:\n            /* \"#utility.yul\":4675:4944   */\n          pop\n            /* \"#utility.yul\":4624:4944   */\n          swap2\n          swap1\n          pop\n          jump\t// out\n            /* \"Campaign.sol\":677:3558  contract Campaign {... */\n        tag_8:\n          dataSize(sub_0)\n          dup1\n          dataOffset(sub_0)\n          0x00\n          codecopy\n          0x00\n          return\n        stop\n\n        sub_0: assembly {\n                /* \"Campaign.sol\":677:3558  contract Campaign {... */\n              mstore(0x40, 0x80)\n              jumpi(tag_1, lt(calldatasize, 0x04))\n              shr(0xe0, calldataload(0x00))\n              dup1\n              0x7569b3d7\n              gt\n              tag_14\n              jumpi\n              dup1\n              0x7569b3d7\n              eq\n              tag_8\n              jumpi\n              dup1\n              0x81d12c58\n              eq\n              tag_9\n              jumpi\n              dup1\n              0x937e09b1\n              eq\n              tag_10\n              jumpi\n              dup1\n              0xa00c96d7\n              eq\n              tag_11\n              jumpi\n              dup1\n              0xd7bb99ba\n              eq\n              tag_12\n              jumpi\n              dup1\n              0xd7d1bbdb\n              eq\n              tag_13\n              jumpi\n              jump(tag_1)\n            tag_14:\n              dup1\n              0x03441006\n              eq\n              tag_2\n              jumpi\n              dup1\n              0x0724fda9\n              eq\n              tag_3\n              jumpi\n              dup1\n              0x1f6d4942\n              eq\n              tag_4\n              jumpi\n              dup1\n              0x26883efa\n              eq\n              tag_5\n              jumpi\n              dup1\n              0x3410452a\n              eq\n              tag_6\n              jumpi\n              dup1\n              0x481c6a75\n              eq\n              tag_7\n              jumpi\n            tag_1:\n              0x00\n              dup1\n              revert\n                /* \"Campaign.sol\":2681:3138  function finalizeRequest(uint index) public restricted {... */\n            tag_2:\n              callvalue\n              dup1\n              iszero\n              tag_15\n              jumpi\n              0x00\n              dup1\n              revert\n            tag_15:\n              pop\n              tag_16\n              0x04\n              dup1\n              calldatasize\n              sub\n              dup2\n              add\n              swap1\n              tag_17\n              swap2\n              swap1\n              tag_18\n              jump\t// in\n            tag_17:\n              tag_19\n              jump\t// in\n            tag_16:\n              stop\n                /* \"Campaign.sol\":1040:1066  string public campaignName */\n            tag_3:\n              callvalue\n              dup1\n              iszero\n              tag_20\n              jumpi\n              0x00\n              dup1\n              revert\n            tag_20:\n              pop\n              tag_21\n              tag_22\n              jump\t// in\n            tag_21:\n              mload(0x40)\n              tag_23\n              swap2\n              swap1\n              tag_24\n              jump\t// in\n            tag_23:\n              mload(0x40)\n              dup1\n              swap2\n              sub\n              swap1\n              return\n                /* \"Campaign.sol\":1213:1258  mapping(address  => bool) public contributors */\n            tag_4:\n              callvalue\n              dup1\n              iszero\n              tag_25\n              jumpi\n              0x00\n              dup1\n              revert\n            tag_25:\n              pop\n              tag_26\n              0x04\n              dup1\n              calldatasize\n              sub\n              dup2\n              add\n              swap1\n              tag_27\n              swap2\n              swap1\n              tag_28\n              jump\t// in\n            tag_27:\n              tag_29\n              jump\t// in\n            tag_26:\n              mload(0x40)\n              tag_30\n              swap2\n              swap1\n              tag_31\n              jump\t// in\n            tag_30:\n              mload(0x40)\n              dup1\n              swap2\n              sub\n              swap1\n              return\n                /* \"Campaign.sol\":1844:2299  function createRequest(string memory _description, uint _value, address payable _recipient, uint _approvalTolerance) public restricted {... */\n            tag_5:\n              callvalue\n              dup1\n              iszero\n              tag_32\n              jumpi\n              0x00\n              dup1\n              revert\n            tag_32:\n              pop\n              tag_33\n              0x04\n              dup1\n              calldatasize\n              sub\n              dup2\n              add\n              swap1\n              tag_34\n              swap2\n              swap1\n              tag_35\n              jump\t// in\n            tag_34:\n              tag_36\n              jump\t// in\n            tag_33:\n              stop\n                /* \"Campaign.sol\":3461:3555  function getRequestsCount() public view returns (uint) {... */\n            tag_6:\n              callvalue\n              dup1\n              iszero\n              tag_37\n              jumpi\n              0x00\n              dup1\n              revert\n            tag_37:\n              pop\n              tag_38\n              tag_39\n              jump\t// in\n            tag_38:\n              mload(0x40)\n              tag_40\n              swap2\n              swap1\n              tag_41\n              jump\t// in\n            tag_40:\n              mload(0x40)\n              dup1\n              swap2\n              sub\n              swap1\n              return\n                /* \"Campaign.sol\":1012:1034  address public manager */\n            tag_7:\n              callvalue\n              dup1\n              iszero\n              tag_42\n              jumpi\n              0x00\n              dup1\n              revert\n            tag_42:\n              pop\n              tag_43\n              tag_44\n              jump\t// in\n            tag_43:\n              mload(0x40)\n              tag_45\n              swap2\n              swap1\n              tag_46\n              jump\t// in\n            tag_45:\n              mload(0x40)\n              dup1\n              swap2\n              sub\n              swap1\n              return\n                /* \"Campaign.sol\":1264:1293  uint public contributorsCount */\n            tag_8:\n              callvalue\n              dup1\n              iszero\n              tag_47\n              jumpi\n              0x00\n              dup1\n              revert\n            tag_47:\n              pop\n              tag_48\n              tag_49\n              jump\t// in\n            tag_48:\n              mload(0x40)\n              tag_50\n              swap2\n              swap1\n              tag_41\n              jump\t// in\n            tag_50:\n              mload(0x40)\n              dup1\n              swap2\n              sub\n              swap1\n              return\n                /* \"Campaign.sol\":1109:1134  Request[] public requests */\n            tag_9:\n              callvalue\n              dup1\n              iszero\n              tag_51\n              jumpi\n              0x00\n              dup1\n              revert\n            tag_51:\n              pop\n              tag_52\n              0x04\n              dup1\n              calldatasize\n              sub\n              dup2\n              add\n              swap1\n              tag_53\n              swap2\n              swap1\n              tag_18\n              jump\t// in\n            tag_53:\n              tag_54\n              jump\t// in\n            tag_52:\n              mload(0x40)\n              tag_55\n              swap7\n              swap6\n              swap5\n              swap4\n              swap3\n              swap2\n              swap1\n              tag_56\n              jump\t// in\n            tag_55:\n              mload(0x40)\n              dup1\n              swap2\n              sub\n              swap1\n              return\n                /* \"Campaign.sol\":1072:1103  uint public minimumContribution */\n            tag_10:\n              callvalue\n              dup1\n              iszero\n              tag_57\n              jumpi\n              0x00\n              dup1\n              revert\n            tag_57:\n              pop\n              tag_58\n              tag_59\n              jump\t// in\n            tag_58:\n              mload(0x40)\n              tag_60\n              swap2\n              swap1\n              tag_41\n              jump\t// in\n            tag_60:\n              mload(0x40)\n              dup1\n              swap2\n              sub\n              swap1\n              return\n                /* \"Campaign.sol\":3144:3455  function getCampaignSummary() public view returns (string memory, uint, uint, uint, uint, address) {... */\n            tag_11:\n              callvalue\n              dup1\n              iszero\n              tag_61\n              jumpi\n              0x00\n              dup1\n              revert\n            tag_61:\n              pop\n              tag_62\n              tag_63\n              jump\t// in\n            tag_62:\n              mload(0x40)\n              tag_64\n              swap7\n              swap6\n              swap5\n              swap4\n              swap3\n              swap2\n              swap1\n              tag_65\n              jump\t// in\n            tag_64:\n              mload(0x40)\n              dup1\n              swap2\n              sub\n              swap1\n              return\n                /* \"Campaign.sol\":1607:1838  function contribute() public payable {... */\n            tag_12:\n              tag_66\n              tag_67\n              jump\t// in\n            tag_66:\n              stop\n                /* \"Campaign.sol\":2306:2675  function approveRequest(uint index) public {... */\n            tag_13:\n              callvalue\n              dup1\n              iszero\n              tag_68\n              jumpi\n              0x00\n              dup1\n              revert\n            tag_68:\n              pop\n              tag_69\n              0x04\n              dup1\n              calldatasize\n              sub\n              dup2\n              add\n              swap1\n              tag_70\n              swap2\n              swap1\n              tag_18\n              jump\t// in\n            tag_70:\n              tag_71\n              jump\t// in\n            tag_69:\n              stop\n                /* \"Campaign.sol\":2681:3138  function finalizeRequest(uint index) public restricted {... */\n            tag_19:\n                /* \"Campaign.sol\":1354:1361  manager */\n              0x00\n              dup1\n              sload\n              swap1\n              0x0100\n              exp\n              swap1\n              div\n              0xffffffffffffffffffffffffffffffffffffffff\n              and\n                /* \"Campaign.sol\":1340:1361  msg.sender == manager */\n              0xffffffffffffffffffffffffffffffffffffffff\n              and\n                /* \"Campaign.sol\":1340:1350  msg.sender */\n              caller\n                /* \"Campaign.sol\":1340:1361  msg.sender == manager */\n              0xffffffffffffffffffffffffffffffffffffffff\n              and\n              eq\n                /* \"Campaign.sol\":1332:1362  require(msg.sender == manager) */\n              tag_73\n              jumpi\n              0x00\n              dup1\n              revert\n            tag_73:\n                /* \"Campaign.sol\":2746:2769  Request storage request */\n              0x00\n                /* \"Campaign.sol\":2772:2780  requests */\n              0x03\n                /* \"Campaign.sol\":2781:2786  index */\n              dup3\n                /* \"Campaign.sol\":2772:2787  requests[index] */\n              dup2\n              sload\n              dup2\n              lt\n              tag_75\n              jumpi\n              tag_76\n              tag_77\n              jump\t// in\n            tag_76:\n            tag_75:\n              swap1\n              0x00\n              mstore\n              keccak256(0x00, 0x20)\n              swap1\n              0x07\n              mul\n              add\n                /* \"Campaign.sol\":2746:2787  Request storage request = requests[index] */\n              swap1\n              pop\n                /* \"Campaign.sol\":2905:2912  request */\n              dup1\n                /* \"Campaign.sol\":2905:2930  request.approvalTolerance */\n              0x03\n              add\n              sload\n                /* \"Campaign.sol\":2883:2900  contributorsCount */\n              sload(0x05)\n                /* \"Campaign.sol\":2876:2879  100 */\n              0x64\n                /* \"Campaign.sol\":2852:2859  request */\n              dup4\n                /* \"Campaign.sol\":2852:2873  request.approvalCount */\n              0x05\n              add\n              sload\n                /* \"Campaign.sol\":2852:2879  request.approvalCount * 100 */\n              tag_79\n              swap2\n              swap1\n              tag_80\n              jump\t// in\n            tag_79:\n                /* \"Campaign.sol\":2851:2900  (request.approvalCount * 100) / contributorsCount */\n              tag_81\n              swap2\n              swap1\n              tag_82\n              jump\t// in\n            tag_81:\n                /* \"Campaign.sol\":2850:2930  ((request.approvalCount * 100) / contributorsCount) >= request.approvalTolerance */\n              lt\n              iszero\n                /* \"Campaign.sol\":2842:2931  require(((request.approvalCount * 100) / contributorsCount) >= request.approvalTolerance) */\n              tag_83\n              jumpi\n              0x00\n              dup1\n              revert\n            tag_83:\n                /* \"Campaign.sol\":2994:3001  request */\n              dup1\n                /* \"Campaign.sol\":2994:3010  request.complete */\n              0x04\n              add\n              0x00\n              swap1\n              sload\n              swap1\n              0x0100\n              exp\n              swap1\n              div\n              0xff\n              and\n                /* \"Campaign.sol\":2993:3010  !request.complete */\n              iszero\n                /* \"Campaign.sol\":2985:3011  require(!request.complete) */\n              tag_84\n              jumpi\n              0x00\n              dup1\n              revert\n            tag_84:\n                /* \"Campaign.sol\":3057:3064  request */\n              dup1\n                /* \"Campaign.sol\":3057:3074  request.recipient */\n              0x02\n              add\n              0x00\n              swap1\n              sload\n              swap1\n              0x0100\n              exp\n              swap1\n              div\n              0xffffffffffffffffffffffffffffffffffffffff\n              and\n                /* \"Campaign.sol\":3057:3083  request.recipient.transfer */\n              0xffffffffffffffffffffffffffffffffffffffff\n              and\n                /* \"Campaign.sol\":3057:3098  request.recipient.transfer(request.value) */\n              0x08fc\n                /* \"Campaign.sol\":3084:3091  request */\n              dup3\n                /* \"Campaign.sol\":3084:3097  request.value */\n              0x01\n              add\n              sload\n                /* \"Campaign.sol\":3057:3098  request.recipient.transfer(request.value) */\n              swap1\n              dup2\n              iszero\n              mul\n              swap1\n              mload(0x40)\n              0x00\n              mload(0x40)\n              dup1\n              dup4\n              sub\n              dup2\n              dup6\n              dup9\n              dup9\n              call\n              swap4\n              pop\n              pop\n              pop\n              pop\n              iszero\n              dup1\n              iszero\n              tag_86\n              jumpi\n              returndatasize\n              0x00\n              dup1\n              returndatacopy\n              revert(0x00, returndatasize)\n            tag_86:\n              pop\n                /* \"Campaign.sol\":3127:3131  true */\n              0x01\n                /* \"Campaign.sol\":3108:3115  request */\n              dup2\n                /* \"Campaign.sol\":3108:3124  request.complete */\n              0x04\n              add\n              0x00\n                /* \"Campaign.sol\":3108:3131  request.complete = true */\n              0x0100\n              exp\n              dup2\n              sload\n              dup2\n              0xff\n              mul\n              not\n              and\n              swap1\n              dup4\n              iszero\n              iszero\n              mul\n              or\n              swap1\n              sstore\n              pop\n                /* \"Campaign.sol\":2736:3138  {... */\n              pop\n                /* \"Campaign.sol\":2681:3138  function finalizeRequest(uint index) public restricted {... */\n              pop\n              jump\t// out\n                /* \"Campaign.sol\":1040:1066  string public campaignName */\n            tag_22:\n              0x01\n              dup1\n              sload\n              tag_87\n              swap1\n              tag_88\n              jump\t// in\n            tag_87:\n              dup1\n              0x1f\n              add\n              0x20\n              dup1\n              swap2\n              div\n              mul\n              0x20\n              add\n              mload(0x40)\n              swap1\n              dup2\n              add\n              0x40\n              mstore\n              dup1\n              swap3\n              swap2\n              swap1\n              dup2\n              dup2\n              mstore\n              0x20\n              add\n              dup3\n              dup1\n              sload\n              tag_89\n              swap1\n              tag_88\n              jump\t// in\n            tag_89:\n              dup1\n              iszero\n              tag_90\n              jumpi\n              dup1\n              0x1f\n              lt\n              tag_91\n              jumpi\n              0x0100\n              dup1\n              dup4\n              sload\n              div\n              mul\n              dup4\n              mstore\n              swap2\n              0x20\n              add\n              swap2\n              jump(tag_90)\n            tag_91:\n              dup3\n              add\n              swap2\n              swap1\n              0x00\n              mstore\n              keccak256(0x00, 0x20)\n              swap1\n            tag_92:\n              dup2\n              sload\n              dup2\n              mstore\n              swap1\n              0x01\n              add\n              swap1\n              0x20\n              add\n              dup1\n              dup4\n              gt\n              tag_92\n              jumpi\n              dup3\n              swap1\n              sub\n              0x1f\n              and\n              dup3\n              add\n              swap2\n            tag_90:\n              pop\n              pop\n              pop\n              pop\n              pop\n              dup2\n              jump\t// out\n                /* \"Campaign.sol\":1213:1258  mapping(address  => bool) public contributors */\n            tag_29:\n              mstore(0x20, 0x04)\n              dup1\n              0x00\n              mstore\n              keccak256(0x00, 0x40)\n              0x00\n              swap2\n              pop\n              sload\n              swap1\n              0x0100\n              exp\n              swap1\n              div\n              0xff\n              and\n              dup2\n              jump\t// out\n                /* \"Campaign.sol\":1844:2299  function createRequest(string memory _description, uint _value, address payable _recipient, uint _approvalTolerance) public restricted {... */\n            tag_36:\n                /* \"Campaign.sol\":1354:1361  manager */\n              0x00\n              dup1\n              sload\n              swap1\n              0x0100\n              exp\n              swap1\n              div\n              0xffffffffffffffffffffffffffffffffffffffff\n              and\n                /* \"Campaign.sol\":1340:1361  msg.sender == manager */\n              0xffffffffffffffffffffffffffffffffffffffff\n              and\n                /* \"Campaign.sol\":1340:1350  msg.sender */\n              caller\n                /* \"Campaign.sol\":1340:1361  msg.sender == manager */\n              0xffffffffffffffffffffffffffffffffffffffff\n              and\n              eq\n                /* \"Campaign.sol\":1332:1362  require(msg.sender == manager) */\n              tag_94\n              jumpi\n              0x00\n              dup1\n              revert\n            tag_94:\n                /* \"Campaign.sol\":1989:2015  Request storage newRequest */\n              0x00\n                /* \"Campaign.sol\":2018:2026  requests */\n              0x03\n                /* \"Campaign.sol\":2018:2033  requests.push() */\n              0x01\n              dup2\n              0x01\n              dup2\n              sload\n              add\n              dup1\n              dup3\n              sstore\n              dup1\n              swap2\n              pop\n              pop\n              sub\n              swap1\n              0x00\n              mstore\n              keccak256(0x00, 0x20)\n              swap1\n              0x07\n              mul\n              add\n                /* \"Campaign.sol\":1989:2033  Request storage newRequest = requests.push() */\n              swap1\n              pop\n                /* \"Campaign.sol\":2068:2080  _description */\n              dup5\n                /* \"Campaign.sol\":2043:2053  newRequest */\n              dup2\n                /* \"Campaign.sol\":2043:2065  newRequest.description */\n              0x00\n              add\n                /* \"Campaign.sol\":2043:2080  newRequest.description = _description */\n              swap1\n              dup1\n              mload\n              swap1\n              0x20\n              add\n              swap1\n              tag_97\n              swap3\n              swap2\n              swap1\n              tag_98\n              jump\t// in\n            tag_97:\n              pop\n                /* \"Campaign.sol\":2109:2115  _value */\n              dup4\n                /* \"Campaign.sol\":2090:2100  newRequest */\n              dup2\n                /* \"Campaign.sol\":2090:2106  newRequest.value */\n              0x01\n              add\n                /* \"Campaign.sol\":2090:2115  newRequest.value = _value */\n              dup2\n              swap1\n              sstore\n              pop\n                /* \"Campaign.sol\":2148:2158  _recipient */\n              dup3\n                /* \"Campaign.sol\":2125:2135  newRequest */\n              dup2\n                /* \"Campaign.sol\":2125:2145  newRequest.recipient */\n              0x02\n              add\n              0x00\n                /* \"Campaign.sol\":2125:2158  newRequest.recipient = _recipient */\n              0x0100\n              exp\n              dup2\n              sload\n              dup2\n              0xffffffffffffffffffffffffffffffffffffffff\n              mul\n              not\n              and\n              swap1\n              dup4\n              0xffffffffffffffffffffffffffffffffffffffff\n              and\n              mul\n              or\n              swap1\n              sstore\n              pop\n                /* \"Campaign.sol\":2199:2217  _approvalTolerance */\n              dup2\n                /* \"Campaign.sol\":2168:2178  newRequest */\n              dup2\n                /* \"Campaign.sol\":2168:2196  newRequest.approvalTolerance */\n              0x03\n              add\n                /* \"Campaign.sol\":2168:2217  newRequest.approvalTolerance = _approvalTolerance */\n              dup2\n              swap1\n              sstore\n              pop\n                /* \"Campaign.sol\":2249:2254  false */\n              0x00\n                /* \"Campaign.sol\":2227:2237  newRequest */\n              dup2\n                /* \"Campaign.sol\":2227:2246  newRequest.complete */\n              0x04\n              add\n              0x00\n                /* \"Campaign.sol\":2227:2254  newRequest.complete = false */\n              0x0100\n              exp\n              dup2\n              sload\n              dup2\n              0xff\n              mul\n              not\n              and\n              swap1\n              dup4\n              iszero\n              iszero\n              mul\n              or\n              swap1\n              sstore\n              pop\n                /* \"Campaign.sol\":2291:2292  0 */\n              0x00\n                /* \"Campaign.sol\":2264:2274  newRequest */\n              dup2\n                /* \"Campaign.sol\":2264:2288  newRequest.approvalCount */\n              0x05\n              add\n                /* \"Campaign.sol\":2264:2292  newRequest.approvalCount = 0 */\n              dup2\n              swap1\n              sstore\n              pop\n                /* \"Campaign.sol\":1979:2299  {... */\n              pop\n                /* \"Campaign.sol\":1844:2299  function createRequest(string memory _description, uint _value, address payable _recipient, uint _approvalTolerance) public restricted {... */\n              pop\n              pop\n              pop\n              pop\n              jump\t// out\n                /* \"Campaign.sol\":3461:3555  function getRequestsCount() public view returns (uint) {... */\n            tag_39:\n                /* \"Campaign.sol\":3510:3514  uint */\n              0x00\n                /* \"Campaign.sol\":3533:3541  requests */\n              0x03\n                /* \"Campaign.sol\":3533:3548  requests.length */\n              dup1\n              sload\n              swap1\n              pop\n                /* \"Campaign.sol\":3526:3548  return requests.length */\n              swap1\n              pop\n                /* \"Campaign.sol\":3461:3555  function getRequestsCount() public view returns (uint) {... */\n              swap1\n              jump\t// out\n                /* \"Campaign.sol\":1012:1034  address public manager */\n            tag_44:\n              0x00\n              dup1\n              sload\n              swap1\n              0x0100\n              exp\n              swap1\n              div\n              0xffffffffffffffffffffffffffffffffffffffff\n              and\n              dup2\n              jump\t// out\n                /* \"Campaign.sol\":1264:1293  uint public contributorsCount */\n            tag_49:\n              sload(0x05)\n              dup2\n              jump\t// out\n                /* \"Campaign.sol\":1109:1134  Request[] public requests */\n            tag_54:\n              0x03\n              dup2\n              dup2\n              sload\n              dup2\n              lt\n              tag_100\n              jumpi\n              0x00\n              dup1\n              revert\n            tag_100:\n              swap1\n              0x00\n              mstore\n              keccak256(0x00, 0x20)\n              swap1\n              0x07\n              mul\n              add\n              0x00\n              swap2\n              pop\n              swap1\n              pop\n              dup1\n              0x00\n              add\n              dup1\n              sload\n              tag_102\n              swap1\n              tag_88\n              jump\t// in\n            tag_102:\n              dup1\n              0x1f\n              add\n              0x20\n              dup1\n              swap2\n              div\n              mul\n              0x20\n              add\n              mload(0x40)\n              swap1\n              dup2\n              add\n              0x40\n              mstore\n              dup1\n              swap3\n              swap2\n              swap1\n              dup2\n              dup2\n              mstore\n              0x20\n              add\n              dup3\n              dup1\n              sload\n              tag_103\n              swap1\n              tag_88\n              jump\t// in\n            tag_103:\n              dup1\n              iszero\n              tag_104\n              jumpi\n              dup1\n              0x1f\n              lt\n              tag_105\n              jumpi\n              0x0100\n              dup1\n              dup4\n              sload\n              div\n              mul\n              dup4\n              mstore\n              swap2\n              0x20\n              add\n              swap2\n              jump(tag_104)\n            tag_105:\n              dup3\n              add\n              swap2\n              swap1\n              0x00\n              mstore\n              keccak256(0x00, 0x20)\n              swap1\n            tag_106:\n              dup2\n              sload\n              dup2\n              mstore\n              swap1\n              0x01\n              add\n              swap1\n              0x20\n              add\n              dup1\n              dup4\n              gt\n              tag_106\n              jumpi\n              dup3\n              swap1\n              sub\n              0x1f\n              and\n              dup3\n              add\n              swap2\n            tag_104:\n              pop\n              pop\n              pop\n              pop\n              pop\n              swap1\n              dup1\n              0x01\n              add\n              sload\n              swap1\n              dup1\n              0x02\n              add\n              0x00\n              swap1\n              sload\n              swap1\n              0x0100\n              exp\n              swap1\n              div\n              0xffffffffffffffffffffffffffffffffffffffff\n              and\n              swap1\n              dup1\n              0x03\n              add\n              sload\n              swap1\n              dup1\n              0x04\n              add\n              0x00\n              swap1\n              sload\n              swap1\n              0x0100\n              exp\n              swap1\n              div\n              0xff\n              and\n              swap1\n              dup1\n              0x05\n              add\n              sload\n              swap1\n              pop\n              dup7\n              jump\t// out\n                /* \"Campaign.sol\":1072:1103  uint public minimumContribution */\n            tag_59:\n              sload(0x02)\n              dup2\n              jump\t// out\n                /* \"Campaign.sol\":3144:3455  function getCampaignSummary() public view returns (string memory, uint, uint, uint, uint, address) {... */\n            tag_63:\n                /* \"Campaign.sol\":3195:3208  string memory */\n              0x60\n                /* \"Campaign.sol\":3210:3214  uint */\n              0x00\n                /* \"Campaign.sol\":3216:3220  uint */\n              dup1\n                /* \"Campaign.sol\":3222:3226  uint */\n              0x00\n                /* \"Campaign.sol\":3228:3232  uint */\n              dup1\n                /* \"Campaign.sol\":3234:3241  address */\n              0x00\n                /* \"Campaign.sol\":3274:3286  campaignName */\n              0x01\n                /* \"Campaign.sol\":3300:3321  address(this).balance */\n              selfbalance\n                /* \"Campaign.sol\":3336:3355  minimumContribution */\n              sload(0x02)\n                /* \"Campaign.sol\":3370:3378  requests */\n              0x03\n                /* \"Campaign.sol\":3370:3385  requests.length */\n              dup1\n              sload\n              swap1\n              pop\n                /* \"Campaign.sol\":3400:3417  contributorsCount */\n              sload(0x05)\n                /* \"Campaign.sol\":3431:3438  manager */\n              0x00\n              dup1\n              sload\n              swap1\n              0x0100\n              exp\n              swap1\n              div\n              0xffffffffffffffffffffffffffffffffffffffff\n              and\n                /* \"Campaign.sol\":3253:3448  return (... */\n              dup6\n              dup1\n              sload\n              tag_108\n              swap1\n              tag_88\n              jump\t// in\n            tag_108:\n              dup1\n              0x1f\n              add\n              0x20\n              dup1\n              swap2\n              div\n              mul\n              0x20\n              add\n              mload(0x40)\n              swap1\n              dup2\n              add\n              0x40\n              mstore\n              dup1\n              swap3\n              swap2\n              swap1\n              dup2\n              dup2\n              mstore\n              0x20\n              add\n              dup3\n              dup1\n              sload\n              tag_109\n              swap1\n              tag_88\n              jump\t// in\n            tag_109:\n              dup1\n              iszero\n              tag_110\n              jumpi\n              dup1\n              0x1f\n              lt\n              tag_111\n              jumpi\n              0x0100\n              dup1\n              dup4\n              sload\n              div\n              mul\n              dup4\n              mstore\n              swap2\n              0x20\n              add\n              swap2\n              jump(tag_110)\n            tag_111:\n              dup3\n              add\n              swap2\n              swap1\n              0x00\n              mstore\n              keccak256(0x00, 0x20)\n              swap1\n            tag_112:\n              dup2\n              sload\n              dup2\n              mstore\n              swap1\n              0x01\n              add\n              swap1\n              0x20\n              add\n              dup1\n              dup4\n              gt\n              tag_112\n              jumpi\n              dup3\n              swap1\n              sub\n              0x1f\n              and\n              dup3\n              add\n              swap2\n            tag_110:\n              pop\n              pop\n              pop\n              pop\n              pop\n              swap6\n              pop\n              swap6\n              pop\n              swap6\n              pop\n              swap6\n              pop\n              swap6\n              pop\n              swap6\n              pop\n              swap6\n              pop\n                /* \"Campaign.sol\":3144:3455  function getCampaignSummary() public view returns (string memory, uint, uint, uint, uint, address) {... */\n              swap1\n              swap2\n              swap3\n              swap4\n              swap5\n              swap6\n              jump\t// out\n                /* \"Campaign.sol\":1607:1838  function contribute() public payable {... */\n            tag_67:\n                /* \"Campaign.sol\":1675:1694  minimumContribution */\n              sload(0x02)\n                /* \"Campaign.sol\":1662:1671  msg.value */\n              callvalue\n                /* \"Campaign.sol\":1662:1694  msg.value >= minimumContribution */\n              lt\n              iszero\n                /* \"Campaign.sol\":1654:1695  require(msg.value >= minimumContribution) */\n              tag_114\n              jumpi\n              0x00\n              dup1\n              revert\n            tag_114:\n                /* \"Campaign.sol\":1736:1741  false */\n              0x00\n                /* \"Campaign.sol\":1708:1741  contributors[msg.sender] == false */\n              iszero\n              iszero\n                /* \"Campaign.sol\":1708:1720  contributors */\n              0x04\n                /* \"Campaign.sol\":1708:1732  contributors[msg.sender] */\n              0x00\n                /* \"Campaign.sol\":1721:1731  msg.sender */\n              caller\n                /* \"Campaign.sol\":1708:1732  contributors[msg.sender] */\n              0xffffffffffffffffffffffffffffffffffffffff\n              and\n              0xffffffffffffffffffffffffffffffffffffffff\n              and\n              dup2\n              mstore\n              0x20\n              add\n              swap1\n              dup2\n              mstore\n              0x20\n              add\n              0x00\n              keccak256\n              0x00\n              swap1\n              sload\n              swap1\n              0x0100\n              exp\n              swap1\n              div\n              0xff\n              and\n                /* \"Campaign.sol\":1708:1741  contributors[msg.sender] == false */\n              iszero\n              iszero\n              sub\n                /* \"Campaign.sol\":1705:1832  if(contributors[msg.sender] == false) {... */\n              tag_115\n              jumpi\n                /* \"Campaign.sol\":1784:1788  true */\n              0x01\n                /* \"Campaign.sol\":1757:1769  contributors */\n              0x04\n                /* \"Campaign.sol\":1757:1781  contributors[msg.sender] */\n              0x00\n                /* \"Campaign.sol\":1770:1780  msg.sender */\n              caller\n                /* \"Campaign.sol\":1757:1781  contributors[msg.sender] */\n              0xffffffffffffffffffffffffffffffffffffffff\n              and\n              0xffffffffffffffffffffffffffffffffffffffff\n              and\n              dup2\n              mstore\n              0x20\n              add\n              swap1\n              dup2\n              mstore\n              0x20\n              add\n              0x00\n              keccak256\n              0x00\n                /* \"Campaign.sol\":1757:1788  contributors[msg.sender] = true */\n              0x0100\n              exp\n              dup2\n              sload\n              dup2\n              0xff\n              mul\n              not\n              and\n              swap1\n              dup4\n              iszero\n              iszero\n              mul\n              or\n              swap1\n              sstore\n              pop\n                /* \"Campaign.sol\":1802:1819  contributorsCount */\n              0x05\n              0x00\n                /* \"Campaign.sol\":1802:1821  contributorsCount++ */\n              dup2\n              sload\n              dup1\n              swap3\n              swap2\n              swap1\n              tag_116\n              swap1\n              tag_117\n              jump\t// in\n            tag_116:\n              swap2\n              swap1\n              pop\n              sstore\n              pop\n                /* \"Campaign.sol\":1705:1832  if(contributors[msg.sender] == false) {... */\n            tag_115:\n                /* \"Campaign.sol\":1607:1838  function contribute() public payable {... */\n              jump\t// out\n                /* \"Campaign.sol\":2306:2675  function approveRequest(uint index) public {... */\n            tag_71:\n                /* \"Campaign.sol\":2359:2382  Request storage request */\n              0x00\n                /* \"Campaign.sol\":2385:2393  requests */\n              0x03\n                /* \"Campaign.sol\":2394:2399  index */\n              dup3\n                /* \"Campaign.sol\":2385:2400  requests[index] */\n              dup2\n              sload\n              dup2\n              lt\n              tag_119\n              jumpi\n              tag_120\n              tag_77\n              jump\t// in\n            tag_120:\n            tag_119:\n              swap1\n              0x00\n              mstore\n              keccak256(0x00, 0x20)\n              swap1\n              0x07\n              mul\n              add\n                /* \"Campaign.sol\":2359:2400  Request storage request = requests[index] */\n              swap1\n              pop\n                /* \"Campaign.sol\":2469:2481  contributors */\n              0x04\n                /* \"Campaign.sol\":2469:2493  contributors[msg.sender] */\n              0x00\n                /* \"Campaign.sol\":2482:2492  msg.sender */\n              caller\n                /* \"Campaign.sol\":2469:2493  contributors[msg.sender] */\n              0xffffffffffffffffffffffffffffffffffffffff\n              and\n              0xffffffffffffffffffffffffffffffffffffffff\n              and\n              dup2\n              mstore\n              0x20\n              add\n              swap1\n              dup2\n              mstore\n              0x20\n              add\n              0x00\n              keccak256\n              0x00\n              swap1\n              sload\n              swap1\n              0x0100\n              exp\n              swap1\n              div\n              0xff\n              and\n                /* \"Campaign.sol\":2461:2494  require(contributors[msg.sender]) */\n              tag_122\n              jumpi\n              0x00\n              dup1\n              revert\n            tag_122:\n                /* \"Campaign.sol\":2558:2565  request */\n              dup1\n                /* \"Campaign.sol\":2558:2575  request.approvals */\n              0x06\n              add\n                /* \"Campaign.sol\":2558:2587  request.approvals[msg.sender] */\n              0x00\n                /* \"Campaign.sol\":2576:2586  msg.sender */\n              caller\n                /* \"Campaign.sol\":2558:2587  request.approvals[msg.sender] */\n              0xffffffffffffffffffffffffffffffffffffffff\n              and\n              0xffffffffffffffffffffffffffffffffffffffff\n              and\n              dup2\n              mstore\n              0x20\n              add\n              swap1\n              dup2\n              mstore\n              0x20\n              add\n              0x00\n              keccak256\n              0x00\n              swap1\n              sload\n              swap1\n              0x0100\n              exp\n              swap1\n              div\n              0xff\n              and\n                /* \"Campaign.sol\":2557:2587  !request.approvals[msg.sender] */\n              iszero\n                /* \"Campaign.sol\":2549:2588  require(!request.approvals[msg.sender]) */\n              tag_123\n              jumpi\n              0x00\n              dup1\n              revert\n            tag_123:\n                /* \"Campaign.sol\":2631:2635  true */\n              0x01\n                /* \"Campaign.sol\":2599:2606  request */\n              dup2\n                /* \"Campaign.sol\":2599:2616  request.approvals */\n              0x06\n              add\n                /* \"Campaign.sol\":2599:2628  request.approvals[msg.sender] */\n              0x00\n                /* \"Campaign.sol\":2617:2627  msg.sender */\n              caller\n                /* \"Campaign.sol\":2599:2628  request.approvals[msg.sender] */\n              0xffffffffffffffffffffffffffffffffffffffff\n              and\n              0xffffffffffffffffffffffffffffffffffffffff\n              and\n              dup2\n              mstore\n              0x20\n              add\n              swap1\n              dup2\n              mstore\n              0x20\n              add\n              0x00\n              keccak256\n              0x00\n                /* \"Campaign.sol\":2599:2635  request.approvals[msg.sender] = true */\n              0x0100\n              exp\n              dup2\n              sload\n              dup2\n              0xff\n              mul\n              not\n              and\n              swap1\n              dup4\n              iszero\n              iszero\n              mul\n              or\n              swap1\n              sstore\n              pop\n                /* \"Campaign.sol\":2645:2652  request */\n              dup1\n                /* \"Campaign.sol\":2645:2666  request.approvalCount */\n              0x05\n              add\n              0x00\n                /* \"Campaign.sol\":2645:2668  request.approvalCount++ */\n              dup2\n              sload\n              dup1\n              swap3\n              swap2\n              swap1\n              tag_124\n              swap1\n              tag_117\n              jump\t// in\n            tag_124:\n              swap2\n              swap1\n              pop\n              sstore\n              pop\n                /* \"Campaign.sol\":2349:2675  {... */\n              pop\n                /* \"Campaign.sol\":2306:2675  function approveRequest(uint index) public {... */\n              pop\n              jump\t// out\n            tag_98:\n              dup3\n              dup1\n              sload\n              tag_125\n              swap1\n              tag_88\n              jump\t// in\n            tag_125:\n              swap1\n              0x00\n              mstore\n              keccak256(0x00, 0x20)\n              swap1\n              0x1f\n              add\n              0x20\n              swap1\n              div\n              dup2\n              add\n              swap3\n              dup3\n              tag_127\n              jumpi\n              0x00\n              dup6\n              sstore\n              jump(tag_126)\n            tag_127:\n              dup3\n              0x1f\n              lt\n              tag_128\n              jumpi\n              dup1\n              mload\n              not(0xff)\n              and\n              dup4\n              dup1\n              add\n              or\n              dup6\n              sstore\n              jump(tag_126)\n            tag_128:\n              dup3\n              dup1\n              add\n              0x01\n              add\n              dup6\n              sstore\n              dup3\n              iszero\n              tag_126\n              jumpi\n              swap2\n              dup3\n              add\n            tag_129:\n              dup3\n              dup2\n              gt\n              iszero\n              tag_130\n              jumpi\n              dup3\n              mload\n              dup3\n              sstore\n              swap2\n              0x20\n              add\n              swap2\n              swap1\n              0x01\n              add\n              swap1\n              jump(tag_129)\n            tag_130:\n            tag_126:\n              pop\n              swap1\n              pop\n              tag_131\n              swap2\n              swap1\n              tag_132\n              jump\t// in\n            tag_131:\n              pop\n              swap1\n              jump\t// out\n            tag_132:\n            tag_133:\n              dup1\n              dup3\n              gt\n              iszero\n              tag_134\n              jumpi\n              0x00\n              dup2\n              0x00\n              swap1\n              sstore\n              pop\n              0x01\n              add\n              jump(tag_133)\n            tag_134:\n              pop\n              swap1\n              jump\t// out\n                /* \"#utility.yul\":7:82   */\n            tag_135:\n                /* \"#utility.yul\":40:46   */\n              0x00\n                /* \"#utility.yul\":73:75   */\n              0x40\n                /* \"#utility.yul\":67:76   */\n              mload\n                /* \"#utility.yul\":57:76   */\n              swap1\n              pop\n                /* \"#utility.yul\":7:82   */\n              swap1\n              jump\t// out\n                /* \"#utility.yul\":88:205   */\n            tag_136:\n                /* \"#utility.yul\":197:198   */\n              0x00\n                /* \"#utility.yul\":194:195   */\n              dup1\n                /* \"#utility.yul\":187:199   */\n              revert\n                /* \"#utility.yul\":211:328   */\n            tag_137:\n                /* \"#utility.yul\":320:321   */\n              0x00\n                /* \"#utility.yul\":317:318   */\n              dup1\n                /* \"#utility.yul\":310:322   */\n              revert\n                /* \"#utility.yul\":334:411   */\n            tag_138:\n                /* \"#utility.yul\":371:378   */\n              0x00\n                /* \"#utility.yul\":400:405   */\n              dup2\n                /* \"#utility.yul\":389:405   */\n              swap1\n              pop\n                /* \"#utility.yul\":334:411   */\n              swap2\n              swap1\n              pop\n              jump\t// out\n                /* \"#utility.yul\":417:539   */\n            tag_139:\n                /* \"#utility.yul\":490:514   */\n              tag_176\n                /* \"#utility.yul\":508:513   */\n              dup2\n                /* \"#utility.yul\":490:514   */\n              tag_138\n              jump\t// in\n            tag_176:\n                /* \"#utility.yul\":483:488   */\n              dup2\n                /* \"#utility.yul\":480:515   */\n              eq\n                /* \"#utility.yul\":470:533   */\n              tag_177\n              jumpi\n                /* \"#utility.yul\":529:530   */\n              0x00\n                /* \"#utility.yul\":526:527   */\n              dup1\n                /* \"#utility.yul\":519:531   */\n              revert\n                /* \"#utility.yul\":470:533   */\n            tag_177:\n                /* \"#utility.yul\":417:539   */\n              pop\n              jump\t// out\n                /* \"#utility.yul\":545:684   */\n            tag_140:\n                /* \"#utility.yul\":591:596   */\n              0x00\n                /* \"#utility.yul\":629:635   */\n              dup2\n                /* \"#utility.yul\":616:636   */\n              calldataload\n                /* \"#utility.yul\":607:636   */\n              swap1\n              pop\n                /* \"#utility.yul\":645:678   */\n              tag_179\n                /* \"#utility.yul\":672:677   */\n              dup2\n                /* \"#utility.yul\":645:678   */\n              tag_139\n              jump\t// in\n            tag_179:\n                /* \"#utility.yul\":545:684   */\n              swap3\n              swap2\n              pop\n              pop\n              jump\t// out\n                /* \"#utility.yul\":690:1019   */\n            tag_18:\n                /* \"#utility.yul\":749:755   */\n              0x00\n                /* \"#utility.yul\":798:800   */\n              0x20\n                /* \"#utility.yul\":786:795   */\n              dup3\n                /* \"#utility.yul\":777:784   */\n              dup5\n                /* \"#utility.yul\":773:796   */\n              sub\n                /* \"#utility.yul\":769:801   */\n              slt\n                /* \"#utility.yul\":766:885   */\n              iszero\n              tag_181\n              jumpi\n                /* \"#utility.yul\":804:883   */\n              tag_182\n              tag_136\n              jump\t// in\n            tag_182:\n                /* \"#utility.yul\":766:885   */\n            tag_181:\n                /* \"#utility.yul\":924:925   */\n              0x00\n                /* \"#utility.yul\":949:1002   */\n              tag_183\n                /* \"#utility.yul\":994:1001   */\n              dup5\n                /* \"#utility.yul\":985:991   */\n              dup3\n                /* \"#utility.yul\":974:983   */\n              dup6\n                /* \"#utility.yul\":970:992   */\n              add\n                /* \"#utility.yul\":949:1002   */\n              tag_140\n              jump\t// in\n            tag_183:\n                /* \"#utility.yul\":939:1002   */\n              swap2\n              pop\n                /* \"#utility.yul\":895:1012   */\n              pop\n                /* \"#utility.yul\":690:1019   */\n              swap3\n              swap2\n              pop\n              pop\n              jump\t// out\n                /* \"#utility.yul\":1025:1124   */\n            tag_141:\n                /* \"#utility.yul\":1077:1083   */\n              0x00\n                /* \"#utility.yul\":1111:1116   */\n              dup2\n                /* \"#utility.yul\":1105:1117   */\n              mload\n                /* \"#utility.yul\":1095:1117   */\n              swap1\n              pop\n                /* \"#utility.yul\":1025:1124   */\n              swap2\n              swap1\n              pop\n              jump\t// out\n                /* \"#utility.yul\":1130:1299   */\n            tag_142:\n                /* \"#utility.yul\":1214:1225   */\n              0x00\n                /* \"#utility.yul\":1248:1254   */\n              dup3\n                /* \"#utility.yul\":1243:1246   */\n              dup3\n                /* \"#utility.yul\":1236:1255   */\n              mstore\n                /* \"#utility.yul\":1288:1292   */\n              0x20\n                /* \"#utility.yul\":1283:1286   */\n              dup3\n                /* \"#utility.yul\":1279:1293   */\n              add\n                /* \"#utility.yul\":1264:1293   */\n              swap1\n              pop\n                /* \"#utility.yul\":1130:1299   */\n              swap3\n              swap2\n              pop\n              pop\n              jump\t// out\n                /* \"#utility.yul\":1305:1612   */\n            tag_143:\n                /* \"#utility.yul\":1373:1374   */\n              0x00\n                /* \"#utility.yul\":1383:1496   */\n            tag_187:\n                /* \"#utility.yul\":1397:1403   */\n              dup4\n                /* \"#utility.yul\":1394:1395   */\n              dup2\n                /* \"#utility.yul\":1391:1404   */\n              lt\n                /* \"#utility.yul\":1383:1496   */\n              iszero\n              tag_189\n              jumpi\n                /* \"#utility.yul\":1482:1483   */\n              dup1\n                /* \"#utility.yul\":1477:1480   */\n              dup3\n                /* \"#utility.yul\":1473:1484   */\n              add\n                /* \"#utility.yul\":1467:1485   */\n              mload\n                /* \"#utility.yul\":1463:1464   */\n              dup2\n                /* \"#utility.yul\":1458:1461   */\n              dup5\n                /* \"#utility.yul\":1454:1465   */\n              add\n                /* \"#utility.yul\":1447:1486   */\n              mstore\n                /* \"#utility.yul\":1419:1421   */\n              0x20\n                /* \"#utility.yul\":1416:1417   */\n              dup2\n                /* \"#utility.yul\":1412:1422   */\n              add\n                /* \"#utility.yul\":1407:1422   */\n              swap1\n              pop\n                /* \"#utility.yul\":1383:1496   */\n              jump(tag_187)\n            tag_189:\n                /* \"#utility.yul\":1514:1520   */\n              dup4\n                /* \"#utility.yul\":1511:1512   */\n              dup2\n                /* \"#utility.yul\":1508:1521   */\n              gt\n                /* \"#utility.yul\":1505:1606   */\n              iszero\n              tag_190\n              jumpi\n                /* \"#utility.yul\":1594:1595   */\n              0x00\n                /* \"#utility.yul\":1585:1591   */\n              dup5\n                /* \"#utility.yul\":1580:1583   */\n              dup5\n                /* \"#utility.yul\":1576:1592   */\n              add\n                /* \"#utility.yul\":1569:1596   */\n              mstore\n                /* \"#utility.yul\":1505:1606   */\n            tag_190:\n                /* \"#utility.yul\":1354:1612   */\n              pop\n                /* \"#utility.yul\":1305:1612   */\n              pop\n              pop\n              pop\n              jump\t// out\n                /* \"#utility.yul\":1618:1720   */\n            tag_144:\n                /* \"#utility.yul\":1659:1665   */\n              0x00\n                /* \"#utility.yul\":1710:1712   */\n              0x1f\n                /* \"#utility.yul\":1706:1713   */\n              not\n                /* \"#utility.yul\":1701:1703   */\n              0x1f\n                /* \"#utility.yul\":1694:1699   */\n              dup4\n                /* \"#utility.yul\":1690:1704   */\n              add\n                /* \"#utility.yul\":1686:1714   */\n              and\n                /* \"#utility.yul\":1676:1714   */\n              swap1\n              pop\n                /* \"#utility.yul\":1618:1720   */\n              swap2\n              swap1\n              pop\n              jump\t// out\n                /* \"#utility.yul\":1726:2090   */\n            tag_145:\n                /* \"#utility.yul\":1814:1817   */\n              0x00\n                /* \"#utility.yul\":1842:1881   */\n              tag_193\n                /* \"#utility.yul\":1875:1880   */\n              dup3\n                /* \"#utility.yul\":1842:1881   */\n              tag_141\n              jump\t// in\n            tag_193:\n                /* \"#utility.yul\":1897:1968   */\n              tag_194\n                /* \"#utility.yul\":1961:1967   */\n              dup2\n                /* \"#utility.yul\":1956:1959   */\n              dup6\n                /* \"#utility.yul\":1897:1968   */\n              tag_142\n              jump\t// in\n            tag_194:\n                /* \"#utility.yul\":1890:1968   */\n              swap4\n              pop\n                /* \"#utility.yul\":1977:2029   */\n              tag_195\n                /* \"#utility.yul\":2022:2028   */\n              dup2\n                /* \"#utility.yul\":2017:2020   */\n              dup6\n                /* \"#utility.yul\":2010:2014   */\n              0x20\n                /* \"#utility.yul\":2003:2008   */\n              dup7\n                /* \"#utility.yul\":1999:2015   */\n              add\n                /* \"#utility.yul\":1977:2029   */\n              tag_143\n              jump\t// in\n            tag_195:\n                /* \"#utility.yul\":2054:2083   */\n              tag_196\n                /* \"#utility.yul\":2076:2082   */\n              dup2\n                /* \"#utility.yul\":2054:2083   */\n              tag_144\n              jump\t// in\n            tag_196:\n                /* \"#utility.yul\":2049:2052   */\n              dup5\n                /* \"#utility.yul\":2045:2084   */\n              add\n                /* \"#utility.yul\":2038:2084   */\n              swap2\n              pop\n                /* \"#utility.yul\":1818:2090   */\n              pop\n                /* \"#utility.yul\":1726:2090   */\n              swap3\n              swap2\n              pop\n              pop\n              jump\t// out\n                /* \"#utility.yul\":2096:2409   */\n            tag_24:\n                /* \"#utility.yul\":2209:2213   */\n              0x00\n                /* \"#utility.yul\":2247:2249   */\n              0x20\n                /* \"#utility.yul\":2236:2245   */\n              dup3\n                /* \"#utility.yul\":2232:2250   */\n              add\n                /* \"#utility.yul\":2224:2250   */\n              swap1\n              pop\n                /* \"#utility.yul\":2296:2305   */\n              dup2\n                /* \"#utility.yul\":2290:2294   */\n              dup2\n                /* \"#utility.yul\":2286:2306   */\n              sub\n                /* \"#utility.yul\":2282:2283   */\n              0x00\n                /* \"#utility.yul\":2271:2280   */\n              dup4\n                /* \"#utility.yul\":2267:2284   */\n              add\n                /* \"#utility.yul\":2260:2307   */\n              mstore\n                /* \"#utility.yul\":2324:2402   */\n              tag_198\n                /* \"#utility.yul\":2397:2401   */\n              dup2\n                /* \"#utility.yul\":2388:2394   */\n              dup5\n                /* \"#utility.yul\":2324:2402   */\n              tag_145\n              jump\t// in\n            tag_198:\n                /* \"#utility.yul\":2316:2402   */\n              swap1\n              pop\n                /* \"#utility.yul\":2096:2409   */\n              swap3\n              swap2\n              pop\n              pop\n              jump\t// out\n                /* \"#utility.yul\":2415:2541   */\n            tag_146:\n                /* \"#utility.yul\":2452:2459   */\n              0x00\n                /* \"#utility.yul\":2492:2534   */\n              0xffffffffffffffffffffffffffffffffffffffff\n                /* \"#utility.yul\":2485:2490   */\n              dup3\n                /* \"#utility.yul\":2481:2535   */\n              and\n                /* \"#utility.yul\":2470:2535   */\n              swap1\n              pop\n                /* \"#utility.yul\":2415:2541   */\n              swap2\n              swap1\n              pop\n              jump\t// out\n                /* \"#utility.yul\":2547:2643   */\n            tag_147:\n                /* \"#utility.yul\":2584:2591   */\n              0x00\n                /* \"#utility.yul\":2613:2637   */\n              tag_201\n                /* \"#utility.yul\":2631:2636   */\n              dup3\n                /* \"#utility.yul\":2613:2637   */\n              tag_146\n              jump\t// in\n            tag_201:\n                /* \"#utility.yul\":2602:2637   */\n              swap1\n              pop\n                /* \"#utility.yul\":2547:2643   */\n              swap2\n              swap1\n              pop\n              jump\t// out\n                /* \"#utility.yul\":2649:2771   */\n            tag_148:\n                /* \"#utility.yul\":2722:2746   */\n              tag_203\n                /* \"#utility.yul\":2740:2745   */\n              dup2\n                /* \"#utility.yul\":2722:2746   */\n              tag_147\n              jump\t// in\n            tag_203:\n                /* \"#utility.yul\":2715:2720   */\n              dup2\n                /* \"#utility.yul\":2712:2747   */\n              eq\n                /* \"#utility.yul\":2702:2765   */\n              tag_204\n              jumpi\n                /* \"#utility.yul\":2761:2762   */\n              0x00\n                /* \"#utility.yul\":2758:2759   */\n              dup1\n                /* \"#utility.yul\":2751:2763   */\n              revert\n                /* \"#utility.yul\":2702:2765   */\n            tag_204:\n                /* \"#utility.yul\":2649:2771   */\n              pop\n              jump\t// out\n                /* \"#utility.yul\":2777:2916   */\n            tag_149:\n                /* \"#utility.yul\":2823:2828   */\n              0x00\n                /* \"#utility.yul\":2861:2867   */\n              dup2\n                /* \"#utility.yul\":2848:2868   */\n              calldataload\n                /* \"#utility.yul\":2839:2868   */\n              swap1\n              pop\n                /* \"#utility.yul\":2877:2910   */\n              tag_206\n                /* \"#utility.yul\":2904:2909   */\n              dup2\n                /* \"#utility.yul\":2877:2910   */\n              tag_148\n              jump\t// in\n            tag_206:\n                /* \"#utility.yul\":2777:2916   */\n              swap3\n              swap2\n              pop\n              pop\n              jump\t// out\n                /* \"#utility.yul\":2922:3251   */\n            tag_28:\n                /* \"#utility.yul\":2981:2987   */\n              0x00\n                /* \"#utility.yul\":3030:3032   */\n              0x20\n                /* \"#utility.yul\":3018:3027   */\n              dup3\n                /* \"#utility.yul\":3009:3016   */\n              dup5\n                /* \"#utility.yul\":3005:3028   */\n              sub\n                /* \"#utility.yul\":3001:3033   */\n              slt\n                /* \"#utility.yul\":2998:3117   */\n              iszero\n              tag_208\n              jumpi\n                /* \"#utility.yul\":3036:3115   */\n              tag_209\n              tag_136\n              jump\t// in\n            tag_209:\n                /* \"#utility.yul\":2998:3117   */\n            tag_208:\n                /* \"#utility.yul\":3156:3157   */\n              0x00\n                /* \"#utility.yul\":3181:3234   */\n              tag_210\n                /* \"#utility.yul\":3226:3233   */\n              dup5\n                /* \"#utility.yul\":3217:3223   */\n              dup3\n                /* \"#utility.yul\":3206:3215   */\n              dup6\n                /* \"#utility.yul\":3202:3224   */\n              add\n                /* \"#utility.yul\":3181:3234   */\n              tag_149\n              jump\t// in\n            tag_210:\n                /* \"#utility.yul\":3171:3234   */\n              swap2\n              pop\n                /* \"#utility.yul\":3127:3244   */\n              pop\n                /* \"#utility.yul\":2922:3251   */\n              swap3\n              swap2\n              pop\n              pop\n              jump\t// out\n                /* \"#utility.yul\":3257:3347   */\n            tag_150:\n                /* \"#utility.yul\":3291:3298   */\n              0x00\n                /* \"#utility.yul\":3334:3339   */\n              dup2\n                /* \"#utility.yul\":3327:3340   */\n              iszero\n                /* \"#utility.yul\":3320:3341   */\n              iszero\n                /* \"#utility.yul\":3309:3341   */\n              swap1\n              pop\n                /* \"#utility.yul\":3257:3347   */\n              swap2\n              swap1\n              pop\n              jump\t// out\n                /* \"#utility.yul\":3353:3462   */\n            tag_151:\n                /* \"#utility.yul\":3434:3455   */\n              tag_213\n                /* \"#utility.yul\":3449:3454   */\n              dup2\n                /* \"#utility.yul\":3434:3455   */\n              tag_150\n              jump\t// in\n            tag_213:\n                /* \"#utility.yul\":3429:3432   */\n              dup3\n                /* \"#utility.yul\":3422:3456   */\n              mstore\n                /* \"#utility.yul\":3353:3462   */\n              pop\n              pop\n              jump\t// out\n                /* \"#utility.yul\":3468:3678   */\n            tag_31:\n                /* \"#utility.yul\":3555:3559   */\n              0x00\n                /* \"#utility.yul\":3593:3595   */\n              0x20\n                /* \"#utility.yul\":3582:3591   */\n              dup3\n                /* \"#utility.yul\":3578:3596   */\n              add\n                /* \"#utility.yul\":3570:3596   */\n              swap1\n              pop\n                /* \"#utility.yul\":3606:3671   */\n              tag_215\n                /* \"#utility.yul\":3668:3669   */\n              0x00\n                /* \"#utility.yul\":3657:3666   */\n              dup4\n                /* \"#utility.yul\":3653:3670   */\n              add\n                /* \"#utility.yul\":3644:3650   */\n              dup5\n                /* \"#utility.yul\":3606:3671   */\n              tag_151\n              jump\t// in\n            tag_215:\n                /* \"#utility.yul\":3468:3678   */\n              swap3\n              swap2\n              pop\n              pop\n              jump\t// out\n                /* \"#utility.yul\":3684:3801   */\n            tag_152:\n                /* \"#utility.yul\":3793:3794   */\n              0x00\n                /* \"#utility.yul\":3790:3791   */\n              dup1\n                /* \"#utility.yul\":3783:3795   */\n              revert\n                /* \"#utility.yul\":3807:3924   */\n            tag_153:\n                /* \"#utility.yul\":3916:3917   */\n              0x00\n                /* \"#utility.yul\":3913:3914   */\n              dup1\n                /* \"#utility.yul\":3906:3918   */\n              revert\n                /* \"#utility.yul\":3930:4110   */\n            tag_154:\n                /* \"#utility.yul\":3978:4055   */\n              0x4e487b7100000000000000000000000000000000000000000000000000000000\n                /* \"#utility.yul\":3975:3976   */\n              0x00\n                /* \"#utility.yul\":3968:4056   */\n              mstore\n                /* \"#utility.yul\":4075:4079   */\n              0x41\n                /* \"#utility.yul\":4072:4073   */\n              0x04\n                /* \"#utility.yul\":4065:4080   */\n              mstore\n                /* \"#utility.yul\":4099:4103   */\n              0x24\n                /* \"#utility.yul\":4096:4097   */\n              0x00\n                /* \"#utility.yul\":4089:4104   */\n              revert\n                /* \"#utility.yul\":4116:4397   */\n            tag_155:\n                /* \"#utility.yul\":4199:4226   */\n              tag_220\n                /* \"#utility.yul\":4221:4225   */\n              dup3\n                /* \"#utility.yul\":4199:4226   */\n              tag_144\n              jump\t// in\n            tag_220:\n                /* \"#utility.yul\":4191:4197   */\n              dup2\n                /* \"#utility.yul\":4187:4227   */\n              add\n                /* \"#utility.yul\":4329:4335   */\n              dup2\n                /* \"#utility.yul\":4317:4327   */\n              dup2\n                /* \"#utility.yul\":4314:4336   */\n              lt\n                /* \"#utility.yul\":4293:4311   */\n              0xffffffffffffffff\n                /* \"#utility.yul\":4281:4291   */\n              dup3\n                /* \"#utility.yul\":4278:4312   */\n              gt\n                /* \"#utility.yul\":4275:4337   */\n              or\n                /* \"#utility.yul\":4272:4360   */\n              iszero\n              tag_221\n              jumpi\n                /* \"#utility.yul\":4340:4358   */\n              tag_222\n              tag_154\n              jump\t// in\n            tag_222:\n                /* \"#utility.yul\":4272:4360   */\n            tag_221:\n                /* \"#utility.yul\":4380:4390   */\n              dup1\n                /* \"#utility.yul\":4376:4378   */\n              0x40\n                /* \"#utility.yul\":4369:4391   */\n              mstore\n                /* \"#utility.yul\":4159:4397   */\n              pop\n                /* \"#utility.yul\":4116:4397   */\n              pop\n              pop\n              jump\t// out\n                /* \"#utility.yul\":4403:4532   */\n            tag_156:\n                /* \"#utility.yul\":4437:4443   */\n              0x00\n                /* \"#utility.yul\":4464:4484   */\n              tag_224\n              tag_135\n              jump\t// in\n            tag_224:\n                /* \"#utility.yul\":4454:4484   */\n              swap1\n              pop\n                /* \"#utility.yul\":4493:4526   */\n              tag_225\n                /* \"#utility.yul\":4521:4525   */\n              dup3\n                /* \"#utility.yul\":4513:4519   */\n              dup3\n                /* \"#utility.yul\":4493:4526   */\n              tag_155\n              jump\t// in\n            tag_225:\n                /* \"#utility.yul\":4403:4532   */\n              swap2\n              swap1\n              pop\n              jump\t// out\n                /* \"#utility.yul\":4538:4846   */\n            tag_157:\n                /* \"#utility.yul\":4600:4604   */\n              0x00\n                /* \"#utility.yul\":4690:4708   */\n              0xffffffffffffffff\n                /* \"#utility.yul\":4682:4688   */\n              dup3\n                /* \"#utility.yul\":4679:4709   */\n              gt\n                /* \"#utility.yul\":4676:4732   */\n              iszero\n              tag_227\n              jumpi\n                /* \"#utility.yul\":4712:4730   */\n              tag_228\n              tag_154\n              jump\t// in\n            tag_228:\n                /* \"#utility.yul\":4676:4732   */\n            tag_227:\n                /* \"#utility.yul\":4750:4779   */\n              tag_229\n                /* \"#utility.yul\":4772:4778   */\n              dup3\n                /* \"#utility.yul\":4750:4779   */\n              tag_144\n              jump\t// in\n            tag_229:\n                /* \"#utility.yul\":4742:4779   */\n              swap1\n              pop\n                /* \"#utility.yul\":4834:4838   */\n              0x20\n                /* \"#utility.yul\":4828:4832   */\n              dup2\n                /* \"#utility.yul\":4824:4839   */\n              add\n                /* \"#utility.yul\":4816:4839   */\n              swap1\n              pop\n                /* \"#utility.yul\":4538:4846   */\n              swap2\n              swap1\n              pop\n              jump\t// out\n                /* \"#utility.yul\":4852:5006   */\n            tag_158:\n                /* \"#utility.yul\":4936:4942   */\n              dup3\n                /* \"#utility.yul\":4931:4934   */\n              dup2\n                /* \"#utility.yul\":4926:4929   */\n              dup4\n                /* \"#utility.yul\":4913:4943   */\n              calldatacopy\n                /* \"#utility.yul\":4998:4999   */\n              0x00\n                /* \"#utility.yul\":4989:4995   */\n              dup4\n                /* \"#utility.yul\":4984:4987   */\n              dup4\n                /* \"#utility.yul\":4980:4996   */\n              add\n                /* \"#utility.yul\":4973:5000   */\n              mstore\n                /* \"#utility.yul\":4852:5006   */\n              pop\n              pop\n              pop\n              jump\t// out\n                /* \"#utility.yul\":5012:5424   */\n            tag_159:\n                /* \"#utility.yul\":5090:5095   */\n              0x00\n                /* \"#utility.yul\":5115:5181   */\n              tag_232\n                /* \"#utility.yul\":5131:5180   */\n              tag_233\n                /* \"#utility.yul\":5173:5179   */\n              dup5\n                /* \"#utility.yul\":5131:5180   */\n              tag_157\n              jump\t// in\n            tag_233:\n                /* \"#utility.yul\":5115:5181   */\n              tag_156\n              jump\t// in\n            tag_232:\n                /* \"#utility.yul\":5106:5181   */\n              swap1\n              pop\n                /* \"#utility.yul\":5204:5210   */\n              dup3\n                /* \"#utility.yul\":5197:5202   */\n              dup2\n                /* \"#utility.yul\":5190:5211   */\n              mstore\n                /* \"#utility.yul\":5242:5246   */\n              0x20\n                /* \"#utility.yul\":5235:5240   */\n              dup2\n                /* \"#utility.yul\":5231:5247   */\n              add\n                /* \"#utility.yul\":5280:5283   */\n              dup5\n                /* \"#utility.yul\":5271:5277   */\n              dup5\n                /* \"#utility.yul\":5266:5269   */\n              dup5\n                /* \"#utility.yul\":5262:5278   */\n              add\n                /* \"#utility.yul\":5259:5284   */\n              gt\n                /* \"#utility.yul\":5256:5368   */\n              iszero\n              tag_234\n              jumpi\n                /* \"#utility.yul\":5287:5366   */\n              tag_235\n              tag_153\n              jump\t// in\n            tag_235:\n                /* \"#utility.yul\":5256:5368   */\n            tag_234:\n                /* \"#utility.yul\":5377:5418   */\n              tag_236\n                /* \"#utility.yul\":5411:5417   */\n              dup5\n                /* \"#utility.yul\":5406:5409   */\n              dup3\n                /* \"#utility.yul\":5401:5404   */\n              dup6\n                /* \"#utility.yul\":5377:5418   */\n              tag_158\n              jump\t// in\n            tag_236:\n                /* \"#utility.yul\":5096:5424   */\n              pop\n                /* \"#utility.yul\":5012:5424   */\n              swap4\n              swap3\n              pop\n              pop\n              pop\n              jump\t// out\n                /* \"#utility.yul\":5444:5784   */\n            tag_160:\n                /* \"#utility.yul\":5500:5505   */\n              0x00\n                /* \"#utility.yul\":5549:5552   */\n              dup3\n                /* \"#utility.yul\":5542:5546   */\n              0x1f\n                /* \"#utility.yul\":5534:5540   */\n              dup4\n                /* \"#utility.yul\":5530:5547   */\n              add\n                /* \"#utility.yul\":5526:5553   */\n              slt\n                /* \"#utility.yul\":5516:5638   */\n              tag_238\n              jumpi\n                /* \"#utility.yul\":5557:5636   */\n              tag_239\n              tag_152\n              jump\t// in\n            tag_239:\n                /* \"#utility.yul\":5516:5638   */\n            tag_238:\n                /* \"#utility.yul\":5674:5680   */\n              dup2\n                /* \"#utility.yul\":5661:5681   */\n              calldataload\n                /* \"#utility.yul\":5699:5778   */\n              tag_240\n                /* \"#utility.yul\":5774:5777   */\n              dup5\n                /* \"#utility.yul\":5766:5772   */\n              dup3\n                /* \"#utility.yul\":5759:5763   */\n              0x20\n                /* \"#utility.yul\":5751:5757   */\n              dup7\n                /* \"#utility.yul\":5747:5764   */\n              add\n                /* \"#utility.yul\":5699:5778   */\n              tag_159\n              jump\t// in\n            tag_240:\n                /* \"#utility.yul\":5690:5778   */\n              swap2\n              pop\n                /* \"#utility.yul\":5506:5784   */\n              pop\n                /* \"#utility.yul\":5444:5784   */\n              swap3\n              swap2\n              pop\n              pop\n              jump\t// out\n                /* \"#utility.yul\":5790:5894   */\n            tag_161:\n                /* \"#utility.yul\":5835:5842   */\n              0x00\n                /* \"#utility.yul\":5864:5888   */\n              tag_242\n                /* \"#utility.yul\":5882:5887   */\n              dup3\n                /* \"#utility.yul\":5864:5888   */\n              tag_146\n              jump\t// in\n            tag_242:\n                /* \"#utility.yul\":5853:5888   */\n              swap1\n              pop\n                /* \"#utility.yul\":5790:5894   */\n              swap2\n              swap1\n              pop\n              jump\t// out\n                /* \"#utility.yul\":5900:6038   */\n            tag_162:\n                /* \"#utility.yul\":5981:6013   */\n              tag_244\n                /* \"#utility.yul\":6007:6012   */\n              dup2\n                /* \"#utility.yul\":5981:6013   */\n              tag_161\n              jump\t// in\n            tag_244:\n                /* \"#utility.yul\":5974:5979   */\n              dup2\n                /* \"#utility.yul\":5971:6014   */\n              eq\n                /* \"#utility.yul\":5961:6032   */\n              tag_245\n              jumpi\n                /* \"#utility.yul\":6028:6029   */\n              0x00\n                /* \"#utility.yul\":6025:6026   */\n              dup1\n                /* \"#utility.yul\":6018:6030   */\n              revert\n                /* \"#utility.yul\":5961:6032   */\n            tag_245:\n                /* \"#utility.yul\":5900:6038   */\n              pop\n              jump\t// out\n                /* \"#utility.yul\":6044:6199   */\n            tag_163:\n                /* \"#utility.yul\":6098:6103   */\n              0x00\n                /* \"#utility.yul\":6136:6142   */\n              dup2\n                /* \"#utility.yul\":6123:6143   */\n              calldataload\n                /* \"#utility.yul\":6114:6143   */\n              swap1\n              pop\n                /* \"#utility.yul\":6152:6193   */\n              tag_247\n                /* \"#utility.yul\":6187:6192   */\n              dup2\n                /* \"#utility.yul\":6152:6193   */\n              tag_162\n              jump\t// in\n            tag_247:\n                /* \"#utility.yul\":6044:6199   */\n              swap3\n              swap2\n              pop\n              pop\n              jump\t// out\n                /* \"#utility.yul\":6205:7166   */\n            tag_35:\n                /* \"#utility.yul\":6309:6315   */\n              0x00\n                /* \"#utility.yul\":6317:6323   */\n              dup1\n                /* \"#utility.yul\":6325:6331   */\n              0x00\n                /* \"#utility.yul\":6333:6339   */\n              dup1\n                /* \"#utility.yul\":6382:6385   */\n              0x80\n                /* \"#utility.yul\":6370:6379   */\n              dup6\n                /* \"#utility.yul\":6361:6368   */\n              dup8\n                /* \"#utility.yul\":6357:6380   */\n              sub\n                /* \"#utility.yul\":6353:6386   */\n              slt\n                /* \"#utility.yul\":6350:6470   */\n              iszero\n              tag_249\n              jumpi\n                /* \"#utility.yul\":6389:6468   */\n              tag_250\n              tag_136\n              jump\t// in\n            tag_250:\n                /* \"#utility.yul\":6350:6470   */\n            tag_249:\n                /* \"#utility.yul\":6537:6538   */\n              0x00\n                /* \"#utility.yul\":6526:6535   */\n              dup6\n                /* \"#utility.yul\":6522:6539   */\n              add\n                /* \"#utility.yul\":6509:6540   */\n              calldataload\n                /* \"#utility.yul\":6567:6585   */\n              0xffffffffffffffff\n                /* \"#utility.yul\":6559:6565   */\n              dup2\n                /* \"#utility.yul\":6556:6586   */\n              gt\n                /* \"#utility.yul\":6553:6670   */\n              iszero\n              tag_251\n              jumpi\n                /* \"#utility.yul\":6589:6668   */\n              tag_252\n              tag_137\n              jump\t// in\n            tag_252:\n                /* \"#utility.yul\":6553:6670   */\n            tag_251:\n                /* \"#utility.yul\":6694:6757   */\n              tag_253\n                /* \"#utility.yul\":6749:6756   */\n              dup8\n                /* \"#utility.yul\":6740:6746   */\n              dup3\n                /* \"#utility.yul\":6729:6738   */\n              dup9\n                /* \"#utility.yul\":6725:6747   */\n              add\n                /* \"#utility.yul\":6694:6757   */\n              tag_160\n              jump\t// in\n            tag_253:\n                /* \"#utility.yul\":6684:6757   */\n              swap5\n              pop\n                /* \"#utility.yul\":6480:6767   */\n              pop\n                /* \"#utility.yul\":6806:6808   */\n              0x20\n                /* \"#utility.yul\":6832:6885   */\n              tag_254\n                /* \"#utility.yul\":6877:6884   */\n              dup8\n                /* \"#utility.yul\":6868:6874   */\n              dup3\n                /* \"#utility.yul\":6857:6866   */\n              dup9\n                /* \"#utility.yul\":6853:6875   */\n              add\n                /* \"#utility.yul\":6832:6885   */\n              tag_140\n              jump\t// in\n            tag_254:\n                /* \"#utility.yul\":6822:6885   */\n              swap4\n              pop\n                /* \"#utility.yul\":6777:6895   */\n              pop\n                /* \"#utility.yul\":6934:6936   */\n              0x40\n                /* \"#utility.yul\":6960:7021   */\n              tag_255\n                /* \"#utility.yul\":7013:7020   */\n              dup8\n                /* \"#utility.yul\":7004:7010   */\n              dup3\n                /* \"#utility.yul\":6993:7002   */\n              dup9\n                /* \"#utility.yul\":6989:7011   */\n              add\n                /* \"#utility.yul\":6960:7021   */\n              tag_163\n              jump\t// in\n            tag_255:\n                /* \"#utility.yul\":6950:7021   */\n              swap3\n              pop\n                /* \"#utility.yul\":6905:7031   */\n              pop\n                /* \"#utility.yul\":7070:7072   */\n              0x60\n                /* \"#utility.yul\":7096:7149   */\n              tag_256\n                /* \"#utility.yul\":7141:7148   */\n              dup8\n                /* \"#utility.yul\":7132:7138   */\n              dup3\n                /* \"#utility.yul\":7121:7130   */\n              dup9\n                /* \"#utility.yul\":7117:7139   */\n              add\n                /* \"#utility.yul\":7096:7149   */\n              tag_140\n              jump\t// in\n            tag_256:\n                /* \"#utility.yul\":7086:7149   */\n              swap2\n              pop\n                /* \"#utility.yul\":7041:7159   */\n              pop\n                /* \"#utility.yul\":6205:7166   */\n              swap3\n              swap6\n              swap2\n              swap5\n              pop\n              swap3\n              pop\n              jump\t// out\n                /* \"#utility.yul\":7172:7290   */\n            tag_164:\n                /* \"#utility.yul\":7259:7283   */\n              tag_258\n                /* \"#utility.yul\":7277:7282   */\n              dup2\n                /* \"#utility.yul\":7259:7283   */\n              tag_138\n              jump\t// in\n            tag_258:\n                /* \"#utility.yul\":7254:7257   */\n              dup3\n                /* \"#utility.yul\":7247:7284   */\n              mstore\n                /* \"#utility.yul\":7172:7290   */\n              pop\n              pop\n              jump\t// out\n                /* \"#utility.yul\":7296:7518   */\n            tag_41:\n                /* \"#utility.yul\":7389:7393   */\n              0x00\n                /* \"#utility.yul\":7427:7429   */\n              0x20\n                /* \"#utility.yul\":7416:7425   */\n              dup3\n                /* \"#utility.yul\":7412:7430   */\n              add\n                /* \"#utility.yul\":7404:7430   */\n              swap1\n              pop\n                /* \"#utility.yul\":7440:7511   */\n              tag_260\n                /* \"#utility.yul\":7508:7509   */\n              0x00\n                /* \"#utility.yul\":7497:7506   */\n              dup4\n                /* \"#utility.yul\":7493:7510   */\n              add\n                /* \"#utility.yul\":7484:7490   */\n              dup5\n                /* \"#utility.yul\":7440:7511   */\n              tag_164\n              jump\t// in\n            tag_260:\n                /* \"#utility.yul\":7296:7518   */\n              swap3\n              swap2\n              pop\n              pop\n              jump\t// out\n                /* \"#utility.yul\":7524:7642   */\n            tag_165:\n                /* \"#utility.yul\":7611:7635   */\n              tag_262\n                /* \"#utility.yul\":7629:7634   */\n              dup2\n                /* \"#utility.yul\":7611:7635   */\n              tag_147\n              jump\t// in\n            tag_262:\n                /* \"#utility.yul\":7606:7609   */\n              dup3\n                /* \"#utility.yul\":7599:7636   */\n              mstore\n                /* \"#utility.yul\":7524:7642   */\n              pop\n              pop\n              jump\t// out\n                /* \"#utility.yul\":7648:7870   */\n            tag_46:\n                /* \"#utility.yul\":7741:7745   */\n              0x00\n                /* \"#utility.yul\":7779:7781   */\n              0x20\n                /* \"#utility.yul\":7768:7777   */\n              dup3\n                /* \"#utility.yul\":7764:7782   */\n              add\n                /* \"#utility.yul\":7756:7782   */\n              swap1\n              pop\n                /* \"#utility.yul\":7792:7863   */\n              tag_264\n                /* \"#utility.yul\":7860:7861   */\n              0x00\n                /* \"#utility.yul\":7849:7858   */\n              dup4\n                /* \"#utility.yul\":7845:7862   */\n              add\n                /* \"#utility.yul\":7836:7842   */\n              dup5\n                /* \"#utility.yul\":7792:7863   */\n              tag_165\n              jump\t// in\n            tag_264:\n                /* \"#utility.yul\":7648:7870   */\n              swap3\n              swap2\n              pop\n              pop\n              jump\t// out\n                /* \"#utility.yul\":7876:8018   */\n            tag_166:\n                /* \"#utility.yul\":7979:8011   */\n              tag_266\n                /* \"#utility.yul\":8005:8010   */\n              dup2\n                /* \"#utility.yul\":7979:8011   */\n              tag_161\n              jump\t// in\n            tag_266:\n                /* \"#utility.yul\":7974:7977   */\n              dup3\n                /* \"#utility.yul\":7967:8012   */\n              mstore\n                /* \"#utility.yul\":7876:8018   */\n              pop\n              pop\n              jump\t// out\n                /* \"#utility.yul\":8024:8910   */\n            tag_56:\n                /* \"#utility.yul\":8287:8291   */\n              0x00\n                /* \"#utility.yul\":8325:8328   */\n              0xc0\n                /* \"#utility.yul\":8314:8323   */\n              dup3\n                /* \"#utility.yul\":8310:8329   */\n              add\n                /* \"#utility.yul\":8302:8329   */\n              swap1\n              pop\n                /* \"#utility.yul\":8375:8384   */\n              dup2\n                /* \"#utility.yul\":8369:8373   */\n              dup2\n                /* \"#utility.yul\":8365:8385   */\n              sub\n                /* \"#utility.yul\":8361:8362   */\n              0x00\n                /* \"#utility.yul\":8350:8359   */\n              dup4\n                /* \"#utility.yul\":8346:8363   */\n              add\n                /* \"#utility.yul\":8339:8386   */\n              mstore\n                /* \"#utility.yul\":8403:8481   */\n              tag_268\n                /* \"#utility.yul\":8476:8480   */\n              dup2\n                /* \"#utility.yul\":8467:8473   */\n              dup10\n                /* \"#utility.yul\":8403:8481   */\n              tag_145\n              jump\t// in\n            tag_268:\n                /* \"#utility.yul\":8395:8481   */\n              swap1\n              pop\n                /* \"#utility.yul\":8491:8563   */\n              tag_269\n                /* \"#utility.yul\":8559:8561   */\n              0x20\n                /* \"#utility.yul\":8548:8557   */\n              dup4\n                /* \"#utility.yul\":8544:8562   */\n              add\n                /* \"#utility.yul\":8535:8541   */\n              dup9\n                /* \"#utility.yul\":8491:8563   */\n              tag_164\n              jump\t// in\n            tag_269:\n                /* \"#utility.yul\":8573:8661   */\n              tag_270\n                /* \"#utility.yul\":8657:8659   */\n              0x40\n                /* \"#utility.yul\":8646:8655   */\n              dup4\n                /* \"#utility.yul\":8642:8660   */\n              add\n                /* \"#utility.yul\":8633:8639   */\n              dup8\n                /* \"#utility.yul\":8573:8661   */\n              tag_166\n              jump\t// in\n            tag_270:\n                /* \"#utility.yul\":8671:8743   */\n              tag_271\n                /* \"#utility.yul\":8739:8741   */\n              0x60\n                /* \"#utility.yul\":8728:8737   */\n              dup4\n                /* \"#utility.yul\":8724:8742   */\n              add\n                /* \"#utility.yul\":8715:8721   */\n              dup7\n                /* \"#utility.yul\":8671:8743   */\n              tag_164\n              jump\t// in\n            tag_271:\n                /* \"#utility.yul\":8753:8820   */\n              tag_272\n                /* \"#utility.yul\":8815:8818   */\n              0x80\n                /* \"#utility.yul\":8804:8813   */\n              dup4\n                /* \"#utility.yul\":8800:8819   */\n              add\n                /* \"#utility.yul\":8791:8797   */\n              dup6\n                /* \"#utility.yul\":8753:8820   */\n              tag_151\n              jump\t// in\n            tag_272:\n                /* \"#utility.yul\":8830:8903   */\n              tag_273\n                /* \"#utility.yul\":8898:8901   */\n              0xa0\n                /* \"#utility.yul\":8887:8896   */\n              dup4\n                /* \"#utility.yul\":8883:8902   */\n              add\n                /* \"#utility.yul\":8874:8880   */\n              dup5\n                /* \"#utility.yul\":8830:8903   */\n              tag_164\n              jump\t// in\n            tag_273:\n                /* \"#utility.yul\":8024:8910   */\n              swap8\n              swap7\n              pop\n              pop\n              pop\n              pop\n              pop\n              pop\n              pop\n              jump\t// out\n                /* \"#utility.yul\":8916:9782   */\n            tag_65:\n                /* \"#utility.yul\":9169:9173   */\n              0x00\n                /* \"#utility.yul\":9207:9210   */\n              0xc0\n                /* \"#utility.yul\":9196:9205   */\n              dup3\n                /* \"#utility.yul\":9192:9211   */\n              add\n                /* \"#utility.yul\":9184:9211   */\n              swap1\n              pop\n                /* \"#utility.yul\":9257:9266   */\n              dup2\n                /* \"#utility.yul\":9251:9255   */\n              dup2\n                /* \"#utility.yul\":9247:9267   */\n              sub\n                /* \"#utility.yul\":9243:9244   */\n              0x00\n                /* \"#utility.yul\":9232:9241   */\n              dup4\n                /* \"#utility.yul\":9228:9245   */\n              add\n                /* \"#utility.yul\":9221:9268   */\n              mstore\n                /* \"#utility.yul\":9285:9363   */\n              tag_275\n                /* \"#utility.yul\":9358:9362   */\n              dup2\n                /* \"#utility.yul\":9349:9355   */\n              dup10\n                /* \"#utility.yul\":9285:9363   */\n              tag_145\n              jump\t// in\n            tag_275:\n                /* \"#utility.yul\":9277:9363   */\n              swap1\n              pop\n                /* \"#utility.yul\":9373:9445   */\n              tag_276\n                /* \"#utility.yul\":9441:9443   */\n              0x20\n                /* \"#utility.yul\":9430:9439   */\n              dup4\n                /* \"#utility.yul\":9426:9444   */\n              add\n                /* \"#utility.yul\":9417:9423   */\n              dup9\n                /* \"#utility.yul\":9373:9445   */\n              tag_164\n              jump\t// in\n            tag_276:\n                /* \"#utility.yul\":9455:9527   */\n              tag_277\n                /* \"#utility.yul\":9523:9525   */\n              0x40\n                /* \"#utility.yul\":9512:9521   */\n              dup4\n                /* \"#utility.yul\":9508:9526   */\n              add\n                /* \"#utility.yul\":9499:9505   */\n              dup8\n                /* \"#utility.yul\":9455:9527   */\n              tag_164\n              jump\t// in\n            tag_277:\n                /* \"#utility.yul\":9537:9609   */\n              tag_278\n                /* \"#utility.yul\":9605:9607   */\n              0x60\n                /* \"#utility.yul\":9594:9603   */\n              dup4\n                /* \"#utility.yul\":9590:9608   */\n              add\n                /* \"#utility.yul\":9581:9587   */\n              dup7\n                /* \"#utility.yul\":9537:9609   */\n              tag_164\n              jump\t// in\n            tag_278:\n                /* \"#utility.yul\":9619:9692   */\n              tag_279\n                /* \"#utility.yul\":9687:9690   */\n              0x80\n                /* \"#utility.yul\":9676:9685   */\n              dup4\n                /* \"#utility.yul\":9672:9691   */\n              add\n                /* \"#utility.yul\":9663:9669   */\n              dup6\n                /* \"#utility.yul\":9619:9692   */\n              tag_164\n              jump\t// in\n            tag_279:\n                /* \"#utility.yul\":9702:9775   */\n              tag_280\n                /* \"#utility.yul\":9770:9773   */\n              0xa0\n                /* \"#utility.yul\":9759:9768   */\n              dup4\n                /* \"#utility.yul\":9755:9774   */\n              add\n                /* \"#utility.yul\":9746:9752   */\n              dup5\n                /* \"#utility.yul\":9702:9775   */\n              tag_165\n              jump\t// in\n            tag_280:\n                /* \"#utility.yul\":8916:9782   */\n              swap8\n              swap7\n              pop\n              pop\n              pop\n              pop\n              pop\n              pop\n              pop\n              jump\t// out\n                /* \"#utility.yul\":9788:9968   */\n            tag_77:\n                /* \"#utility.yul\":9836:9913   */\n              0x4e487b7100000000000000000000000000000000000000000000000000000000\n                /* \"#utility.yul\":9833:9834   */\n              0x00\n                /* \"#utility.yul\":9826:9914   */\n              mstore\n                /* \"#utility.yul\":9933:9937   */\n              0x32\n                /* \"#utility.yul\":9930:9931   */\n              0x04\n                /* \"#utility.yul\":9923:9938   */\n              mstore\n                /* \"#utility.yul\":9957:9961   */\n              0x24\n                /* \"#utility.yul\":9954:9955   */\n              0x00\n                /* \"#utility.yul\":9947:9962   */\n              revert\n                /* \"#utility.yul\":9974:10154   */\n            tag_167:\n                /* \"#utility.yul\":10022:10099   */\n              0x4e487b7100000000000000000000000000000000000000000000000000000000\n                /* \"#utility.yul\":10019:10020   */\n              0x00\n                /* \"#utility.yul\":10012:10100   */\n              mstore\n                /* \"#utility.yul\":10119:10123   */\n              0x11\n                /* \"#utility.yul\":10116:10117   */\n              0x04\n                /* \"#utility.yul\":10109:10124   */\n              mstore\n                /* \"#utility.yul\":10143:10147   */\n              0x24\n                /* \"#utility.yul\":10140:10141   */\n              0x00\n                /* \"#utility.yul\":10133:10148   */\n              revert\n                /* \"#utility.yul\":10160:10508   */\n            tag_80:\n                /* \"#utility.yul\":10200:10207   */\n              0x00\n                /* \"#utility.yul\":10223:10243   */\n              tag_284\n                /* \"#utility.yul\":10241:10242   */\n              dup3\n                /* \"#utility.yul\":10223:10243   */\n              tag_138\n              jump\t// in\n            tag_284:\n                /* \"#utility.yul\":10218:10243   */\n              swap2\n              pop\n                /* \"#utility.yul\":10257:10277   */\n              tag_285\n                /* \"#utility.yul\":10275:10276   */\n              dup4\n                /* \"#utility.yul\":10257:10277   */\n              tag_138\n              jump\t// in\n            tag_285:\n                /* \"#utility.yul\":10252:10277   */\n              swap3\n              pop\n                /* \"#utility.yul\":10445:10446   */\n              dup2\n                /* \"#utility.yul\":10377:10443   */\n              0xffffffffffffffffffffffffffffffffffffffffffffffffffffffffffffffff\n                /* \"#utility.yul\":10373:10447   */\n              div\n                /* \"#utility.yul\":10370:10371   */\n              dup4\n                /* \"#utility.yul\":10367:10448   */\n              gt\n                /* \"#utility.yul\":10362:10363   */\n              dup3\n                /* \"#utility.yul\":10355:10364   */\n              iszero\n                /* \"#utility.yul\":10348:10365   */\n              iszero\n                /* \"#utility.yul\":10344:10449   */\n              and\n                /* \"#utility.yul\":10341:10472   */\n              iszero\n              tag_286\n              jumpi\n                /* \"#utility.yul\":10452:10470   */\n              tag_287\n              tag_167\n              jump\t// in\n            tag_287:\n                /* \"#utility.yul\":10341:10472   */\n            tag_286:\n                /* \"#utility.yul\":10500:10501   */\n              dup3\n                /* \"#utility.yul\":10497:10498   */\n              dup3\n                /* \"#utility.yul\":10493:10502   */\n              mul\n                /* \"#utility.yul\":10482:10502   */\n              swap1\n              pop\n                /* \"#utility.yul\":10160:10508   */\n              swap3\n              swap2\n              pop\n              pop\n              jump\t// out\n                /* \"#utility.yul\":10514:10694   */\n            tag_168:\n                /* \"#utility.yul\":10562:10639   */\n              0x4e487b7100000000000000000000000000000000000000000000000000000000\n                /* \"#utility.yul\":10559:10560   */\n              0x00\n                /* \"#utility.yul\":10552:10640   */\n              mstore\n                /* \"#utility.yul\":10659:10663   */\n              0x12\n                /* \"#utility.yul\":10656:10657   */\n              0x04\n                /* \"#utility.yul\":10649:10664   */\n              mstore\n                /* \"#utility.yul\":10683:10687   */\n              0x24\n                /* \"#utility.yul\":10680:10681   */\n              0x00\n                /* \"#utility.yul\":10673:10688   */\n              revert\n                /* \"#utility.yul\":10700:10885   */\n            tag_82:\n                /* \"#utility.yul\":10740:10741   */\n              0x00\n                /* \"#utility.yul\":10757:10777   */\n              tag_290\n                /* \"#utility.yul\":10775:10776   */\n              dup3\n                /* \"#utility.yul\":10757:10777   */\n              tag_138\n              jump\t// in\n            tag_290:\n                /* \"#utility.yul\":10752:10777   */\n              swap2\n              pop\n                /* \"#utility.yul\":10791:10811   */\n              tag_291\n                /* \"#utility.yul\":10809:10810   */\n              dup4\n                /* \"#utility.yul\":10791:10811   */\n              tag_138\n              jump\t// in\n            tag_291:\n                /* \"#utility.yul\":10786:10811   */\n              swap3\n              pop\n                /* \"#utility.yul\":10830:10831   */\n              dup3\n                /* \"#utility.yul\":10820:10855   */\n              tag_292\n              jumpi\n                /* \"#utility.yul\":10835:10853   */\n              tag_293\n              tag_168\n              jump\t// in\n            tag_293:\n                /* \"#utility.yul\":10820:10855   */\n            tag_292:\n                /* \"#utility.yul\":10877:10878   */\n              dup3\n                /* \"#utility.yul\":10874:10875   */\n              dup3\n                /* \"#utility.yul\":10870:10879   */\n              div\n                /* \"#utility.yul\":10865:10879   */\n              swap1\n              pop\n                /* \"#utility.yul\":10700:10885   */\n              swap3\n              swap2\n              pop\n              pop\n              jump\t// out\n                /* \"#utility.yul\":10891:11071   */\n            tag_169:\n                /* \"#utility.yul\":10939:11016   */\n              0x4e487b7100000000000000000000000000000000000000000000000000000000\n                /* \"#utility.yul\":10936:10937   */\n              0x00\n                /* \"#utility.yul\":10929:11017   */\n              mstore\n                /* \"#utility.yul\":11036:11040   */\n              0x22\n                /* \"#utility.yul\":11033:11034   */\n              0x04\n                /* \"#utility.yul\":11026:11041   */\n              mstore\n                /* \"#utility.yul\":11060:11064   */\n              0x24\n                /* \"#utility.yul\":11057:11058   */\n              0x00\n                /* \"#utility.yul\":11050:11065   */\n              revert\n                /* \"#utility.yul\":11077:11397   */\n            tag_88:\n                /* \"#utility.yul\":11121:11127   */\n              0x00\n                /* \"#utility.yul\":11158:11159   */\n              0x02\n                /* \"#utility.yul\":11152:11156   */\n              dup3\n                /* \"#utility.yul\":11148:11160   */\n              div\n                /* \"#utility.yul\":11138:11160   */\n              swap1\n              pop\n                /* \"#utility.yul\":11205:11206   */\n              0x01\n                /* \"#utility.yul\":11199:11203   */\n              dup3\n                /* \"#utility.yul\":11195:11207   */\n              and\n                /* \"#utility.yul\":11226:11244   */\n              dup1\n                /* \"#utility.yul\":11216:11297   */\n              tag_296\n              jumpi\n                /* \"#utility.yul\":11282:11286   */\n              0x7f\n                /* \"#utility.yul\":11274:11280   */\n              dup3\n                /* \"#utility.yul\":11270:11287   */\n              and\n                /* \"#utility.yul\":11260:11287   */\n              swap2\n              pop\n                /* \"#utility.yul\":11216:11297   */\n            tag_296:\n                /* \"#utility.yul\":11344:11346   */\n              0x20\n                /* \"#utility.yul\":11336:11342   */\n              dup3\n                /* \"#utility.yul\":11333:11347   */\n              lt\n                /* \"#utility.yul\":11313:11331   */\n              dup2\n                /* \"#utility.yul\":11310:11348   */\n              sub\n                /* \"#utility.yul\":11307:11391   */\n              tag_297\n              jumpi\n                /* \"#utility.yul\":11363:11381   */\n              tag_298\n              tag_169\n              jump\t// in\n            tag_298:\n                /* \"#utility.yul\":11307:11391   */\n            tag_297:\n                /* \"#utility.yul\":11128:11397   */\n              pop\n                /* \"#utility.yul\":11077:11397   */\n              swap2\n              swap1\n              pop\n              jump\t// out\n                /* \"#utility.yul\":11403:11636   */\n            tag_117:\n                /* \"#utility.yul\":11442:11445   */\n              0x00\n                /* \"#utility.yul\":11465:11489   */\n              tag_300\n                /* \"#utility.yul\":11483:11488   */\n              dup3\n                /* \"#utility.yul\":11465:11489   */\n              tag_138\n              jump\t// in\n            tag_300:\n                /* \"#utility.yul\":11456:11489   */\n              swap2\n              pop\n                /* \"#utility.yul\":11511:11577   */\n              0xffffffffffffffffffffffffffffffffffffffffffffffffffffffffffffffff\n                /* \"#utility.yul\":11504:11509   */\n              dup3\n                /* \"#utility.yul\":11501:11578   */\n              sub\n                /* \"#utility.yul\":11498:11601   */\n              tag_301\n              jumpi\n                /* \"#utility.yul\":11581:11599   */\n              tag_302\n              tag_167\n              jump\t// in\n            tag_302:\n                /* \"#utility.yul\":11498:11601   */\n            tag_301:\n                /* \"#utility.yul\":11628:11629   */\n              0x01\n                /* \"#utility.yul\":11621:11626   */\n              dup3\n                /* \"#utility.yul\":11617:11630   */\n              add\n                /* \"#utility.yul\":11610:11630   */\n              swap1\n              pop\n                /* \"#utility.yul\":11403:11636   */\n              swap2\n              swap1\n              pop\n              jump\t// out\n\n            auxdata: 0xa2646970667358221220e41e0b4488d3b82684a50a23460c34a72af3ba8278fa370b6c4e184c6d4343b164736f6c634300080d0033\n        }\n    }\n\n    auxdata: 0xa264697066735822122086f20ade6ca6a920e436cc78293314ebe0d52327971e8c81fc3eb2d9ec1cd95664736f6c634300080d0033\n}\n","bytecode":{"linkReferences":{},"object":"608060405234801561001057600080fd5b5061220e806100206000396000f3fe60806040523480156200001157600080fd5b50600436106200005e5760003560e01c8063339d50a514620000635780634220d65614620000995780634acb9d4f14620000b9578063634a321d14620000db5780639e4ed4d11462000111575b600080fd5b6200008160048036038101906200007b91906200058f565b62000133565b60405162000090919062000606565b60405180910390f35b620000b76004803603810190620000b1919062000785565b62000173565b005b620000c36200025a565b604051620000d29190620008b9565b60405180910390f35b620000f96004803603810190620000f391906200058f565b620002ea565b60405162000108919062000970565b60405180910390f35b6200011b6200039f565b6040516200012a919062000ab6565b60405180910390f35b600081815481106200014457600080fd5b906000526020600020016000915054906101000a900473ffffffffffffffffffffffffffffffffffffffff1681565b6000828233604051620001869062000482565b620001949392919062000aeb565b604051809103906000f080158015620001b1573d6000803e3d6000fd5b5090506000819080600181540180825580915050600190039060005260206000200160009091909190916101000a81548173ffffffffffffffffffffffffffffffffffffffff021916908373ffffffffffffffffffffffffffffffffffffffff1602179055506001829080600181540180825580915050600190039060005260206000200160009091909190915090805190602001906200025492919062000490565b50505050565b60606000805480602002602001604051908101604052809291908181526020018280548015620002e057602002820191906000526020600020905b8160009054906101000a900473ffffffffffffffffffffffffffffffffffffffff1673ffffffffffffffffffffffffffffffffffffffff168152602001906001019080831162000295575b5050505050905090565b60018181548110620002fb57600080fd5b906000526020600020016000915090508054620003189062000b5e565b80601f0160208091040260200160405190810160405280929190818152602001828054620003469062000b5e565b8015620003975780601f106200036b5761010080835404028352916020019162000397565b820191906000526020600020905b8154815290600101906020018083116200037957829003601f168201915b505050505081565b60606001805480602002602001604051908101604052809291908181526020016000905b8282101562000479578382906000526020600020018054620003e59062000b5e565b80601f0160208091040260200160405190810160405280929190818152602001828054620004139062000b5e565b8015620004645780601f10620004385761010080835404028352916020019162000464565b820191906000526020600020905b8154815290600101906020018083116200044657829003601f168201915b505050505081526020019060010190620003c3565b50505050905090565b6116458062000b9483390190565b8280546200049e9062000b5e565b90600052602060002090601f016020900481019282620004c257600085556200050e565b82601f10620004dd57805160ff19168380011785556200050e565b828001600101855582156200050e579182015b828111156200050d578251825591602001919060010190620004f0565b5b5090506200051d919062000521565b5090565b5b808211156200053c57600081600090555060010162000522565b5090565b6000604051905090565b600080fd5b600080fd5b6000819050919050565b620005698162000554565b81146200057557600080fd5b50565b60008135905062000589816200055e565b92915050565b600060208284031215620005a857620005a76200054a565b5b6000620005b88482850162000578565b91505092915050565b600073ffffffffffffffffffffffffffffffffffffffff82169050919050565b6000620005ee82620005c1565b9050919050565b6200060081620005e1565b82525050565b60006020820190506200061d6000830184620005f5565b92915050565b600080fd5b600080fd5b6000601f19601f8301169050919050565b7f4e487b7100000000000000000000000000000000000000000000000000000000600052604160045260246000fd5b62000678826200062d565b810181811067ffffffffffffffff821117156200069a57620006996200063e565b5b80604052505050565b6000620006af62000540565b9050620006bd82826200066d565b919050565b600067ffffffffffffffff821115620006e057620006df6200063e565b5b620006eb826200062d565b9050602081019050919050565b82818337600083830152505050565b60006200071e6200071884620006c2565b620006a3565b9050828152602081018484840111156200073d576200073c62000628565b5b6200074a848285620006f8565b509392505050565b600082601f8301126200076a576200076962000623565b5b81356200077c84826020860162000707565b91505092915050565b600080604083850312156200079f576200079e6200054a565b5b6000620007af8582860162000578565b925050602083013567ffffffffffffffff811115620007d357620007d26200054f565b5b620007e18582860162000752565b9150509250929050565b600081519050919050565b600082825260208201905092915050565b6000819050602082019050919050565b6200082281620005e1565b82525050565b600062000836838362000817565b60208301905092915050565b6000602082019050919050565b60006200085c82620007eb565b620008688185620007f6565b9350620008758362000807565b8060005b83811015620008ac57815162000890888262000828565b97506200089d8362000842565b92505060018101905062000879565b5085935050505092915050565b60006020820190508181036000830152620008d581846200084f565b905092915050565b600081519050919050565b600082825260208201905092915050565b60005b8381101562000919578082015181840152602081019050620008fc565b8381111562000929576000848401525b50505050565b60006200093c82620008dd565b620009488185620008e8565b93506200095a818560208601620008f9565b62000965816200062d565b840191505092915050565b600060208201905081810360008301526200098c81846200092f565b905092915050565b600081519050919050565b600082825260208201905092915050565b6000819050602082019050919050565b600082825260208201905092915050565b6000620009de82620008dd565b620009ea8185620009c0565b9350620009fc818560208601620008f9565b62000a07816200062d565b840191505092915050565b600062000a208383620009d1565b905092915050565b6000602082019050919050565b600062000a428262000994565b62000a4e81856200099f565b93508360208202850162000a6285620009b0565b8060005b8581101562000aa4578484038952815162000a82858262000a12565b945062000a8f8362000a28565b925060208a0199505060018101905062000a66565b50829750879550505050505092915050565b6000602082019050818103600083015262000ad2818462000a35565b905092915050565b62000ae58162000554565b82525050565b600060608201905062000b02600083018662000ada565b818103602083015262000b1681856200092f565b905062000b276040830184620005f5565b949350505050565b7f4e487b7100000000000000000000000000000000000000000000000000000000600052602260045260246000fd5b6000600282049050600182168062000b7757607f821691505b60208210810362000b8d5762000b8c62000b2f565b5b5091905056fe60806040523480156200001157600080fd5b50604051620016453803806200164583398181016040528101906200003791906200038d565b82600281905550816001908051906020019062000056929190620000a0565b50806000806101000a81548173ffffffffffffffffffffffffffffffffffffffff021916908373ffffffffffffffffffffffffffffffffffffffff1602179055505050506200046c565b828054620000ae9062000437565b90600052602060002090601f016020900481019282620000d257600085556200011e565b82601f10620000ed57805160ff19168380011785556200011e565b828001600101855582156200011e579182015b828111156200011d57825182559160200191906001019062000100565b5b5090506200012d919062000131565b5090565b5b808211156200014c57600081600090555060010162000132565b5090565b6000604051905090565b600080fd5b600080fd5b6000819050919050565b620001798162000164565b81146200018557600080fd5b50565b60008151905062000199816200016e565b92915050565b600080fd5b600080fd5b6000601f19601f8301169050919050565b7f4e487b7100000000000000000000000000000000000000000000000000000000600052604160045260246000fd5b620001f482620001a9565b810181811067ffffffffffffffff82111715620002165762000215620001ba565b5b80604052505050565b60006200022b62000150565b9050620002398282620001e9565b919050565b600067ffffffffffffffff8211156200025c576200025b620001ba565b5b6200026782620001a9565b9050602081019050919050565b60005b838110156200029457808201518184015260208101905062000277565b83811115620002a4576000848401525b50505050565b6000620002c1620002bb846200023e565b6200021f565b905082815260208101848484011115620002e057620002df620001a4565b5b620002ed84828562000274565b509392505050565b600082601f8301126200030d576200030c6200019f565b5b81516200031f848260208601620002aa565b91505092915050565b600073ffffffffffffffffffffffffffffffffffffffff82169050919050565b6000620003558262000328565b9050919050565b620003678162000348565b81146200037357600080fd5b50565b60008151905062000387816200035c565b92915050565b600080600060608486031215620003a957620003a86200015a565b5b6000620003b98682870162000188565b935050602084015167ffffffffffffffff811115620003dd57620003dc6200015f565b5b620003eb86828701620002f5565b9250506040620003fe8682870162000376565b9150509250925092565b7f4e487b7100000000000000000000000000000000000000000000000000000000600052602260045260246000fd5b600060028204905060018216806200045057607f821691505b60208210810362000466576200046562000408565b5b50919050565b6111c9806200047c6000396000f3fe6080604052600436106100a75760003560e01c80637569b3d7116100645780637569b3d7146101bc57806381d12c58146101e7578063937e09b114610229578063a00c96d714610254578063d7bb99ba14610284578063d7d1bbdb1461028e576100a7565b806303441006146100ac5780630724fda9146100d55780631f6d49421461010057806326883efa1461013d5780633410452a14610166578063481c6a7514610191575b600080fd5b3480156100b857600080fd5b506100d360048036038101906100ce9190610b01565b6102b7565b005b3480156100e157600080fd5b506100ea61040f565b6040516100f79190610bc7565b60405180910390f35b34801561010c57600080fd5b5061012760048036038101906101229190610c47565b61049d565b6040516101349190610c8f565b60405180910390f35b34801561014957600080fd5b50610164600480360381019061015f9190610e1d565b6104bd565b005b34801561017257600080fd5b5061017b6105d5565b6040516101889190610eaf565b60405180910390f35b34801561019d57600080fd5b506101a66105e2565b6040516101b39190610ed9565b60405180910390f35b3480156101c857600080fd5b506101d1610606565b6040516101de9190610eaf565b60405180910390f35b3480156101f357600080fd5b5061020e60048036038101906102099190610b01565b61060c565b60405161022096959493929190610f03565b60405180910390f35b34801561023557600080fd5b5061023e61070d565b60405161024b9190610eaf565b60405180910390f35b34801561026057600080fd5b50610269610713565b60405161027b96959493929190610f6b565b60405180910390f35b61028c6107ed565b005b34801561029a57600080fd5b506102b560048036038101906102b09190610b01565b6108c7565b005b60008054906101000a900473ffffffffffffffffffffffffffffffffffffffff1673ffffffffffffffffffffffffffffffffffffffff163373ffffffffffffffffffffffffffffffffffffffff161461030f57600080fd5b60006003828154811061032557610324610fd3565b5b9060005260206000209060070201905080600301546005546064836005015461034e9190611031565b61035891906110ba565b101561036357600080fd5b8060040160009054906101000a900460ff161561037f57600080fd5b8060020160009054906101000a900473ffffffffffffffffffffffffffffffffffffffff1673ffffffffffffffffffffffffffffffffffffffff166108fc82600101549081150290604051600060405180830381858888f193505050501580156103ed573d6000803e3d6000fd5b5060018160040160006101000a81548160ff0219169083151502179055505050565b6001805461041c9061111a565b80601f01602080910402602001604051908101604052809291908181526020018280546104489061111a565b80156104955780601f1061046a57610100808354040283529160200191610495565b820191906000526020600020905b81548152906001019060200180831161047857829003601f168201915b505050505081565b60046020528060005260406000206000915054906101000a900460ff1681565b60008054906101000a900473ffffffffffffffffffffffffffffffffffffffff1673ffffffffffffffffffffffffffffffffffffffff163373ffffffffffffffffffffffffffffffffffffffff161461051557600080fd5b60006003600181600181540180825580915050039060005260206000209060070201905084816000019080519060200190610551929190610a14565b50838160010181905550828160020160006101000a81548173ffffffffffffffffffffffffffffffffffffffff021916908373ffffffffffffffffffffffffffffffffffffffff16021790555081816003018190555060008160040160006101000a81548160ff021916908315150217905550600081600501819055505050505050565b6000600380549050905090565b60008054906101000a900473ffffffffffffffffffffffffffffffffffffffff1681565b60055481565b6003818154811061061c57600080fd5b906000526020600020906007020160009150905080600001805461063f9061111a565b80601f016020809104026020016040519081016040528092919081815260200182805461066b9061111a565b80156106b85780601f1061068d576101008083540402835291602001916106b8565b820191906000526020600020905b81548152906001019060200180831161069b57829003601f168201915b5050505050908060010154908060020160009054906101000a900473ffffffffffffffffffffffffffffffffffffffff16908060030154908060040160009054906101000a900460ff16908060050154905086565b60025481565b6060600080600080600060014760025460038054905060055460008054906101000a900473ffffffffffffffffffffffffffffffffffffffff168580546107599061111a565b80601f01602080910402602001604051908101604052809291908181526020018280546107859061111a565b80156107d25780601f106107a7576101008083540402835291602001916107d2565b820191906000526020600020905b8154815290600101906020018083116107b557829003601f168201915b50505050509550955095509550955095509550909192939495565b6002543410156107fc57600080fd5b60001515600460003373ffffffffffffffffffffffffffffffffffffffff1673ffffffffffffffffffffffffffffffffffffffff16815260200190815260200160002060009054906101000a900460ff161515036108c5576001600460003373ffffffffffffffffffffffffffffffffffffffff1673ffffffffffffffffffffffffffffffffffffffff16815260200190815260200160002060006101000a81548160ff021916908315150217905550600560008154809291906108bf9061114b565b91905055505b565b6000600382815481106108dd576108dc610fd3565b5b90600052602060002090600702019050600460003373ffffffffffffffffffffffffffffffffffffffff1673ffffffffffffffffffffffffffffffffffffffff16815260200190815260200160002060009054906101000a900460ff1661094357600080fd5b8060060160003373ffffffffffffffffffffffffffffffffffffffff1673ffffffffffffffffffffffffffffffffffffffff16815260200190815260200160002060009054906101000a900460ff161561099c57600080fd5b60018160060160003373ffffffffffffffffffffffffffffffffffffffff1673ffffffffffffffffffffffffffffffffffffffff16815260200190815260200160002060006101000a81548160ff021916908315150217905550806005016000815480929190610a0b9061114b565b91905055505050565b828054610a209061111a565b90600052602060002090601f016020900481019282610a425760008555610a89565b82601f10610a5b57805160ff1916838001178555610a89565b82800160010185558215610a89579182015b82811115610a88578251825591602001919060010190610a6d565b5b509050610a969190610a9a565b5090565b5b80821115610ab3576000816000905550600101610a9b565b5090565b6000604051905090565b600080fd5b600080fd5b6000819050919050565b610ade81610acb565b8114610ae957600080fd5b50565b600081359050610afb81610ad5565b92915050565b600060208284031215610b1757610b16610ac1565b5b6000610b2584828501610aec565b91505092915050565b600081519050919050565b600082825260208201905092915050565b60005b83811015610b68578082015181840152602081019050610b4d565b83811115610b77576000848401525b50505050565b6000601f19601f8301169050919050565b6000610b9982610b2e565b610ba38185610b39565b9350610bb3818560208601610b4a565b610bbc81610b7d565b840191505092915050565b60006020820190508181036000830152610be18184610b8e565b905092915050565b600073ffffffffffffffffffffffffffffffffffffffff82169050919050565b6000610c1482610be9565b9050919050565b610c2481610c09565b8114610c2f57600080fd5b50565b600081359050610c4181610c1b565b92915050565b600060208284031215610c5d57610c5c610ac1565b5b6000610c6b84828501610c32565b91505092915050565b60008115159050919050565b610c8981610c74565b82525050565b6000602082019050610ca46000830184610c80565b92915050565b600080fd5b600080fd5b7f4e487b7100000000000000000000000000000000000000000000000000000000600052604160045260246000fd5b610cec82610b7d565b810181811067ffffffffffffffff82111715610d0b57610d0a610cb4565b5b80604052505050565b6000610d1e610ab7565b9050610d2a8282610ce3565b919050565b600067ffffffffffffffff821115610d4a57610d49610cb4565b5b610d5382610b7d565b9050602081019050919050565b82818337600083830152505050565b6000610d82610d7d84610d2f565b610d14565b905082815260208101848484011115610d9e57610d9d610caf565b5b610da9848285610d60565b509392505050565b600082601f830112610dc657610dc5610caa565b5b8135610dd6848260208601610d6f565b91505092915050565b6000610dea82610be9565b9050919050565b610dfa81610ddf565b8114610e0557600080fd5b50565b600081359050610e1781610df1565b92915050565b60008060008060808587031215610e3757610e36610ac1565b5b600085013567ffffffffffffffff811115610e5557610e54610ac6565b5b610e6187828801610db1565b9450506020610e7287828801610aec565b9350506040610e8387828801610e08565b9250506060610e9487828801610aec565b91505092959194509250565b610ea981610acb565b82525050565b6000602082019050610ec46000830184610ea0565b92915050565b610ed381610c09565b82525050565b6000602082019050610eee6000830184610eca565b92915050565b610efd81610ddf565b82525050565b600060c0820190508181036000830152610f1d8189610b8e565b9050610f2c6020830188610ea0565b610f396040830187610ef4565b610f466060830186610ea0565b610f536080830185610c80565b610f6060a0830184610ea0565b979650505050505050565b600060c0820190508181036000830152610f858189610b8e565b9050610f946020830188610ea0565b610fa16040830187610ea0565b610fae6060830186610ea0565b610fbb6080830185610ea0565b610fc860a0830184610eca565b979650505050505050565b7f4e487b7100000000000000000000000000000000000000000000000000000000600052603260045260246000fd5b7f4e487b7100000000000000000000000000000000000000000000000000000000600052601160045260246000fd5b600061103c82610acb565b915061104783610acb565b9250817fffffffffffffffffffffffffffffffffffffffffffffffffffffffffffffffff04831182151516156110805761107f611002565b5b828202905092915050565b7f4e487b7100000000000000000000000000000000000000000000000000000000600052601260045260246000fd5b60006110c582610acb565b91506110d083610acb565b9250826110e0576110df61108b565b5b828204905092915050565b7f4e487b7100000000000000000000000000000000000000000000000000000000600052602260045260246000fd5b6000600282049050600182168061113257607f821691505b602082108103611145576111446110eb565b5b50919050565b600061115682610acb565b91507fffffffffffffffffffffffffffffffffffffffffffffffffffffffffffffffff820361118857611187611002565b5b60018201905091905056fea2646970667358221220e41e0b4488d3b82684a50a23460c34a72af3ba8278fa370b6c4e184c6d4343b164736f6c634300080d0033a264697066735822122086f20ade6ca6a920e436cc78293314ebe0d52327971e8c81fc3eb2d9ec1cd95664736f6c634300080d0033","opcodes":"PUSH1 0x80 PUSH1 0x40 MSTORE CALLVALUE DUP1 ISZERO PUSH2 0x10 JUMPI PUSH1 0x0 DUP1 REVERT JUMPDEST POP PUSH2 0x220E DUP1 PUSH2 0x20 PUSH1 0x0 CODECOPY PUSH1 0x0 RETURN INVALID PUSH1 0x80 PUSH1 0x40 MSTORE CALLVALUE DUP1 ISZERO PUSH3 0x11 JUMPI PUSH1 0x0 DUP1 REVERT JUMPDEST POP PUSH1 0x4 CALLDATASIZE LT PUSH3 0x5E JUMPI PUSH1 0x0 CALLDATALOAD PUSH1 0xE0 SHR DUP1 PUSH4 0x339D50A5 EQ PUSH3 0x63 JUMPI DUP1 PUSH4 0x4220D656 EQ PUSH3 0x99 JUMPI DUP1 PUSH4 0x4ACB9D4F EQ PUSH3 0xB9 JUMPI DUP1 PUSH4 0x634A321D EQ PUSH3 0xDB JUMPI DUP1 PUSH4 0x9E4ED4D1 EQ PUSH3 0x111 JUMPI JUMPDEST PUSH1 0x0 DUP1 REVERT JUMPDEST PUSH3 0x81 PUSH1 0x4 DUP1 CALLDATASIZE SUB DUP2 ADD SWAP1 PUSH3 0x7B SWAP2 SWAP1 PUSH3 0x58F JUMP JUMPDEST PUSH3 0x133 JUMP JUMPDEST PUSH1 0x40 MLOAD PUSH3 0x90 SWAP2 SWAP1 PUSH3 0x606 JUMP JUMPDEST PUSH1 0x40 MLOAD DUP1 SWAP2 SUB SWAP1 RETURN JUMPDEST PUSH3 0xB7 PUSH1 0x4 DUP1 CALLDATASIZE SUB DUP2 ADD SWAP1 PUSH3 0xB1 SWAP2 SWAP1 PUSH3 0x785 JUMP JUMPDEST PUSH3 0x173 JUMP JUMPDEST STOP JUMPDEST PUSH3 0xC3 PUSH3 0x25A JUMP JUMPDEST PUSH1 0x40 MLOAD PUSH3 0xD2 SWAP2 SWAP1 PUSH3 0x8B9 JUMP JUMPDEST PUSH1 0x40 MLOAD DUP1 SWAP2 SUB SWAP1 RETURN JUMPDEST PUSH3 0xF9 PUSH1 0x4 DUP1 CALLDATASIZE SUB DUP2 ADD SWAP1 PUSH3 0xF3 SWAP2 SWAP1 PUSH3 0x58F JUMP JUMPDEST PUSH3 0x2EA JUMP JUMPDEST PUSH1 0x40 MLOAD PUSH3 0x108 SWAP2 SWAP1 PUSH3 0x970 JUMP JUMPDEST PUSH1 0x40 MLOAD DUP1 SWAP2 SUB SWAP1 RETURN JUMPDEST PUSH3 0x11B PUSH3 0x39F JUMP JUMPDEST PUSH1 0x40 MLOAD PUSH3 0x12A SWAP2 SWAP1 PUSH3 0xAB6 JUMP JUMPDEST PUSH1 0x40 MLOAD DUP1 SWAP2 SUB SWAP1 RETURN JUMPDEST PUSH1 0x0 DUP2 DUP2 SLOAD DUP2 LT PUSH3 0x144 JUMPI PUSH1 0x0 DUP1 REVERT JUMPDEST SWAP1 PUSH1 0x0 MSTORE PUSH1 0x20 PUSH1 0x0 KECCAK256 ADD PUSH1 0x0 SWAP2 POP SLOAD SWAP1 PUSH2 0x100 EXP SWAP1 DIV PUSH20 0xFFFFFFFFFFFFFFFFFFFFFFFFFFFFFFFFFFFFFFFF AND DUP2 JUMP JUMPDEST PUSH1 0x0 DUP3 DUP3 CALLER PUSH1 0x40 MLOAD PUSH3 0x186 SWAP1 PUSH3 0x482 JUMP JUMPDEST PUSH3 0x194 SWAP4 SWAP3 SWAP2 SWAP1 PUSH3 0xAEB JUMP JUMPDEST PUSH1 0x40 MLOAD DUP1 SWAP2 SUB SWAP1 PUSH1 0x0 CREATE DUP1 ISZERO DUP1 ISZERO PUSH3 0x1B1 JUMPI RETURNDATASIZE PUSH1 0x0 DUP1 RETURNDATACOPY RETURNDATASIZE PUSH1 0x0 REVERT JUMPDEST POP SWAP1 POP PUSH1 0x0 DUP2 SWAP1 DUP1 PUSH1 0x1 DUP2 SLOAD ADD DUP1 DUP3 SSTORE DUP1 SWAP2 POP POP PUSH1 0x1 SWAP1 SUB SWAP1 PUSH1 0x0 MSTORE PUSH1 0x20 PUSH1 0x0 KECCAK256 ADD PUSH1 0x0 SWAP1 SWAP2 SWAP1 SWAP2 SWAP1 SWAP2 PUSH2 0x100 EXP DUP2 SLOAD DUP2 PUSH20 0xFFFFFFFFFFFFFFFFFFFFFFFFFFFFFFFFFFFFFFFF MUL NOT AND SWAP1 DUP4 PUSH20 0xFFFFFFFFFFFFFFFFFFFFFFFFFFFFFFFFFFFFFFFF AND MUL OR SWAP1 SSTORE POP PUSH1 0x1 DUP3 SWAP1 DUP1 PUSH1 0x1 DUP2 SLOAD ADD DUP1 DUP3 SSTORE DUP1 SWAP2 POP POP PUSH1 0x1 SWAP1 SUB SWAP1 PUSH1 0x0 MSTORE PUSH1 0x20 PUSH1 0x0 KECCAK256 ADD PUSH1 0x0 SWAP1 SWAP2 SWAP1 SWAP2 SWAP1 SWAP2 POP SWAP1 DUP1 MLOAD SWAP1 PUSH1 0x20 ADD SWAP1 PUSH3 0x254 SWAP3 SWAP2 SWAP1 PUSH3 0x490 JUMP JUMPDEST POP POP POP POP JUMP JUMPDEST PUSH1 0x60 PUSH1 0x0 DUP1 SLOAD DUP1 PUSH1 0x20 MUL PUSH1 0x20 ADD PUSH1 0x40 MLOAD SWAP1 DUP2 ADD PUSH1 0x40 MSTORE DUP1 SWAP3 SWAP2 SWAP1 DUP2 DUP2 MSTORE PUSH1 0x20 ADD DUP3 DUP1 SLOAD DUP1 ISZERO PUSH3 0x2E0 JUMPI PUSH1 0x20 MUL DUP3 ADD SWAP2 SWAP1 PUSH1 0x0 MSTORE PUSH1 0x20 PUSH1 0x0 KECCAK256 SWAP1 JUMPDEST DUP2 PUSH1 0x0 SWAP1 SLOAD SWAP1 PUSH2 0x100 EXP SWAP1 DIV PUSH20 0xFFFFFFFFFFFFFFFFFFFFFFFFFFFFFFFFFFFFFFFF AND PUSH20 0xFFFFFFFFFFFFFFFFFFFFFFFFFFFFFFFFFFFFFFFF AND DUP2 MSTORE PUSH1 0x20 ADD SWAP1 PUSH1 0x1 ADD SWAP1 DUP1 DUP4 GT PUSH3 0x295 JUMPI JUMPDEST POP POP POP POP POP SWAP1 POP SWAP1 JUMP JUMPDEST PUSH1 0x1 DUP2 DUP2 SLOAD DUP2 LT PUSH3 0x2FB JUMPI PUSH1 0x0 DUP1 REVERT JUMPDEST SWAP1 PUSH1 0x0 MSTORE PUSH1 0x20 PUSH1 0x0 KECCAK256 ADD PUSH1 0x0 SWAP2 POP SWAP1 POP DUP1 SLOAD PUSH3 0x318 SWAP1 PUSH3 0xB5E JUMP JUMPDEST DUP1 PUSH1 0x1F ADD PUSH1 0x20 DUP1 SWAP2 DIV MUL PUSH1 0x20 ADD PUSH1 0x40 MLOAD SWAP1 DUP2 ADD PUSH1 0x40 MSTORE DUP1 SWAP3 SWAP2 SWAP1 DUP2 DUP2 MSTORE PUSH1 0x20 ADD DUP3 DUP1 SLOAD PUSH3 0x346 SWAP1 PUSH3 0xB5E JUMP JUMPDEST DUP1 ISZERO PUSH3 0x397 JUMPI DUP1 PUSH1 0x1F LT PUSH3 0x36B JUMPI PUSH2 0x100 DUP1 DUP4 SLOAD DIV MUL DUP4 MSTORE SWAP2 PUSH1 0x20 ADD SWAP2 PUSH3 0x397 JUMP JUMPDEST DUP3 ADD SWAP2 SWAP1 PUSH1 0x0 MSTORE PUSH1 0x20 PUSH1 0x0 KECCAK256 SWAP1 JUMPDEST DUP2 SLOAD DUP2 MSTORE SWAP1 PUSH1 0x1 ADD SWAP1 PUSH1 0x20 ADD DUP1 DUP4 GT PUSH3 0x379 JUMPI DUP3 SWAP1 SUB PUSH1 0x1F AND DUP3 ADD SWAP2 JUMPDEST POP POP POP POP POP DUP2 JUMP JUMPDEST PUSH1 0x60 PUSH1 0x1 DUP1 SLOAD DUP1 PUSH1 0x20 MUL PUSH1 0x20 ADD PUSH1 0x40 MLOAD SWAP1 DUP2 ADD PUSH1 0x40 MSTORE DUP1 SWAP3 SWAP2 SWAP1 DUP2 DUP2 MSTORE PUSH1 0x20 ADD PUSH1 0x0 SWAP1 JUMPDEST DUP3 DUP3 LT ISZERO PUSH3 0x479 JUMPI DUP4 DUP3 SWAP1 PUSH1 0x0 MSTORE PUSH1 0x20 PUSH1 0x0 KECCAK256 ADD DUP1 SLOAD PUSH3 0x3E5 SWAP1 PUSH3 0xB5E JUMP JUMPDEST DUP1 PUSH1 0x1F ADD PUSH1 0x20 DUP1 SWAP2 DIV MUL PUSH1 0x20 ADD PUSH1 0x40 MLOAD SWAP1 DUP2 ADD PUSH1 0x40 MSTORE DUP1 SWAP3 SWAP2 SWAP1 DUP2 DUP2 MSTORE PUSH1 0x20 ADD DUP3 DUP1 SLOAD PUSH3 0x413 SWAP1 PUSH3 0xB5E JUMP JUMPDEST DUP1 ISZERO PUSH3 0x464 JUMPI DUP1 PUSH1 0x1F LT PUSH3 0x438 JUMPI PUSH2 0x100 DUP1 DUP4 SLOAD DIV MUL DUP4 MSTORE SWAP2 PUSH1 0x20 ADD SWAP2 PUSH3 0x464 JUMP JUMPDEST DUP3 ADD SWAP2 SWAP1 PUSH1 0x0 MSTORE PUSH1 0x20 PUSH1 0x0 KECCAK256 SWAP1 JUMPDEST DUP2 SLOAD DUP2 MSTORE SWAP1 PUSH1 0x1 ADD SWAP1 PUSH1 0x20 ADD DUP1 DUP4 GT PUSH3 0x446 JUMPI DUP3 SWAP1 SUB PUSH1 0x1F AND DUP3 ADD SWAP2 JUMPDEST POP POP POP POP POP DUP2 MSTORE PUSH1 0x20 ADD SWAP1 PUSH1 0x1 ADD SWAP1 PUSH3 0x3C3 JUMP JUMPDEST POP POP POP POP SWAP1 POP SWAP1 JUMP JUMPDEST PUSH2 0x1645 DUP1 PUSH3 0xB94 DUP4 CODECOPY ADD SWAP1 JUMP JUMPDEST DUP3 DUP1 SLOAD PUSH3 0x49E SWAP1 PUSH3 0xB5E JUMP JUMPDEST SWAP1 PUSH1 0x0 MSTORE PUSH1 0x20 PUSH1 0x0 KECCAK256 SWAP1 PUSH1 0x1F ADD PUSH1 0x20 SWAP1 DIV DUP2 ADD SWAP3 DUP3 PUSH3 0x4C2 JUMPI PUSH1 0x0 DUP6 SSTORE PUSH3 0x50E JUMP JUMPDEST DUP3 PUSH1 0x1F LT PUSH3 0x4DD JUMPI DUP1 MLOAD PUSH1 0xFF NOT AND DUP4 DUP1 ADD OR DUP6 SSTORE PUSH3 0x50E JUMP JUMPDEST DUP3 DUP1 ADD PUSH1 0x1 ADD DUP6 SSTORE DUP3 ISZERO PUSH3 0x50E JUMPI SWAP2 DUP3 ADD JUMPDEST DUP3 DUP2 GT ISZERO PUSH3 0x50D JUMPI DUP3 MLOAD DUP3 SSTORE SWAP2 PUSH1 0x20 ADD SWAP2 SWAP1 PUSH1 0x1 ADD SWAP1 PUSH3 0x4F0 JUMP JUMPDEST JUMPDEST POP SWAP1 POP PUSH3 0x51D SWAP2 SWAP1 PUSH3 0x521 JUMP JUMPDEST POP SWAP1 JUMP JUMPDEST JUMPDEST DUP1 DUP3 GT ISZERO PUSH3 0x53C JUMPI PUSH1 0x0 DUP2 PUSH1 0x0 SWAP1 SSTORE POP PUSH1 0x1 ADD PUSH3 0x522 JUMP JUMPDEST POP SWAP1 JUMP JUMPDEST PUSH1 0x0 PUSH1 0x40 MLOAD SWAP1 POP SWAP1 JUMP JUMPDEST PUSH1 0x0 DUP1 REVERT JUMPDEST PUSH1 0x0 DUP1 REVERT JUMPDEST PUSH1 0x0 DUP2 SWAP1 POP SWAP2 SWAP1 POP JUMP JUMPDEST PUSH3 0x569 DUP2 PUSH3 0x554 JUMP JUMPDEST DUP2 EQ PUSH3 0x575 JUMPI PUSH1 0x0 DUP1 REVERT JUMPDEST POP JUMP JUMPDEST PUSH1 0x0 DUP2 CALLDATALOAD SWAP1 POP PUSH3 0x589 DUP2 PUSH3 0x55E JUMP JUMPDEST SWAP3 SWAP2 POP POP JUMP JUMPDEST PUSH1 0x0 PUSH1 0x20 DUP3 DUP5 SUB SLT ISZERO PUSH3 0x5A8 JUMPI PUSH3 0x5A7 PUSH3 0x54A JUMP JUMPDEST JUMPDEST PUSH1 0x0 PUSH3 0x5B8 DUP5 DUP3 DUP6 ADD PUSH3 0x578 JUMP JUMPDEST SWAP2 POP POP SWAP3 SWAP2 POP POP JUMP JUMPDEST PUSH1 0x0 PUSH20 0xFFFFFFFFFFFFFFFFFFFFFFFFFFFFFFFFFFFFFFFF DUP3 AND SWAP1 POP SWAP2 SWAP1 POP JUMP JUMPDEST PUSH1 0x0 PUSH3 0x5EE DUP3 PUSH3 0x5C1 JUMP JUMPDEST SWAP1 POP SWAP2 SWAP1 POP JUMP JUMPDEST PUSH3 0x600 DUP2 PUSH3 0x5E1 JUMP JUMPDEST DUP3 MSTORE POP POP JUMP JUMPDEST PUSH1 0x0 PUSH1 0x20 DUP3 ADD SWAP1 POP PUSH3 0x61D PUSH1 0x0 DUP4 ADD DUP5 PUSH3 0x5F5 JUMP JUMPDEST SWAP3 SWAP2 POP POP JUMP JUMPDEST PUSH1 0x0 DUP1 REVERT JUMPDEST PUSH1 0x0 DUP1 REVERT JUMPDEST PUSH1 0x0 PUSH1 0x1F NOT PUSH1 0x1F DUP4 ADD AND SWAP1 POP SWAP2 SWAP1 POP JUMP JUMPDEST PUSH32 0x4E487B7100000000000000000000000000000000000000000000000000000000 PUSH1 0x0 MSTORE PUSH1 0x41 PUSH1 0x4 MSTORE PUSH1 0x24 PUSH1 0x0 REVERT JUMPDEST PUSH3 0x678 DUP3 PUSH3 0x62D JUMP JUMPDEST DUP2 ADD DUP2 DUP2 LT PUSH8 0xFFFFFFFFFFFFFFFF DUP3 GT OR ISZERO PUSH3 0x69A JUMPI PUSH3 0x699 PUSH3 0x63E JUMP JUMPDEST JUMPDEST DUP1 PUSH1 0x40 MSTORE POP POP POP JUMP JUMPDEST PUSH1 0x0 PUSH3 0x6AF PUSH3 0x540 JUMP JUMPDEST SWAP1 POP PUSH3 0x6BD DUP3 DUP3 PUSH3 0x66D JUMP JUMPDEST SWAP2 SWAP1 POP JUMP JUMPDEST PUSH1 0x0 PUSH8 0xFFFFFFFFFFFFFFFF DUP3 GT ISZERO PUSH3 0x6E0 JUMPI PUSH3 0x6DF PUSH3 0x63E JUMP JUMPDEST JUMPDEST PUSH3 0x6EB DUP3 PUSH3 0x62D JUMP JUMPDEST SWAP1 POP PUSH1 0x20 DUP2 ADD SWAP1 POP SWAP2 SWAP1 POP JUMP JUMPDEST DUP3 DUP2 DUP4 CALLDATACOPY PUSH1 0x0 DUP4 DUP4 ADD MSTORE POP POP POP JUMP JUMPDEST PUSH1 0x0 PUSH3 0x71E PUSH3 0x718 DUP5 PUSH3 0x6C2 JUMP JUMPDEST PUSH3 0x6A3 JUMP JUMPDEST SWAP1 POP DUP3 DUP2 MSTORE PUSH1 0x20 DUP2 ADD DUP5 DUP5 DUP5 ADD GT ISZERO PUSH3 0x73D JUMPI PUSH3 0x73C PUSH3 0x628 JUMP JUMPDEST JUMPDEST PUSH3 0x74A DUP5 DUP3 DUP6 PUSH3 0x6F8 JUMP JUMPDEST POP SWAP4 SWAP3 POP POP POP JUMP JUMPDEST PUSH1 0x0 DUP3 PUSH1 0x1F DUP4 ADD SLT PUSH3 0x76A JUMPI PUSH3 0x769 PUSH3 0x623 JUMP JUMPDEST JUMPDEST DUP2 CALLDATALOAD PUSH3 0x77C DUP5 DUP3 PUSH1 0x20 DUP7 ADD PUSH3 0x707 JUMP JUMPDEST SWAP2 POP POP SWAP3 SWAP2 POP POP JUMP JUMPDEST PUSH1 0x0 DUP1 PUSH1 0x40 DUP4 DUP6 SUB SLT ISZERO PUSH3 0x79F JUMPI PUSH3 0x79E PUSH3 0x54A JUMP JUMPDEST JUMPDEST PUSH1 0x0 PUSH3 0x7AF DUP6 DUP3 DUP7 ADD PUSH3 0x578 JUMP JUMPDEST SWAP3 POP POP PUSH1 0x20 DUP4 ADD CALLDATALOAD PUSH8 0xFFFFFFFFFFFFFFFF DUP2 GT ISZERO PUSH3 0x7D3 JUMPI PUSH3 0x7D2 PUSH3 0x54F JUMP JUMPDEST JUMPDEST PUSH3 0x7E1 DUP6 DUP3 DUP7 ADD PUSH3 0x752 JUMP JUMPDEST SWAP2 POP POP SWAP3 POP SWAP3 SWAP1 POP JUMP JUMPDEST PUSH1 0x0 DUP2 MLOAD SWAP1 POP SWAP2 SWAP1 POP JUMP JUMPDEST PUSH1 0x0 DUP3 DUP3 MSTORE PUSH1 0x20 DUP3 ADD SWAP1 POP SWAP3 SWAP2 POP POP JUMP JUMPDEST PUSH1 0x0 DUP2 SWAP1 POP PUSH1 0x20 DUP3 ADD SWAP1 POP SWAP2 SWAP1 POP JUMP JUMPDEST PUSH3 0x822 DUP2 PUSH3 0x5E1 JUMP JUMPDEST DUP3 MSTORE POP POP JUMP JUMPDEST PUSH1 0x0 PUSH3 0x836 DUP4 DUP4 PUSH3 0x817 JUMP JUMPDEST PUSH1 0x20 DUP4 ADD SWAP1 POP SWAP3 SWAP2 POP POP JUMP JUMPDEST PUSH1 0x0 PUSH1 0x20 DUP3 ADD SWAP1 POP SWAP2 SWAP1 POP JUMP JUMPDEST PUSH1 0x0 PUSH3 0x85C DUP3 PUSH3 0x7EB JUMP JUMPDEST PUSH3 0x868 DUP2 DUP6 PUSH3 0x7F6 JUMP JUMPDEST SWAP4 POP PUSH3 0x875 DUP4 PUSH3 0x807 JUMP JUMPDEST DUP1 PUSH1 0x0 JUMPDEST DUP4 DUP2 LT ISZERO PUSH3 0x8AC JUMPI DUP2 MLOAD PUSH3 0x890 DUP9 DUP3 PUSH3 0x828 JUMP JUMPDEST SWAP8 POP PUSH3 0x89D DUP4 PUSH3 0x842 JUMP JUMPDEST SWAP3 POP POP PUSH1 0x1 DUP2 ADD SWAP1 POP PUSH3 0x879 JUMP JUMPDEST POP DUP6 SWAP4 POP POP POP POP SWAP3 SWAP2 POP POP JUMP JUMPDEST PUSH1 0x0 PUSH1 0x20 DUP3 ADD SWAP1 POP DUP2 DUP2 SUB PUSH1 0x0 DUP4 ADD MSTORE PUSH3 0x8D5 DUP2 DUP5 PUSH3 0x84F JUMP JUMPDEST SWAP1 POP SWAP3 SWAP2 POP POP JUMP JUMPDEST PUSH1 0x0 DUP2 MLOAD SWAP1 POP SWAP2 SWAP1 POP JUMP JUMPDEST PUSH1 0x0 DUP3 DUP3 MSTORE PUSH1 0x20 DUP3 ADD SWAP1 POP SWAP3 SWAP2 POP POP JUMP JUMPDEST PUSH1 0x0 JUMPDEST DUP4 DUP2 LT ISZERO PUSH3 0x919 JUMPI DUP1 DUP3 ADD MLOAD DUP2 DUP5 ADD MSTORE PUSH1 0x20 DUP2 ADD SWAP1 POP PUSH3 0x8FC JUMP JUMPDEST DUP4 DUP2 GT ISZERO PUSH3 0x929 JUMPI PUSH1 0x0 DUP5 DUP5 ADD MSTORE JUMPDEST POP POP POP POP JUMP JUMPDEST PUSH1 0x0 PUSH3 0x93C DUP3 PUSH3 0x8DD JUMP JUMPDEST PUSH3 0x948 DUP2 DUP6 PUSH3 0x8E8 JUMP JUMPDEST SWAP4 POP PUSH3 0x95A DUP2 DUP6 PUSH1 0x20 DUP7 ADD PUSH3 0x8F9 JUMP JUMPDEST PUSH3 0x965 DUP2 PUSH3 0x62D JUMP JUMPDEST DUP5 ADD SWAP2 POP POP SWAP3 SWAP2 POP POP JUMP JUMPDEST PUSH1 0x0 PUSH1 0x20 DUP3 ADD SWAP1 POP DUP2 DUP2 SUB PUSH1 0x0 DUP4 ADD MSTORE PUSH3 0x98C DUP2 DUP5 PUSH3 0x92F JUMP JUMPDEST SWAP1 POP SWAP3 SWAP2 POP POP JUMP JUMPDEST PUSH1 0x0 DUP2 MLOAD SWAP1 POP SWAP2 SWAP1 POP JUMP JUMPDEST PUSH1 0x0 DUP3 DUP3 MSTORE PUSH1 0x20 DUP3 ADD SWAP1 POP SWAP3 SWAP2 POP POP JUMP JUMPDEST PUSH1 0x0 DUP2 SWAP1 POP PUSH1 0x20 DUP3 ADD SWAP1 POP SWAP2 SWAP1 POP JUMP JUMPDEST PUSH1 0x0 DUP3 DUP3 MSTORE PUSH1 0x20 DUP3 ADD SWAP1 POP SWAP3 SWAP2 POP POP JUMP JUMPDEST PUSH1 0x0 PUSH3 0x9DE DUP3 PUSH3 0x8DD JUMP JUMPDEST PUSH3 0x9EA DUP2 DUP6 PUSH3 0x9C0 JUMP JUMPDEST SWAP4 POP PUSH3 0x9FC DUP2 DUP6 PUSH1 0x20 DUP7 ADD PUSH3 0x8F9 JUMP JUMPDEST PUSH3 0xA07 DUP2 PUSH3 0x62D JUMP JUMPDEST DUP5 ADD SWAP2 POP POP SWAP3 SWAP2 POP POP JUMP JUMPDEST PUSH1 0x0 PUSH3 0xA20 DUP4 DUP4 PUSH3 0x9D1 JUMP JUMPDEST SWAP1 POP SWAP3 SWAP2 POP POP JUMP JUMPDEST PUSH1 0x0 PUSH1 0x20 DUP3 ADD SWAP1 POP SWAP2 SWAP1 POP JUMP JUMPDEST PUSH1 0x0 PUSH3 0xA42 DUP3 PUSH3 0x994 JUMP JUMPDEST PUSH3 0xA4E DUP2 DUP6 PUSH3 0x99F JUMP JUMPDEST SWAP4 POP DUP4 PUSH1 0x20 DUP3 MUL DUP6 ADD PUSH3 0xA62 DUP6 PUSH3 0x9B0 JUMP JUMPDEST DUP1 PUSH1 0x0 JUMPDEST DUP6 DUP2 LT ISZERO PUSH3 0xAA4 JUMPI DUP5 DUP5 SUB DUP10 MSTORE DUP2 MLOAD PUSH3 0xA82 DUP6 DUP3 PUSH3 0xA12 JUMP JUMPDEST SWAP5 POP PUSH3 0xA8F DUP4 PUSH3 0xA28 JUMP JUMPDEST SWAP3 POP PUSH1 0x20 DUP11 ADD SWAP10 POP POP PUSH1 0x1 DUP2 ADD SWAP1 POP PUSH3 0xA66 JUMP JUMPDEST POP DUP3 SWAP8 POP DUP8 SWAP6 POP POP POP POP POP POP SWAP3 SWAP2 POP POP JUMP JUMPDEST PUSH1 0x0 PUSH1 0x20 DUP3 ADD SWAP1 POP DUP2 DUP2 SUB PUSH1 0x0 DUP4 ADD MSTORE PUSH3 0xAD2 DUP2 DUP5 PUSH3 0xA35 JUMP JUMPDEST SWAP1 POP SWAP3 SWAP2 POP POP JUMP JUMPDEST PUSH3 0xAE5 DUP2 PUSH3 0x554 JUMP JUMPDEST DUP3 MSTORE POP POP JUMP JUMPDEST PUSH1 0x0 PUSH1 0x60 DUP3 ADD SWAP1 POP PUSH3 0xB02 PUSH1 0x0 DUP4 ADD DUP7 PUSH3 0xADA JUMP JUMPDEST DUP2 DUP2 SUB PUSH1 0x20 DUP4 ADD MSTORE PUSH3 0xB16 DUP2 DUP6 PUSH3 0x92F JUMP JUMPDEST SWAP1 POP PUSH3 0xB27 PUSH1 0x40 DUP4 ADD DUP5 PUSH3 0x5F5 JUMP JUMPDEST SWAP5 SWAP4 POP POP POP POP JUMP JUMPDEST PUSH32 0x4E487B7100000000000000000000000000000000000000000000000000000000 PUSH1 0x0 MSTORE PUSH1 0x22 PUSH1 0x4 MSTORE PUSH1 0x24 PUSH1 0x0 REVERT JUMPDEST PUSH1 0x0 PUSH1 0x2 DUP3 DIV SWAP1 POP PUSH1 0x1 DUP3 AND DUP1 PUSH3 0xB77 JUMPI PUSH1 0x7F DUP3 AND SWAP2 POP JUMPDEST PUSH1 0x20 DUP3 LT DUP2 SUB PUSH3 0xB8D JUMPI PUSH3 0xB8C PUSH3 0xB2F JUMP JUMPDEST JUMPDEST POP SWAP2 SWAP1 POP JUMP INVALID PUSH1 0x80 PUSH1 0x40 MSTORE CALLVALUE DUP1 ISZERO PUSH3 0x11 JUMPI PUSH1 0x0 DUP1 REVERT JUMPDEST POP PUSH1 0x40 MLOAD PUSH3 0x1645 CODESIZE SUB DUP1 PUSH3 0x1645 DUP4 CODECOPY DUP2 DUP2 ADD PUSH1 0x40 MSTORE DUP2 ADD SWAP1 PUSH3 0x37 SWAP2 SWAP1 PUSH3 0x38D JUMP JUMPDEST DUP3 PUSH1 0x2 DUP2 SWAP1 SSTORE POP DUP2 PUSH1 0x1 SWAP1 DUP1 MLOAD SWAP1 PUSH1 0x20 ADD SWAP1 PUSH3 0x56 SWAP3 SWAP2 SWAP1 PUSH3 0xA0 JUMP JUMPDEST POP DUP1 PUSH1 0x0 DUP1 PUSH2 0x100 EXP DUP2 SLOAD DUP2 PUSH20 0xFFFFFFFFFFFFFFFFFFFFFFFFFFFFFFFFFFFFFFFF MUL NOT AND SWAP1 DUP4 PUSH20 0xFFFFFFFFFFFFFFFFFFFFFFFFFFFFFFFFFFFFFFFF AND MUL OR SWAP1 SSTORE POP POP POP POP PUSH3 0x46C JUMP JUMPDEST DUP3 DUP1 SLOAD PUSH3 0xAE SWAP1 PUSH3 0x437 JUMP JUMPDEST SWAP1 PUSH1 0x0 MSTORE PUSH1 0x20 PUSH1 0x0 KECCAK256 SWAP1 PUSH1 0x1F ADD PUSH1 0x20 SWAP1 DIV DUP2 ADD SWAP3 DUP3 PUSH3 0xD2 JUMPI PUSH1 0x0 DUP6 SSTORE PUSH3 0x11E JUMP JUMPDEST DUP3 PUSH1 0x1F LT PUSH3 0xED JUMPI DUP1 MLOAD PUSH1 0xFF NOT AND DUP4 DUP1 ADD OR DUP6 SSTORE PUSH3 0x11E JUMP JUMPDEST DUP3 DUP1 ADD PUSH1 0x1 ADD DUP6 SSTORE DUP3 ISZERO PUSH3 0x11E JUMPI SWAP2 DUP3 ADD JUMPDEST DUP3 DUP2 GT ISZERO PUSH3 0x11D JUMPI DUP3 MLOAD DUP3 SSTORE SWAP2 PUSH1 0x20 ADD SWAP2 SWAP1 PUSH1 0x1 ADD SWAP1 PUSH3 0x100 JUMP JUMPDEST JUMPDEST POP SWAP1 POP PUSH3 0x12D SWAP2 SWAP1 PUSH3 0x131 JUMP JUMPDEST POP SWAP1 JUMP JUMPDEST JUMPDEST DUP1 DUP3 GT ISZERO PUSH3 0x14C JUMPI PUSH1 0x0 DUP2 PUSH1 0x0 SWAP1 SSTORE POP PUSH1 0x1 ADD PUSH3 0x132 JUMP JUMPDEST POP SWAP1 JUMP JUMPDEST PUSH1 0x0 PUSH1 0x40 MLOAD SWAP1 POP SWAP1 JUMP JUMPDEST PUSH1 0x0 DUP1 REVERT JUMPDEST PUSH1 0x0 DUP1 REVERT JUMPDEST PUSH1 0x0 DUP2 SWAP1 POP SWAP2 SWAP1 POP JUMP JUMPDEST PUSH3 0x179 DUP2 PUSH3 0x164 JUMP JUMPDEST DUP2 EQ PUSH3 0x185 JUMPI PUSH1 0x0 DUP1 REVERT JUMPDEST POP JUMP JUMPDEST PUSH1 0x0 DUP2 MLOAD SWAP1 POP PUSH3 0x199 DUP2 PUSH3 0x16E JUMP JUMPDEST SWAP3 SWAP2 POP POP JUMP JUMPDEST PUSH1 0x0 DUP1 REVERT JUMPDEST PUSH1 0x0 DUP1 REVERT JUMPDEST PUSH1 0x0 PUSH1 0x1F NOT PUSH1 0x1F DUP4 ADD AND SWAP1 POP SWAP2 SWAP1 POP JUMP JUMPDEST PUSH32 0x4E487B7100000000000000000000000000000000000000000000000000000000 PUSH1 0x0 MSTORE PUSH1 0x41 PUSH1 0x4 MSTORE PUSH1 0x24 PUSH1 0x0 REVERT JUMPDEST PUSH3 0x1F4 DUP3 PUSH3 0x1A9 JUMP JUMPDEST DUP2 ADD DUP2 DUP2 LT PUSH8 0xFFFFFFFFFFFFFFFF DUP3 GT OR ISZERO PUSH3 0x216 JUMPI PUSH3 0x215 PUSH3 0x1BA JUMP JUMPDEST JUMPDEST DUP1 PUSH1 0x40 MSTORE POP POP POP JUMP JUMPDEST PUSH1 0x0 PUSH3 0x22B PUSH3 0x150 JUMP JUMPDEST SWAP1 POP PUSH3 0x239 DUP3 DUP3 PUSH3 0x1E9 JUMP JUMPDEST SWAP2 SWAP1 POP JUMP JUMPDEST PUSH1 0x0 PUSH8 0xFFFFFFFFFFFFFFFF DUP3 GT ISZERO PUSH3 0x25C JUMPI PUSH3 0x25B PUSH3 0x1BA JUMP JUMPDEST JUMPDEST PUSH3 0x267 DUP3 PUSH3 0x1A9 JUMP JUMPDEST SWAP1 POP PUSH1 0x20 DUP2 ADD SWAP1 POP SWAP2 SWAP1 POP JUMP JUMPDEST PUSH1 0x0 JUMPDEST DUP4 DUP2 LT ISZERO PUSH3 0x294 JUMPI DUP1 DUP3 ADD MLOAD DUP2 DUP5 ADD MSTORE PUSH1 0x20 DUP2 ADD SWAP1 POP PUSH3 0x277 JUMP JUMPDEST DUP4 DUP2 GT ISZERO PUSH3 0x2A4 JUMPI PUSH1 0x0 DUP5 DUP5 ADD MSTORE JUMPDEST POP POP POP POP JUMP JUMPDEST PUSH1 0x0 PUSH3 0x2C1 PUSH3 0x2BB DUP5 PUSH3 0x23E JUMP JUMPDEST PUSH3 0x21F JUMP JUMPDEST SWAP1 POP DUP3 DUP2 MSTORE PUSH1 0x20 DUP2 ADD DUP5 DUP5 DUP5 ADD GT ISZERO PUSH3 0x2E0 JUMPI PUSH3 0x2DF PUSH3 0x1A4 JUMP JUMPDEST JUMPDEST PUSH3 0x2ED DUP5 DUP3 DUP6 PUSH3 0x274 JUMP JUMPDEST POP SWAP4 SWAP3 POP POP POP JUMP JUMPDEST PUSH1 0x0 DUP3 PUSH1 0x1F DUP4 ADD SLT PUSH3 0x30D JUMPI PUSH3 0x30C PUSH3 0x19F JUMP JUMPDEST JUMPDEST DUP2 MLOAD PUSH3 0x31F DUP5 DUP3 PUSH1 0x20 DUP7 ADD PUSH3 0x2AA JUMP JUMPDEST SWAP2 POP POP SWAP3 SWAP2 POP POP JUMP JUMPDEST PUSH1 0x0 PUSH20 0xFFFFFFFFFFFFFFFFFFFFFFFFFFFFFFFFFFFFFFFF DUP3 AND SWAP1 POP SWAP2 SWAP1 POP JUMP JUMPDEST PUSH1 0x0 PUSH3 0x355 DUP3 PUSH3 0x328 JUMP JUMPDEST SWAP1 POP SWAP2 SWAP1 POP JUMP JUMPDEST PUSH3 0x367 DUP2 PUSH3 0x348 JUMP JUMPDEST DUP2 EQ PUSH3 0x373 JUMPI PUSH1 0x0 DUP1 REVERT JUMPDEST POP JUMP JUMPDEST PUSH1 0x0 DUP2 MLOAD SWAP1 POP PUSH3 0x387 DUP2 PUSH3 0x35C JUMP JUMPDEST SWAP3 SWAP2 POP POP JUMP JUMPDEST PUSH1 0x0 DUP1 PUSH1 0x0 PUSH1 0x60 DUP5 DUP7 SUB SLT ISZERO PUSH3 0x3A9 JUMPI PUSH3 0x3A8 PUSH3 0x15A JUMP JUMPDEST JUMPDEST PUSH1 0x0 PUSH3 0x3B9 DUP7 DUP3 DUP8 ADD PUSH3 0x188 JUMP JUMPDEST SWAP4 POP POP PUSH1 0x20 DUP5 ADD MLOAD PUSH8 0xFFFFFFFFFFFFFFFF DUP2 GT ISZERO PUSH3 0x3DD JUMPI PUSH3 0x3DC PUSH3 0x15F JUMP JUMPDEST JUMPDEST PUSH3 0x3EB DUP7 DUP3 DUP8 ADD PUSH3 0x2F5 JUMP JUMPDEST SWAP3 POP POP PUSH1 0x40 PUSH3 0x3FE DUP7 DUP3 DUP8 ADD PUSH3 0x376 JUMP JUMPDEST SWAP2 POP POP SWAP3 POP SWAP3 POP SWAP3 JUMP JUMPDEST PUSH32 0x4E487B7100000000000000000000000000000000000000000000000000000000 PUSH1 0x0 MSTORE PUSH1 0x22 PUSH1 0x4 MSTORE PUSH1 0x24 PUSH1 0x0 REVERT JUMPDEST PUSH1 0x0 PUSH1 0x2 DUP3 DIV SWAP1 POP PUSH1 0x1 DUP3 AND DUP1 PUSH3 0x450 JUMPI PUSH1 0x7F DUP3 AND SWAP2 POP JUMPDEST PUSH1 0x20 DUP3 LT DUP2 SUB PUSH3 0x466 JUMPI PUSH3 0x465 PUSH3 0x408 JUMP JUMPDEST JUMPDEST POP SWAP2 SWAP1 POP JUMP JUMPDEST PUSH2 0x11C9 DUP1 PUSH3 0x47C PUSH1 0x0 CODECOPY PUSH1 0x0 RETURN INVALID PUSH1 0x80 PUSH1 0x40 MSTORE PUSH1 0x4 CALLDATASIZE LT PUSH2 0xA7 JUMPI PUSH1 0x0 CALLDATALOAD PUSH1 0xE0 SHR DUP1 PUSH4 0x7569B3D7 GT PUSH2 0x64 JUMPI DUP1 PUSH4 0x7569B3D7 EQ PUSH2 0x1BC JUMPI DUP1 PUSH4 0x81D12C58 EQ PUSH2 0x1E7 JUMPI DUP1 PUSH4 0x937E09B1 EQ PUSH2 0x229 JUMPI DUP1 PUSH4 0xA00C96D7 EQ PUSH2 0x254 JUMPI DUP1 PUSH4 0xD7BB99BA EQ PUSH2 0x284 JUMPI DUP1 PUSH4 0xD7D1BBDB EQ PUSH2 0x28E JUMPI PUSH2 0xA7 JUMP JUMPDEST DUP1 PUSH4 0x3441006 EQ PUSH2 0xAC JUMPI DUP1 PUSH4 0x724FDA9 EQ PUSH2 0xD5 JUMPI DUP1 PUSH4 0x1F6D4942 EQ PUSH2 0x100 JUMPI DUP1 PUSH4 0x26883EFA EQ PUSH2 0x13D JUMPI DUP1 PUSH4 0x3410452A EQ PUSH2 0x166 JUMPI DUP1 PUSH4 0x481C6A75 EQ PUSH2 0x191 JUMPI JUMPDEST PUSH1 0x0 DUP1 REVERT JUMPDEST CALLVALUE DUP1 ISZERO PUSH2 0xB8 JUMPI PUSH1 0x0 DUP1 REVERT JUMPDEST POP PUSH2 0xD3 PUSH1 0x4 DUP1 CALLDATASIZE SUB DUP2 ADD SWAP1 PUSH2 0xCE SWAP2 SWAP1 PUSH2 0xB01 JUMP JUMPDEST PUSH2 0x2B7 JUMP JUMPDEST STOP JUMPDEST CALLVALUE DUP1 ISZERO PUSH2 0xE1 JUMPI PUSH1 0x0 DUP1 REVERT JUMPDEST POP PUSH2 0xEA PUSH2 0x40F JUMP JUMPDEST PUSH1 0x40 MLOAD PUSH2 0xF7 SWAP2 SWAP1 PUSH2 0xBC7 JUMP JUMPDEST PUSH1 0x40 MLOAD DUP1 SWAP2 SUB SWAP1 RETURN JUMPDEST CALLVALUE DUP1 ISZERO PUSH2 0x10C JUMPI PUSH1 0x0 DUP1 REVERT JUMPDEST POP PUSH2 0x127 PUSH1 0x4 DUP1 CALLDATASIZE SUB DUP2 ADD SWAP1 PUSH2 0x122 SWAP2 SWAP1 PUSH2 0xC47 JUMP JUMPDEST PUSH2 0x49D JUMP JUMPDEST PUSH1 0x40 MLOAD PUSH2 0x134 SWAP2 SWAP1 PUSH2 0xC8F JUMP JUMPDEST PUSH1 0x40 MLOAD DUP1 SWAP2 SUB SWAP1 RETURN JUMPDEST CALLVALUE DUP1 ISZERO PUSH2 0x149 JUMPI PUSH1 0x0 DUP1 REVERT JUMPDEST POP PUSH2 0x164 PUSH1 0x4 DUP1 CALLDATASIZE SUB DUP2 ADD SWAP1 PUSH2 0x15F SWAP2 SWAP1 PUSH2 0xE1D JUMP JUMPDEST PUSH2 0x4BD JUMP JUMPDEST STOP JUMPDEST CALLVALUE DUP1 ISZERO PUSH2 0x172 JUMPI PUSH1 0x0 DUP1 REVERT JUMPDEST POP PUSH2 0x17B PUSH2 0x5D5 JUMP JUMPDEST PUSH1 0x40 MLOAD PUSH2 0x188 SWAP2 SWAP1 PUSH2 0xEAF JUMP JUMPDEST PUSH1 0x40 MLOAD DUP1 SWAP2 SUB SWAP1 RETURN JUMPDEST CALLVALUE DUP1 ISZERO PUSH2 0x19D JUMPI PUSH1 0x0 DUP1 REVERT JUMPDEST POP PUSH2 0x1A6 PUSH2 0x5E2 JUMP JUMPDEST PUSH1 0x40 MLOAD PUSH2 0x1B3 SWAP2 SWAP1 PUSH2 0xED9 JUMP JUMPDEST PUSH1 0x40 MLOAD DUP1 SWAP2 SUB SWAP1 RETURN JUMPDEST CALLVALUE DUP1 ISZERO PUSH2 0x1C8 JUMPI PUSH1 0x0 DUP1 REVERT JUMPDEST POP PUSH2 0x1D1 PUSH2 0x606 JUMP JUMPDEST PUSH1 0x40 MLOAD PUSH2 0x1DE SWAP2 SWAP1 PUSH2 0xEAF JUMP JUMPDEST PUSH1 0x40 MLOAD DUP1 SWAP2 SUB SWAP1 RETURN JUMPDEST CALLVALUE DUP1 ISZERO PUSH2 0x1F3 JUMPI PUSH1 0x0 DUP1 REVERT JUMPDEST POP PUSH2 0x20E PUSH1 0x4 DUP1 CALLDATASIZE SUB DUP2 ADD SWAP1 PUSH2 0x209 SWAP2 SWAP1 PUSH2 0xB01 JUMP JUMPDEST PUSH2 0x60C JUMP JUMPDEST PUSH1 0x40 MLOAD PUSH2 0x220 SWAP7 SWAP6 SWAP5 SWAP4 SWAP3 SWAP2 SWAP1 PUSH2 0xF03 JUMP JUMPDEST PUSH1 0x40 MLOAD DUP1 SWAP2 SUB SWAP1 RETURN JUMPDEST CALLVALUE DUP1 ISZERO PUSH2 0x235 JUMPI PUSH1 0x0 DUP1 REVERT JUMPDEST POP PUSH2 0x23E PUSH2 0x70D JUMP JUMPDEST PUSH1 0x40 MLOAD PUSH2 0x24B SWAP2 SWAP1 PUSH2 0xEAF JUMP JUMPDEST PUSH1 0x40 MLOAD DUP1 SWAP2 SUB SWAP1 RETURN JUMPDEST CALLVALUE DUP1 ISZERO PUSH2 0x260 JUMPI PUSH1 0x0 DUP1 REVERT JUMPDEST POP PUSH2 0x269 PUSH2 0x713 JUMP JUMPDEST PUSH1 0x40 MLOAD PUSH2 0x27B SWAP7 SWAP6 SWAP5 SWAP4 SWAP3 SWAP2 SWAP1 PUSH2 0xF6B JUMP JUMPDEST PUSH1 0x40 MLOAD DUP1 SWAP2 SUB SWAP1 RETURN JUMPDEST PUSH2 0x28C PUSH2 0x7ED JUMP JUMPDEST STOP JUMPDEST CALLVALUE DUP1 ISZERO PUSH2 0x29A JUMPI PUSH1 0x0 DUP1 REVERT JUMPDEST POP PUSH2 0x2B5 PUSH1 0x4 DUP1 CALLDATASIZE SUB DUP2 ADD SWAP1 PUSH2 0x2B0 SWAP2 SWAP1 PUSH2 0xB01 JUMP JUMPDEST PUSH2 0x8C7 JUMP JUMPDEST STOP JUMPDEST PUSH1 0x0 DUP1 SLOAD SWAP1 PUSH2 0x100 EXP SWAP1 DIV PUSH20 0xFFFFFFFFFFFFFFFFFFFFFFFFFFFFFFFFFFFFFFFF AND PUSH20 0xFFFFFFFFFFFFFFFFFFFFFFFFFFFFFFFFFFFFFFFF AND CALLER PUSH20 0xFFFFFFFFFFFFFFFFFFFFFFFFFFFFFFFFFFFFFFFF AND EQ PUSH2 0x30F JUMPI PUSH1 0x0 DUP1 REVERT JUMPDEST PUSH1 0x0 PUSH1 0x3 DUP3 DUP2 SLOAD DUP2 LT PUSH2 0x325 JUMPI PUSH2 0x324 PUSH2 0xFD3 JUMP JUMPDEST JUMPDEST SWAP1 PUSH1 0x0 MSTORE PUSH1 0x20 PUSH1 0x0 KECCAK256 SWAP1 PUSH1 0x7 MUL ADD SWAP1 POP DUP1 PUSH1 0x3 ADD SLOAD PUSH1 0x5 SLOAD PUSH1 0x64 DUP4 PUSH1 0x5 ADD SLOAD PUSH2 0x34E SWAP2 SWAP1 PUSH2 0x1031 JUMP JUMPDEST PUSH2 0x358 SWAP2 SWAP1 PUSH2 0x10BA JUMP JUMPDEST LT ISZERO PUSH2 0x363 JUMPI PUSH1 0x0 DUP1 REVERT JUMPDEST DUP1 PUSH1 0x4 ADD PUSH1 0x0 SWAP1 SLOAD SWAP1 PUSH2 0x100 EXP SWAP1 DIV PUSH1 0xFF AND ISZERO PUSH2 0x37F JUMPI PUSH1 0x0 DUP1 REVERT JUMPDEST DUP1 PUSH1 0x2 ADD PUSH1 0x0 SWAP1 SLOAD SWAP1 PUSH2 0x100 EXP SWAP1 DIV PUSH20 0xFFFFFFFFFFFFFFFFFFFFFFFFFFFFFFFFFFFFFFFF AND PUSH20 0xFFFFFFFFFFFFFFFFFFFFFFFFFFFFFFFFFFFFFFFF AND PUSH2 0x8FC DUP3 PUSH1 0x1 ADD SLOAD SWAP1 DUP2 ISZERO MUL SWAP1 PUSH1 0x40 MLOAD PUSH1 0x0 PUSH1 0x40 MLOAD DUP1 DUP4 SUB DUP2 DUP6 DUP9 DUP9 CALL SWAP4 POP POP POP POP ISZERO DUP1 ISZERO PUSH2 0x3ED JUMPI RETURNDATASIZE PUSH1 0x0 DUP1 RETURNDATACOPY RETURNDATASIZE PUSH1 0x0 REVERT JUMPDEST POP PUSH1 0x1 DUP2 PUSH1 0x4 ADD PUSH1 0x0 PUSH2 0x100 EXP DUP2 SLOAD DUP2 PUSH1 0xFF MUL NOT AND SWAP1 DUP4 ISZERO ISZERO MUL OR SWAP1 SSTORE POP POP POP JUMP JUMPDEST PUSH1 0x1 DUP1 SLOAD PUSH2 0x41C SWAP1 PUSH2 0x111A JUMP JUMPDEST DUP1 PUSH1 0x1F ADD PUSH1 0x20 DUP1 SWAP2 DIV MUL PUSH1 0x20 ADD PUSH1 0x40 MLOAD SWAP1 DUP2 ADD PUSH1 0x40 MSTORE DUP1 SWAP3 SWAP2 SWAP1 DUP2 DUP2 MSTORE PUSH1 0x20 ADD DUP3 DUP1 SLOAD PUSH2 0x448 SWAP1 PUSH2 0x111A JUMP JUMPDEST DUP1 ISZERO PUSH2 0x495 JUMPI DUP1 PUSH1 0x1F LT PUSH2 0x46A JUMPI PUSH2 0x100 DUP1 DUP4 SLOAD DIV MUL DUP4 MSTORE SWAP2 PUSH1 0x20 ADD SWAP2 PUSH2 0x495 JUMP JUMPDEST DUP3 ADD SWAP2 SWAP1 PUSH1 0x0 MSTORE PUSH1 0x20 PUSH1 0x0 KECCAK256 SWAP1 JUMPDEST DUP2 SLOAD DUP2 MSTORE SWAP1 PUSH1 0x1 ADD SWAP1 PUSH1 0x20 ADD DUP1 DUP4 GT PUSH2 0x478 JUMPI DUP3 SWAP1 SUB PUSH1 0x1F AND DUP3 ADD SWAP2 JUMPDEST POP POP POP POP POP DUP2 JUMP JUMPDEST PUSH1 0x4 PUSH1 0x20 MSTORE DUP1 PUSH1 0x0 MSTORE PUSH1 0x40 PUSH1 0x0 KECCAK256 PUSH1 0x0 SWAP2 POP SLOAD SWAP1 PUSH2 0x100 EXP SWAP1 DIV PUSH1 0xFF AND DUP2 JUMP JUMPDEST PUSH1 0x0 DUP1 SLOAD SWAP1 PUSH2 0x100 EXP SWAP1 DIV PUSH20 0xFFFFFFFFFFFFFFFFFFFFFFFFFFFFFFFFFFFFFFFF AND PUSH20 0xFFFFFFFFFFFFFFFFFFFFFFFFFFFFFFFFFFFFFFFF AND CALLER PUSH20 0xFFFFFFFFFFFFFFFFFFFFFFFFFFFFFFFFFFFFFFFF AND EQ PUSH2 0x515 JUMPI PUSH1 0x0 DUP1 REVERT JUMPDEST PUSH1 0x0 PUSH1 0x3 PUSH1 0x1 DUP2 PUSH1 0x1 DUP2 SLOAD ADD DUP1 DUP3 SSTORE DUP1 SWAP2 POP POP SUB SWAP1 PUSH1 0x0 MSTORE PUSH1 0x20 PUSH1 0x0 KECCAK256 SWAP1 PUSH1 0x7 MUL ADD SWAP1 POP DUP5 DUP2 PUSH1 0x0 ADD SWAP1 DUP1 MLOAD SWAP1 PUSH1 0x20 ADD SWAP1 PUSH2 0x551 SWAP3 SWAP2 SWAP1 PUSH2 0xA14 JUMP JUMPDEST POP DUP4 DUP2 PUSH1 0x1 ADD DUP2 SWAP1 SSTORE POP DUP3 DUP2 PUSH1 0x2 ADD PUSH1 0x0 PUSH2 0x100 EXP DUP2 SLOAD DUP2 PUSH20 0xFFFFFFFFFFFFFFFFFFFFFFFFFFFFFFFFFFFFFFFF MUL NOT AND SWAP1 DUP4 PUSH20 0xFFFFFFFFFFFFFFFFFFFFFFFFFFFFFFFFFFFFFFFF AND MUL OR SWAP1 SSTORE POP DUP2 DUP2 PUSH1 0x3 ADD DUP2 SWAP1 SSTORE POP PUSH1 0x0 DUP2 PUSH1 0x4 ADD PUSH1 0x0 PUSH2 0x100 EXP DUP2 SLOAD DUP2 PUSH1 0xFF MUL NOT AND SWAP1 DUP4 ISZERO ISZERO MUL OR SWAP1 SSTORE POP PUSH1 0x0 DUP2 PUSH1 0x5 ADD DUP2 SWAP1 SSTORE POP POP POP POP POP POP JUMP JUMPDEST PUSH1 0x0 PUSH1 0x3 DUP1 SLOAD SWAP1 POP SWAP1 POP SWAP1 JUMP JUMPDEST PUSH1 0x0 DUP1 SLOAD SWAP1 PUSH2 0x100 EXP SWAP1 DIV PUSH20 0xFFFFFFFFFFFFFFFFFFFFFFFFFFFFFFFFFFFFFFFF AND DUP2 JUMP JUMPDEST PUSH1 0x5 SLOAD DUP2 JUMP JUMPDEST PUSH1 0x3 DUP2 DUP2 SLOAD DUP2 LT PUSH2 0x61C JUMPI PUSH1 0x0 DUP1 REVERT JUMPDEST SWAP1 PUSH1 0x0 MSTORE PUSH1 0x20 PUSH1 0x0 KECCAK256 SWAP1 PUSH1 0x7 MUL ADD PUSH1 0x0 SWAP2 POP SWAP1 POP DUP1 PUSH1 0x0 ADD DUP1 SLOAD PUSH2 0x63F SWAP1 PUSH2 0x111A JUMP JUMPDEST DUP1 PUSH1 0x1F ADD PUSH1 0x20 DUP1 SWAP2 DIV MUL PUSH1 0x20 ADD PUSH1 0x40 MLOAD SWAP1 DUP2 ADD PUSH1 0x40 MSTORE DUP1 SWAP3 SWAP2 SWAP1 DUP2 DUP2 MSTORE PUSH1 0x20 ADD DUP3 DUP1 SLOAD PUSH2 0x66B SWAP1 PUSH2 0x111A JUMP JUMPDEST DUP1 ISZERO PUSH2 0x6B8 JUMPI DUP1 PUSH1 0x1F LT PUSH2 0x68D JUMPI PUSH2 0x100 DUP1 DUP4 SLOAD DIV MUL DUP4 MSTORE SWAP2 PUSH1 0x20 ADD SWAP2 PUSH2 0x6B8 JUMP JUMPDEST DUP3 ADD SWAP2 SWAP1 PUSH1 0x0 MSTORE PUSH1 0x20 PUSH1 0x0 KECCAK256 SWAP1 JUMPDEST DUP2 SLOAD DUP2 MSTORE SWAP1 PUSH1 0x1 ADD SWAP1 PUSH1 0x20 ADD DUP1 DUP4 GT PUSH2 0x69B JUMPI DUP3 SWAP1 SUB PUSH1 0x1F AND DUP3 ADD SWAP2 JUMPDEST POP POP POP POP POP SWAP1 DUP1 PUSH1 0x1 ADD SLOAD SWAP1 DUP1 PUSH1 0x2 ADD PUSH1 0x0 SWAP1 SLOAD SWAP1 PUSH2 0x100 EXP SWAP1 DIV PUSH20 0xFFFFFFFFFFFFFFFFFFFFFFFFFFFFFFFFFFFFFFFF AND SWAP1 DUP1 PUSH1 0x3 ADD SLOAD SWAP1 DUP1 PUSH1 0x4 ADD PUSH1 0x0 SWAP1 SLOAD SWAP1 PUSH2 0x100 EXP SWAP1 DIV PUSH1 0xFF AND SWAP1 DUP1 PUSH1 0x5 ADD SLOAD SWAP1 POP DUP7 JUMP JUMPDEST PUSH1 0x2 SLOAD DUP2 JUMP JUMPDEST PUSH1 0x60 PUSH1 0x0 DUP1 PUSH1 0x0 DUP1 PUSH1 0x0 PUSH1 0x1 SELFBALANCE PUSH1 0x2 SLOAD PUSH1 0x3 DUP1 SLOAD SWAP1 POP PUSH1 0x5 SLOAD PUSH1 0x0 DUP1 SLOAD SWAP1 PUSH2 0x100 EXP SWAP1 DIV PUSH20 0xFFFFFFFFFFFFFFFFFFFFFFFFFFFFFFFFFFFFFFFF AND DUP6 DUP1 SLOAD PUSH2 0x759 SWAP1 PUSH2 0x111A JUMP JUMPDEST DUP1 PUSH1 0x1F ADD PUSH1 0x20 DUP1 SWAP2 DIV MUL PUSH1 0x20 ADD PUSH1 0x40 MLOAD SWAP1 DUP2 ADD PUSH1 0x40 MSTORE DUP1 SWAP3 SWAP2 SWAP1 DUP2 DUP2 MSTORE PUSH1 0x20 ADD DUP3 DUP1 SLOAD PUSH2 0x785 SWAP1 PUSH2 0x111A JUMP JUMPDEST DUP1 ISZERO PUSH2 0x7D2 JUMPI DUP1 PUSH1 0x1F LT PUSH2 0x7A7 JUMPI PUSH2 0x100 DUP1 DUP4 SLOAD DIV MUL DUP4 MSTORE SWAP2 PUSH1 0x20 ADD SWAP2 PUSH2 0x7D2 JUMP JUMPDEST DUP3 ADD SWAP2 SWAP1 PUSH1 0x0 MSTORE PUSH1 0x20 PUSH1 0x0 KECCAK256 SWAP1 JUMPDEST DUP2 SLOAD DUP2 MSTORE SWAP1 PUSH1 0x1 ADD SWAP1 PUSH1 0x20 ADD DUP1 DUP4 GT PUSH2 0x7B5 JUMPI DUP3 SWAP1 SUB PUSH1 0x1F AND DUP3 ADD SWAP2 JUMPDEST POP POP POP POP POP SWAP6 POP SWAP6 POP SWAP6 POP SWAP6 POP SWAP6 POP SWAP6 POP SWAP6 POP SWAP1 SWAP2 SWAP3 SWAP4 SWAP5 SWAP6 JUMP JUMPDEST PUSH1 0x2 SLOAD CALLVALUE LT ISZERO PUSH2 0x7FC JUMPI PUSH1 0x0 DUP1 REVERT JUMPDEST PUSH1 0x0 ISZERO ISZERO PUSH1 0x4 PUSH1 0x0 CALLER PUSH20 0xFFFFFFFFFFFFFFFFFFFFFFFFFFFFFFFFFFFFFFFF AND PUSH20 0xFFFFFFFFFFFFFFFFFFFFFFFFFFFFFFFFFFFFFFFF AND DUP2 MSTORE PUSH1 0x20 ADD SWAP1 DUP2 MSTORE PUSH1 0x20 ADD PUSH1 0x0 KECCAK256 PUSH1 0x0 SWAP1 SLOAD SWAP1 PUSH2 0x100 EXP SWAP1 DIV PUSH1 0xFF AND ISZERO ISZERO SUB PUSH2 0x8C5 JUMPI PUSH1 0x1 PUSH1 0x4 PUSH1 0x0 CALLER PUSH20 0xFFFFFFFFFFFFFFFFFFFFFFFFFFFFFFFFFFFFFFFF AND PUSH20 0xFFFFFFFFFFFFFFFFFFFFFFFFFFFFFFFFFFFFFFFF AND DUP2 MSTORE PUSH1 0x20 ADD SWAP1 DUP2 MSTORE PUSH1 0x20 ADD PUSH1 0x0 KECCAK256 PUSH1 0x0 PUSH2 0x100 EXP DUP2 SLOAD DUP2 PUSH1 0xFF MUL NOT AND SWAP1 DUP4 ISZERO ISZERO MUL OR SWAP1 SSTORE POP PUSH1 0x5 PUSH1 0x0 DUP2 SLOAD DUP1 SWAP3 SWAP2 SWAP1 PUSH2 0x8BF SWAP1 PUSH2 0x114B JUMP JUMPDEST SWAP2 SWAP1 POP SSTORE POP JUMPDEST JUMP JUMPDEST PUSH1 0x0 PUSH1 0x3 DUP3 DUP2 SLOAD DUP2 LT PUSH2 0x8DD JUMPI PUSH2 0x8DC PUSH2 0xFD3 JUMP JUMPDEST JUMPDEST SWAP1 PUSH1 0x0 MSTORE PUSH1 0x20 PUSH1 0x0 KECCAK256 SWAP1 PUSH1 0x7 MUL ADD SWAP1 POP PUSH1 0x4 PUSH1 0x0 CALLER PUSH20 0xFFFFFFFFFFFFFFFFFFFFFFFFFFFFFFFFFFFFFFFF AND PUSH20 0xFFFFFFFFFFFFFFFFFFFFFFFFFFFFFFFFFFFFFFFF AND DUP2 MSTORE PUSH1 0x20 ADD SWAP1 DUP2 MSTORE PUSH1 0x20 ADD PUSH1 0x0 KECCAK256 PUSH1 0x0 SWAP1 SLOAD SWAP1 PUSH2 0x100 EXP SWAP1 DIV PUSH1 0xFF AND PUSH2 0x943 JUMPI PUSH1 0x0 DUP1 REVERT JUMPDEST DUP1 PUSH1 0x6 ADD PUSH1 0x0 CALLER PUSH20 0xFFFFFFFFFFFFFFFFFFFFFFFFFFFFFFFFFFFFFFFF AND PUSH20 0xFFFFFFFFFFFFFFFFFFFFFFFFFFFFFFFFFFFFFFFF AND DUP2 MSTORE PUSH1 0x20 ADD SWAP1 DUP2 MSTORE PUSH1 0x20 ADD PUSH1 0x0 KECCAK256 PUSH1 0x0 SWAP1 SLOAD SWAP1 PUSH2 0x100 EXP SWAP1 DIV PUSH1 0xFF AND ISZERO PUSH2 0x99C JUMPI PUSH1 0x0 DUP1 REVERT JUMPDEST PUSH1 0x1 DUP2 PUSH1 0x6 ADD PUSH1 0x0 CALLER PUSH20 0xFFFFFFFFFFFFFFFFFFFFFFFFFFFFFFFFFFFFFFFF AND PUSH20 0xFFFFFFFFFFFFFFFFFFFFFFFFFFFFFFFFFFFFFFFF AND DUP2 MSTORE PUSH1 0x20 ADD SWAP1 DUP2 MSTORE PUSH1 0x20 ADD PUSH1 0x0 KECCAK256 PUSH1 0x0 PUSH2 0x100 EXP DUP2 SLOAD DUP2 PUSH1 0xFF MUL NOT AND SWAP1 DUP4 ISZERO ISZERO MUL OR SWAP1 SSTORE POP DUP1 PUSH1 0x5 ADD PUSH1 0x0 DUP2 SLOAD DUP1 SWAP3 SWAP2 SWAP1 PUSH2 0xA0B SWAP1 PUSH2 0x114B JUMP JUMPDEST SWAP2 SWAP1 POP SSTORE POP POP POP JUMP JUMPDEST DUP3 DUP1 SLOAD PUSH2 0xA20 SWAP1 PUSH2 0x111A JUMP JUMPDEST SWAP1 PUSH1 0x0 MSTORE PUSH1 0x20 PUSH1 0x0 KECCAK256 SWAP1 PUSH1 0x1F ADD PUSH1 0x20 SWAP1 DIV DUP2 ADD SWAP3 DUP3 PUSH2 0xA42 JUMPI PUSH1 0x0 DUP6 SSTORE PUSH2 0xA89 JUMP JUMPDEST DUP3 PUSH1 0x1F LT PUSH2 0xA5B JUMPI DUP1 MLOAD PUSH1 0xFF NOT AND DUP4 DUP1 ADD OR DUP6 SSTORE PUSH2 0xA89 JUMP JUMPDEST DUP3 DUP1 ADD PUSH1 0x1 ADD DUP6 SSTORE DUP3 ISZERO PUSH2 0xA89 JUMPI SWAP2 DUP3 ADD JUMPDEST DUP3 DUP2 GT ISZERO PUSH2 0xA88 JUMPI DUP3 MLOAD DUP3 SSTORE SWAP2 PUSH1 0x20 ADD SWAP2 SWAP1 PUSH1 0x1 ADD SWAP1 PUSH2 0xA6D JUMP JUMPDEST JUMPDEST POP SWAP1 POP PUSH2 0xA96 SWAP2 SWAP1 PUSH2 0xA9A JUMP JUMPDEST POP SWAP1 JUMP JUMPDEST JUMPDEST DUP1 DUP3 GT ISZERO PUSH2 0xAB3 JUMPI PUSH1 0x0 DUP2 PUSH1 0x0 SWAP1 SSTORE POP PUSH1 0x1 ADD PUSH2 0xA9B JUMP JUMPDEST POP SWAP1 JUMP JUMPDEST PUSH1 0x0 PUSH1 0x40 MLOAD SWAP1 POP SWAP1 JUMP JUMPDEST PUSH1 0x0 DUP1 REVERT JUMPDEST PUSH1 0x0 DUP1 REVERT JUMPDEST PUSH1 0x0 DUP2 SWAP1 POP SWAP2 SWAP1 POP JUMP JUMPDEST PUSH2 0xADE DUP2 PUSH2 0xACB JUMP JUMPDEST DUP2 EQ PUSH2 0xAE9 JUMPI PUSH1 0x0 DUP1 REVERT JUMPDEST POP JUMP JUMPDEST PUSH1 0x0 DUP2 CALLDATALOAD SWAP1 POP PUSH2 0xAFB DUP2 PUSH2 0xAD5 JUMP JUMPDEST SWAP3 SWAP2 POP POP JUMP JUMPDEST PUSH1 0x0 PUSH1 0x20 DUP3 DUP5 SUB SLT ISZERO PUSH2 0xB17 JUMPI PUSH2 0xB16 PUSH2 0xAC1 JUMP JUMPDEST JUMPDEST PUSH1 0x0 PUSH2 0xB25 DUP5 DUP3 DUP6 ADD PUSH2 0xAEC JUMP JUMPDEST SWAP2 POP POP SWAP3 SWAP2 POP POP JUMP JUMPDEST PUSH1 0x0 DUP2 MLOAD SWAP1 POP SWAP2 SWAP1 POP JUMP JUMPDEST PUSH1 0x0 DUP3 DUP3 MSTORE PUSH1 0x20 DUP3 ADD SWAP1 POP SWAP3 SWAP2 POP POP JUMP JUMPDEST PUSH1 0x0 JUMPDEST DUP4 DUP2 LT ISZERO PUSH2 0xB68 JUMPI DUP1 DUP3 ADD MLOAD DUP2 DUP5 ADD MSTORE PUSH1 0x20 DUP2 ADD SWAP1 POP PUSH2 0xB4D JUMP JUMPDEST DUP4 DUP2 GT ISZERO PUSH2 0xB77 JUMPI PUSH1 0x0 DUP5 DUP5 ADD MSTORE JUMPDEST POP POP POP POP JUMP JUMPDEST PUSH1 0x0 PUSH1 0x1F NOT PUSH1 0x1F DUP4 ADD AND SWAP1 POP SWAP2 SWAP1 POP JUMP JUMPDEST PUSH1 0x0 PUSH2 0xB99 DUP3 PUSH2 0xB2E JUMP JUMPDEST PUSH2 0xBA3 DUP2 DUP6 PUSH2 0xB39 JUMP JUMPDEST SWAP4 POP PUSH2 0xBB3 DUP2 DUP6 PUSH1 0x20 DUP7 ADD PUSH2 0xB4A JUMP JUMPDEST PUSH2 0xBBC DUP2 PUSH2 0xB7D JUMP JUMPDEST DUP5 ADD SWAP2 POP POP SWAP3 SWAP2 POP POP JUMP JUMPDEST PUSH1 0x0 PUSH1 0x20 DUP3 ADD SWAP1 POP DUP2 DUP2 SUB PUSH1 0x0 DUP4 ADD MSTORE PUSH2 0xBE1 DUP2 DUP5 PUSH2 0xB8E JUMP JUMPDEST SWAP1 POP SWAP3 SWAP2 POP POP JUMP JUMPDEST PUSH1 0x0 PUSH20 0xFFFFFFFFFFFFFFFFFFFFFFFFFFFFFFFFFFFFFFFF DUP3 AND SWAP1 POP SWAP2 SWAP1 POP JUMP JUMPDEST PUSH1 0x0 PUSH2 0xC14 DUP3 PUSH2 0xBE9 JUMP JUMPDEST SWAP1 POP SWAP2 SWAP1 POP JUMP JUMPDEST PUSH2 0xC24 DUP2 PUSH2 0xC09 JUMP JUMPDEST DUP2 EQ PUSH2 0xC2F JUMPI PUSH1 0x0 DUP1 REVERT JUMPDEST POP JUMP JUMPDEST PUSH1 0x0 DUP2 CALLDATALOAD SWAP1 POP PUSH2 0xC41 DUP2 PUSH2 0xC1B JUMP JUMPDEST SWAP3 SWAP2 POP POP JUMP JUMPDEST PUSH1 0x0 PUSH1 0x20 DUP3 DUP5 SUB SLT ISZERO PUSH2 0xC5D JUMPI PUSH2 0xC5C PUSH2 0xAC1 JUMP JUMPDEST JUMPDEST PUSH1 0x0 PUSH2 0xC6B DUP5 DUP3 DUP6 ADD PUSH2 0xC32 JUMP JUMPDEST SWAP2 POP POP SWAP3 SWAP2 POP POP JUMP JUMPDEST PUSH1 0x0 DUP2 ISZERO ISZERO SWAP1 POP SWAP2 SWAP1 POP JUMP JUMPDEST PUSH2 0xC89 DUP2 PUSH2 0xC74 JUMP JUMPDEST DUP3 MSTORE POP POP JUMP JUMPDEST PUSH1 0x0 PUSH1 0x20 DUP3 ADD SWAP1 POP PUSH2 0xCA4 PUSH1 0x0 DUP4 ADD DUP5 PUSH2 0xC80 JUMP JUMPDEST SWAP3 SWAP2 POP POP JUMP JUMPDEST PUSH1 0x0 DUP1 REVERT JUMPDEST PUSH1 0x0 DUP1 REVERT JUMPDEST PUSH32 0x4E487B7100000000000000000000000000000000000000000000000000000000 PUSH1 0x0 MSTORE PUSH1 0x41 PUSH1 0x4 MSTORE PUSH1 0x24 PUSH1 0x0 REVERT JUMPDEST PUSH2 0xCEC DUP3 PUSH2 0xB7D JUMP JUMPDEST DUP2 ADD DUP2 DUP2 LT PUSH8 0xFFFFFFFFFFFFFFFF DUP3 GT OR ISZERO PUSH2 0xD0B JUMPI PUSH2 0xD0A PUSH2 0xCB4 JUMP JUMPDEST JUMPDEST DUP1 PUSH1 0x40 MSTORE POP POP POP JUMP JUMPDEST PUSH1 0x0 PUSH2 0xD1E PUSH2 0xAB7 JUMP JUMPDEST SWAP1 POP PUSH2 0xD2A DUP3 DUP3 PUSH2 0xCE3 JUMP JUMPDEST SWAP2 SWAP1 POP JUMP JUMPDEST PUSH1 0x0 PUSH8 0xFFFFFFFFFFFFFFFF DUP3 GT ISZERO PUSH2 0xD4A JUMPI PUSH2 0xD49 PUSH2 0xCB4 JUMP JUMPDEST JUMPDEST PUSH2 0xD53 DUP3 PUSH2 0xB7D JUMP JUMPDEST SWAP1 POP PUSH1 0x20 DUP2 ADD SWAP1 POP SWAP2 SWAP1 POP JUMP JUMPDEST DUP3 DUP2 DUP4 CALLDATACOPY PUSH1 0x0 DUP4 DUP4 ADD MSTORE POP POP POP JUMP JUMPDEST PUSH1 0x0 PUSH2 0xD82 PUSH2 0xD7D DUP5 PUSH2 0xD2F JUMP JUMPDEST PUSH2 0xD14 JUMP JUMPDEST SWAP1 POP DUP3 DUP2 MSTORE PUSH1 0x20 DUP2 ADD DUP5 DUP5 DUP5 ADD GT ISZERO PUSH2 0xD9E JUMPI PUSH2 0xD9D PUSH2 0xCAF JUMP JUMPDEST JUMPDEST PUSH2 0xDA9 DUP5 DUP3 DUP6 PUSH2 0xD60 JUMP JUMPDEST POP SWAP4 SWAP3 POP POP POP JUMP JUMPDEST PUSH1 0x0 DUP3 PUSH1 0x1F DUP4 ADD SLT PUSH2 0xDC6 JUMPI PUSH2 0xDC5 PUSH2 0xCAA JUMP JUMPDEST JUMPDEST DUP2 CALLDATALOAD PUSH2 0xDD6 DUP5 DUP3 PUSH1 0x20 DUP7 ADD PUSH2 0xD6F JUMP JUMPDEST SWAP2 POP POP SWAP3 SWAP2 POP POP JUMP JUMPDEST PUSH1 0x0 PUSH2 0xDEA DUP3 PUSH2 0xBE9 JUMP JUMPDEST SWAP1 POP SWAP2 SWAP1 POP JUMP JUMPDEST PUSH2 0xDFA DUP2 PUSH2 0xDDF JUMP JUMPDEST DUP2 EQ PUSH2 0xE05 JUMPI PUSH1 0x0 DUP1 REVERT JUMPDEST POP JUMP JUMPDEST PUSH1 0x0 DUP2 CALLDATALOAD SWAP1 POP PUSH2 0xE17 DUP2 PUSH2 0xDF1 JUMP JUMPDEST SWAP3 SWAP2 POP POP JUMP JUMPDEST PUSH1 0x0 DUP1 PUSH1 0x0 DUP1 PUSH1 0x80 DUP6 DUP8 SUB SLT ISZERO PUSH2 0xE37 JUMPI PUSH2 0xE36 PUSH2 0xAC1 JUMP JUMPDEST JUMPDEST PUSH1 0x0 DUP6 ADD CALLDATALOAD PUSH8 0xFFFFFFFFFFFFFFFF DUP2 GT ISZERO PUSH2 0xE55 JUMPI PUSH2 0xE54 PUSH2 0xAC6 JUMP JUMPDEST JUMPDEST PUSH2 0xE61 DUP8 DUP3 DUP9 ADD PUSH2 0xDB1 JUMP JUMPDEST SWAP5 POP POP PUSH1 0x20 PUSH2 0xE72 DUP8 DUP3 DUP9 ADD PUSH2 0xAEC JUMP JUMPDEST SWAP4 POP POP PUSH1 0x40 PUSH2 0xE83 DUP8 DUP3 DUP9 ADD PUSH2 0xE08 JUMP JUMPDEST SWAP3 POP POP PUSH1 0x60 PUSH2 0xE94 DUP8 DUP3 DUP9 ADD PUSH2 0xAEC JUMP JUMPDEST SWAP2 POP POP SWAP3 SWAP6 SWAP2 SWAP5 POP SWAP3 POP JUMP JUMPDEST PUSH2 0xEA9 DUP2 PUSH2 0xACB JUMP JUMPDEST DUP3 MSTORE POP POP JUMP JUMPDEST PUSH1 0x0 PUSH1 0x20 DUP3 ADD SWAP1 POP PUSH2 0xEC4 PUSH1 0x0 DUP4 ADD DUP5 PUSH2 0xEA0 JUMP JUMPDEST SWAP3 SWAP2 POP POP JUMP JUMPDEST PUSH2 0xED3 DUP2 PUSH2 0xC09 JUMP JUMPDEST DUP3 MSTORE POP POP JUMP JUMPDEST PUSH1 0x0 PUSH1 0x20 DUP3 ADD SWAP1 POP PUSH2 0xEEE PUSH1 0x0 DUP4 ADD DUP5 PUSH2 0xECA JUMP JUMPDEST SWAP3 SWAP2 POP POP JUMP JUMPDEST PUSH2 0xEFD DUP2 PUSH2 0xDDF JUMP JUMPDEST DUP3 MSTORE POP POP JUMP JUMPDEST PUSH1 0x0 PUSH1 0xC0 DUP3 ADD SWAP1 POP DUP2 DUP2 SUB PUSH1 0x0 DUP4 ADD MSTORE PUSH2 0xF1D DUP2 DUP10 PUSH2 0xB8E JUMP JUMPDEST SWAP1 POP PUSH2 0xF2C PUSH1 0x20 DUP4 ADD DUP9 PUSH2 0xEA0 JUMP JUMPDEST PUSH2 0xF39 PUSH1 0x40 DUP4 ADD DUP8 PUSH2 0xEF4 JUMP JUMPDEST PUSH2 0xF46 PUSH1 0x60 DUP4 ADD DUP7 PUSH2 0xEA0 JUMP JUMPDEST PUSH2 0xF53 PUSH1 0x80 DUP4 ADD DUP6 PUSH2 0xC80 JUMP JUMPDEST PUSH2 0xF60 PUSH1 0xA0 DUP4 ADD DUP5 PUSH2 0xEA0 JUMP JUMPDEST SWAP8 SWAP7 POP POP POP POP POP POP POP JUMP JUMPDEST PUSH1 0x0 PUSH1 0xC0 DUP3 ADD SWAP1 POP DUP2 DUP2 SUB PUSH1 0x0 DUP4 ADD MSTORE PUSH2 0xF85 DUP2 DUP10 PUSH2 0xB8E JUMP JUMPDEST SWAP1 POP PUSH2 0xF94 PUSH1 0x20 DUP4 ADD DUP9 PUSH2 0xEA0 JUMP JUMPDEST PUSH2 0xFA1 PUSH1 0x40 DUP4 ADD DUP8 PUSH2 0xEA0 JUMP JUMPDEST PUSH2 0xFAE PUSH1 0x60 DUP4 ADD DUP7 PUSH2 0xEA0 JUMP JUMPDEST PUSH2 0xFBB PUSH1 0x80 DUP4 ADD DUP6 PUSH2 0xEA0 JUMP JUMPDEST PUSH2 0xFC8 PUSH1 0xA0 DUP4 ADD DUP5 PUSH2 0xECA JUMP JUMPDEST SWAP8 SWAP7 POP POP POP POP POP POP POP JUMP JUMPDEST PUSH32 0x4E487B7100000000000000000000000000000000000000000000000000000000 PUSH1 0x0 MSTORE PUSH1 0x32 PUSH1 0x4 MSTORE PUSH1 0x24 PUSH1 0x0 REVERT JUMPDEST PUSH32 0x4E487B7100000000000000000000000000000000000000000000000000000000 PUSH1 0x0 MSTORE PUSH1 0x11 PUSH1 0x4 MSTORE PUSH1 0x24 PUSH1 0x0 REVERT JUMPDEST PUSH1 0x0 PUSH2 0x103C DUP3 PUSH2 0xACB JUMP JUMPDEST SWAP2 POP PUSH2 0x1047 DUP4 PUSH2 0xACB JUMP JUMPDEST SWAP3 POP DUP2 PUSH32 0xFFFFFFFFFFFFFFFFFFFFFFFFFFFFFFFFFFFFFFFFFFFFFFFFFFFFFFFFFFFFFFFF DIV DUP4 GT DUP3 ISZERO ISZERO AND ISZERO PUSH2 0x1080 JUMPI PUSH2 0x107F PUSH2 0x1002 JUMP JUMPDEST JUMPDEST DUP3 DUP3 MUL SWAP1 POP SWAP3 SWAP2 POP POP JUMP JUMPDEST PUSH32 0x4E487B7100000000000000000000000000000000000000000000000000000000 PUSH1 0x0 MSTORE PUSH1 0x12 PUSH1 0x4 MSTORE PUSH1 0x24 PUSH1 0x0 REVERT JUMPDEST PUSH1 0x0 PUSH2 0x10C5 DUP3 PUSH2 0xACB JUMP JUMPDEST SWAP2 POP PUSH2 0x10D0 DUP4 PUSH2 0xACB JUMP JUMPDEST SWAP3 POP DUP3 PUSH2 0x10E0 JUMPI PUSH2 0x10DF PUSH2 0x108B JUMP JUMPDEST JUMPDEST DUP3 DUP3 DIV SWAP1 POP SWAP3 SWAP2 POP POP JUMP JUMPDEST PUSH32 0x4E487B7100000000000000000000000000000000000000000000000000000000 PUSH1 0x0 MSTORE PUSH1 0x22 PUSH1 0x4 MSTORE PUSH1 0x24 PUSH1 0x0 REVERT JUMPDEST PUSH1 0x0 PUSH1 0x2 DUP3 DIV SWAP1 POP PUSH1 0x1 DUP3 AND DUP1 PUSH2 0x1132 JUMPI PUSH1 0x7F DUP3 AND SWAP2 POP JUMPDEST PUSH1 0x20 DUP3 LT DUP2 SUB PUSH2 0x1145 JUMPI PUSH2 0x1144 PUSH2 0x10EB JUMP JUMPDEST JUMPDEST POP SWAP2 SWAP1 POP JUMP JUMPDEST PUSH1 0x0 PUSH2 0x1156 DUP3 PUSH2 0xACB JUMP JUMPDEST SWAP2 POP PUSH32 0xFFFFFFFFFFFFFFFFFFFFFFFFFFFFFFFFFFFFFFFFFFFFFFFFFFFFFFFFFFFFFFFF DUP3 SUB PUSH2 0x1188 JUMPI PUSH2 0x1187 PUSH2 0x1002 JUMP JUMPDEST JUMPDEST PUSH1 0x1 DUP3 ADD SWAP1 POP SWAP2 SWAP1 POP JUMP INVALID LOG2 PUSH5 0x6970667358 0x22 SLT KECCAK256 0xE4 0x1E SIGNEXTEND DIFFICULTY DUP9 0xD3 0xB8 0x26 DUP5 0xA5 EXP 0x23 CHAINID 0xC CALLVALUE 0xA7 0x2A RETURN 0xBA DUP3 PUSH25 0xFA370B6C4E184C6D4343B164736F6C634300080D0033A26469 PUSH17 0x66735822122086F20ADE6CA6A920E436CC PUSH25 0x293314EBE0D52327971E8C81FC3EB2D9EC1CD95664736F6C63 NUMBER STOP ADDMOD 0xD STOP CALLER "},"gasEstimates":{"creation":{"codeDepositCost":"1743600","executionCost":"1834","totalCost":"1745434"},"external":{"campaignNames(uint256)":"infinite","createCampaign(uint256,string)":"infinite","deployedCampaigns(uint256)":"4934","getCampaignNames()":"infinite","getDeployedCampaigns()":"infinite"}},"methodIdentifiers":{"campaignNames(uint256)":"634a321d","createCampaign(uint256,string)":"4220d656","deployedCampaigns(uint256)":"339d50a5","getCampaignNames()":"9e4ed4d1","getDeployedCampaigns()":"4acb9d4f"}},"storageLayout":{"storage":[{"astId":4,"contract":"Campaign.sol:CampaignFactory","label":"deployedCampaigns","offset":0,"slot":"0","type":"t_array(t_address)dyn_storage"},{"astId":7,"contract":"Campaign.sol:CampaignFactory","label":"campaignNames","offset":0,"slot":"1","type":"t_array(t_string_storage)dyn_storage"}],"types":{"t_address":{"encoding":"inplace","label":"address","numberOfBytes":"20"},"t_array(t_address)dyn_storage":{"base":"t_address","encoding":"dynamic_array","label":"address[]","numberOfBytes":"32"},"t_array(t_string_storage)dyn_storage":{"base":"t_string_storage","encoding":"dynamic_array","label":"string[]","numberOfBytes":"32"},"t_string_storage":{"encoding":"bytes","label":"string","numberOfBytes":"32"}}},"userdoc":{"kind":"user","methods":{},"version":1}}